:020000040800F2
:100000007012002001010008090100080B0100081E
:100010000D0100080F010008110100080000000098
:1000200000000000000000000000000013010008B4
:10003000150100080000000017010008A9200008B1
:100040001B0100081B0100081B0100081B01000820
:100050001B0100081B0100081B0100081B01000810
:100060001B0100081B0100081B0100081B01000800
:100070001B0100081B0100081B0100081B010008F0
:100080001B0100081B0100081B0100081B010008E0
:100090001B0100081B0100081B010008DD120008FD
:1000A0001B0100081B0100081B0100081B010008C0
:1000B0001B0100081B0100081B0100081B010008B0
:1000C0001B0100081B0100081B0100081B010008A0
:1000D000751D0008992700081B0100082D2800083D
:1000E000211200081B0100081B010008DFF80CD0DA
:1000F00000F08CFD00480047719A00087012002043
:100100000648804706480047FEE7FEE7FEE7FEE7B1
:10011000FEE7FEE7FEE7FEE7FEE7FEE7B9200008A0
:10012000ED00000840EA01039B0703D009E008C97D
:10013000121F08C0042AFAD203E011F8013B00F8AC
:10014000013B521EF9D27047034611F8012B00F80B
:10015000012B002AF9D118467047F0B480EA010259
:10016000D40F4200B2EB410F02D2024608461146BC
:100170004A0042D0C30DDDB2C1F3C752AD1A202DE3
:1001800035DAC1F3160141F4000204B15242C5F15F
:10019000200602FA06F12A411044B3EBD05F23D0C7
:1001A000C4B1012DA0EBC35009DCF0BC4FF00042FC
:1001B00002EAC352DBB200F5000000F0D8BB4000F9
:1001C00000F1807000EBC350A0F1807040EAD17064
:1001D000490009E0490841EAC071A0EBC35000F5AD
:1001E0000000400800EBC350F0BC00F0B7BB614218
:1001F000012202EB4101001BF6E7F0BC704781F0E1
:100200000041AAE780F00040A7E780EA010210B5AC
:1002100002F00043400022D04A001FD0010E01EB43
:100220001261C0F35600C2F3560240F4000042F4DB
:100230000002A0FB022000047F39140400D0401CFF
:1002400050EA124001D44000491EC2B20C0604EB31
:10025000D010401C4008802A02D003E0002010BDCE
:1002600020F00100002900DA0020184310BD30B44E
:1002700080EA010202F0004530F0004221F0004027
:1002800013D090B1C30DD40DC2F31601C0F3160004
:10029000E41A41F4000140F400027D34914201D39C
:1002A000641C00E04900002C02DA30BC00207047DA
:1002B0004FF400000023914201D3891A0343400800
:1002C0004FEA4101F7D151B1914202D14FF00041C3
:1002D00005E002D24FF0010101E06FF0010103EBF4
:1002E000C450284430BC00F039BB2DE9FE4F804695
:1002F00081EA0300C00F0C46009021F0004123F07A
:100300000045B8EB0200A94105D24046214690467F
:100310001C460B46024623F00040104347D0270DF1
:10032000C7F30A00C3F30A510290401A0190402813
:100330006BDAC3F3130040F4801B0098924620B19F
:100340000023D2EB030A63EB0B0B01985946C0F173
:100350004002504600F083FA06460D465046594684
:10036000019A00F09BFA10EB08006141002487EA33
:10037000115284EAE7731A4340D0009A62B3019A9B
:10038000012A4FEA075215DC001B61EB02014FF016
:10039000004202EA0752CDE90042001C41F58011FB
:1003A00032462B4600F020FB03B0BDE8F08F4046FC
:1003B0002146F9E7001B61EB0201001C41F58013A7
:1003C00000185B412018A2F5001747EB030140EA33
:1003D000D570B6196D4111E06D084FEA360645EA51
:1003E000C0754FEA0752001B61EB0201001C41F58A
:1003F000801149084FEA30000019514132462B461E
:1004000003B0BDE8F04F00F0E0BA009801224000D0
:100410000023D0EB020263EBE073009821464FEA21
:10042000E074B8EB000061EB0401E9E783F00043FE
:100430005BE781F0004158E72DE9FE4F81EA0304B4
:1004400004F0004421F0004100944FF0000B23F031
:10045000004350EA01045ED052EA03045BD0C3F3C8
:100460000A54C1F30A552C44A4F2F3340194A0FBBE
:100470000254C1F3130141F48011C3F3130343F495
:10048000801301FB024400FB034E840A970A44EAEE
:10049000815447EA8357A4FB076802958D0A05FB40
:1004A00007854FEA932C04FB0C542705029D4FEA65
:1004B000065847EA1637B5EB08056EEB070C870EB2
:1004C000920E47EA811742EA8312A7FB0201B6EBBC
:1004D0000B0164EB00042B0D43EA0C335E1844EB74
:1004E0001C50DA465146E7FB0201C5F313044FEAFC
:1004F0000B3343EA14534FEA0432019C43EA0603E8
:10050000A4F10C040294009CCDE900B400F06CFA54
:1005100003B0BDE8F08F00200146F9E72DE9F04D6A
:1005200081EA030404F0004B21F0004514464FF02B
:10053000000A23F0004150EA050220D054EA0102EB
:100540001DD0C5F30A570246C5F31303C1F31300C8
:10055000C1F30A5640F4801543F48013A7EB060854
:10056000101BD64608F2FD3873EB050002D308F1E4
:10057000010801E092185B41B8F1000F03DA002096
:100580000146BDE8F08D00204FF4801106468446F8
:100590000EE0171B73EB050705D3121B63EB050376
:1005A00006434CEA010C49084FEA300092185B41BF
:1005B00050EA0107EDD152EA030012D082EA0400AA
:1005C00083EA0501084305D0101BAB4106D2012286
:1005D000002306E000224FF0004302E06FF001022A
:1005E00053101AEB06004CEB085110EB0A0041EBDC
:1005F0000B01BDE8F04D00F0E8B9C10F80EAE070F2
:100600000844CA079623002100F0B1B996230022BE
:10061000114600F0ACB90EB5C10F80EAE070084495
:10062000CA07002140F233438DE80E000A460B460C
:1006300000F0DAF903B000BD0EB540F2334102918B
:100640000021CDE900110A460B4600F0CDF903B0B8
:1006500000BD20F00040C10DC0F3160040F40000C2
:100660007F2901DA00207047962903DCC1F1960149
:10067000C840704796398840704770B5C1F30A5238
:1006800001F000450024C1F3130140F2FF3341F4AF
:1006900080119A4201DA002070BD40F233439A4241
:1006A000A2F2334203DC524200F0E8F800E090404E
:1006B0002C43F1D0404270BDC1F30A5210B5C1F3D2
:1006C000130140F2FF3341F480119A4201DA002015
:1006D00010BD40F233439A42A2F2334203DC52424D
:1006E00000F0CCF810BD904010BD00F0004230F09A
:1006F00000400AD0C10D01F56071C0F3160042EA56
:100700000151C2084007114370470020014670475D
:1007100030B5041E71F1000404DB4FF00044404288
:1007200064EB0101141E73F1000405DB1C464FF05D
:100730000043524263EB04038B4208BF824230BD48
:1007400030B5041E71F1000404DB4FF00044404258
:1007500064EB0101141E73F1000405DB1C464FF02D
:100760000043524263EB0403994208BF904230BDFC
:1007700001F0004330B421F0004150EA010206D0FC
:100780000A0DA2F56072C1F31301002A02DC30BC2D
:1007900000207047440F44EAC104C100E01830BC97
:1007A00000EBC25000F0DAB8002801DBC0F10040D5
:1007B000002901DBC1F1004181427047002801DBC3
:1007C000C0F10040002901DBC1F1004188427047BF
:1007D00030B50B46014600202022012409E021FA11
:1007E00002F59D4205D303FA02F5491B04FA02F50E
:1007F0002844151EA2F10102F1DC30BD2DE9F05FA5
:100800000546002092469B4688460646814640247F
:100810001BE0284641464746224600F02FF8534643
:100820005A46C01A914110D311461846224600F08C
:1008300016F82D1A67EB01084F46224601200021C9
:1008400000F00DF817EB00094E41201EA4F1010441
:10085000DFDC484631462A464346BDE8F09F202A61
:1008600004DB203A00FA02F1002070479140C2F107
:10087000200320FA03F3194390407047202A04DB39
:10088000203A21FA02F00021704721FA02F3D04009
:10089000C2F120029140084319467047202A06DB26
:1008A000CB17203A41FA02F043EAE07306E041FA3E
:1008B00002F3D040C2F1200291400843194670472C
:1008C0000FB4002300B589B00CA900910B996FF00B
:1008D0000042CB601E4B06931E4B07930423CDE9C9
:1008E00001321D4A089202466B46002000F03AFA97
:1008F00009B05DF814FB70B586B006464FF0FF30C6
:100900000091CDE90101002015460C4604903246C5
:10091000694604A8FFF7D4FF02460498211825B1C0
:1009200008B1084600E020462860049800280DD051
:10093000002A02DD0098884208D0081B0094CDE907
:1009400001043246694604A8FFF7BAFF06B070BD3D
:100950009D0F0008BB0F0008310C00080029A8BF3C
:100960007047401C490008BF20F00100704710B4D8
:10097000B0FA80FC00FA0CF050EA010404BF10BC8D
:10098000704749B1CCF1200421FA04F411FA0CF1BA
:1009900018BF012121430843A3EB0C01CB1D4FEAF3
:1009A00000614FEA102042BF002010BC704700EBEE
:1009B000C35010440029A4BF10BC7047401C49001C
:1009C00008BF20F0010010BC704710B5141E73F171
:1009D000000408DA401C41F1000192185B411A43FF
:1009E00001D120F0010010BD2DE9F04D92469B464B
:1009F00011B1B1FA81F202E0B0FA80F220329046F1
:100A0000FFF72DFF04460F4640EA0A0041EA0B01BA
:100A100053465A46084313D0114653EA010019D0F1
:100A2000C8F140025046FFF729FF05460E465046E2
:100A300059464246FFF713FF084305D0012004E062
:100A400020463946BDE8F08D0020054346EAE076B1
:100A50002C4337430A986305E40AA0EB0800002200
:100A6000FD0A44EA47540A3002D500200146E9E76E
:100A7000010510196941DDE9084500196941BDE822
:100A8000F04DA2E770B521F0004303430CD0C1F351
:100A90000A550024D5EB040564EB0403D617AD1A00
:100AA000B34102DB0020014670BD201841EB02512A
:100AB00070BD2DE9F04D00231A461B1A8A4103DB55
:100AC00000200146BDE8F08DC1F30A52C1F31301C5
:100AD00041F480154FF0000BD10702D100186D4191
:100AE000521E0027044640F2FF11384601EB620A0D
:100AF0003E468046024600204FF48011FFF7BEFEBE
:100B0000C2197141BB1846EB0100B4EB030C75EB45
:100B1000000C04D3E41A65EB000517460E462419B1
:100B200008F101006D4180463428E3DDF91946EBF8
:100B30000600091BA84103D24FF0FF32134601E023
:100B4000002213461BEB070046EB0A51BDE8F04DAF
:100B5000FFF73BBF2DE9FE4FC3F30A5701F00045F5
:100B60000024C1F30A56C3F31303C1F3130143F482
:100B7000801312EB020AA64641F48011009543EB64
:100B8000030CA7F1010B16E0B0EB0A0061EB0C01BE
:100B9000071E71F1000707DA4FF00008D0EB0800DC
:100BA00085F0004568EB0101171A73EB0107EBD3E1
:100BB000761E001849415E45F6DA50EA010209D076
:100BC000CDE900E5002213460296FFF70DFF03B0C2
:100BD000BDE8F08F20460099F9E7C1F30A52C1F34E
:100BE000130140F2FF3341F480119A4202DA0020EF
:100BF0000146704740F233439A42A2F2334202DC8C
:100C00005242FFF73BBEFFF72ABE0000064C074DDD
:100C100006E0E06840F0010394E8070098471034CC
:100C2000AC42F6D3FFF766FA60BF000880BF000849
:100C3000C0B24FF4F05100F0D1B900002DE9FF4FE0
:100C4000087883B09946FF2805D0491C2D2804D088
:100C50000024002008E000200BE00124F9E700EB6D
:100C6000800003EB4000491C0B78FF2BF7D104B147
:100C7000404200230293147819461D462D2C01D0C2
:100C80002B2C04D1521C2D2C13D000240294AA46E4
:100C90001478FF2C0FD00A25A3FB057801FB0581F2
:100CA0004FF0000C03FB0C11521CE3194AEB01013D
:100CB000EEE70124EAE7814453EA010002D019F586
:100CC000C87F06DA03980021C0E9001107B0BDE82B
:100CD000F08F0025AE4E2F46DFF8B882184600F0A0
:100CE00091F9CDE90001B9F1000002DAC9F100047F
:100CF00000E004460023A74A1AEB030B42EB045A18
:100D000012E0E00707D02A46334638464146FFF74F
:100D100093FB074688462A46334610461946FFF796
:100D20008BFB05460E466410002CEAD1DDE900017C
:100D3000B9F1000F5A46534606DAFFF7EFFB3A4681
:100D40004346FFF7EBFB05E0FFF776FB3A464346E9
:100D5000FFF772FB029A0AB181F00041039AC2E9DF
:100D60000001B3E72DE9FF4F1F468DB0D7E90146DB
:100D70004FF0FF382E2045464FF000090B90B9691F
:100D80006D1C0E988847396A824688470028F6D13C
:100D9000BAF1FF3F0AD024F4D064002E11DDBAF17D
:100DA0002B0F08D0BAF12D0F0BD102E0404611B045
:100DB0008DE744F48064B9696D1C0E9888478246BB
:100DC000761E6946600501D52D2000E02B208DF8A8
:100DD000000001F1010B0DF1200809E0B9696D1C5B
:100DE0000E98884782460F9844F40074761E05607A
:100DF000002E02DDBAF1300FF0D00B998A453ED1BA
:100E000044F0800406E00F99681CA9F1010944F43C
:100E100000740860B9696D1C761E0E98884782467A
:100E20003028F0D02BE00B998A4505D1200603D459
:100E300044F08004761E18E0504602F095FA08B39C
:100E40000DF11301761E44F400748B4508D2AAF10B
:100E500030000BF8010B200607D5A9F1010003E0D3
:100E6000200602D409F101008146A00502D50F99A0
:100E7000681C0860B9696D1C0E9888478246002E70
:100E8000D1DC53E0002E51DDBAF1650F02D0BAF18A
:100E9000450F4BD1A00549D5B9696D1C24F44074A8
:100EA000761E0E9888478246002E0CDD2B2804D033
:100EB000BAF12D0F07D144F48074B9696D1C0E98F6
:100EC00088478246761EE00501D52D2100E02B21C2
:100ED00008F8011BCDF82C8021E00DF12901761EC8
:100EE00044F4007488450CD2AAF1300010F0FF00E1
:100EF00088F8000002D10B99884509D908F101084A
:100F000006E0E00501D5244801E042F20F70814679
:100F1000B9696D1C0E98884782460F980560002EAF
:100F200004DD504602F020FA0028D6D1F9690E9867
:100F30008847FF208BF8000088F80000002006900A
:100F400007904B466A4608A906A8FFF777FEA0055A
:100F500002D46FF001002AE714F0240F0AD0E00752
:100F600014D1DDE906123868031D3B600068C0E952
:100F700000120BE0DDE90601FFF7FAFB0146E0078E
:100F800004D13868021D3A600068016028460EE707
:100F9000000014400000F03FF1D8FFFF426842B16A
:100FA000016811F8013B23B1521EC0E90012184636
:100FB00070470121C160881E704742685AB1C368FA
:100FC000016843B983688B4205D0491E521CC0E9B1
:100FD0000012002070474FF0FF3070477F2801D982
:100FE000002208E0064A02EB5002C007127800D146
:100FF000120902F00F0201209040084070470000E3
:1010000020BF00080EB540F2334202920022CDE923
:1010100000221346FFF7E8FC03B000BD70B58C1842
:1010200010F8015B15F0070301D110F8013B2A11FC
:1010300006D110F8012B03E010F8016B01F8016BE9
:101040005B1EF9D12B0705D40023521E0DD401F8E5
:10105000013BFAE710F8013BCB1A921C03E013F8AE
:10106000015B01F8015B521EF9D5A142D8D30020E3
:1010700070BD21B1826842F00102826003E08268A3
:1010800022F001028260704710B504461248844283
:1010900008D10121401500F0F3FD0021601500F09A
:1010A000EFFD17E00D48844208D10121001500F042
:1010B000E7FD0021201500F0E3FD0BE00848844225
:1010C00008D10121C80300F0DBFD00214FF40040EE
:1010D00000F0D6FD10BD00000024014000280140B2
:1010E000003C01400146C86C80B2704702460020B7
:1010F00013680B400BB1012000E000207047000096
:1011000030B502460020002350680F4C20400D7976
:101110000C6844EA05242043506090680B4C204042
:10112000D1E902542C434D7944EA450420439060B0
:10113000D06A20F470000C7C641EE4B2234340EAC1
:101140000350D06230BD0000FFFEF0FFFDF7F1FF5D
:10115000F0B504460D4600200021092D11DDE068A0
:10116000A5F10A0606EB4607072606FA07F18843AB
:10117000A5F10A0606EB460603FA06F10843E0600D
:101180000CE0206905EB4507072606FA07F18843BE
:1011900005EB450603FA06F108432061072A0FDA3A
:1011A000606B561E06EB86071F2606FA07F188437A
:1011B000561E06EB860605FA06F10843606322E038
:1011C0000D2A0FDA206BD61F06EB86071F2606FABC
:1011D00007F18843D61F06EB860605FA06F1084399
:1011E000206310E0E06AA2F10D0606EB86071F26D9
:1011F00006FA07F18843A2F10D0606EB860605FA0A
:1012000006F10843E062F0BD21B1826842F4A00219
:10121000826003E0826822F4A002826070470000CE
:1012200010B54FF4805000F08BF801280ED1000368
:1012300000F080F84FF48051244800F009FA244966
:1012400081F8DA0001F1D8000AF0C4FA4FF48060A6
:1012500000F076F801280ED1800200F06BF84FF410
:1012600080611C4800F0F4F91B4981F8D80001F1B5
:10127000D8000AF0AFFA4FF4006000F061F80128DE
:101280000ED1C00200F056F84FF40061114800F092
:10129000DFF9114981F8D90001F1D8000AF09AFA72
:1012A0004FF4005000F04CF801280ED1400300F03C
:1012B00041F84FF40051054800F0CAF9064981F899
:1012C000DA0001F1D8000AF085FA10BD00080140EB
:1012D000E0080020000C0140A80B002010B54020C1
:1012E00000F02EF801280DD1402000F023F8402115
:1012F0000E4800F0ADF90E4981F8D80001F1D80090
:101300000AF068FA802000F01BF801280DD1802037
:1013100000F010F88021054800F09AF9044981F89E
:10132000D90001F1D8000AF055FA10BD000C0140B7
:10133000E0080020014908607047000014040140E3
:10134000014600200022074B1B6803EA0102054BFF
:1013500014331B680B4013B10AB1012000E00020D8
:101360007047000000040140002123498279002ACF
:101370003AD00A46126803689A430B461A600A1D5F
:10138000126803689A430B1D1A60027911440A68B7
:1013900003681A430A60184A0832126803689A43BD
:1013A000154B08331A601A1D126803689A43124BD2
:1013B0000C331A604279102A0ED11A1F1268036882
:1013C0001A430D4B08331A601A1D126803681A433A
:1013D000094B0C331A600DE00749427911440A6841
:1013E00003681A430A6005E0027911440A68036839
:1013F0009A430A60704700000004014008B50121CB
:101400001D2000F02DFC0121144800F0D9F84FF404
:101410000050ADF8000010208DF8030001208DF879
:10142000020069460E4800F03FF84FF400510C48A6
:1014300000F017F94FF40270ADF8000010208DF89D
:10144000030001208DF802006946064800F02CF8E0
:101450004FF40271034800F004F908BD00023000A7
:1014600000100140000C014030B500228B071C0F1A
:101470000F2303FA04F20B4B8C1053F824309343E0
:10148000084C8D1044F8253023468C1053F8243036
:101490008C07240F00FA04F42343024C8D1044F807
:1014A000253030BD080001402DE9F04102460025FD
:1014B0000026002000230024002791F803C00CF030
:1014C0000F0591F803C00CF0100CBCF1000F03D015
:1014D00091F802C04CEA050591F800C0BCF1000F7C
:1014E00031D0146800202BE04FF0010C0CFA00F30F
:1014F000B1F800C00CEA03069E4220D183004FF0F1
:101500000F0C0CFA03F7BC4305FA03FC4CEA040485
:1015100091F803C0BCF1280F06D14FF0010C0CFA72
:1015200000FCC2F814C00AE091F803C0BCF1480FF7
:1015300005D14FF0010C0CFA00FCC2F810C0401CA1
:101540000828D1D31460B1F800C0BCF1FF0F34DD1E
:10155000546800202EE000F1080C4FF0010808FA52
:101560000CF3B1F800C00CEA03069E4221D18300BF
:101570004FF00F0C0CFA03F7BC4305FA03FC4CEADE
:10158000040491F803C0BCF1280F05D100F1080C48
:1015900008FA0CF8C2F8148091F803C0BCF1480FA7
:1015A00007D100F1080C4FF0010808FA0CF8C2F856
:1015B0001080401C0828CED35460BDE8F0810000A4
:1015C000F0B50A46002300240021002500F0004663
:1015D000B6F1004F02D11D4EF16901E01B4E71685A
:1015E000C0F3034583B200F44016B6F5401F08D19E
:1015F00021F07061154E766826F07066134F7E609C
:1016000012E000F48016B6F5801F06D1032606FA14
:1016100005F4A14341F0706106E0460D360103FA7E
:1016200006F6B14341F0706122B1460D360103FA6E
:1016300006F6314300F00046B6F1004F02D1034EEA
:10164000F16101E0014E7160F0BD00000000014059
:101650000246002093680B400BB1012000E00020FF
:101660007047416170470161704700001FB501215B
:101670000D2000F0F5FA4FF44050ADF80C00482072
:101680008DF80F0001208DF80E0003A94D48FFF7DB
:101690000BFF4FF440514B48FFF7E5FF4FF44C6010
:1016A000ADF80C0048208DF80F0001208DF80E00D9
:1016B00003A94548FFF7F8FE4FF44C614248FFF795
:1016C000D2FF0C210020FFF7CFFE06210120FFF7FB
:1016D000CBFE07210120FFF7C7FE0D210020FFF7F9
:1016E000C3FE0A210120FFF7BFFE0B210120FFF7F7
:1016F000BBFE4FF47350019000208DF808001020BD
:101700008DF8090001208DF80A0001A8FFF72CFED2
:1017100017208DF8000001208DF80300684600F0C6
:1017200033F928208DF8000001208DF80300684669
:1017300000F02AF92548006900EB400041002348E9
:10174000C0F8EC102248006900EB4000410020483E
:10175000C0F8EC1040211C48FFF77AFF1B4981F8C4
:10176000D80080211848FFF773FF184981F8D90085
:101770004FF480511348FFF76BFF144981F8DA00EA
:1017800001F1D8000AF026F84FF480610E48FFF707
:101790005FFF0F4981F8D8004FF400610A48FFF756
:1017A00057FF0B4981F8D9004FF400510548FFF766
:1017B0004FFF074981F8DA0001F1D8000AF00AF872
:1017C0001FBD000000080140000C0140E00800209F
:1017D000A80B002010B504460A4860620021A162EF
:1017E00001F0CAFDE062074820630021616301F057
:1017F000C3FDA0630348E0630021216401F0BCFD48
:10180000606410BDCDCC4C3D2DE9F84F04460D462B
:1018100001F0B2FD8046A168A8EB0100FEF7F6FEDC
:1018200082461B49FEF7F1FC8146C4F8088000217E
:101830004846FEF7B9FF02D2DFF8589008E0164993
:101840004846FEF7BBFF03D265602846BDE8F88F27
:1018500049462068FEF781FC824651462068FEF723
:1018600006FD064631464FF07E50FEF7C8FC834623
:101870002946FEF7CAFC824630466168FEF7C5FC81
:1018800051460090FEF769FC074667603846DDE781
:10189000BD3786356F12833A9A99993E10B5044642
:1018A000211D17A001F0DAF8D4E90210FEF786FF37
:1018B00001D2A068E060A168A165A168E16794F821
:1018C000140118B9A020A168015102E0A020A1696B
:1018D0000151C420616901516079312805D14FF46B
:1018E00000710A48FFF7BFFE03E008210748FFF731
:1018F000BAFE01202060211D05A001F0AFF810BD47
:1019000025733A20496E69740D0A0000000C0140ED
:1019100025733A20456E61626C6520647269766554
:10192000722E0D0A0000000070B504460D461646E2
:1019300000212846FEF738FF03D0C4F8185184F878
:101940001661204602F0A8FB204607F02DFCC4F8E3
:101950004001322007F034FB204609F0E5FDC4F8D1
:101960002401052007F02CFB204609F0C3FDC4F834
:101970001C0194F81501022802D1D4F81C01206240
:10198000C82007F01DFB70BD70B5002100230F2299
:10199000C47804B3154C246804F4E064C4F5E0642E
:1019A000210AC1F10403CA40447804FA03F184789F
:1019B0001440214309010E4C0678A155047804F027
:1019C0001F050124AC4005786D11AD0005F1E0253F
:1019D000C5F8004109E0047804F01F050124AC407B
:1019E000044D0678761145F8264070BD0CED00E0F8
:1019F00000E400E080E100E010B504464FF07C50C8
:101A0000C4F89000002194200151982001519C209D
:101A10000151A4200151A8200151AC20015101F035
:101A2000ABFCB02108511948C4F8B4000021B8201B
:101A30000151BC200151C0200151C8200151CC20CE
:101A40000151D020015101F097FCD42108514FF0F1
:101A50007C50A0640021E16421656165E165216637
:101A6000616601F089FCA0664FF07C50E0660021C1
:101A700021676167A167802001518420015188207E
:101A8000015101F079FC8C21085110BD0000A041EA
:101A90002DE9F04F85B004460F4601F06DFC8146FC
:101AA000216AA9EB0100FEF7B1FD54490390FEF74E
:101AB000ACFB8246C4F8209000215046FEF774FE2D
:101AC00009D95046FEF711FE00224D4BCDE9020127
:101AD000FEF736FE01D2DFF82CA139462068FEF76A
:101AE00094FB049038466169FEF737FB029051463B
:101AF0006068FEF78AFB4FF07C510090FEF785FB93
:101B000001900299FEF781FB0390E169FEF725FB46
:101B10000546206980F0004029460390FEF74EFEFE
:101B200003D2206980F0004007E028462169FEF7D3
:101B300045FE01D2206900E0284605463846616925
:101B4000FEF75DFB0290A168FEF75FFB5146039034
:101B5000FEF78DFB834629460498FEF7FEFA5946A8
:101B60000390FEF7FAFA0646206980F000403146FD
:101B70000390FEF723FE03D2206980F0004007E0C7
:101B800030462169FEF71AFE01D2206900E0304696
:101B900006460021E068FEF711FE28D23046A16912
:101BA000FEF72DFB51460390FEF761FB8046404651
:101BB000E168FEF703FE09D25146E068FEF725FB17
:101BC0000390A169FEF7C9FA064610E0E06880F0CC
:101BD000004041460390FEF7F1FD08D25146E0680F
:101BE000FEF713FB0390A169FEF70CFB0646E561C7
:101BF000A6616761304605B0BDE8F08FBD37863518
:101C00000000E03F6F12833A01460020034A50680B
:101C100020F440400843506070470000001002402C
:101C200029B1064AD2690243044BDA6104E0034A4F
:101C3000D2698243014BDA61704700000010024014
:101C400029B1064A12690243044B1A6104E0034AAF
:101C500012698243014B1A61704700000010024074
:101C600029B1064A92690243044B9A6104E0034A8F
:101C700092698243014B9A61704700000010024054
:101C800029B1064AD2680243044BDA6004E0034AF1
:101C9000D2688243014BDA607047000000100240B6
:101CA00030B500210022002400232D4D6D6805F081
:101CB0000C0121B1042905D0082923D105E0294DC3
:101CC000056022E0274D05601FE0254D6D6805F495
:101CD0007012234D6D6805F48034022505EB9242A5
:101CE0001CB9214D554305600BE01D4D6D6805F491
:101CF00000351DB11C4D5543056002E0194D55439B
:101D0000056002E0174D056000BF00BF144D6D680F
:101D100005F0F0010909154D6B5C0568DD40456073
:101D20000F4D6D6805F4E061090A104D6B5C456864
:101D3000DD4085600A4D6D6805F46051C90A0B4DA0
:101D40006B5C4568DD40C560054D6D6805F440413C
:101D5000890B074D6B5CC568B5FBF3F5056130BDBC
:101D60000010024000127A0000093D00000000202F
:101D70001000002010B526A000F070FE60212A4857
:101D800000F0D0F8002842D0274800F0F5F8C4B29F
:101D90002146254800F0F3F82448008800F400406C
:101DA000F8B92248008800F4804090B10A2C03D092
:101DB00000201E49088026E01C48008840F40040AE
:101DC0001A49088000200988C1F30D01184A5054AF
:101DD00019E00D2C06D11548008840F480401349C5
:101DE000088010E011480088C0F30D0010490C5421
:101DF0000E480088401C0D49088008460088FF28CE
:101E000001DD002008806021074800F081F810BD46
:101E1000547970655F616E676C655F6F70656E6C3D
:101E20006F6F70210D0A0000003800402000002074
:101E3000C005002000B587B001210920FFF710FF81
:101E400001218803FFF7ECFE24208DF8000000201C
:101E50008DF8010001208DF802008DF8030068461E
:101E6000FFF792FD4FF42040ADF8180004208DF8E4
:101E70001B0006A91E48FFF717FB4FF48040ADF882
:101E8000180018208DF81B0003208DF81A0006A9F1
:101E90001748FFF709FB4FF48050ADF818004820B1
:101EA0008DF81B0006A91248FFF7FEFA0020ADF8D6
:101EB0000400ADF80600ADF80800ADF80A00ADF872
:101EC0000C00ADF80E001020ADF810000020ADF8A9
:101ED000120001A9074800F054F8012260210548CA
:101EE00000F03AF80121034800F006F807B000BD01
:101EF000000C01400038004021B1028842F040024D
:101F0000028004E002884FF6BF731A4002807047D7
:101F100010B5002201F00F040123A3409AB2D3436D
:101F2000038110BDF0B502460020002400230025E7
:101F300001F00F070126BE40B4B20B1101269E40EE
:101F4000B3B2968806EA03051689264016B10DB18C
:101F5000012000E00020F0BD30B5002400230C116A
:101F60000125A540ABB21AB185881D43858002E0EA
:101F700085889D43858030BD014688897047818171
:101F8000704710B50022028802F441520B884C8839
:101F900023438C882343CC8823430C8923434C89D7
:101FA00023438C892343CC8923431A430280838BA8
:101FB0004FF2FF74234083830B8A038210BD10B558
:101FC00000F002F810BD00000CB500200190009058
:101FD0003348006840F480303149086000BF304821
:101FE000006800F4003000900198401C01900098B7
:101FF00018B90198B0F5A06FF1D12948006800F434
:10200000003010B10120009001E000200090009805
:10201000012843D12348006840F01000214908609E
:102020000846006820F0030008600846006840F099
:10203000020008601A48406819494860084640682C
:1020400048600846406840F4806048600846406840
:1020500020F47C1048600846406840F4E81048606E
:102060000846006840F08070086000BF0C480068B7
:1020700000F000700028F9D00948406820F0030003
:10208000074948600846406840F00200486000BFC9
:102090000348406800F00C000828F9D10CBD00008E
:1020A000001002400020024002480068401C014924
:1020B000086070471400002010B51348006840F015
:1020C00001001149086008464068104908400E495F
:1020D0004860084600680E4908400B4908600846F9
:1020E000006820F4802008600846406820F4FE0064
:1020F00048604FF41F008860FFF761FF4FF00060F9
:102100000449086010BD0000001002400000FFF804
:10211000FFFFF6FE08ED00E000B589B001210420C4
:10212000FFF79EFD01210846FFF77AFD0720ADF875
:10213000200018208DF8230003208DF8220008A924
:102140002448FFF7B1F94FF0804000F0C9F80020B3
:10215000ADF8140040F29F50ADF818002020ADF803
:1021600016000020ADF81A0005A94FF0804000F0DD
:10217000C1FA6020ADF804000120ADF8060000208F
:10218000ADF80A00ADF80C0001A94FF0804000F056
:102190009BF901A94FF0804000F0ECF901A94FF044
:1021A000804000F047FA0821C80600F0D9F908215C
:1021B000C80600F031FA0821C80600F08BFA0121A8
:1021C000880700F075F80121880700F07DF809B054
:1021D00000BD00000008014000B589B001210C20BD
:1021E000FFF73EFD01210220FFF71AFDC020ADF8E8
:1021F000200018208DF8230003208DF8220008A964
:102200002848FFF751F90120ADF8200018208DF87B
:10221000230003208DF8220008A92348FFF744F982
:10222000224800F05DF80020ADF8140040F29F5005
:10223000ADF818002020ADF816000020ADF81A0007
:1022400005A91A4800F056FA6020ADF804000120F4
:10225000ADF806000020ADF80A00ADF80C0001A9A9
:10226000124800F031F901A9104800F083F901A9E2
:102270000E4800F0DFF908210C4800F071F9082140
:102280000A4800F0C9F90821084800F023FA0121A2
:10229000064800F00DF80121044800F015F809B0D7
:1022A00000BD000000080140000C01400004004097
:1022B00021B1028842F08002028004E002884FF6D9
:1022C0007F731A400280704721B1028842F00102F8
:1022D000028004E002884FF6FE731A4002807047C5
:1022E00010B504466848844208D10121C014FFF7A4
:1022F000C7FC0021E014FFF7C3FCC4E0B4F1804F39
:1023000008D101210846FFF79BFC00210120FFF7BF
:1023100097FCB8E05D48844208D101210220FFF714
:102320008FFC00210220FFF78BFCACE05848844270
:1023300008D101210420FFF783FC00210420FFF7CE
:102340007FFCA0E05348844208D101210820FFF718
:1023500077FC00210820FFF773FC94E04E4884428C
:1023600008D101211020FFF76BFC00211020FFF79E
:1023700067FC88E04948844208D101212020FFF70A
:102380005FFC00212020FFF75BFC7CE04448844296
:1023900008D101214014FFF773FC00216014FFF7FE
:1023A0006FFC70E03F48844209D10121C804FFF767
:1023B00067FC00214FF40020FFF762FC63E03A481D
:1023C000844209D101210805FFF75AFC00214FF48E
:1023D0008010FFF755FC56E03448844209D10121B2
:1023E0004805FFF74DFC00214FF40010FFF748FCB3
:1023F00049E02F48844208D101214020FFF720FC0A
:1024000000214020FFF71CFC3DE02A48844208D10F
:1024100001218020FFF714FC00218020FFF710FC31
:1024200031E02548844208D101218015FFF708FCDE
:102430000021A015FFF704FC25E02048844209D1C3
:1024400001210804FFF71CFC00214FF48030FFF746
:1024500017FC18E01A48844209D101214804FFF70B
:102460000FFC00214FF40030FFF70AFC0BE0154889
:10247000844208D101218804FFF702FC00214FF4B7
:102480008020FFF7FDFB10BD002C01400004004040
:1024900000080040000C0040001000400014004004
:1024A00000340140004C0140005001400054014004
:1024B00000180040001C0040002000400040014087
:1024C000004401400048014070B500240022002370
:1024D000058C4FF6FE7635400584028C8388048B8C
:1024E0004FF68F752C40B51E2C400D882C43751E61
:1024F0002A400D892A434D882A43144DA8420BD007
:10250000134DA84208D0134DA84205D0124DA84241
:1025100002D0124DA84213D14FF6F7752A404D89CB
:102520002A434FF6FB752A408D882A434FF6FF65F4
:102530002B404FF6FF552B408D892B43CD892B43E4
:1025400083800483CD888586028470BD002C014081
:102550000034014000400140004401400048014077
:102560000A460021018B4FF6F7731940114301838E
:102570007047000070B5002400220023058C4FF640
:10258000EF7635400584028C8388048B48F6FF750E
:102590002C404FF6FF452C400D884FF6FF7606EA9B
:1025A00005252C434FF6DF752A400D8906EA0515EF
:1025B0002A434D8806EA05152A43154DA84202D044
:1025C000144DA8421DD14FF67F752A404D894FF614
:1025D000FF7606EA05152A434FF6BF752A408D8817
:1025E00006EA05152A434FF6FF352B404FF2FF75DB
:1025F0002B408D8906EA85052B43CD8906EA8505A2
:102600002B4383800483CD880587028470BD00003E
:10261000002C0140003401400A460021018B4FF29A
:10262000FF7319404FF6FF7303EA02231943018336
:102630007047000070B5002400220023058C4FF67F
:10264000FF6635400584028C8388848B4FF68F7536
:102650002C404FF6FC752C400D882C434FF6FF554F
:102660002A400D894FF6FF7606EA05252A434D8854
:1026700006EA05252A43154DA84202D0144DA8426A
:102680001DD14FF2FF752A404D894FF6FF7606EABD
:1026900005252A434FF6FF352A408D8806EA052591
:1026A0002A434EF6FF752B404DF6FF752B408D8962
:1026B00006EA05152B43CD8906EA05152B438380D1
:1026C0008483CD888587028470BD0000002C014082
:1026D000003401400A460021818B4FF6F773194000
:1026E00011438183704781867047018770478187D6
:1026F00070470000002202881D4B98420ED01D4BEF
:1027000098420BD0B0F1804F08D01B4B984205D0B7
:102710001A4B984202D01A4B984204D14FF68F734D
:102720001A404B881A43174B984207D0164B9842D1
:1027300004D04FF6FF431A40CB881A4302808B889F
:1027400083850B8803850A4B98420BD0094B98422E
:1027500008D00E4B984205D00D4B984202D00D4B3D
:10276000984201D10B7A03860123838270470000CF
:10277000002C0140003401400004004000080040EB
:10278000000C0040001000400014004000400140D8
:10279000004401400048014010B540F22551204856
:1027A00000F09AF800283AD01D4800F051F9C4B260
:1027B0001C48008800F40040F8B91A48008800F46A
:1027C000804090B10A2C03D000201649088026E0F2
:1027D0001448008840F4004012490880002009880D
:1027E000C1F30D01104A505419E00D2C06D10D48CB
:1027F000008840F480400B49088010E009480088B8
:10280000C0F30D0008490C5406480088401C0549D7
:10281000088008460088FF2801DD0020088010BDE0
:10282000003801401C000020C003002010B540F219
:102830002551204800F050F800283AD01D4800F0FB
:1028400007F9C4B21C48008800F40040F8B91A48DF
:10285000008800F4804090B10A2C03D00020164973
:10286000088026E01448008840F40040124908809F
:1028700000200988C1F30D01104A505419E00D2CB5
:1028800006D10D48008840F480400B49088010E0D4
:1028900009480088C0F30D0008490C540648008818
:1028A000401C0549088008460088FF2801DD0020FB
:1028B000088010BD004800401E000020C00300201A
:1028C00021B1828942F40052828104E082894DF66E
:1028D000FF731A408281704770B5024600240023BE
:1028E0000025002040F66A16B14200D100BFC1F3B6
:1028F000421501F01F03012606FA03F3012D02D150
:102900009689334006E0022D02D1168A334001E059
:10291000968A33400C12012606FA04F416883440D5
:1029200013B10CB1012000E0002070BDF0B50346EA
:10293000002400260025002040F66A17B94200D185
:1029400000BF1846C1F3421401F01F06012707FA21
:1029500006F5012C01D10C3004E0022C01D110301D
:1029600000E014301AB107682F43076002E00768DF
:10297000AF430760F0BD00002DE9F04786B0054683
:102980000E460024A24600BFA1460027B08900B130
:1029900000BF2F462C8A4CF6FF700440F088044399
:1029A0002C82AC894EF6F3100440B088318908437C
:1029B000718908430443AC81AC8A4FF6FF40044060
:1029C000B0890443AC8201A8FFF76AF91F48874227
:1029D00002D1DDF810A001E0DDF80CA0A88900F418
:1029E000004040B10AEBCA0000EB0A103168490010
:1029F000B0FBF1F807E00AEBCA0000EB0A103168FF
:102A00008900B0FBF1F86420B8FBF0F00401200964
:102A1000642101FB1089A88900F4004040B13220F4
:102A200000EBC900B0FBF1F000F00700044308E040
:102A3000322000EB09106421B0FBF1F000F00F0030
:102A400004432C8106B0BDE8F08700000038014047
:102A500001468888C0F30800704700000FB4054B9A
:102A600010B503A9044A029800F0CAFC10BC5DF836
:102A700014FB00008D91000818000020490050EA66
:102A8000C12018BF04204A0D18BF40F0010040F2D9
:102A9000FF72B2EB515F08BF40F00200012808BF8F
:102AA0000520704713B5DDE900200AB1012200E0DE
:102AB000002240EA020121F00040024A101AC00F31
:102AC0001CBD00000000F07F2DE9F74F144694B0C4
:102AD0000021C4E902111599079121F00045C94967
:102AE0008D4206DC1599C4E9000117B00020BDE84D
:102AF000F08FC549DFF814A3A9423CDD0799C44E05
:102B00000029C44FC44A1599534619DDFDF78EFCC0
:102B1000554506D0C14AC24BFDF788FCC4E9000107
:102B20000AE04FF0D352BE4BFDF780FC32463B46E5
:102B3000FDF77CFCC4E9000117B00120BDE8F08F6F
:102B4000FDF7D3FB554506D0B44AB54BFDF7CDFB99
:102B5000C4E900010AE04FF0D352B14BFDF7C5FBC9
:102B600032463B46FDF7C1FBC4E9000117B04FF008
:102B7000FF30BDE8F08FAB49A942159978DB21F011
:102B8000004183468846A84AA84BFDF755FC002221
:102B9000A74BFDF7AAFBFDF770FD0990FDF73BFD84
:102BA00006460F469C4A5346FDF746FC43465A46A6
:102BB000FDF73FFC80468A46984A994B3046394695
:102BC000FDF73AFC2A0D01250B9242465346FDF7CC
:102BD00030FC032DC4E9000139D00B98C1F30A5130
:102BE000401A05EB45111139814230DA9148C3464C
:102BF000784400EB0510CDF80CA00C90D0E9002330
:102C000030463946FDF718FC02460B460491069003
:102C100058460399FDF70AFC80468A4602460B4651
:102C200058460399FDF702FC049B069AFDF7FEFB4C
:102C300083460C9803913946D0E902233046FDF7CC
:102C4000FBFB5A46039BFDF7F1FB6D1CBDE70798A4
:102C50000028A2BF099817B0BDE8F08F616881F025
:102C600000416160099817B04042BDE8F08FFFE76E
:102C700084461598C1F31301C0F30A50A0F2F53051
:102C80004FEA601800F01F06C6F1200013900020E4
:102C90000690079041F4801E05206D4676B1664A85
:102CA00008EB00017A4452F8213002EB8101B34075
:102CB0004A68139922FA01F1194305E05F4908EBCC
:102CC0000002794451F82210A1FB0E27A1FB0C133E
:102CD0001A449A4234BF0123002303EB070A05EB91
:102CE0008003D3E901B70F448F4234BF0121002193
:102CF00093448B4411B1934502D903E0934501D22B
:102D0000012100E00021C3E901B7514445F820103A
:102D1000011EA0F10100C1DC0298059F00F10050E6
:102D2000800F12900298DDE903568000FDF773FCD6
:102D3000834628460D91FDF77FFC6FF01D02FDF7DD
:102D4000A1FECDE90E013046FDF776FC6FF03D02A5
:102D5000FDF798FE80468A463846FDF76DFC6FF019
:102D60005D02FDF78FFE0746424653461191FDF77F
:102D7000BCFADDE90E23FDF7B8FA5A460D9BFDF7C4
:102D8000B4FA00250E465A4628460D9BFDF74EFB29
:102D9000DDE90E23FDF74AFB42465346FDF746FBAD
:102DA0003A46119BFDF745FBDFF898A0244A5346AD
:102DB000FDF742FB07468846234A244B3146284606
:102DC000FDF73AFB3A464346FDF78FFA0746884639
:102DD0004FF0A842534631462846FDF72DFB3A46B0
:102DE0004346FDF782FA159A12F0004F04D0129A6A
:102DF00081F0004152421292C4E90001129817B0CA
:102E0000BDE8F08FFB21E93F7CD90240FB21F93F6F
:102E10007370032E8A19A33B000040543163621A79
:102E200061B4D03DFB21394183C8C96D305FE43FB7
:102E30000000E03F3C920000B89100009A91000031
:102E4000182D4454FB21F93D3326A611460B113CA5
:102E50002DE9FF4D21F0004807460C46B8F1795F97
:102E600008DAFDF70AFC002801BF0020324904B04F
:102E7000BDE8F08D3A46234610461946FDF7DCFAC8
:102E8000054602462D480E460B460621784400F0C2
:102E90005DF82A463346FDF7CFFADDE90223824684
:102EA0008B4638462146FDF7C7FA04460F46524680
:102EB0005B4628463146FDF7BFFA22463B46FDF702
:102EC000B5FA07468A464FF0FF3228463146FDF7ED
:102ED000D9FD1B4A90450ADA3A465346FDF7A6FA51
:102EE00004B00022BDE8F04D134BFDF7A2BA154A1D
:102EF0004245A8BFA8F500154FF00004B8BF124D19
:102F000022462B46FDF792FA0646884622462B4675
:102F100000200949FDF78AFA04460D463A46534611
:102F200030464146FDF782FA04B022462B46BDE802
:102F3000F04DFDF77EBA00000000F03F688F000002
:102F40003333D33F0000E93F0000D23F2DE9F04189
:102F50004F1E00EBC7010446D1E9000115461E468D
:102F600037F006020DD02A463346FDF765FA7F1E7C
:102F700004EBC703D3E90023FDF7B7F937F00602E6
:102F8000F1D1022F25D0042F13D0062F18BFBDE892
:102F9000F0812A463346FDF74FFAD4E90A23FDF7BC
:102FA000A4F92A463346FDF747FAD4E90823FDF78A
:102FB0009CF92A463346FDF73FFAD4E90623FDF78C
:102FC00094F92A463346FDF737FAD4E90423FDF78E
:102FD0008CF92A463346FDF72FFAD4E90223FDF790
:102FE00084F92A463346FDF727FAD4E90023BDE8E1
:102FF000F041FDF77AB900002DE9FF4D054621F0BB
:10300000004084B00C46B0F1795F0BDA2846FFF738
:1030100035FD042808BF00F07FF8284608B0214697
:10302000BDE8F08D2A460B461046FDF705FA064628
:103030000F462A462346FDF7FFF9804626488A4672
:1030400032463B4605217844FFF780FF83461098BF
:10305000029160B3214A224B40465146FDF7ECF9FC
:10306000CDE900015A4640465146029BFDF7E4F97E
:1030700082468846DDE906014FF0FF32FDF702FD8A
:1030800052464346FDF7D2F932463B46FDF7D4F9A6
:10309000DDE90623FDF7CAF9DDE90023FDF7C6F9EE
:1030A00008B02A462346BDE8F04DFDF7C2B90B46ED
:1030B0005A4630463946FDF7BFF9084A084BFDF736
:1030C00014F942465346FDF7B7F908B02A4623469D
:1030D000BDE8F04DFDF709B9AE8E000049555555D4
:1030E0005555C5BF0022134610460149FDF716BAD3
:1030F0000000F03F0122FDF7C5BCFDF7F6B8002245
:10310000134610461146FDF709BA40F2013200207D
:103110004FF0E041FDF7B6BC024A00201107FDF771
:10312000B1BC000001FDFFFF0148006870470000CE
:10313000BC03002002E008C8121F08C1002AFAD10F
:1031400070477047002001E001C1121F002AFBD127
:10315000704700000149086070470000BC03002070
:103160002DE9F04706463046FDF7BFFA0746134AF9
:10317000134BFDF7BAF80446FDF7FAFA81464846C4
:10318000FDF7B3FA07460F4A0F4BFDF7D9FA08D2FD
:103190004846FDF7AAFA07460A4A0B4BFDF746F9DF
:1031A00002E04846FDF7A1FA0446FDF7E1FA814640
:1031B000484600F0D7FCBDE8F0870000F4D6435441
:1031C000FB21F93FEA2E4454FB21194070B5044617
:1031D0000D462846FDF711FA06462146FDF715F87B
:1031E00070BD00002DE9FF5F82B00021DDE90430F1
:1031F000020DDDF840B0034318D044F61050A2F29F
:10320000FF3242431514119801281FD0A5EB0B0083
:10321000401C5FEA000A4FF000064E4FDFF838917D
:10322000B046504615D5CAF1000413E011980124A8
:103230004AA3012801D16FEA0B010298119AC0E953
:103240000031C0E9024206B0BDE8F09FCBF10000BA
:10325000DFE704460021404A491842EB0450CDE91B
:10326000001012E0E00707D032463B464046494690
:10327000FDF7E2F88046894632463B46104619463D
:10328000FDF7DAF806460F466410002CEAD1DDE9B6
:103290000401DDE90023BAF1000F06DAFDF7CCF8EE
:1032A00042464B46FDF7C8F805E0FDF737F94246C0
:1032B0004B46FDF733F904460E460022284BFDF736
:1032C0003FFA03D84FF0FF30014607E00022254BBC
:1032D00020463146FDF709F8FDF77FFC102409E090
:1032E000002C0ADB0A220023FDF788FA039B303208
:1032F0001A55641E50EA0102F2D1641C039AC4F10B
:1033000011031444119A012A03D0012208430DD15C
:103310000AE0084304D000204FF0110B119072E72F
:10332000A3EB0B056D1E0DE05B4504DD4FF00002C5
:1033300005F1010504E003DA4FF00002A5F10105F3
:10334000002AECD002981199C0E90231C0E9004589
:1033500079E70000000014400000F03F300000005A
:103360000000F0430000E03F30380A2801D201207D
:10337000704700207047000000BF0A4801684FF006
:10338000E0208269074800688142F6D10648801A29
:103390004823B0FBF3F001EB4103C3EBC11300EB97
:1033A000C300704714000020401901002DE9F047C8
:1033B00006463046FDF799F907460F4A0F4B05F0D0
:1033C0009BFE0446FDF7D4F9814600214846FDF7EF
:1033D000F5F903D84846FDF788F907E04846FDF7B8
:1033E00084F90746044A054BFCF77FFF0446FDF7C6
:1033F000BFF9BDE8F0870000EA2E4454FB211940D4
:103400002DE9FF4F95B09B468946064600250FE201
:10341000252877D100242746F84A0121059400E0A9
:10342000044316F8013F203B01FA03F01042F7D1A4
:1034300030782A2811D06FF02F033078A0F13002B5
:10344000092A16D8059A44F0020402EB820203EB23
:1034500042021044761C0590EFE759F8042B0592C0
:10346000002A03DA504244F40054059044F0020468
:10347000761C30782E2816D116F8010F44F004047B
:103480002A280DD06FF02F023078A0F13003092BDD
:1034900009D807EB870302EB4303C718761CF3E751
:1034A00059F8047B761C30786C280FD006DC4C2849
:1034B00017D068280DD06A2814D104E0742810D0E1
:1034C0007A280FD10DE044F400140AE044F480148B
:1034D00001E044F440147278824202D104F5801471
:1034E000761C761C307866280BD013DC582877D0F1
:1034F00009DC002875D04528F6D04628F4D04728A6
:103500001AD19DE118E0632835D0642879D0652868
:1035100012D195E1702873D008DC6728F1D06928B2
:103520006FD06E280DD06F2806D1B5E073282CD04F
:10353000752875D0782874D05A46179990476D1C15
:1035400075E1C4F30250022809D003280DD0D9F840
:10355000001004280DD00D6009F1040967E1D9F8C5
:103560000010EA17C1E90052F6E7D9F800100D8003
:10357000F2E70D70F0E719F8041B8DF80010002039
:103580008DF80100EA46012003E059F804AB4FF042
:10359000FF3061074FF0000102D40DE008F1010196
:1035A0008846B9420FDA8045F8DB1AF8081000297E
:1035B000F4D108E008F1010188468142FADB1AF8EB
:1035C00008100029F6D105985B46A0EB08072146B4
:1035D0003846179A00F094FA284400EB080507E0F3
:1035E0004DE029E10DE01AF8010B5A461799904772
:1035F000B8F10108F7D25B4621463846179A13E125
:1036000042E00A220092C4F302524FF0000A022A5A
:1036100008D059F804CB032A4FEAEC710AD00DE028
:1036200029E02AE009F1070121F00702F2E802C1CE
:10363000914609E00FFA8CFC4FEAEC71042A03D1A1
:103640004FFA8CFC4FEAEC71002907DA0A46002198
:10365000DCF1000C61EB02012D2202E0220504D511
:103660002B228DF80420012203E0E20701D0202262
:10367000F7E7904659E00A2102E010220DE0102100
:103680004FF0000A00910BE010224FF0000A44F0C6
:1036900004040827009203E008224FF0000A009279
:1036A000C4F30252022A05D059F804CB0021032AA0
:1036B00008D009E009F1070121F00702F2E802C190
:1036C000914605E01FFA8CFC042A01D10CF0FF0C96
:1036D0004FF00008220728D5702806D0009B83F001
:1036E000100353EA0A0305D00EE040228DF80420AF
:1036F000012208E05CEA010206D030228DF80420A5
:103700008DF8050002229046009B83F0080353EADF
:103710000A030AD15CEA010201D1620705D5302211
:103720008DF804204FF001087F1E582804D034A0E3
:1037300003900EA802900DE036A0F9E753466046CC
:10374000009AFDF75BF884460398825C0298401E5D
:10375000029002705CEA0100F0D1029806A9081AF2
:1037600000F1200A600702D524F4803400E001272C
:10377000574502DDA7EB0A0000E0002000EB0A013C
:10378000009005984144401A0590E00306D45B463A
:103790002146179A059800F0B3F90544002706E082
:1037A00001A85A46C05D179990476D1C7F1C47457C
:1037B000F6DBE0030CD55B462146179A059800F02E
:1037C0009FF9054404E030205A46179990476D1C34
:1037D0000099481E00900029F5DC08E00298029943
:1037E0005A460078491C0291179990476D1CBAF10E
:1037F0000001AAF1010AF1DC65E1000009280100DD
:103800003031323334353637383961626364656656
:103810000000000030313233343536373839414218
:10382000434445460000000000F058F90544761C6A
:10383000307800287FF4ECAD19B02846BDE8F08F51
:10384000620700D4062709F1070222F0070CFCE802
:103850000223E14603F000485FEA080C02D00FF2B1
:10386000702C0DE05FEA045C02D50FF2682C07E0D3
:103870005FEAC47C02D00FF2602C01E0AFF2700C62
:103880004FF0FF3823F00043CDF850C065280CD02E
:1038900006DC452809D046281DD047283DD13DE00B
:1038A000662818D067287ED138E00021112F01DB6F
:1038B000112000E0781CCDE9000106A90EA8FFF751
:1038C00091FCDDE90F010E9A03910021009207F1AE
:1038D000010A04914DE04FF000400097CDE901103E
:1038E00006A90EA8FFF77EFCDDE90F0203920E9BEE
:1038F00011990022DDF80CA00093049211B9791CF3
:1039000000EB010AB7EB0A0004D4C0F1FF3007F165
:10391000010A0490AAEB0700019044E0012F00DAAD
:1039200001270021112F01DD112000E03846CDE9EB
:10393000000106A90EA8FFF755FCDDE90F010E9A5C
:103940000391002104910092BA4621070CD40399F7
:10395000514500DA8A46BAF1010F05DD009AAAF155
:103960000101515C302908D0B84202DA10F1040F8D
:1039700006DA0121CDE9011015E0AAF10101E9E71C
:10398000002805DC049901440491AAEB000102E03F
:10399000411C514500DD8A460499401A401C0190A3
:1039A0004FF000400290200704D40198504501DBFD
:1039B000CDF8048000208DF84F0002980DF14F07DC
:1039C000B0F1004F25D02B200E9002984FF0020846
:1039D00000280CDA404202902D200E9007E00A21C8
:1039E0000298FCF7F5FE3031029007F8011DB8F19E
:1039F0000001A8F10108F2DC02980028EFD1791E3D
:103A00000E980870307800F0200040F0450007F86C
:103A1000020D12A8C01B00F107081498007800B12D
:103A2000012000EB0A01019801EBE0710598414487
:103A3000401A401E0590E00306D45B462146179AC3
:103A4000059800F05DF805441498007818B15A46BE
:103A5000179990476D1CE00324D55B462146179AC1
:103A6000059800F04DF805441CE00498002807DB99
:103A7000DDE90301884203DD0098405C179901E00D
:103A8000179930205A469047049805F10105401CCB
:103A900004900198401E019004D12E205A46179997
:103AA00090476D1CBAF10001AAF1010ADDDC05E0C6
:103AB00017F8010B5A46179990476D1CB8F1000191
:103AC000A8F10108F4DC5B462146179A0598ABE69D
:103AD0002D0000002B000000200000002DE9F04127
:103AE000044600251E461746880404D405E03946DE
:103AF0002020B0476D1C641EF9D52846BDE8F08132
:103B00002DE9F041044600251E469046C80301D524
:103B1000302700E02027880404D505E041463846D8
:103B2000B0476D1C641EF9D52846BDE8F081000041
:103B30002DE9F0410446204600F0A2FC0746384635
:103B4000FCF764FD80460649FCF75FFB06464FF034
:103B50008B41FCF78CFB05462846BDE8F081000050
:103B60000000F0422DE9FF5F83465846FCF7BDFD9B
:103B70000446954A954BFCF7CBFD44D25846FCF7DA
:103B8000B4FD934A934BCDE90201FCF755FC804606
:103B900000221346FCF7D4FD12D85846FCF7A5FDC9
:103BA00080468B4A8B4BFCF747FC00228A4BCDE9C1
:103BB0000001FCF79AFBCDE90201FCF75EFD11E084
:103BC0005846FCF792FD824A824BCDE90001FCF792
:103BD00033FC0022804BCDE90201FCF727FC804634
:103BE000FCF74BFD7D4951F820A05046FCF713FD32
:103BF00006467B4A7B4BFCF71FFC0446FCF7B8FDEE
:103C000004B0BDE8F09F5846FCF76FFD0446764AC5
:103C1000764BFCF77DFD44D25846FCF766FD6C4AB6
:103C20006C4BCDE90201FCF707FC804600221346ED
:103C3000FCF786FD12D85846FCF757FD644A654BE1
:103C4000CDE90001FCF7F8FB0022634BCDE902014E
:103C5000FCF74BFB8046FCF710FD11E05846FCF7E3
:103C600044FD5B4A5B4BCDE90001FCF7E5FB00221C
:103C7000594BCDE90201FCF7D9FB8046FCF7FDFC6E
:103C8000C0F5C770554951F820A05046FCF7C3FC59
:103C90000646534A534BFCF7CFFB0446FCF768FD3E
:103CA000AEE75846FCF721FD0446514A514BFCF75C
:103CB0002FFD44D25846FCF718FD454A454BCDE947
:103CC0000201FCF7B9FB804600221346FCF738FDE1
:103CD00012D85846FCF709FD3D4A3E4BCDE900019C
:103CE000FCF7AAFB804600223B4BFCF7FEFACDE92D
:103CF0000201FCF7C2FC11E05846FCF7F6FC344A1E
:103D0000344BCDE90001FCF797FB80460022324B93
:103D1000FCF78CFBCDE90201FCF7AFFCA0F5C77006
:103D20002E4951F820A05046FCF775FC06462C4A57
:103D3000314BFCF781FB0446FCF71AFD60E758465F
:103D4000FCF7D3FC8046224A224BFCF775FB00228D
:103D50001346CDE90201FCF7F3FC12D85846FCF7F4
:103D6000C4FC1B4A1B4BCDE90001FCF765FB8046F8
:103D70000022194BFCF7B9FACDE90201FCF77DFCF2
:103D800011E05846FCF7B1FC8046114A114BFCF794
:103D900053FB0022104BCDE90001FCF747FBCDE9B6
:103DA0000201FCF76AFCC0F547700C4951F820A0ED
:103DB0005046FCF730FC0646094A0F4BFCF73CFB2B
:103DC0000446FCF7D5FC1BE7F4D64354FB21F93F2E
:103DD0009CA223B9FCAB5F400000E03F10B9000893
:103DE0002D431CEBE2361A3FEA2E4454FB210940D6
:103DF000320D337F7CD91240E2361ABF70B50446CB
:103E000025462E460448A0EB660635462946204640
:103E1000FCF7FBF970BD0000865A375F2DE9F04DC5
:103E20000546DFF8388221F000408D4F82B00C4605
:103E3000404520DBA0EB080129430BD0894988428B
:103E400001DC10D17DB102B028462146BDE8F04D1D
:103E5000FFF750B9002CC7BF002001468248394601
:103E600002B0BDE8F08D0120FFF774F902B0BDE8A3
:103E7000F04DFFF744B97D49884244DA7C498142DC
:103E8000A1BF79487B4902B0BDE8F08D2A462346A0
:103E900010461946FCF7D0FA8346024676480E468D
:103EA0000B4606217844FFF751F85A463346FCF793
:103EB000C3FA074671488A465A4633460421784475
:103EC000FFF744F85A463346FCF7B6FA0022434659
:103ED000FCF70BFA02460B4638465146FCF71EFB30
:103EE0002A462346FCF7A8FA654A664BFCF7A1FA76
:103EF0002A462346FCF79DFA02B05B4ABDE8F04D26
:103F00005C4BFCF796BA002C4FF000024BDA4646A9
:103F1000434628462146FCF7E8F94FF0FF32FCF70C
:103F2000B1FD0446024658480D460B46062178442A
:103F3000FFF70CF822462B46FCF77EFA80465348E2
:103F40008A4622462B4604217844FEF7FFFF22468C
:103F50002B46FCF771FA00223346FCF7C6F90646F9
:103F60008B462046294607F047FB04460D4632465D
:103F70005B4640465146FCF7D1FA22462B46FCF7F9
:103F80005BFA3F4A3F4BFCF751FA22462B46FCF7BF
:103F9000ACF90122FCF776FD02B03B46BDE8F04DDE
:103FA000314AFCF746BA2D4B28462146FCF741FA28
:103FB0004FF0FF32FCF766FD05460E4607F01CFB8E
:103FC00000270C4680463A460B46FCF78EF982469F
:103FD0008B463A46234610461946FCF72DFA2A46E8
:103FE0003346FCF726FA52465B46FCF797FA8246C0
:103FF00027488B462A46334606217844FEF7A6FF1B
:104000002A463346FCF718FACDE9000121482A4632
:10401000334604217844FEF799FF2A463346FCF7DD
:104020000BFA00220D4BFCF760F902460B46DDE966
:104030000001FCF773FA42462346FCF7FDF95246AD
:104040005B46FCF752F93A462346FCF74EF902B0BC
:104050000122BDE8F04DFCF715BD00000000F03F67
:10406000FB2109400000F07F182D44540000E03F80
:104070000000603CFB21F93F907D0000A67D000020
:10408000075C143326A6913C067D00001C7D0000D1
:104090003A7C0000507C00002DE9F04F87B00446C8
:1040A000211DA2A0FEF7DAFC94F8160100287DD1AC
:1040B000002521E02846FCF7AEFA8246A04AA14B33
:1040C000FCF7BAF9074600229F4BFCF727FA9F4AF4
:1040D0009F4BCDE90001FCF708F9CDE90201FCF79F
:1040E00047FB81464B4600222046E16806F0E0FF90
:1040F000022004F065FF6D1CB5F5FA7FDADD20467D
:1041000005F052F805904FF4FA7521E02846FCF7C7
:1041100082FA07468A4A8B4BFCF78EF900228A4BBB
:10412000CDE90001FCF7FAF9884A894BCDE9020193
:10413000FCF7DBF88246FCF71BFB81464B4600226E
:104140002046E16806F0B4FF022004F039FF6D1E3E
:10415000002DDBDA204605F027F8049000231A46EC
:104160001946204606F0A4FFC82004F029FF059850
:10417000FCF7BBFA07463A460B4676A0FEF76EFC04
:104180000498FCF7B2FA07463A460B4676A0FEF7CB
:1041900065FCDDE90410FCF732F88246FCF7A5FA6D
:1041A00021F000410746FCF7E3FA00E073E0064621
:1041B000DDE90410FCF7F8FA08D03046FCF795FA70
:1041C00007466E4A6E4BFCF7A3FA15D2211D6DA06F
:1041D000FEF744FC6079312805D14FF40071744832
:1041E000FDF73FFA03E008217148FDF73AFA002095
:1041F000206007B0BDE8F08FDDE90410FCF7D4FAC9
:1042000007D2211D6BA0FEF729FCFF2084F81601C0
:1042100006E0211D6EA0FEF721FC012084F81601A6
:10422000211D72A0FEF71AFC2069FCF7E6F9314661
:104230000290FBF7EAFF0390FCF757FA0746404A63
:10424000404BFCF7F3F821F00041824600226B4B13
:10425000FCF776FA1BD26AA0FEF700FC3046FCF7AA
:1042600044FA02460B46CDE9020135483549FCF7D0
:1042700055F907460022614BFCF737F88246FCF7F8
:10428000FCF9206164A02169FEF7E8FB07E064A067
:10429000FEF7E4FB03E0211D63A0FEF7DFFB002136
:1042A000D4F81801FCF780FA39D1654B002220467A
:1042B000E16806F0FDFE4FF42F7004F081FE204609
:1042C00004F072FF824694F91601FCF796F98346D2
:1042D0005146FBF79AFF80462169FEF777FF0746B4
:1042E000FFF764F8C4F81801142004F069FE211DDA
:1042F00054A0FEF7B3FBD4F81801FCF7F6F9074613
:104300003A460B4655A0FEF7A9FB00231A4619466C
:10431000204606F0CDFEC82004F052FE03E0211D29
:1043200050A0FEF79BFB012063E7000025733A20B5
:10433000416C69676E2073656E736F722E0D0A0093
:10434000EA2E4454FB21194000407F40320D337F58
:104350007CD912406D69645F616E676C653D252E86
:1043600034660D0A00000000656E645F616E676C64
:10437000653D252E34660D0A000000007B14AE4713
:10438000E17A843F25733A204661696C6564207444
:104390006F206E6F74696365206D6F76656D656EF5
:1043A00074206C6F6F703232322E0D0A00000000E4
:1043B000000C014025733A2073656E736F725F6461
:1043C0006972656374696F6E3D3D4343570D0A0022
:1043D00025733A2073656E736F725F6469726563EB
:1043E00074696F6E3D3D43570D0A000025733A20F6
:1043F000505020636865636B3A2000000000E03F86
:104400006661696C202D20657374696D61746564E3
:104410002070703A0000000025640D0A00000000C2
:104420004F4B210D0A00000025733A20536B697031
:10443000206469722063616C69622E0D0A000000BD
:10444000E4CB964025733A205A65726F20656C65FF
:10445000632E20616E676C653A000000252E34667D
:104460000D0A000025733A20536B6970206F666651
:104470007365742063616C69622E0D0A0000000090
:1044800010B504460723012221460948FCF760FEC7
:1044900001210748FCF7B8FE00BF02210448FCF7E1
:1044A00025FE0028F9D00248FCF71CFE10BD0000D4
:1044B000002401402DE9FC5F04460D46FEF75CFF39
:1044C0008146E169A9EB0100FCF7A0F807463949EC
:1044D000FBF79BFE8246C4F81C9000215046FCF777
:1044E00063F905D94FF07C515046FCF767F901D2CA
:1044F000DFF8C4A051466069FBF787FE8346FCF7EE
:10450000F4F8074688462846D4F81C11FBF777FED6
:104510008346FCF7EAF821F000413A464346CDE9EC
:104520000001FCF70DF92FD22846D4F81C11FBF737
:1045300066FE00210090FCF737F902D24FF0FF3001
:104540000CE02846D4F81C11FBF759FE002100901E
:10455000FCF734F901D2012000E000200190FCF7C3
:104560004CF883466169FBF750FE80465146FBF7E5
:104570004CFE0746D4F81C11FBF7EFFDC4F81C01F4
:104580006069C4F8240104E0C4F81C510020C4F898
:104590002401A6682169D4F81C01FEF717FE07461E
:1045A0003B4600223146204606F082FD3046BDE8FB
:1045B000FC9F0000BD3786356F12833A2DE9F04D20
:1045C0008D4F21F0004A86B005460C46BA452ADBDD
:1045D000AAEB070028430AD08848824501DC1AD19B
:1045E000CDB106B02846BDE8F04DFEF783BD844A44
:1045F000844B2846FBF720FF07460E46824A834B32
:1046000028462146FBF718FF06B03A463346BDE878
:10461000F04DFBF76ABE0120FEF79CFD06B0BDE839
:10462000F04DFEF76CBD7A48824542DABAF1795F07
:104630000BDA2846FEF722FA042808BFFEF76CFDC5
:10464000284606B02146BDE8F08D2A460B461046A6
:10465000FBF7F2FE834602466E480E460B460621E5
:104660007844FEF773FC5A463346FBF7E5FE804676
:1046700069488A465A46334604217844FEF766FC68
:104680005A463346FBF7D8FE00223B46FBF72DFE89
:1046900002460B4640465146FBF740FF2A4623465A
:1046A000FBF7CAFE06B02A462346BDE8F04DFBF7ED
:1046B0001CBE284624F0004100223D463B46FBF745
:1046C000B8FE4FF0FF32FCF7DDF9064602465348CC
:1046D0000F460B4606217844FEF738FC32463B462F
:1046E000FBF7AAFECDE900014D4832463B460421C6
:1046F0007844FEF72BFC32463B46FBF79DFE00223A
:104700002B46FBF7F2FD834602913046394606F010
:1047100073FF804643480D46504517DCDDE9000134
:104720005A46029BFBF7FAFE42462B46FBF784FEF5
:1047300042462B46FBF7D9FD0122FCF7A3F9304A8C
:10474000304BFBF773FE304A304B4CE04FF0000A21
:1047500052460B464046FBF7C8FDCDE903105246D2
:104760002B4610461946FBF767FE32463B46FBF7E1
:1047700060FEDDE90332FBF7D1FE06460F46DDE9B8
:1047800000015A46029BFBF7C9FE834600910122B5
:1047900030463946FCF776F9194A1A4BFBF749FEC1
:1047A00006460F46012240462946FCF76BF95A4659
:1047B000009BFBF741FE32463B46FBF737FE0646C1
:1047C0000F46012250462946FCF75CF90E4DDFF8F2
:1047D00058802A464346FBF72CFE32463B46FBF701
:1047E00028FE2A464346FBF724FE002CD8BF81F062
:1047F000004106B0BDE8F08D0000F03F0000F07F02
:10480000075C143326A6913C182D4454FB21F93F34
:104810000000E03F247600003A760000AE7500000C
:10482000C47500003333EF3FFB21E93F2DE9F84F1A
:1048300004460D4621F0004000917349814211DC8D
:104840007249884201DC06D12CB120462946BDE8D8
:10485000F84FFEF74FBC6E48002DCCBF6D496E4936
:10486000BDE8F88F6D49814211DD6D498142D8BFA5
:104870004FF0FF366DDD20462946FEF7FFF804288D
:1048800008BFFEF749FC20462946BDE8F88F654978
:10489000654F25F00045814233DD6449814219DDD1
:1048A000002632464FF0804320462946FBF71DFD87
:1048B00080468A46012220462946FCF7E3F800227A
:1048C0003B46FBF7B3FD42465346FBF727FE044643
:1048D0000D463EE001260022BA463B4620462946C8
:1048E000FBF703FD80460F4600225346204629462B
:1048F000FBF79CFD42463B46FBF710FE04460D4687
:1049000027E04B4981421BDDDFF828A10226002267
:10491000534620462946FBF78FFD00223B46FBF716
:10492000E4FC80460F460022534620462946FBF70A
:104930007DFD42463B46FBF7F1FD04460D4608E08F
:10494000032622462B4600203B49FBF7E7FD0446A1
:104950000D4622462B4610461946FBF76DFD8B4649
:10496000824602460B46FBF767FD07460246334880
:1049700088460B4606217844FEF7E8FA52465B4625
:10498000FBF75AFD82462E488B463A4643460521A0
:104990007844FEF7DBFA3A464346FBF74DFD024604
:1049A0000B46002E504659460CDAFBF79EFC224679
:1049B0002B46FBF741FD01B022462B46BDE8F04FE8
:1049C000FBF737BDFBF791FC22462B46FBF734FD86
:1049D0001C4A7A4402EBC603D3E90023FBF726FD09
:1049E00022462B46FBF722FD174A7A4402EBC60308
:1049F000D3E90023FBF71DFD009A002AB8BF81F020
:104A00000041BDE8F88F0000000010440000F07F76
:104A1000182D4454FB21F93FFB21F9BF0000DC3F76
:104A20000000203E0000F33F0000F03F0000E63FA2
:104A3000008003400000F83F0000F0BF4E7400000B
:104A40000C740000AA730000727300002DE9F04D91
:104A50009446CCF1000423F000464CEA0404524F83
:104A600046EAD4749A46884621F00042BC4206D8F1
:104A7000454240EA050442EAD474BC4204D9BDE888
:104A8000F04D6246FEF739BBAAF14055A5F17F65AE
:104A900055EA0C040BD0022404EAAA74434DDFF853
:104AA00010E144EAD87452EA000B04D00CE0BDE8EF
:104AB000F04DFFF7BBBE002C14BF012CBDE8F08DFC
:104AC000022C30D0032C32D056EA0C0B0AD0BE4256
:104AD00020D1BA4209D126F0804622F080423346E6
:104AE000114617E000291ADB25E0DFF8C8B0FB44C7
:104AF000002C04BFDBE90001BDE8F08D012C02BFF2
:104B0000DBE9000181F00041BDE8F08D022C0AD004
:104B1000032C0CD0BA4212D1B8F1000F0BDA2348A3
:104B20002549BDE8F08D28462449BDE8F08D28468A
:104B30007146BDE8F08D1D482149BDE8F08D921BFE
:104B400012153C2AC4BF19481D490EDCBAF1000FEA
:104B5000BEBF12F13C0F0020014606DB6246FBF7A8
:104B6000DDFC21F00041FFF761FE002C08BFBDE82D
:104B7000F08D012C04BF81F00041BDE8F08D114A99
:104B8000114B022C07D0FBF751FC2A46BDE8F04D33
:104B90000A4BFBF74BBCFBF749FC2A46BDE8F04D3E
:104BA000064BFBF746BC00000000F07F182D445474
:104BB000FB2109C036730000FB21F9BFFB2109402E
:104BC000FB21F93F075C143326A6A13C30B583B026
:104BD0000446FEF7A9FA05460020CDE9000002468A
:104BE00021466846FBF787FE2846FEF7B3FADDE963
:104BF000000103B030BD00001FB5BAB0FE480CC8BC
:104C0000DDE93C01FBF712FCFC4A03C2FB4903C986
:104C100006F0A2FCFA4A03C2F84903C904F082F97B
:104C2000F64A03C2F7480CC841994098FBF75DFB70
:104C3000F54A03C2F44903C904F074F9F34A03C204
:104C4000F34801460CC803C9FBF7F6FBF14A03C25F
:104C5000F14801460CC803C9FBF7EEFBEF4A03C25B
:104C6000E6480CC800204FF08041FBF7E5FBCDE99A
:104C70003201E7480CC83298FBF7DEFBCDE934017E
:104C8000E5480CC83498FBF7D7FBCDE93601E1487D
:104C90000CC83698FBF729FBCDE93801DF480CC872
:104CA0003898FBF722FBDE4A03C2DD4903C906F050
:104CB000A3FCDC4A03C2D248D5490CC803C9FBF7A0
:104CC000BBFBCDE93601D7480CC83698FBF726FC6C
:104CD000CDE93801FFF772FCD34A03C2D34801463D
:104CE0000CC803C9FBF7A8FBD14A03C2CB48C9498A
:104CF0000CC803C9FBF7F9FACDE93801CC480CC858
:104D00003898FBF7F2FACB4A03C2C1480CC800201E
:104D10004FF08041FBF790FBCDE93801BE480CC84D
:104D20003898FBF789FBC44A03C2B448C2490CC88F
:104D300003C9FBF781FBC14A03C2BB48B2490CC897
:104D400003C9FBF7D2FABE4A03C2BD4903C904F046
:104D5000E9F8BC4A03C2B5480CC800204FF08041B6
:104D6000FBF76AFBCDE93601B6480CC83698FBF76D
:104D700063FBCDE93801AB480CC83898FBF75CFB06
:104D8000B14A03C2AD48AB490CC803C9FBF7ADFA41
:104D9000CDE93601AC480CC83698FBF7A6FACDE948
:104DA000380106F029FCA94A03C2A848A8490CC842
:104DB00003C9FBF73BFBA74A03C29B49419B409AAF
:104DC00003C9FBF792FACDE930018E480CC8309840
:104DD000FBF78BFACDE9320104F0A4F8CDE93601F6
:104DE00092480CC800204FF08041FBF725FBCDE92D
:104DF0003401DDE93623FBF71FFBCDE93801894893
:104E00000CC83898FBF718FB874A03C286488949C3
:104E10000CC803C9FBF769FACDE9380187480CC80B
:104E20003898FBF762FA834A03C2824903C906F045
:104E3000E3FB894A03C288480CC800204FF0804138
:104E4000FBF7FAFACDE9380181480CC800204FF091
:104E50008041FBF7F1FACDE93601DDE93823FBF7B4
:104E6000E5FA7E4A03C27C4879490CC803C9FBF7BE
:104E7000DDFA7B4A03C269480CC800204FF080412C
:104E8000FBF7DAFA774A03C260480CC800204FF0FB
:104E90008041FBF7D1FACDE932015F480CC8329866
:104EA000FBF7CAFACDE9340160480CC83498FBF727
:104EB000C3FACDE9360159480CC83698FBF715FA04
:104EC000CDE938015A480CC83898FBF70EFA664A03
:104ED00003C2654903C906F08FFB644A03C24E480A
:104EE0000CC800204FF08041FBF7A6FACDE938014D
:104EF0004E480CC83898FBF79FFA5D4A03C24348F6
:104F00005B490CC803C9FBF797FA5A4A03C24748E2
:104F10000CC800204FF08041FBF78EFACDE9340138
:104F20003A480CC83498FBF787FACDE936013A487D
:104F30000CC83698FBF780FACDE9380149480CC80F
:104F40003898FBF7D2F94C4A03C233480CC800200A
:104F50004FF08041FBF770FACDE9300143480CC8AF
:104F60003098FBF769FA02460B46CDE93201424917
:104F700003C9FBF7D3FACDE93401FEF74FFFCDE9C2
:104F800038013E480CC8DDE93C01FBF74FFA3C4ACA
:104F90003C4BCDE93401FBF749FACDE93601DDE9B7
:104FA0003823FBF7A2F9384A03C2374903C903F093
:104FB000B9FF364A03C236480CC800204FF0804182
:104FC000FBF73AFACDE9360130480CC83698FBF7C2
:104FD00033FACDE9380125480CC83898FBF72CFA8C
:104FE0002C4A03C2044825490CC803C9FBF71EFA22
:104FF000294A2A4B54E00000F802002078020020E1
:1050000008010020F00200202801002048010020B3
:1050100010030020C800002008030020E800002042
:10502000D000002010010020F0000020200300200C
:10503000D800002018010020E000002038010020E6
:10504000580100207801002098010020B8010020BC
:1050500028030020300100205001002070010020B2
:1050600090010020B0010020D8010020D0010020D4
:10507000F0010020E8010020F800002000030020DB
:10508000182D4454FB21F93F080200202002002083
:105090001803002000020020D221337F7CD9124067
:1050A000CDE93201FBF721F9CDE9340103F03AFFF4
:1050B000CDE93801FE480CC800204FF08041FBF7D5
:1050C000BBF9CDE93401FB480CC83498FBF7B4F9BF
:1050D000CDE93601DDE93823FBF7AEF9F64A03C224
:1050E000F6480CC800204FF08041FBF7A5F9CDE948
:1050F0003601F3480CC83698FBF7F7F8CDE93801CC
:10510000F0480CC83898FBF7F0F8ED4A03C2EE48B7
:1051100001460CC803C9FBF78FF9EC4A03C2EC48FF
:10512000E7490CC803C9FBF781F9CDE93001E24832
:105130000CC83098FBF7D9F8CDE93201E5480CC826
:105140003298FBF7D2F8CDE93401E3480CC8349823
:10515000FBF7CBF8CDE93601DB480CC83698FBF7F6
:105160006BF9CDE93801DD480CC83898FBF7D6F962
:10517000DB4A03C2DB4801460CC803C9FBF75CF9F4
:10518000CDE92A01D8480CC82A98FBF74FF9CDE998
:105190002C01D6480CC82C98FBF7A7F8CDE92E01B6
:1051A000CA480CC82E98FBF7A0F8CDE93001C348D7
:1051B0000CC83098FBF799F8CDE93201C8480CC803
:1051C0003298FBF733F9CDE93401BE480CC8349866
:1051D000FBF78BF8CDE93601BD480CC83698FBF7D4
:1051E00025F9CDE93801B4480CC83898FBF77DF8AB
:1051F000BC4A03C2BE4903C906F0AEF9BD4A03C2A8
:10520000BD48B9490CC803C9FBF716F9BB4A03C22C
:105210000022BB4BBB4903C905F082FEBA4A03C258
:10522000BA4903C906F098F9B94A03C2B9480CC88B
:1052300000204FF08041FBF7FFF8CDE93801B4487A
:105240000CC83898FBF7F8F8B34A03C2B148B34921
:105250000CC803C9FBF7F0F8CDE93401B0480CC81D
:105260003498FBF7E9F8CDE93601AE480CC836981A
:10527000FBF7E2F8CDE93801AB480CC83898FBF7EA
:105280004DF9AA4A03C29C4801460CC803C9FBF762
:10529000D3F8CDE93201A6480CC8DDE93C01FBF7A3
:1052A000C5F8CDE9240103F03DFE00224FF0804314
:1052B000CDE92601FBF7C0F8CDE928017D480CC8EF
:1052C0002898FBF7B9F8CDE92A018B480CC82A9831
:1052D000FBF7B2F8CDE92E01764801460CC803C9A8
:1052E000FBF7AAF8CDE92C01DDE92E23FAF7FDFF43
:1052F000CDE93001DDE93223FAF7F7FFCDE93401DA
:1053000006F07AF9CDE9380189480CC8DDE93C019D
:10531000FBF78CF8CDE9320103F004FECDE934014E
:1053200064480CC83498FBF787F8CDE93601DDE90D
:105330003823FBF7F3F87A4A03C25D480CC8002013
:105340004FF08041FBF778F8CDE9380169480CC887
:105350003898FBF771F8774A03C2774875490CC84B
:1053600003C9FBF769F8754A03C271480CC8DDE947
:105370003C01FBF75BF8CDE9360106F0EDF8CDE92D
:10538000380166480CC83898FBF756F8584A03C2EB
:10539000594801460CC803C9FBF74EF8CDE92E0168
:1053A00063480CC8DDE93C01FBF740F8CDE920017A
:1053B00003F0B8FD00224FF08043CDE92201FBF756
:1053C0003BF8CDE924013B480CC82498FBF734F89E
:1053D000CDE9260148480CC82698FBF72DF8CDE901
:1053E0002A01344801460CC803C9FBF725F8CDE96A
:1053F0002801DDE92A23FAF778FFCDE92C01DDE960
:105400002E23FAF772FFCDE9300106F0F5F8CDE969
:105410003401394801460CC803C9FBF70DF8CDE942
:105420001E0143480CC8DDE93C01FAF7FFFFCDE956
:10543000100103F077FD00224FF08043CDE9120107
:10544000FAF7FAFFCDE914011A480CC81498FAF7D4
:10545000F3FFCDE9160128480CC81698FAF7ECFFBF
:10546000CDE91A01134801460CC803C9FAF7E4FF55
:10547000CDE91801DDE91A23FAF737FFCDE91C0160
:10548000DDE91E23FAF731FFCDE9200106F0B4F87B
:10549000CDE9240126480CC8DDE93C01FAF7C6FF36
:1054A000CDE91E0106F058F8CDE92001014847E09A
:1054B000180300201003002038020020D80000202C
:1054C000B0010020E801002028030020180200207D
:1054D00000020020F00000203801002050010020D0
:1054E0003002002090010020C8000020E8000020C9
:1054F00008020020700200200803002000010020A4
:105500000000F83FD00000202001002058010020BA
:10551000480100202003002040010020E00000207E
:105520007801002008010020100100206001002007
:10553000F802002068010020D00100208001002036
:105540000CC82098FAF778FFCDE92201DDE9242381
:10555000FAF7E4FFCDE92601FFF730F8CDE92A019B
:10556000FE480CC841994098FAF7BFFECDE92801E2
:10557000DDE92A23FAF7B9FECDE92C0103F0D2FCCC
:10558000CDE93001F6480CC800204FF08041FAF711
:1055900053FFCDE92E01DDE93023FAF74DFFCDE9C8
:1055A0003201DDE93423FAF747FFCDE93801ED4850
:1055B0000CC8DDE93C01FAF739FFCDE92C0103F015
:1055C000B1FCCDE93001E8480CC800204FF0804123
:1055D000FAF732FFCDE92C01E4480CC82C98FAF711
:1055E0002BFFCDE92E01DDE93023FAF725FFCDE9C8
:1055F0003401DB4801460CC803C9FAF71DFFCDE9A9
:105600002601D6480CC841994098FAF76EFECDE9BC
:10561000180103F087FC00224FF08043CDE91A0106
:10562000FAF70AFFCDE91C01D0480CC81C98FAF71C
:1056300003FFCDE91E01CA480CC81E98FAF7FCFE0C
:10564000CDE92201C94801460CC803C9FAF7F4FEA6
:10565000CDE92001DDE92223FAF747FECDE9240157
:10566000DDE92623FAF741FECDE9280105F0C4FF64
:10567000CDE92C01BA4801460CC803C9FAF7DCFE93
:10568000CDE91201B5480CC841994098FAF72DFEB2
:10569000CDE9040103F046FC00224FF08043CDE940
:1056A0000601FAF7C9FECDE90801B0480CC8089810
:1056B000FAF7C2FECDE90A01A9480CC80A98FAF720
:1056C000BBFECDE90E01A94801460CC803C9FAF793
:1056D000B3FECDE90C01DDE90E23FAF706FECDE9B4
:1056E0001001DDE91223FAF700FECDE9140105F0FF
:1056F00083FFCDE918019D480CC800204FF0804180
:10570000FAF79AFECDE91601DDE91823FAF794FEBF
:10571000CDE91C0191480CC841994098FAF7E5FD84
:10572000CDE90E0103F0FEFBCDE912018C480CC857
:1057300000204FF08041FAF77FFECDE91001DDE94E
:105740001223FAF779FECDE9140188480CC81498A1
:10575000FAF772FECDE91801844801460CC803C966
:10576000FAF76AFE00224FF08043CDE91401FAF700
:1057700063FECDE91601DDE91823FAF7B6FDCDE9A0
:105780001A01DDE91C23FAF7C9FECDE91E01FEF777
:1057900045FBCDE9220176480CC8DDE93C01FAF76A
:1057A00045FE744A744BCDE91E01FAF73FFECDE980
:1057B0002001DDE92223FAF798FDCDE9240103F069
:1057C000B1FBCDE928016D480CC800204FF08041A5
:1057D000FAF732FECDE92601DDE92823FAF72CFE9F
:1057E000CDE92A01DDE92C23FAF726FECDE93001C7
:1057F0005A480CC841994098FAF777FDCDE9220143
:1058000003F090FBCDE9260158480CC800204FF06A
:105810008041FAF711FECDE9220151480CC82298C7
:10582000FAF70AFECDE92401DDE92623FAF704FEA2
:10583000CDE92A014A4801460CC803C9FAF7FCFD24
:1058400000224FF08043CDE92201FAF7F5FDCDE9C2
:105850002601464801460CC803C9FAF7EDFD0022AF
:105860004FF08043CDE92201FAF7E6FDCDE92401AE
:10587000DDE92623FAF739FDCDE92801DDE92A2300
:10588000FAF733FDCDE92C013D480CC82C98FAF706
:105890002CFDCDE92E01DDE93023FAF7C7FDCDE976
:1058A0003201DDE93423FAF720FDCDE93601DDE9E7
:1058B0003823FAF71AFD334A03C20022324B334928
:1058C00003C905F02DFB324A03C231480CC8002041
:1058D0004FF08041FAF7B0FD2E4A03C22748014637
:1058E0000CC803C9FAF7A8FDCDE936012A480CC84F
:1058F0003698FAF7FAFCCDE9380128480CC83898F0
:10590000FAF7F3FC264A03C2264825490CC803C906
:10591000FAF7EBFC244A03C2244823490CC803C904
:10592000FAF784FDCDE9360121480CC83698FAF71C
:10593000DCFCCDE938011F480CC83898FAF776FD31
:105940001D4A03C21C4903C905F056FE1B4A03C287
:105950000C481B490CC803C934E00000F0020020C9
:1059600020030020F802002010030020080300207C
:1059700000030020182D4454FB21F93F1803002098
:1059800038020020A00100200000F83F180100208C
:1059900088010020C0010020E8000020180200203B
:1059A00088020020D8000020F000002030020020F3
:1059B000E801002000020020A8010020E0010020F2
:1059C00028030020FAF738FDCDE93801FE480CC85D
:1059D0003898FAF7A3FDFD4A03C2FD480CC8002021
:1059E0004FF08041FAF728FDFA4A03C2FA480CC882
:1059F00000204FF08041FAF71FFDCDE93801F5484E
:105A00000CC83898FAF712FDF44A03C2F448F34977
:105A10000CC803C9FAF710FDF24A03C20022F24B88
:105A2000F24903C905F07CFACDE93801EB480CC80E
:105A300000204FF08041FAF7FFFCCDE93601DDE9A7
:105A40003823FAF7F9FCEA4A03C2EA48EA490CC8E3
:105A500003C9FAF74AFCCDE93401DC480CC8349894
:105A6000FAF7E4FCCDE93601E4480CC83698FAF7B9
:105A7000DDFCCDE9380105F0BFFDE14A03C2E14894
:105A800001460CC803C9FAF7D7FCDF4A03C2DF4856
:105A900001460CC803C9FAF7CFFCCDE93001DC4957
:105AA00003C981F00041CDE92801DA480CC82898E3
:105AB000FAF71BFCCDE92A01D7480CC82A98FAF757
:105AC00014FCCDE92C01D5480CC82C98FAF70DFC34
:105AD000CDE92E01DDE93023FAF707FCCDE93201EB
