:020000040800F2
:10000000D807002001010008090100080B010008C1
:100010000D0100080F010008110100080000000098
:1000200000000000000000000000000013010008B4
:10003000150100080000000017010008811D0008DC
:100040001B0100081B0100081B0100081B01000820
:100050001B0100081B0100081B0100081B01000810
:100060001B0100081B0100081B0100081B01000800
:100070001B0100081B0100081B0100081B010008F0
:100080001B0100081B0100081B0100081B010008E0
:100090001B0100081B0100081B01000801120008D9
:1000A0001B0100081B0100081B0100081B010008C0
:1000B0001B0100081B0100081B0100081B010008B0
:1000C0001B0100081B0100081B0100081B010008A0
:1000D0001B010008712400081B0100081B01000817
:1000E000451100081B0100081B010008DFF80CD0B7
:1000F00000F012FD00480047A1470008D807002083
:100100000648804706480047FEE7FEE7FEE7FEE7B1
:10011000FEE7FEE7FEE7FEE7FEE7FEE7911D0008CB
:10012000ED000008034611F8012B00F8012B002A0E
:10013000F9D118467047F0B480EA0102D40F4200AA
:10014000B2EB410F02D20246084611464A0042D0A5
:10015000C30DDDB2C1F3C752AD1A202D35DAC1F39C
:10016000160141F4000204B15242C5F1200602FA20
:1001700006F12A411044B3EBD05F23D0C4B1012D66
:10018000A0EBC35009DCF0BC4FF0004202EAC352BE
:10019000DBB200F5000000F0D8BB400000F1807039
:1001A00000EBC350A0F1807040EAD170490009E033
:1001B000490841EAC071A0EBC35000F500004008B7
:1001C00000EBC350F0BC00F0B7BB6142012202EB70
:1001D0004101001BF6E7F0BC704781F00041AAE73F
:1001E00080F00040A7E780EA010210B502F000436A
:1001F000400022D04A001FD0010E01EB1261C0F373
:100200005600C2F3560240F4000042F40002A0FB84
:10021000022000047F39140400D0401C50EA124030
:1002200001D44000491EC2B20C0604EBD010401CA1
:100230004008802A02D003E0002010BD20F0010019
:10024000002900DA0020184310BD30B480EA010212
:1002500002F0004530F0004221F0004013D090B190
:10026000C30DD40DC2F31601C0F31600E41A41F415
:10027000000140F400027D34914201D3641C00E08F
:100280004900002C02DA30BC002070474FF4000017
:100290000023914201D3891A034340084FEA4101E8
:1002A000F7D151B1914202D14FF0004105E002D2A5
:1002B0004FF0010101E06FF0010103EBC45028444D
:1002C00030BC00F039BB2DE9FE4F804681EA0300C7
:1002D000C00F0C46009021F0004123F00045B8EB20
:1002E0000200A94105D24046214690461C460B46D5
:1002F000024623F00040104347D0270DC7F30A0001
:10030000C3F30A510290401A019040286BDAC3F3FC
:10031000130040F4801B0098924620B10023D2EBDA
:10032000030A63EB0B0B01985946C0F1400250469B
:1003300000F083FA06460D4650465946019A00F0F1
:100340009BFA10EB08006141002487EA115284EA0D
:10035000E7731A4340D0009A62B3019A012A4FEA28
:10036000075215DC001B61EB02014FF0004202EA6C
:100370000752CDE90042001C41F5801132462B4660
:1003800000F020FB03B0BDE8F08F40462146F9E7BE
:10039000001B61EB0201001C41F5801300185B415A
:1003A0002018A2F5001747EB030140EAD570B619F3
:1003B0006D4111E06D084FEA360645EAC0754FEA17
:1003C0000752001B61EB0201001C41F58011490836
:1003D0004FEA30000019514132462B4603B0BDE8C8
:1003E000F04F00F0E0BA0098012240000023D0EB6B
:1003F000020263EBE073009821464FEAE074B8EB29
:10040000000061EB0401E9E783F000435BE781F062
:10041000004158E72DE9FE4F81EA030404F000444F
:1004200021F0004100944FF0000B23F0004350EA0C
:1004300001045ED052EA03045BD0C3F30A54C1F353
:100440000A552C44A4F2F3340194A0FB0254C1F3E6
:10045000130141F48011C3F3130343F4801301FB30
:10046000024400FB034E840A970A44EA815447EA97
:100470008357A4FB076802958D0A05FB07854FEAA1
:10048000932C04FB0C542705029D4FEA065847EABB
:100490001637B5EB08056EEB070C870E920E47EA90
:1004A000811742EA8312A7FB0201B6EB0B0164EB52
:1004B00000042B0D43EA0C335E1844EB1C50DA4663
:1004C0005146E7FB0201C5F313044FEA0B3343EA3D
:1004D00014534FEA0432019C43EA0603A4F10C04CE
:1004E0000294009CCDE900B400F06CFA03B0BDE8C2
:1004F000F08F00200146F9E72DE9F04D81EA030471
:1005000004F0004B21F0004514464FF0000A23F0A0
:10051000004150EA050220D054EA01021DD0C5F383
:100520000A570246C5F31303C1F31300C1F30A5679
:1005300040F4801543F48013A7EB0608101BD64641
:1005400008F2FD3873EB050002D308F1010801E061
:1005500092185B41B8F1000F03DA00200146BDE8B4
:10056000F08D00204FF48011064684460EE0171BE4
:1005700073EB050705D3121B63EB050306434CEA37
:10058000010C49084FEA300092185B4150EA01071C
:10059000EDD152EA030012D082EA040083EA050199
:1005A000084305D0101BAB4106D20122002306E010
:1005B00000224FF0004302E06FF0010253101AEBEB
:1005C00006004CEB085110EB0A0041EB0B01BDE8B3
:1005D000F04D00F0E8B9C10F80EAE0700844CA07A6
:1005E0009623002100F0B1B996230022114600F0B5
:1005F000ACB90EB5C10F80EAE0700844CA0700210B
:1006000040F233438DE80E000A460B4600F0DAF95B
:1006100003B000BD0EB540F2334102910021CDE997
:1006200000110A460B4600F0CDF903B000BD20F0E2
:100630000040C10DC0F3160040F400007F2901DA2C
:1006400000207047962903DCC1F19601C84070472D
:1006500096398840704770B5C1F30A5201F00045E1
:100660000024C1F3130140F2FF3341F480119A4298
:1006700001DA002070BD40F233439A42A2F23342C5
:1006800003DC524200F0E8F800E090402C43F1D047
:10069000404270BDC1F30A5210B5C1F3130140F2DC
:1006A000FF3341F480119A4201DA002010BD40F27C
:1006B00033439A42A2F2334203DC524200F0CCF8B8
:1006C00010BD904010BD00F0004230F000400AD054
:1006D000C10D01F56071C0F3160042EA0151C20874
:1006E00040071143704700200146704730B5041E93
:1006F00071F1000404DB4FF00044404264EB01015F
:10070000141E73F1000405DB1C464FF000435242F7
:1007100063EB04038B4208BF824230BD30B5041E38
:1007200071F1000404DB4FF00044404264EB01012E
:10073000141E73F1000405DB1C464FF000435242C7
:1007400063EB0403994208BF904230BD01F00043BF
:1007500030B421F0004150EA010206D00A0DA2F5A2
:100760006072C1F31301002A02DC30BC0020704724
:10077000440F44EAC104C100E01830BC00EBC25091
:1007800000F0DAB8002801DBC0F10040002901DBED
:10079000C1F1004181427047002801DBC0F10040F7
:1007A000002901DBC1F100418842704730B50B469A
:1007B000014600202022012409E021FA02F59D4291
:1007C00005D303FA02F5491B04FA02F52844151E65
:1007D000A2F10102F1DC30BD2DE9F05F05460020F9
:1007E00092469B4688460646814640241BE02846A2
:1007F00041464746224600F02FF853465A46C01A53
:10080000914110D311461846224600F016F82D1AD1
:1008100067EB01084F4622460120002100F00DF849
:1008200017EB00094E41201EA4F10104DFDC48460D
:1008300031462A464346BDE8F09F202A04DB203A91
:1008400000FA02F1002070479140C2F1200320FA23
:1008500003F3194390407047202A04DB203A21FA21
:1008600002F00021704721FA02F3D040C2F12002C9
:100870009140084319467047202A06DBCB17203ADF
:1008800041FA02F043EAE07306E041FA02F3D04095
:10089000C2F1200291400843194670470FB400236B
:1008A00000B589B00CA900910B996FF00042CB60A4
:1008B0001E4B06931E4B07930423CDE901321D4ABC
:1008C000089202466B46002000F0D2F909B05DF8AC
:1008D00014FB70B586B006464FF0FF300091CDE9AD
:1008E0000101002015460C4604903246694604A8D2
:1008F000FFF7D4FF02460498211825B108B1084635
:1009000000E020462860049800280DD0002A02DD6F
:100910000098884208D0081B0094CDE901043246B3
:10092000694604A8FFF7BAFF06B070BDA90E00081B
:10093000C70E00083D0B00080029A8BF7047401CE7
:10094000490008BF20F00100704710B4B0FA80FCE5
:1009500000FA0CF050EA010404BF10BC704749B122
:10096000CCF1200421FA04F411FA0CF118BF012192
:1009700021430843A3EB0C01CB1D4FEA00614FEA72
:10098000102042BF002010BC704700EBC350104441
:100990000029A4BF10BC7047401C490008BF20F0CC
:1009A000010010BC704710B5141E73F1000408DA82
:1009B000401C41F1000192185B411A4301D120F023
:1009C000010010BD2DE9F04D92469B4611B1B1FAE0
:1009D00081F202E0B0FA80F220329046FFF72DFF5C
:1009E00004460F4640EA0A0041EA0B0153465A46C4
:1009F000084313D0114653EA010019D0C8F1400250
:100A00005046FFF729FF05460E46504659464246D6
:100A1000FFF713FF084305D0012004E020463946C4
:100A2000BDE8F08D0020054346EAE0762C433743CD
:100A30000A986305E40AA0EB08000022FD0A44EAD4
:100A400047540A3002D500200146E9E70105101994
:100A50006941DDE9084500196941BDE8F04DA2E7AB
:100A60002DE9FE4FC3F30A5701F000450024C1F3FE
:100A70000A56C3F31303C1F3130143F4801312EBBB
:100A8000020AA64641F48011009543EB030CA7F13E
:100A9000010B16E0B0EB0A0061EB0C01071E71F1CF
:100AA000000707DA4FF00008D0EB080085F000459A
:100AB00068EB0101171A73EB0107EBD3761E0018E0
:100AC00049415E45F6DA50EA010209D0CDE900E578
:100AD000002213460296FFF775FF03B0BDE8F08FC2
:100AE00020460099F9E7C1F30A52C1F3130140F21D
:100AF000FF3341F480119A4202DA00200146704728
:100B000040F233439A42A2F2334202DC5242FFF7F0
:100B1000A3BEFFF792BE0000064C074D06E0E0685A
:100B200040F0010394E8070098471034AC42F6D334
:100B3000FFF7E0FAC8550008E8550008C0B24FF4C6
:100B4000F05100F0E9B900002DE9FF4F087883B0BB
:100B50009946FF2805D0491C2D2804D000240020E8
:100B600008E000200BE00124F9E700EB800003EB34
:100B70004000491C0B78FF2BF7D104B14042002301
:100B80000293147819461D462D2C01D02B2C04D12C
:100B9000521C2D2C13D000240294AA461478FF2C4A
:100BA0000FD00A25A3FB057801FB05814FF0000C4F
:100BB00003FB0C11521CE3194AEB0101EEE701247F
:100BC000EAE7814453EA010002D019F5C87F06DA4A
:100BD00003980021C0E9001107B0BDE8F08F00259F
:100BE000AE4E2F46DFF8B882184600F0A9F9CDE9DD
:100BF0000001B9F1000002DAC9F1000400E0044686
:100C00000023A74A1AEB030B42EB045A12E0E00759
:100C100007D02A46334638464146FFF7FBFB0746D6
:100C200088462A46334610461946FFF7F3FB054629
:100C30000E466410002CEAD1DDE90001B9F1000F85
:100C40005A46534606DAFFF757FC3A464346FFF743
:100C500053FC05E0FFF7DEFB3A464346FFF7DAFBBD
:100C6000029A0AB181F00041039AC2E90001B3E798
:100C70002DE9FF4F1F468DB0D7E901464FF0FF38F1
:100C80002E2045464FF000090B90B9696D1C0E9857
:100C90008847396A824688470028F6D1BAF1FF3F73
:100CA0000AD024F4D064002E11DDBAF12B0F08D045
:100CB000BAF12D0F0BD102E0404611B08DE744F49C
:100CC0008064B9696D1C0E9888478246761E694615
:100CD000600501D52D2000E02B208DF8000001F1EA
:100CE000010B0DF1200809E0B9696D1C0E988847C9
:100CF00082460F9844F40074761E0560002E02DDD3
:100D0000BAF1300FF0D00B998A453ED144F08004FF
:100D100006E00F99681CA9F1010944F40074086009
:100D2000B9696D1C761E0E98884782463028F0D02F
:100D30002BE00B998A4505D1200603D444F08004AA
:100D4000761E18E0504601F057FE08B30DF113016E
:100D5000761E44F400748B4508D2AAF130000BF8DB
:100D6000010B200607D5A9F1010003E0200602D4FB
:100D700009F101008146A00502D50F99681C0860A1
:100D8000B9696D1C0E9888478246002ED1DC53E06D
:100D9000002E51DDBAF1650F02D0BAF1450F4BD1EB
:100DA000A00549D5B9696D1C24F44074761E0E98CF
:100DB00088478246002E0CDD2B2804D0BAF12D0F77
:100DC00007D144F48074B9696D1C0E988847824637
:100DD000761EE00501D52D2100E02B2108F8011B2E
:100DE000CDF82C8021E00DF12901761E44F4007429
:100DF00088450CD2AAF1300010F0FF0088F80000FE
:100E000002D10B99884509D908F1010806E0E005EF
:100E100001D5244801E042F20F708146B9696D1C8A
:100E20000E98884782460F980560002E04DD5046D4
:100E300001F0E2FD0028D6D1F9690E988847FF201D
:100E40008BF8000088F800000020069007904B46C1
:100E50006A4608A906A8FFF777FEA00502D46FF03E
:100E600001002AE714F0240F0AD0E00714D1DDE9CD
:100E700006123868031D3B600068C0E900120BE0F1
:100E8000DDE90601FFF762FC0146E00704D138689E
:100E9000021D3A600068016028460EE70000144019
:100EA0000000F03FF1D8FFFF426842B1016811F83D
:100EB000013B23B1521EC0E90012184670470121C0
:100EC000C160881E704742685AB1C368016843B95F
:100ED00083688B4205D0491E521CC0E900120020D5
:100EE00070474FF0FF30704770B521F00043034367
:100EF0000CD0C1F30A550024D5EB040564EB0403C0
:100F0000D617AD1AB34102DB0020014670BD201890
:100F100041EB025170BD00007F2801D9002208E09A
:100F2000064A02EB5002C007127800D1120902F003
:100F30000F020120904008407047000088550008CB
:100F40000EB540F2334202920022CDE90022134650
:100F5000FFF738FD03B000BD21B1826842F0010205
:100F6000826003E0826822F0010282607047000024
:100F700010B504461248844208D10121401500F002
:100F800011FE0021601500F00DFE17E00D488442AF
:100F900008D10121001500F005FE0021201500F008
:100FA00001FE0BE00848844208D10121C80300F08B
:100FB000F9FD00214FF4004000F0F4FD10BD0000E9
:100FC0000024014000280140003C0140014600206F
:100FD0008A6802F004020AB1012000E00020704794
:100FE0000146C86C80B270470246002013680B406F
:100FF0000BB1012000E000207047014600208A6804
:1010000002F008020AB1012000E000207047000051
:1010100030B502460020002350680F4C20400D7967
:101020000C6844EA05242043506090680B4C204033
:10103000D1E902542C434D7944EA450420439060A1
:10104000D06A20F470000C7C641EE4B2234340EAB2
:101050000350D06230BD0000FFFEF0FFFDF7F1FF4E
:10106000F0B504460D4600200021092D11DDE06891
:10107000A5F10A0606EB4607072606FA07F188439C
:10108000A5F10A0606EB460603FA06F10843E060FE
:101090000CE0206905EB4507072606FA07F18843AF
:1010A00005EB450603FA06F108432061072A0FDA2B
:1010B000606B561E06EB86071F2606FA07F188436B
:1010C000561E06EB860605FA06F10843606322E029
:1010D0000D2A0FDA206BD61F06EB86071F2606FAAD
:1010E00007F18843D61F06EB860605FA06F108438A
:1010F000206310E0E06AA2F10D0606EB86071F26CA
:1011000006FA07F18843A2F10D0606EB860605FAFA
:1011100006F10843E062F0BD816841F0080181609A
:10112000704721B1826842F4A002826003E08268C5
:1011300022F4A00282607047816841F0040181605E
:101140007047000010B54FF4805000F08BF8012874
:101150000ED1000300F080F84FF48051244800F0D5
:1011600009FA244981F8DA0001F1D80003F08EFF72
:101170004FF4806000F076F801280ED1800200F074
:101180006BF84FF480611C4800F0F4F91B4981F8BA
:10119000D80001F1D80003F079FF4FF4006000F0AF
:1011A00061F801280ED1C00200F056F84FF400613A
:1011B000114800F0DFF9114981F8D90001F1D80098
:1011C00003F064FF4FF4005000F04CF801280ED1FA
:1011D000400300F041F84FF40051054800F0CAF90F
:1011E000064981F8DA0001F1D80003F04FFF10BD85
:1011F0000008014048010020000C0140900200203E
:1012000010B5402000F02EF801280DD1402000F04C
:1012100023F840210E4800F0ADF90E4981F8D800BE
:1012200001F1D80003F032FF802000F01BF8012804
:101230000DD1802000F010F88021054800F09AF9C7
:10124000044981F8D90001F1D80003F01FFF10BD57
:10125000000C01404801002001490860704700006F
:1012600014040140014600200022074B1B6803EADA
:101270000102054B14331B680B4013B10AB1012066
:1012800000E00020704700000004014000212349D5
:101290008279002A3AD00A46126803689A430B46BC
:1012A0001A600A1D126803689A430B1D1A600279BE
:1012B00011440A6803681A430A60184A083212681F
:1012C00003689A43154B08331A601A1D12680368A5
:1012D0009A43124B0C331A604279102A0ED11A1F0E
:1012E000126803681A430D4B08331A601A1D1268FE
:1012F00003681A43094B0C331A600DE00749427921
:1013000011440A6803681A430A6005E0027911442F
:101310000A6803689A430A607047000000040140AD
:1013200008B501211D2000F02DFC0121144800F01A
:10133000D9F84FF40050ADF8000010208DF80300EC
:1013400001208DF8020069460E4800F03FF84FF486
:1013500000510C4800F017F94FF40270ADF800008E
:1013600010208DF8030001208DF802006946064820
:1013700000F02CF84FF40271034800F004F908BDA6
:101380000002300000100140000C014030B5002286
:101390008B071C0F0F2303FA04F20B4B8C1053F82E
:1013A00024309343084C8D1044F8253023468C108C
:1013B00053F824308C07240F00FA04F42343024C22
:1013C0008D1044F8253030BD080001402DE9F04172
:1013D000024600250026002000230024002791F863
:1013E00003C00CF00F0591F803C00CF0100CBCF119
:1013F000000F03D091F802C04CEA050591F800C037
:10140000BCF1000F31D0146800202BE04FF0010C2C
:101410000CFA00F3B1F800C00CEA03069E4220D19A
:1014200083004FF00F0C0CFA03F7BC4305FA03FCE2
:101430004CEA040491F803C0BCF1280F06D14FF028
:10144000010C0CFA00FCC2F814C00AE091F803C0C9
:10145000BCF1480F05D14FF0010C0CFA00FCC2F8AA
:1014600010C0401C0828D1D31460B1F800C0BCF1F2
:10147000FF0F34DD546800202EE000F1080C4FF01F
:10148000010808FA0CF3B1F800C00CEA03069E420A
:1014900021D183004FF00F0C0CFA03F7BC4305FA7F
:1014A00003FC4CEA040491F803C0BCF1280F05D1F9
:1014B00000F1080C08FA0CF8C2F8148091F803C087
:1014C000BCF1480F07D100F1080C4FF0010808FAF1
:1014D0000CF8C2F81080401C0828CED35460BDE838
:1014E000F0810000F0B50A46002300240021002509
:1014F00000F00046B6F1004F02D11D4EF16901E047
:101500001B4E7168C0F3034583B200F44016B6F574
:10151000401F08D121F07061154E766826F0706684
:10152000134F7E6012E000F48016B6F5801F06D1DE
:10153000032606FA05F4A14341F0706106E0460D6A
:10154000360103FA06F6B14341F0706122B1460D4F
:10155000360103FA06F6314300F00046B6F1004FBB
:1015600002D1034EF16101E0014E7160F0BD000057
:10157000000001400246002093680B400BB101209F
:1015800000E0002070474161704701617047000032
:101590001FB501210D2000F0F5FA4FF44050ADF8D1
:1015A0000C0048208DF80F0001208DF80E0003A9D3
:1015B0004D48FFF70BFF4FF440514B48FFF7E5FF55
:1015C0004FF44C60ADF80C0048208DF80F0001205E
:1015D0008DF80E0003A94548FFF7F8FE4FF44C6163
:1015E0004248FFF7D2FF0C210020FFF7CFFE062173
:1015F0000120FFF7CBFE07210120FFF7C7FE0D21D9
:101600000020FFF7C3FE0A210120FFF7BFFE0B21D8
:101610000120FFF7BBFE4FF47350019000208DF8BE
:10162000080010208DF8090001208DF80A0001A89B
:10163000FFF72CFE17208DF8000001208DF8030025
:10164000684600F033F928208DF8000001208DF85D
:101650000300684600F02AF92548006900EB4000C5
:1016600041002348C0F8EC102248006900EB40001C
:1016700041002048C0F8EC1040211C48FFF77AFFD9
:101680001B4981F8D80080211848FFF773FF1849DB
:1016900081F8D9004FF480511348FFF76BFF1449CC
:1016A00081F8DA0001F1D80003F0F0FC4FF480611A
:1016B0000E48FFF75FFF0F4981F8D8004FF4006133
:1016C0000A48FFF757FF0B4981F8D9004FF4005142
:1016D0000548FFF74FFF074981F8DA0001F1D8000C
:1016E00003F0D4FC1FBD000000080140000C0140C5
:1016F000480100209002002010B504460A486062AC
:101700000021A16201F080F9E06207482063002116
:10171000616301F079F9A0630348E063002121646B
:1017200001F072F9606410BDCDCC4C3D2DE9F84F4D
:1017300004460D4601F068F98046A168A8EB010057
:10174000FEF752FF82461B49FEF74DFD8146C4F865
:10175000088000214846FFF715F802D2DFF85890BC
:1017600008E016494846FFF717F803D26560284697
:10177000BDE8F88F49462068FEF7DDFC82465146F9
:101780002068FEF762FD064631464FF07E50FEF7B8
:1017900024FD83462946FEF726FD824630466168D1
:1017A000FEF721FD51460090FEF7C5FC0746676035
:1017B0003846DDE7BD3786356F12833A9A99993EF0
:1017C00010B50446211D17A000F06AFFD4E90210ED
:1017D000FEF7E2FF01D2A068E060A168A165A16800
:1017E000E16794F8140118B9A020A168015102E042
:1017F000A020A1690151C42061690151607931289B
:1018000005D14FF400710A48FFF7BFFE03E008213D
:101810000748FFF7BAFE01202060211D05A000F057
:101820003FFF10BD25733A20496E69740D0A000010
:10183000000C014025733A20456E61626C6520649E
:1018400072697665722E0D0A0000000070B50446BC
:101850000D46164600212846FEF794FF03D0C4F833
:10186000185184F81661204601F028FE204602F047
:10187000D9FCC4F84001322002F04EFC204603F0AF
:101880007AFBC4F82401052002F046FC204603F050
:1018900053FBC4F81C0194F81501022802D1D4F8B6
:1018A0001C012062C82002F037FC70BD70B5002119
:1018B00000230F22C47804B3154C246804F4E064B8
:1018C000C4F5E064210AC1F10403CA40447804FA73
:1018D00003F184781440214309010E4C0678A15588
:1018E000047804F01F050124AC4005786D11AD00AB
:1018F00005F1E025C5F8004109E0047804F01F0572
:101900000124AC40044D0678761145F8264070BDA0
:101910000CED00E000E400E080E100E010B50446DA
:101920004FF07C50C4F89000002194200151982081
:1019300001519C200151A4200151A8200151AC204B
:10194000015101F061F8B02108511948C4F8B40000
:101950000021B8200151BC200151C0200151C820F4
:101960000151CC200151D020015101F04DF8D4217A
:1019700008514FF07C50A0640021E164216561654D
:10198000E1652166616601F03FF8A0664FF07C508A
:10199000E066002121676167A167802001518420F2
:1019A00001518820015101F02FF88C21085110BD00
:1019B0000000A0412DE9F04F85B004460F4601F02C
:1019C00023F88146216AA9EB0100FEF70DFE544978
:1019D0000390FEF708FC8246C4F820900021504690
:1019E000FEF7D0FE09D95046FEF76DFE00224D4BA2
:1019F000CDE90201FEF792FE01D2DFF82CA13946B3
:101A00002068FEF7F0FB049038466169FEF793FB0F
:101A1000029051466068FEF7E6FB4FF07C51009063
:101A2000FEF7E1FB01900299FEF7DDFB0390E1690F
:101A3000FEF781FB0546206980F0004029460390AF
:101A4000FEF7AAFE03D2206980F0004007E0284696
:101A50002169FEF7A1FE01D2206900E02846054673
:101A600038466169FEF7B9FB0290A168FEF7BBFB3F
:101A700051460390FEF7E9FB834629460498FEF79A
:101A80005AFB59460390FEF756FB0646206980F044
:101A9000004031460390FEF77FFE03D2206980F0BC
:101AA000004007E030462169FEF776FE01D220694A
:101AB00000E0304606460021E068FEF76DFE28D2C1
:101AC0003046A169FEF789FB51460390FEF7BDFB46
:101AD00080464046E168FEF75FFE09D25146E06865
:101AE000FEF781FB0390A169FEF725FB064610E097
:101AF000E06880F0004041460390FEF74DFE08D2BA
:101B00005146E068FEF76FFB0390A169FEF768FBA2
:101B10000646E561A6616761304605B0BDE8F08F15
:101B2000BD3786350000E03F6F12833A0146002042
:101B3000034A506820F4404008435060704700005A
:101B40000010024029B1064AD2690243044BDA610F
:101B500004E0034AD2698243014BDA617047000016
:101B60000010024029B1064A12690243044B1A616F
:101B700004E0034A12698243014B1A617047000076
:101B80000010024029B1064A92690243044B9A614F
:101B900004E0034A92698243014B9A617047000056
:101BA0000010024029B1064AD2680243044BDA60B1
:101BB00004E0034AD2688243014BDA6070470000B8
:101BC0000010024030B500210022002400232D4DDA
:101BD0006D6805F00C0121B1042905D0082923D135
:101BE00005E0294D056022E0274D05601FE0254DE9
:101BF0006D6805F47012234D6D6805F4803402257C
:101C000005EB92421CB9214D554305600BE01D4D7B
:101C10006D6805F400351DB11C4D5543056002E0AB
:101C2000194D5543056002E0174D056000BF00BF28
:101C3000144D6D6805F0F0010909154D6B5C0568E0
:101C4000DD4045600F4D6D6805F4E061090A104DF7
:101C50006B5C4568DD4085600A4D6D6805F4605138
:101C6000C90A0B4D6B5C4568DD40C560054D6D686C
:101C700005F44041890B074D6B5CC568B5FBF3F576
:101C8000056130BD0010024000127A0000093D00DD
:101C9000000000201000002010B500F001F810BD79
:101CA0000CB50020019000903348006840F480306B
:101CB0003149086000BF3048006800F400300090EF
:101CC0000198401C0190009818B90198B0F5A06FD8
:101CD000F1D12948006800F4003010B101200090D3
:101CE00001E0002000900098012843D123480068BB
:101CF00040F01000214908600846006820F0030009
:101D000008600846006840F0020008601A48406811
:101D1000194948600846406848600846406840F4F1
:101D2000806048600846406820F47C10486008469F
:101D3000406840F4E81048600846006840F0807051
:101D4000086000BF0C48006800F000700028F9D05F
:101D50000948406820F00300074948600846406889
:101D600040F00200486000BF0348406800F00C00EB
:101D70000828F9D10CBD00000010024000200240EC
:101D800002480068401C01490860704714000020A8
:101D900010B51348006840F001001149086008467A
:101DA0004068104908400E494860084600680E49DE
:101DB00008400B4908600846006820F4802008604D
:101DC0000846406820F4FE0048604FF41F00886019
:101DD000FFF762FF4FF000600449086010BD00008B
:101DE000001002400000FFF8FFFFF6FE08ED00E0E3
:101DF00000B589B001210420FFF7C4FE0121084687
:101E0000FFF7A0FE0720ADF8200018208DF8230072
:101E100003208DF8220008A92448FFF7D7FA4FF0D5
:101E2000804000F0C9F80020ADF8140040F29F5047
:101E3000ADF818002020ADF816000020ADF81A000B
:101E400005A94FF0804000F0C1FA6020ADF8040011
:101E50000120ADF806000020ADF80A00ADF80C0036
:101E600001A94FF0804000F09BF901A94FF080409C
:101E700000F0ECF901A94FF0804000F047FA08218A
:101E8000C80600F0D9F90821C80600F031FA082187
:101E9000C80600F08BFA0121880700F075F80121CF
:101EA000880700F07DF809B000BD0000000801407F
:101EB00000B589B001210C20FFF764FE012102204A
:101EC000FFF740FEC020ADF8200018208DF8230059
:101ED00003208DF8220008A92848FFF777FA01208F
:101EE000ADF8200018208DF8230003208DF8220083
:101EF00008A92348FFF76AFA224800F05DF800209D
:101F0000ADF8140040F29F50ADF818002020ADF855
:101F100016000020ADF81A0005A91A4800F056FA7C
:101F20006020ADF804000120ADF806000020ADF8F7
:101F30000A00ADF80C0001A9124800F031F901A91E
:101F4000104800F083F901A90E4800F0DFF90821DC
:101F50000C4800F071F908210A4800F0C9F908217D
:101F6000084800F023FA0121064800F00DF801218D
:101F7000044800F015F809B000BD00000008014059
:101F8000000C01400004004021B1028842F08002B0
:101F9000028004E002884FF67F731A400280704787
:101FA00021B1028842F00102028004E002884FF66B
:101FB000FE731A400280704710B504466848844298
:101FC00008D10121C014FFF7EDFD0021E014FFF757
:101FD000E9FDC4E0B4F1804F08D101210846FFF7C4
:101FE000C1FD00210120FFF7BDFDB8E05D4884423E
:101FF00008D101210220FFF7B5FD00210220FFF7E3
:10200000B1FDACE05848844208D101210420FFF71B
:10201000A9FD00210420FFF7A5FDA0E0534884425C
:1020200008D101210820FFF79DFD00210820FFF7BE
:1020300099FD94E04E48844208D101211020FFF719
:1020400091FD00211020FFF78DFD88E04948844272
:1020500008D101212020FFF785FD00212020FFF776
:1020600081FD7CE04448844208D101214014FFF7FF
:1020700099FD00216014FFF795FD70E03F48844210
:1020800009D10121C804FFF78DFD00214FF4002084
:10209000FFF788FD63E03A48844209D10121080531
:1020A000FFF780FD00214FF48010FFF77BFD56E025
:1020B0003448844209D101214805FFF773FD00210E
:1020C0004FF40010FFF76EFD49E02F48844208D11D
:1020D00001214020FFF746FD00214020FFF742FD8F
:1020E0003DE02A48844208D101218020FFF73AFDD3
:1020F00000218020FFF736FD31E02548844208D1D9
:1021000001218015FFF72EFD0021A015FFF72AFD04
:1021100025E02048844209D101210804FFF742FD4F
:1021200000214FF48030FFF73DFD18E01A4884424B
:1021300009D101214804FFF735FD00214FF400309B
:10214000FFF730FD0BE01548844208D101218804D7
:10215000FFF728FD00214FF48020FFF723FD10BD7D
:10216000002C01400004004000080040000C00402A
:10217000001000400014004000340140004C0140B9
:10218000005001400054014000180040001C004075
:102190000020004000400140004401400048014050
:1021A00070B5002400220023058C4FF6FE763540E2
:1021B0000584028C8388048B4FF68F752C40B51EE6
:1021C0002C400D882C43751E2A400D892A434D88CA
:1021D0002A43144DA8420BD0134DA84208D0134DEA
:1021E000A84205D0124DA84202D0124DA84213D1E8
:1021F0004FF6F7752A404D892A434FF6FB752A4062
:102200008D882A434FF6FF652B404FF6FF552B4034
:102210008D892B43CD892B4383800483CD8885868C
:10222000028470BD002C0140003401400040014098
:1022300000440140004801400A460021018B4FF64E
:10224000F7731940114301837047000070B50024F3
:1022500000220023058C4FF6EF7635400584028C72
:102260008388048B48F6FF752C404FF6FF452C40C1
:102270000D884FF6FF7606EA05252C434FF6DF75ED
:102280002A400D8906EA05152A434D8806EA0515F8
:102290002A43154DA84202D0144DA8421DD14FF635
:1022A0007F752A404D894FF6FF7606EA05152A43C9
:1022B0004FF6BF752A408D8806EA05152A434FF66A
:1022C000FF352B404FF2FF752B408D8906EA8505BF
:1022D0002B43CD8906EA85052B4383800483CD8873
:1022E0000587028470BD0000002C014000340140CD
:1022F0000A460021018B4FF2FF7319404FF6FF731E
:1023000003EA0223194301837047000070B50024DB
:1023100000220023058C4FF6FF6635400584028CB1
:102320008388848B4FF68F752C404FF6FC752C40BC
:102330000D882C434FF6FF552A400D894FF6FF7646
:1023400006EA05252A434D8806EA05252A43154D48
:10235000A84202D0144DA8421DD14FF2FF752A4069
:102360004D894FF6FF7606EA05252A434FF6FF35DD
:102370002A408D8806EA05252A434EF6FF752B4034
:102380004DF6FF752B408D8906EA05152B43CD8947
:1023900006EA05152B4383808483CD8885870284D4
:1023A00070BD0000002C0140003401400A460021AD
:1023B000818B4FF6F77319401143818370478186F3
:1023C00070470187704781877047000000220288AC
:1023D0001D4B98420ED01D4B98420BD0B0F1804F50
:1023E00008D01B4B984205D01A4B984202D01A4B8A
:1023F000984204D14FF68F731A404B881A43174BFB
:10240000984207D0164B984204D04FF6FF431A402B
:10241000CB881A4302808B8883850B8803850A4BFF
:1024200098420BD0094B984208D00E4B984205D0E9
:102430000D4B984202D00D4B984201D10B7A038686
:102440000123838270470000002C014000340140CA
:102450000004004000080040000C00400010004054
:102460000014004000400140004401400048014089
:1024700010B540F22551204800F050F800283AD01D
:102480001D4800F007F9C4B21C48008800F4004061
:10249000F8B91A48008800F4804090B10A2C03D0A3
:1024A00000201649088026E01448008840F40040C7
:1024B0001249088000200988C1F30D01104A5054C8
:1024C00019E00D2C06D10D48008840F480400B49DE
:1024D000088010E009480088C0F30D0008490C543A
:1024E00006480088401C0549088008460088FF28E7
:1024F00001DD0020088010BD003801401C000020D4
:102500004800002021B1828942F40052828104E017
:1025100082894DF6FF731A408281704770B502467A
:10252000002400230025002040F66A16B14200D1A5
:1025300000BFC1F3421501F01F03012606FA03F3A1
:10254000012D02D19689334006E0022D02D1168A70
:10255000334001E0968A33400C12012606FA04F457
:102560001688344013B10CB1012000E0002070BD8A
:10257000F0B50346002400260025002040F66A1727
:10258000B94200D100BF1846C1F3421401F01F0642
:10259000012707FA06F5012C01D10C3004E0022CCA
:1025A00001D1103000E014301AB107682F430760E2
:1025B00002E00768AF430760F0BD00002DE9F04777
:1025C00086B005460E460024A24600BFA14600275D
:1025D000B08900B100BF2F462C8A4CF6FF70044032
:1025E000F08804432C82AC894EF6F3100440B08886
:1025F00031890843718908430443AC81AC8A4FF6A2
:10260000FF400440B0890443AC8201A8FFF7DAFA26
:102610001F48874202D1DDF810A001E0DDF80CA0D0
:10262000A88900F4004040B10AEBCA0000EB0A1090
:1026300031684900B0FBF1F807E00AEBCA0000EB93
:102640000A1031688900B0FBF1F86420B8FBF0F0A3
:1026500004012009642101FB1089A88900F40040CD
:1026600040B1322000EBC900B0FBF1F000F00700F0
:10267000044308E0322000EB09106421B0FBF1F0C4
:1026800000F00F0004432C8106B0BDE8F087000085
:102690000038014001468888C0F3080070470000F8
:1026A0000FB4054B10B503A9044A029800F0F0F9E5
:1026B00010BC5DF814FB000009420008180000205F
:1026C000490050EAC12018BF04204A0D18BF40F04D
:1026D000010040F2FF72B2EB515F08BF40F0020010
:1026E000012808BF052070472DE9F0414F1E00EB7F
:1026F000C7010446D1E9000115461E4637F006021F
:102700000DD02A463346FDF785FE7F1E04EBC70336
:10271000D3E90023FDF7D7FD37F00602F1D1022FF0
:1027200025D0042F13D0062F18BFBDE8F0812A460C
:102730003346FDF76FFED4E90A23FDF7C4FD2A46B0
:102740003346FDF767FED4E90823FDF7BCFD2A46B2
:102750003346FDF75FFED4E90623FDF7B4FD2A46B4
:102760003346FDF757FED4E90423FDF7ACFD2A46B6
:102770003346FDF74FFED4E90223FDF7A4FD2A46B8
:102780003346FDF747FED4E90023BDE8F041FDF7ED
:102790009ABD0122FEF7A8BBFDF795BD00221346A6
:1027A00010461146FDF7A8BE024A00201107FEF7A9
:1027B0009BBB000001FDFFFF01480068704700005F
:1027C0004400002002E008C8121F08C1002AFAD104
:1027D00070477047002001E001C1121F002AFBD1A1
:1027E0007047000001490860704700004400002065
:1027F0002DE9F04706463046FDF765FF0746134AC8
:10280000134BFDF760FD0446FDF7A0FF81464846E7
:10281000FDF759FF07460F4A0F4BFDF77FFF08D220
:102820004846FDF750FF07460A4A0B4BFDF7ECFD03
:1028300002E04846FDF747FF0446FDF787FF814663
:10284000484600F0DFFCBDE8F0870000F4D64354B2
:10285000FB21F93FEA2E4454FB21194070B5044690
:102860000D462846FDF7B7FE06462146FDF7BBFCA0
:1028700070BD00002DE9FF5F82B00021DDE904306A
:10288000020DDDF840B0034318D044F61050A2F218
:10289000FF3242431514119801281FD0A5EB0B00FD
:1028A000401C5FEA000A4FF000064E4FDFF83891F7
:1028B000B046504615D5CAF1000413E01198012422
:1028C0004AA3012801D16FEA0B010298119AC0E9CD
:1028D0000031C0E9024206B0BDE8F09FCBF1000034
:1028E000DFE704460021404A491842EB0450CDE995
:1028F000001012E0E00707D032463B46404649460A
:10290000FDF788FD8046894632463B46104619460B
:10291000FDF780FD06460F466410002CEAD1DDE984
:102920000401DDE90023BAF1000F06DAFDF772FDBC
:1029300042464B46FDF76EFD05E0FDF7DDFD4246E4
:102940004B46FDF7D9FD04460E460022284BFDF705
:10295000E5FE03D84FF0FF30014607E00022254B8B
:1029600020463146FDF7AFFCFEF7BDF8102409E024
:10297000002C0ADB0A220023FDF72EFF039B3032D6
:102980001A55641E50EA0102F2D1641C039AC4F184
:1029900011031444119A012A03D0012208430DD1D6
:1029A0000AE0084304D000204FF0110B119072E7A9
:1029B000A3EB0B056D1E0DE05B4504DD4FF000023F
:1029C00005F1010504E003DA4FF00002A5F101056D
:1029D000002AECD002981199C0E90231C0E9004503
:1029E00079E70000000014400000F03F30000000D4
:1029F0000000F0430000E03F30380A2801D20120F7
:102A0000704700207047000000BF0A4801684FF07F
:102A1000E0208269074800688142F6D10648801AA2
:102A20004823B0FBF3F001EB4103C3EBC11300EB10
:102A3000C300704714000020401901002DE9F04741
:102A400006463046FDF73FFE07460F4A0F4B01F0A2
:102A500091FB0446FDF77AFE814600214846FDF7CA
:102A60009BFE03D84846FDF72EFE07E04846FDF7DB
:102A70002AFE0746044A054BFDF725FC0446FDF7F0
:102A800065FEBDE8F0870000EA2E4454FB211940A2
:102A90002DE9FF4F95B09B468946064600250FE27B
:102AA000252877D100242746F84A0121059400E023
:102AB000044316F8013F203B01FA03F01042F7D11E
:102AC00030782A2811D06FF02F033078A0F130022F
:102AD000092A16D8059A44F0020402EB820203EB9D
:102AE00042021044761C0590EFE759F8042B05923A
:102AF000002A03DA504244F40054059044F00204E2
:102B0000761C30782E2816D116F8010F44F00404F4
:102B10002A280DD06FF02F023078A0F13003092B56
:102B200009D807EB870302EB4303C718761CF3E7CA
:102B300059F8047B761C30786C280FD006DC4C28C2
:102B400017D068280DD06A2814D104E0742810D05A
:102B50007A280FD10DE044F400140AE044F4801404
:102B600001E044F440147278824202D104F58014EA
:102B7000761C761C307866280BD013DC582877D06A
:102B800009DC002875D04528F6D04628F4D047281F
:102B90001AD19DE118E0632835D0642879D06528E2
:102BA00012D195E1702873D008DC6728F1D069282C
:102BB0006FD06E280DD06F2806D1B5E073282CD0C9
:102BC000752875D0782874D05A46179990476D1C8F
:102BD00075E1C4F30250022809D003280DD0D9F8BA
:102BE000001004280DD00D6009F1040967E1D9F83F
:102BF0000010EA17C1E90052F6E7D9F800100D807D
:102C0000F2E70D70F0E719F8041B8DF800100020B2
:102C10008DF80100EA46012003E059F804AB4FF0BB
:102C2000FF3061074FF0000102D40DE008F101010F
:102C30008846B9420FDA8045F8DB1AF808100029F7
:102C4000F4D108E008F1010188468142FADB1AF864
:102C500008100029F6D105985B46A0EB080721462D
:102C60003846179A00F094FA284400EB080507E06C
:102C70004DE029E10DE01AF8010B5A4617999047EB
:102C8000B8F10108F7D25B4621463846179A13E19E
:102C900042E00A220092C4F302524FF0000A022AD4
:102CA00008D059F804CB032A4FEAEC710AD00DE0A2
:102CB00029E02AE009F1070121F00702F2E802C148
:102CC000914609E00FFA8CFC4FEAEC71042A03D11B
:102CD0004FFA8CFC4FEAEC71002907DA0A46002112
:102CE000DCF1000C61EB02012D2202E0220504D58B
:102CF0002B228DF80420012203E0E20701D02022DC
:102D0000F7E7904659E00A2102E010220DE0102179
:102D10004FF0000A00910BE010224FF0000A44F03F
:102D200004040827009203E008224FF0000A0092F2
:102D3000C4F30252022A05D059F804CB0021032A19
:102D400008D009E009F1070121F00702F2E802C109
:102D5000914605E01FFA8CFC042A01D10CF0FF0C0F
:102D60004FF00008220728D5702806D0009B83F07A
:102D7000100353EA0A0305D00EE040228DF8042028
:102D8000012208E05CEA010206D030228DF804201E
:102D90008DF8050002229046009B83F0080353EA59
:102DA0000A030AD15CEA010201D1620705D530228B
:102DB0008DF804204FF001087F1E582804D034A05D
:102DC00003900EA802900DE036A0F9E75346604646
:102DD000009AFDF701FD84460398825C0298401E2C
:102DE000029002705CEA0100F0D1029806A9081A6C
:102DF00000F1200A600702D524F4803400E00127A6
:102E0000574502DDA7EB0A0000E0002000EB0A01B5
:102E1000009005984144401A0590E00306D45B46B3
:102E20002146179A059800F0B3F90544002706E0FB
:102E300001A85A46C05D179990476D1C7F1C4745F5
:102E4000F6DBE0030CD55B462146179A059800F0A7
:102E50009FF9054404E030205A46179990476D1CAD
:102E60000099481E00900029F5DC08E002980299BC
:102E70005A460078491C0291179990476D1CBAF187
:102E80000001AAF1010AF1DC65E100000928010056
:102E900030313233343536373839616263646566D0
:102EA0000000000030313233343536373839414292
:102EB000434445460000000000F058F90544761CE4
:102EC000307800287FF4ECAD19B02846BDE8F08FCB
:102ED000620700D4062709F1070222F0070CFCE87C
:102EE0000223E14603F000485FEA080C02D00FF22B
:102EF000702C0DE05FEA045C02D50FF2682C07E04D
:102F00005FEAC47C02D00FF2602C01E0AFF2700CDB
:102F10004FF0FF3823F00043CDF850C065280CD0A7
:102F200006DC452809D046281DD047283DD13DE084
:102F3000662818D067287ED138E00021112F01DBE8
:102F4000112000E0781CCDE9000106A90EA8FFF7CA
:102F500091FCDDE90F010E9A03910021009207F127
:102F6000010A04914DE04FF000400097CDE90110B7
:102F700006A90EA8FFF77EFCDDE90F0203920E9B67
:102F800011990022DDF80CA00093049211B9791C6C
:102F900000EB010AB7EB0A0004D4C0F1FF3007F1DF
:102FA000010A0490AAEB0700019044E0012F00DA27
:102FB00001270021112F01DD112000E03846CDE965
:102FC000000106A90EA8FFF755FCDDE90F010E9AD6
:102FD0000391002104910092BA4621070CD4039971
:102FE000514500DA8A46BAF1010F05DD009AAAF1CF
:102FF0000101515C302908D0B84202DA10F1040F07
:1030000006DA0121CDE9011015E0AAF10101E9E795
:10301000002805DC049901440491AAEB000102E0B8
:10302000411C514500DD8A460499401A401C01901C
:103030004FF000400290200704D40198504501DB76
:10304000CDF8048000208DF84F0002980DF14F0755
:10305000B0F1004F25D02B200E9002984FF00208BF
:1030600000280CDA404202902D200E9007E00A2141
:103070000298FDF79BFB3031029007F8011DB8F173
:103080000001A8F10108F2DC02980028EFD1791EB6
:103090000E980870307800F0200040F0450007F8E6
:1030A000020D12A8C01B00F107081498007800B1A7
:1030B000012000EB0A01019801EBE0710598414401
:1030C000401A401E0590E00306D45B462146179A3D
:1030D000059800F05DF805441498007818B15A4638
:1030E000179990476D1CE00324D55B462146179A3B
:1030F000059800F04DF805441CE00498002807DB13
:10310000DDE90301884203DD0098405C179901E086
:10311000179930205A469047049805F10105401C44
:1031200004900198401E019004D12E205A46179910
:1031300090476D1CBAF10001AAF1010ADDDC05E03F
:1031400017F8010B5A46179990476D1CB8F100010A
:10315000A8F10108F4DC5B462146179A0598ABE616
:103160002D0000002B000000200000002DE9F041A0
:10317000044600251E461746880404D405E0394657
:103180002020B0476D1C641EF9D52846BDE8F081AB
:103190002DE9F041044600251E469046C80301D59E
:1031A000302700E02027880404D505E04146384652
:1031B000B0476D1C641EF9D52846BDE8F0810000BB
:1031C0002DE9F84F8246504600F06CFB00900098C5
:1031D000FDF70AFA8346FDF776FA80464FF066322D
:1031E000064BFDF717F906460022054BFDF784F95B
:1031F0000446FDF7ABFABDE8F88F000066660A40AA
:103200000000B0402DE9FF5F83465846FDF75BFAAA
:103210000446954A954BFDF769FA44D25846FDF7A6
:1032200052FA934A934BCDE90201FDF7F3F8804639
:1032300000221346FDF772FA12D85846FDF743FAFA
:1032400080468B4A8B4BFDF7E5F800228A4BCDE98F
:103250000001FDF738F8CDE90201FDF7FCF911E0B6
:103260005846FDF730FA824A824BCDE90001FDF75E
:10327000D1F80022804BCDE90201FDF7C5F8804668
:10328000FDF7E9F97D4951F820A05046FDF7B1F965
:1032900006467B4A7B4BFDF7BDF80446FDF756FA20
:1032A00004B0BDE8F09F5846FDF70DFA0446764A93
:1032B000764BFDF71BFA44D25846FDF704FA6C4AE8
:1032C0006C4BCDE90201FDF7A5F8804600221346BC
:1032D000FDF724FA12D85846FDF7F5F9644A654B14
:1032E000CDE90001FDF796F80022634BCDE902011C
:1032F000FCF7E9FF8046FDF7AEF911E05846FDF70F
:10330000E2F95B4A5B4BCDE90001FDF783F800224F
:10331000594BCDE90201FDF777F88046FDF79BF99F
:10332000C0F5C770554951F820A05046FDF761F926
:103330000646534A534BFDF76DF80446FDF706FA6F
:10334000AEE75846FDF7BFF90446514A514BFDF729
:10335000CDF944D25846FDF7B6F9454A454BCDE97B
:103360000201FDF757F8804600221346FDF7D6F913
:1033700012D85846FDF7A7F93D4A3E4BCDE900016A
:10338000FDF748F8804600223B4BFCF79CFFCDE957
:103390000201FDF760F911E05846FDF794F9344A4F
:1033A000344BCDE90001FDF735F880460022324B61
:1033B000FDF72AF8CDE90201FDF74DF9A0F5C77038
:1033C0002E4951F820A05046FDF713F906462C4A25
:1033D000314BFDF71FF80446FDF7B8F960E7584692
:1033E000FDF771F98046224A224BFDF713F80022BF
:1033F0001346CDE90201FDF791F912D85846FDF7C1
:1034000062F91B4A1B4BCDE90001FDF703F880462A
:103410000022194BFCF757FFCDE90201FDF71BF91C
:1034200011E05846FDF74FF98046114A114BFCF761
:10343000F1FF0022104BCDE90001FCF7E5FFCDE9DB
:103440000201FDF708F9C0F547700C4951F820A0BA
:103450005046FDF7CEF80646094A0F4BFCF7DAFF57
:103460000446FDF773F91BE7F4D64354FB21F93FFB
:103470009CA223B9FCAB5F400000E03FC0510008B4
:103480002D431CEBE2361A3FEA2E4454FB2109403F
:10349000320D337F7CD91240E2361ABF70B5044634
:1034A00025462E460448A0EB6606354629462046AA
:1034B000FCF799FE70BD0000865A375F2DE9F04F8A
:1034C00087B00446211DA2A0FFF7EAF894F8160180
:1034D00000287DD1002521E02846FDF78AF88246A4
:1034E000A04AA14BFCF796FF074600229F4BFDF731
:1034F00003F89F4A9F4BCDE90001FCF7E4FECDE9BC
:103500000201FDF723F981464B4600222046E1687F
:1035100001F0F0FA022000F0FFFD6D1CB5F5FA7F16
:10352000DADD204600F07EFE05904FF4FA7521E0CA
:103530002846FDF75EF807468A4A8B4BFCF76AFF80
:1035400000228A4BCDE90001FCF7D6FF884A894B5F
:10355000CDE90201FCF7B7FE8246FDF7F7F8814698
:103560004B4600222046E16801F0C4FA022000F038
:10357000D3FD6D1E002DDBDA204600F053FE0490D3
:1035800000231A461946204601F0B4FAC82000F07C
:10359000C3FD0598FDF797F807463A460B4676A017
:1035A000FFF77EF80498FDF78EF807463A460B467B
:1035B00076A0FFF775F8DDE90410FCF70EFE8246F1
:1035C000FDF781F821F000410746FDF7BFF800E064
:1035D00073E00646DDE90410FDF7D4F808D0304664
:1035E000FDF771F807466E4A6E4BFDF77FF815D26E
:1035F000211D6DA0FFF754F86079312805D14FF4F3
:1036000000717448FDF7BFFF03E008217148FDF722
:10361000BAFF0020206007B0BDE8F08FDDE904109C
:10362000FDF7B0F807D2211D6BA0FFF739F8FF2096
:1036300084F8160106E0211D6EA0FFF731F8012085
:1036400084F81601211D72A0FFF72AF82069FCF703
:10365000C2FF31460290FCF7C6FD0390FDF733F838
:103660000746404A404BFCF7CFFE21F0004182461E
:1036700000226B4BFDF752F81BD26AA0FFF710F83F
:103680003046FDF720F802460B46CDE902013548E9
:103690003549FCF731FF07460022614BFCF713FE6A
:1036A0008246FCF7D8FF206164A02169FEF7F8FF8D
:1036B00007E064A0FEF7F4FF03E0211D63A0FEF71E
:1036C000EFFF0021D4F81801FDF75CF839D1654B04
:1036D00000222046E16801F00DFA4FF42F7000F04F
:1036E0001BFD204600F09EFD824694F91601FCF772
:1036F00072FF83465146FCF776FD80462169FFF74D
:10370000ADF80746FFF79AF9C4F81801142000F045
:1037100003FD211D54A0FEF7C3FFD4F81801FCF7E8
:10372000D2FF07463A460B4655A0FEF7B9FF0023E5
:103730001A461946204601F0DDF9C82000F0ECFCDD
:1037400003E0211D50A0FEF7ABFF012063E700005E
:1037500025733A20416C69676E2073656E736F72D2
:103760002E0D0A00EA2E4454FB21194000407F40F0
:10377000320D337F7CD912406D69645F616E676C76
:10378000653D252E34660D0A00000000656E645FFD
:10379000616E676C653D252E34660D0A00000000E1
:1037A0007B14AE47E17A843F25733A204661696C09
:1037B000656420746F206E6F74696365206D6F7629
:1037C000656D656E74206C6F6F703232322E0D0A2B
:1037D00000000000000C014025733A2073656E73F1
:1037E0006F725F646972656374696F6E3D3D4343D8
:1037F000570D0A0025733A2073656E736F725F640C
:103800006972656374696F6E3D3D43570D0A000030
:1038100025733A20505020636865636B3A2000009E
:103820000000E03F6661696C202D20657374696D4E
:10383000617465642070703A0000000025640D0A10
:10384000000000004F4B210D0A00000025733A20B4
:10385000536B6970206469722063616C69622E0D1C
:103860000A000000E4CB964025733A205A65726F37
:1038700020656C65632E20616E676C653A00000000
:10388000252E34660D0A000025733A20536B6970AB
:10389000206F66667365742063616C69622E0D0A21
:1038A0000000000010B50446022301222146094809
:1038B000FDF7D6FB01210748FDF733FC00BF0221CD
:1038C0000448FDF791FB0028F9D00248FDF788FB7A
:1038D00010BD0000002401402DE9FC5F04460D46A8
:1038E000FFF792F88146E169A9EB0100FCF77CFE45
:1038F00007463949FCF777FC8246C4F81C90002142
:103900005046FCF73FFF05D94FF07C515046FCF77D
:1039100043FF01D2DFF8C4A051466069FCF763FCA5
:103920008346FCF7D0FE074688462846D4F81C118B
:10393000FCF753FC8346FCF7C6FE21F000413A46F3
:103940004346CDE90001FCF7E9FE2FD22846D4F822
:103950001C11FCF742FC00210090FCF713FF02D27F
:103960004FF0FF300CE02846D4F81C11FCF735FC72
:1039700000210090FCF710FF01D2012000E00020A0
:103980000190FCF728FE83466169FCF72CFC804619
:103990005146FCF728FC0746D4F81C11FCF7CBFB7A
:1039A000C4F81C016069C4F8240104E0C4F81C5187
:1039B0000020C4F82401A6682169D4F81C01FEF790
:1039C0004DFF07463B4600223146204601F092F863
:1039D0003046BDE8FC9F0000BD3786356F12833A44
:1039E0002DE9F84F04460D4621F00040009173493F
:1039F000814211DC7249884201DC06D12CB120469B
:103A00002946BDE8F84FFEF7C4BE6E48002DCCBF76
:103A10006D496E49BDE8F88F6D49814211DD6D49F0
:103A20008142D8BF4FF0FF366DDD20462946FEF7B4
:103A300047FE042808BFFEF7B7FE20462946BDE82A
:103A4000F88F6549654F25F00045814233DD6449B3
:103A5000814219DD002632464FF080432046294638
:103A6000FCF731FC80468A46012220462946FDF7B4
:103A70003BFA00223B46FCF7C7FC42465346FCF7A4
:103A80003BFD04460D463EE001260022BA463B4679
:103A900020462946FCF717FC80460F460022534675
:103AA00020462946FCF7B0FC42463B46FCF724FD85
:103AB00004460D4627E04B4981421BDDDFF828A173
:103AC00002260022534620462946FCF7A3FC00228A
:103AD0003B46FCF7F8FB80460F4600225346204643
:103AE0002946FCF791FC42463B46FCF705FD04469F
:103AF0000D4608E0032622462B4600203B49FCF7F2
:103B0000FBFC04460D4622462B4610461946FCF7A0
:103B100081FC8B46824602460B46FCF77BFC07463F
:103B20000246334888460B4606217844FEF7DCFD02
:103B300052465B46FCF76EFC82462E488B463A4660
:103B4000434605217844FEF7CFFD3A464346FCF74D
:103B500061FC02460B46002E504659460CDAFCF733
:103B6000B2FB22462B46FCF755FC01B022462B4601
:103B7000BDE8F04FFCF74BBCFCF7A5FB22462B46FB
:103B8000FCF748FC1C4A7A4402EBC603D3E9002345
:103B9000FCF73AFC22462B46FCF736FC174A7A44DF
:103BA00002EBC603D3E90023FCF731FC009A002A9C
:103BB000B8BF81F00041BDE8F88F0000000010445C
:103BC0000000F07F182D4454FB21F93FFB21F9BF81
:103BD0000000DC3F0000203E0000F33F0000F03F0B
:103BE0000000E63F008003400000F83F0000F0BF07
:103BF000221A0000E01900007E190000461900009A
:103C00002DE9F04D9446CCF1000423F000464CEA37
:103C10000404524F46EAD4749A46884621F0004282
:103C2000BC4206D8454240EA050442EAD474BC428C
:103C300004D9BDE8F04D6246FEF7AEBDAAF140558D
:103C4000A5F17F6555EA0C040BD0022404EAAA749E
:103C5000434DDFF810E144EAD87452EA000B04D077
:103C60000CE0BDE8F04DFFF7BBBE002C14BF012CEB
:103C7000BDE8F08D022C30D0032C32D056EA0C0B6C
:103C80000AD0BE4220D1BA4209D126F0804622F0A5
:103C900080423346114617E000291ADB25E0DFF8A1
:103CA000C8B0FB44002C04BFDBE90001BDE8F08D87
:103CB000012C02BFDBE9000181F00041BDE8F08D7D
:103CC000022C0AD0032C0CD0BA4212D1B8F1000F4A
:103CD0000BDA23482549BDE8F08D28462449BDE884
:103CE000F08D28467146BDE8F08D1D482149BDE89C
:103CF000F08D921B12153C2AC4BF19481D490EDCD9
:103D0000BAF1000FBEBF12F13C0F0020014606DBE6
:103D10006246FCF7F1FB21F00041FFF761FE002C49
:103D200008BFBDE8F08D012C04BF81F00041BDE863
:103D3000F08D114A114B022C07D0FCF765FB2A4687
:103D4000BDE8F04D0A4BFCF75FBBFCF75DFB2A4674
:103D5000BDE8F04D064BFCF75ABB00000000F07FB9
:103D6000182D4454FB2109C0DA180000FB21F9BFCB
:103D7000FB210940FB21F93F075C143326A6A13C37
:103D800030B583B00446FEF717FD05460020CDE9A7
:103D90000000024621466846FCF79BFD2846FEF7D8
:103DA00021FDDDE9000103B030BD000070B582489F
:103DB000008800F40040002873D0804800784D2827
:103DC0004ED006DC41280DD042281ED0482808D10C
:103DD00004E04E287DD05428F9D129E078A0FEF7E0
:103DE0005FFCE3E07548401CFFF7CAFF0446FCF7A0
:103DF000ADFC77490862086AFCF765FC0446224678
:103E00000B4674A0FEF74CFCD0E06C48401CFFF75A
:103E1000B7FF0446FCF79AFC71490862086AFCF790
:103E200052FC044622460B466EA0FEF739FCBDE06C
:103E30006248401CFFF7A4FF0446FCF787FC644976
:103E400008620846006A664908626149086AFCF728
:103E50003AFC044622460B4665A0FEF721FCA5E08D
:103E600056484078412841D049281BD0502802D0DC
:103E7000562847D12EE05148801CFFF781FF0446A9
:103E8000FCF764FC5249C8660846C06E8864C86E78
:103E9000FCF719FC044622460B4658A0FEF700FC2E
:103EA00030E087E04548801CFFF76AFF0446FCF7D6
:103EB0004DFC474908670846016FC1640146086F19
:103EC000FCF701FC044622460B4651A0FEF7E8FB36
:103ED00018E019E03E49D1F82401FCF7F4FB044650
:103EE00022460B464FA0FEF7DBFB0BE03849D1F82A
:103EF0001C01FCF7E8FB044622460B464DA0FEF7EA
:103F0000CFFB00BF00BF51E02C48407841283FD094
:103F100049281AD0502802D0562845D12CE02748ED
:103F2000801CFFF72DFF0446FCF710FC2C49C866E7
:103F30000846C06E8864C86EFCF7C5FB044622467E
:103F40000B4640A0FEF7ACFB2EE01C48801CFFF7A0
:103F500017FF0446FCF7FAFB214908670846016F82
:103F6000C1640146086FFCF7AEFB044622460B46CF
:103F700039A0FEF795FB17E01949D1F82401FCF7A9
:103F8000A2FB044622460B4638A0FEF789FB0BE055
:103F90001349D1F81C01FCF796FB044622460B4658
:103FA00036A0FEF77DFB00BF00BF00BF00BF0020B2
:103FB0000149088070BD00001C000020480000205E
:103FC00048656C6C6F20576F726C64210D0A00009D
:103FD00048010020413D252E34660D0A00000000F6
:103FE00090020020423D252E34660D0A000000009C
:103FF000543D252E34660D0A000000004D312E631D
:10400000757272656E742E503D252E34660D0A0051
:104010004D312E63757272656E742E493D252E34B6
:10402000660D0A004D312E76656C3D252E32660DEB
:104030000A0000004D312E616E673D252E32660D5F
:104040000A0000004D322E63757272656E742E5038
:104050003D252E34660D0A004D322E637572726551
:104060006E742E493D252E34660D0A004D322E7693
:10407000656C3D252E32660D0A0000004D322E6122
:104080006E673D252E32660D0A00000000B587B030
:1040900001214FF40370FDF775FD4FF40040FDF76B
:1040A00045FD0120ADF8040000208DF8070001A9AE
:1040B0001748FDF78BF91748FCF75AFF00200290CC
:1040C0008DF80C008DF80D004FF460200490002056
:1040D000059001208DF8180002A90E48FCF798FF02
:1040E00001210C48FCF738FF0A48FDF715F800BF1E
:1040F0000848FCF782FF0028FAD10648FDF71CF8B3
:1041000000BF0448FCF762FF0028FAD107B000BDE9
:10411000000C014000240140F0B50646FEF774FC97
:10412000054600BFFEF770FC0446AC4201D3671B96
:1041300002E0C5F1FF30071906EB4600C0EBC610E0
:10414000B7EBC00FEED3F0BD2DE9F0410446206976
:10415000FCF741FA0746D4F81C11FCF744F8064670
:10416000D4F81811FCF739F80546FEF767FCBDE8EE
:10417000F081000070B514461D460E46002814BF9D
:1041800001210021314321F00041C1F17F6101F1A2
:10419000E041C90F16D1002C14BF01210021294391
:1041A00021F00041C1F17F6101F1E041C90F09D166
:1041B0001449B1EB460F08BF00281CD0690008BFA6
:1041C000002C18D03146FCF74BFC024640F2FF7041
:1041D00030EA11500DD0F017B0EBE17F09D008465E
:1041E00065F31E0084460B4620466146FCF70FF936
:1041F0000246104670BD0120FEF7F4FABDE870409B
:10420000FEF7CCBA0000E0FF00BF054A128802F0BA
:104210004002002AF9D0C2B2014B1B1D1A80704720
:10422000003801402DE9F05F0446EC210859FCF705
:10423000D2F9824694F9DE20E021095901EB4101CF
:1042400002EB4100FCF7C7F983465146FBF7FDFF3F
:104250008146FCF738FA0746044A054BFCF7DAF8C2
:104260000546FCF773FABDE8F09F0000EA2E4454BF
:10427000FB21194010B500F04DF904462046FCF72B
:10428000B3F910BD2DE9F04F8BB0064689464FF0CB
:104290007E500790314604A800F04AF904A807C8E8
:1042A00008AB07C300210A98FCF76CFA1DD1089CE3
:1042B0000998FCF708FA0746454A464BFCF7AAF866
:1042C000CDE902010898FCF7FEF90746404A424B47
:1042D000FCF7A0F88246DDE90223FBF7F4FFCDE905
:1042E0000401FCF733FA054635E0DDE90801FBF788
:1042F00022FF80460A99FBF71EFF07463749FBF766
:1043000072FF834659460898FBF767FF8246594675
:104310000998FBF762FF069054460698FCF7D3F91C
:1043200007462B4A2B4BFCF775F8CDE902015046A6
:10433000FCF7C9F90746264A274BFCF76BF8CDE98D
:104340000001DDE90223FBF7BEFFCDE90401FCF724
:10435000FDF9054600BF00214846FCF713FA1FD0BF
:104360004846FEF74FFF21460690FBF73CFF82468A
:104370004846FEF73DFA29460690FBF734FF834690
:104380005146FBF72AFF80460021FCF705FA01D2CF
:10439000012001E04FF0FF300746FCF71CF90790C1
:1043A00029462846FBF71FFF824621462046FBF799
:1043B0001AFF83465146FBF7BEFE8046FFF76EF8B4
:1043C00007460799FBF70FFF0BB0BDE8F08F000021
:1043D00047409045A779F23FA779E23FABAAAA3EB2
:1043E0002DE9F74F8EB00646914604A80F9900F0CC
:1043F0009FF804A807C80BAB07C300210D98FCF772
:10440000C1F91DD10B9C0C98FCF75DF907463D4A9C
:104410003D4BFBF7FFFFCDE902010B98FCF753F989
:104420000746384A394BFBF7F5FF8246DDE90223A0
:10443000FBF749FFCDE90401FCF788F9054635E0B3
:10444000DDE90B01FBF777FE80460D99FBF773FE64
:1044500007462F49FBF7C7FE834659460B98FBF7E3
:10446000BCFE824659460C98FBF7B7FE06905446B0
:104470000698FCF728F90746224A234BFBF7CAFFA8
:10448000CDE902015046FCF71EF907461D4A1F4BB5
:10449000FBF7C0FFCDE90001DDE90223FBF713FFC5
:1044A000CDE90401FCF752F9054600BF4846FEF786
:1044B0009FF90A904846FEF7A5FE099028460999FB
:1044C000FBF791FE074620460A99FBF78CFE8046D3
:1044D0003946FBF730FE079020460999FBF783FE2B
:1044E000074628460A99FBF77EFE80463946FBF7C9
:1044F00074FE0890DDE90701C6E9000111B0BDE8CE
:10450000F08F000047409045A779F23FA779E23F3E
:10451000ABAAAA3E10B50820FEF752FE0446FCF7EF
:1045200086F8024908600846006810BD380000207F
:10453000FEB505460C4614F8F00FFEF741FE07469F
:10454000A169FBF74AFE0646E168FBF74CFE0090C6
:104550002079FEF735FE0746E169FBF73EFE064689
:104560002169FBF740FE0190A068F03C0B498842AE
:1045700001D100200CE014F8F80FFEF721FE0746E9
:10458000A169FBF72AFE0646E168F83CFBF72BFE23
:1045900002909DE8070085E80700FEBDC7CFFFFF3A
:1045A0002DE9F04F89B08246E82050F80A0050B15A
:1045B000FEF72AFAE42151F80A10411AE82050F8CF
:1045C0000A00814203DD002009B0BDE8F08FE82138
:1045D00051F80A00FBF7FFFF07461D49FBF735FEC0
:1045E0000646FCF770F8CDE90601EC2151F80A0007
:1045F000FBF7F1FF0190FCF766F802460B46CDE9A8
:10460000020114481449FBF777FF06460F469AF952
:10461000DC00FBF7EEFF804632463B46FBF7FAFE36
:10462000CDE90401DDE90623FBF766FF0446FCF74C
:104630008DF8834609495846FCF7A4F804D3084985
:104640005846FCF7A9F801D24FF0000B5846BBE7DB
:1046500000247449EA2E4454FB21194000007AC416
:1046600000007A447CB50446206800B97CBD94F80B
:104670001501042803D094F81501032800D1F5E7AB
:10468000204600F059FCC4F81C01204600F06EFCE6
:10469000C4F834012046FFF757FDC4F8200194F810
:1046A000140120B1012803D0022855D120E058E0A0
:1046B0002046D4F82011FFF7E5FD2F494860084651
:1046C000416804F12400FDF731F82B4948600A469F
:1046D0005168D4F82801FBF780FD0546294604F10E
:1046E0004800FDF767F9254948600020086038E078
:1046F00021466846D4F82021FFF772FE1E48DDE906
:10470000001206C00838416804F12400FDF70EF8D5
:10471000194948600846016804F13000FDF706F8C1
:10472000154908600A465168D4F82801FBF755FD81
:104730000546294604F14800FDF73CF90F49486059
:104740000D48006880F00045294604F16C00FDF733
:1047500031F90A49086004E0211D09A0FDF7A0FF16
:1047600000BF00BF0548D4F82031026841682046E8
:1047700000F0C0F900BF79E72C00002024000020E1
:1047800025733A206E6F20746F7271756520636FA8
:104790006E74726F6C2073656C6563746564210060
:1047A000FCF7BEFD4FF4E13000F020FC73A174482B
:1047B000FBF7B8FC73A17448FBF7B4FCFDF718FBDA
:1047C000FDF776FB00F0EEFB70A0FDF769FF4FF4FC
:1047D0007A70FFF7A1FCFFF759FC6948001FFCF74E
:1047E0008BFF6948001FFCF787FF6548001FFDF736
:1047F00095F86548001FFDF791F869486949086018
:1048000002205F49091F08616748C86067488860DF
:104810006748486167488861002081F814010220D8
:1048200081F815016448C8664FF07C515448001F58
:10483000016761485249091F88644FF07C51504814
:10484000001FC1645D484E49091FC1F890005A49D4
:104850004B48001FC0F8941055484949091FC1F83A
:10486000B40054494648001FC0F89C1054484449BD
:10487000091FC8630020086202204349091F08611C
:104880004FF07F50C8604F488860494848614948A8
:104890008861002081F81401022081F81501464842
:1048A000C8664FF07C513848001F016742483649BE
:1048B000091F88644FF07C513348001FC1643F4892
:1048C0003149091FC1F890003B492F48001FC0F82B
:1048D000941037482C49091FC1F8B40035492A48BB
:1048E000001FC0F89C1036482749091FC8630020E4
:1048F0000862FCF74DFE2248001FFCF761FF2248CA
:10490000001FFCF75DFF01222F491D48001FFCF727
:104910009DFF002211461C48001FFCF797FF2BA0AB
:10492000FDF7BEFE29E000F049FB2C490968084468
:104930002A4908600846006841F28831884208DB4D
:104940000020264908602648C06880F400502449A9
:10495000C8600B48001F016A00F044F80848001FB7
:10496000FFF780FE0848001F016A00F03BF8064888
:10497000001FFFF777FEFFF719FAD4E74D3100006B
:104980004C0100204D32000094020020446F7562FB
:104990006C652048414C4C2046310D0A0000000057
:1049A0000000C041340000200000204000004041D1
:1049B0000000A041000048429A99193FCDCCCC3D5F
:1049C000CDCC4C3D0000C040A60A06404D6F746F30
:1049D000722072656164792E0D0A0000400000208B
:1049E0000010014070B504460D46206800B970BD46
:1049F000204600F0C0FAC4F8240194F815010528F7
:104A000072D2DFE800F0033F0C59650094F81401FE
:104A100010B93748456001E0C4F8285164E02846E1
:104A2000D4F83411FBF7D9FB0646314604F1B40043
:104A3000FCF7C0FFC4F83001D4F81C11D4F83001E1
:104A4000FBF7CBFB0646314604F1B400FCF7B2FF9E
:104A5000C4F82C01D4F82411D4F82C01FBF7BDFBC9
:104A60000646314604F19000FCF7A4FFC4F8280183
:104A700094F8140128B91E49D4F828014860002090
:104A8000086031E0C4F82C51D4F82411D4F82C017A
:104A9000FBF7A3FB0646314604F19000FCF78AFFC2
:104AA000C4F8280194F8140128B91149D4F8280150
:104AB00048600020086017E0C4F82C512046D4F864
:104AC0002C1100F033FB0A494860002008600BE01D
:104AD000C4F830512046D4F83011FEF7FDFE0449E9
:104AE00048600020086000BF00BF00BF7FE70000F3
:104AF000240000202DE9FF4F97B083469046002107
:104B00004046FBF73FFE38D018990846FBF76BFB91
:104B1000414611904046FBF766FB10901199FBF758
:104B20000AFB1290FEF7BAFC1390F948016813983B
:104B3000FBF78BFB81464046FBF7C5FDCDE90A013B
:104B40001898FBF7C0FDCDE90801DDE90A23FFF75E
:104B500057F8CDE90E011A98FBF7B5FDCDE90C0128
:104B6000DDE90E23FBF7AFFBCDE91001FBF7EEFD0E
:104B70001390FDF763FF1A9016E0E5480168189856
:104B8000FBF763FB81461A98FBF79DFDE14AE24B78
:104B9000CDE90E01FBF797FBCDE91001FBF7D6FD40
:104BA0001390FDF74BFF1A901A98FBF78CFDDB4A28
:104BB000DB4BCDE90E01FBF79FFC0022D94BCDE981
:104BC0001001FBF780FBCDE91201FBF763FD0746FF
:104BD0004846FBF778FDCDE910011A98FBF773FD05
:104BE000CDE906013846FBF715FDCC4ACC4BCDE9A3
:104BF0000201FBF70FFCCDE90401DDE90623FBF719
:104C000003FCCDE90801FBF7A1FD0A90FEF7FAFAD3
:104C10000B90FBF758FDC44AC44BCDE90C01FBF7E0
:104C2000F9FBCDE90E01DDE91023FBF7F3FBCDE93C
:104C30001201FBF78BFD82464846FBF744FDCDE9A8
:104C400010013846FBF7E6FC0022B64BCDE9000127
:104C5000FBF7DAFBB14AB24BCDE90201FBF7DAFB15
:104C6000CDE906011A98FBF72EFDCDE90401DDE937
:104C70000623FBF7C9FBCDE90801FBF767FD0A90A6
:104C8000FEF7C0FA0B90FBF71EFDA74AA74BCDE934
:104C90000C01FBF7BFFBCDE90E01DDE91023FBF7AB
:104CA000B9FBCDE91201FBF751FD149051464FF0CD
:104CB0007E50FBF792FA13901499FBF78EFA159039
:104CC000072F7DD2DFE807F0C60424446486A600DF
:104CD0004FF080411598FBF7B8FA1390504614999D
:104CE000FBF729FA12901399FBF725FA04464FF0C7
:104CF00080411598FBF7A9FA13901499FBF71BFA5A
:104D000005464FF080411598FBF79FFA0646A5E04F
:104D10004FF080411598FBF798FA51461390FBF736
:104D20000AFA04464FF080411598FBF78EFA13906B
:104D300050461499FBF7FFF912901399FBF7FBF912
:104D400005464FF080411598FBF77FFA064685E04F
:104D50004FF080411598FBF778FA04464FF08041F8
:104D60001598FBF772FA139050461499FBF7E3F984
:104D700012901399FBF7DFF905464FF08041159823
:104D8000FBF763FA13901499FBF7D5F9064665E033
:104D90004FF080411598FBF758FA04464FF08041D8
:104DA0001598FBF752FA51461390FBF7C4F90546E4
:104DB0004FF080411598FBF748FA1390504600E0F9
:104DC00048E01499FBF7B7F912901399FBF7B3F980
:104DD000064643E04FF080411598FBF736FA1390F2
:104DE0001499FBF7A8F904464FF080411598FBF79A
:104DF0002CFA05464FF080411598FBF726FA1390E0
:104E000050461499FBF797F912901399FBF793F911
:104E1000064623E04FF080411598FBF716FA1390F1
:104E200050461499FBF787F912901399FBF783F911
:104E300004464FF080411598FBF707FA05464FF0FE
:104E400080411598FBF701FA51461390FBF773F96F
:104E5000064603E000240025002600BF00BF9BF8A3
:104E6000050031282AD132492046FBF7BCF91290BF
:104E7000FBF7DDFB80B2014613904FF08040FDF759
:104E80009EFA2B492846FBF7AEF91290FBF7CFFBB1
:104E900080B2014613904FF08040FDF792FA24490A
:104EA0003046FBF7A0F91290FBF7C1FB80B2014638
:104EB00013904FF08040FDF786FA26E01C4920460B
:104EC000FBF791F91290FBF7B2FB80B20146139009
:104ED0001848FDF774FA16492846FBF784F9129032
:104EE000FBF7A5FB80B2014613901248FDF769FA63
:104EF0000F493046FBF777F91290FBF798FB80B229
:104F0000014613900B48FDF75EFA1BB0BDE8F08F29
:104F100034000020F4D64354FB21F93F40AF2D3834
:104F200052C1F03F0000F03F6B6058E87AB6FB3F9B
:104F30000000B444000400402DE9F041044620463E
:104F4000FFF770F9064694F91601FBF744FB074694
:104F50003146FBF748F90546034801682846FBF748
:104F60003CF9BDE8F08100002000002010B50446A7
:104F7000FFF780F910BD2DE9F04104462046FFF708
:104F80000FFB0746394604F13C00FCF7CFFB054612
:104F900094F91601FBF71FFB06462946FBF723F998
:104FA000BDE8F08104484FF0E021486100208861AD
:104FB00007200861704700004019010070B5FDF737
:104FC00023FD044608480068844203D3064800686D
:104FD000251A04E004480068C0F1FF3005190248B2
:104FE0000460284670BD00003C00002010B586B06B
:104FF0000446012144F20400FCF7C4FD4FF40070A4
:10500000ADF8140003208DF8160018208DF8170055
:1050100005A91C48FCF7DAF94FF48060ADF81400DC
:1050200004208DF8170005A91648FCF7CFF92520B4
:105030008DF8000003208DF801008DF8020001209A
:105040008DF803006846FCF731FC01940020ADF8B0
:105050000800ADF80A00ADF80C00ADF810000C2007
:10506000ADF80E0001A90848FDF7A8FA012240F2A8
:1050700025510548FDF77CFA01210348FDF742FA66
:1050800006B010BD00080140003801402DE9F04194
:105090000446FDF7B9FC0646A078617800EB4100B4
:1050A000217800EB8100C7B2E078B84201D1BDE8B9
:1050B000F081E770E0781C490D5694F90600281A33
:1050C000032807DDFF20207194F90410A06808442C
:1050D000A06016E094F90600281A10F1030F07DA11
:1050E0000120207194F90410A0680844A06008E031
:1050F00094F90600A84201DA012001E04FF0FF30E8
:105100002071A57194F9040094F90510884203D127
:10511000E068301A206101E000202061E66020791B
:10512000607100BFC3E70000E05400082DE9F047BC
:1051300004460D46FDF768FC8146E169A9EB0100D4
:10514000FBF752FA07461B49FBF74DF88246C4F8B5
:105150001C9000215046FBF715FB08D95046FBF781
:10516000B2FA07460022144BFBF7D8FA01D2DFF857
:105170004CA051462846FBF736F88046D4F81C115F
:10518000FAF7D9FF0746FDF759FCC4F81C01C4F82B
:105190002451A6682169D4F81C01FDF75FFB07467E
:1051A0003B46002231462046FFF7A4FC3046BDE8CE
:1051B000F0870000BD3786350000E03F6F12833A6C
:1051C000000000004F0000009E000000ED00000005
:1051D0003C0100008B010000D90100002802000002
:1051E00077020000C6020000150300006303000000
:1051F000B2030000000400004F0400009D04000002
:10520000EC0400003A05000088050000D605000007
:105210002406000072060000C00600000E07000011
:105220005B070000A9070000F60700004308000024
:1052300090080000DD0800002A090000770900003E
:10524000C30900000F0A00005C0A0000A80A000061
:10525000F40A00003F0B00008B0B0000D60B00008F
:10526000210C00006C0C0000B70C0000010D0000C8
:105270004C0D0000960D0000E00D0000290E00000E
:10528000730E0000BC0E0000050F00004E0F000062
:10529000960F0000DF0F0000271000006E100000C6
:1052A000B6100000FD100000441100008B1100003A
:1052B000D1110000171200005D120000A2120000C0
:1052C000E81200002D13000071130000B613000057
:1052D000F91300003D14000081140000C414000004
:1052E00006150000491500008B150000CC150000C4
:1052F0000E1600004F1600008F160000CF1600009B
:105300000F1700004F1700008E170000CD17000088
:105310000B1800004918000087180000C41800008E
:10532000011900003D19000079190000B5190000AD
:10533000F01900002B1A0000661A00009F1A0000E6
:10534000D91A0000121B00004B1B0000831B000039
:10535000BB1B0000F21B0000291C0000601C0000A9
:10536000961C0000CB1C0000001D0000351D000035
:10537000691D00009D1D0000D01D0000031E0000DF
:10538000351E0000671E0000981E0000C91E0000A8
:10539000FA1E0000291F0000591F0000881F00008E
:1053A000B61F0000E41F0000112000003E20000096
:1053B0006A20000096200000C1200000EC200000C0
:1053C0001621000040210000692100009221000008
:1053D000BA210000E1210000082200002F22000075
:1053E000552200007A2200009F220000C322000004
:1053F000E72200000A2300002D2300004F230000B5
:105400007023000091230000B2230000D12300008C
:10541000F12300000F2400002D2400004B24000085
:105420006824000084240000A0240000BB240000A5
:10543000D5240000EF2400000925000022250000EB
:105440003A25000052250000692500007F25000054
:1054500095250000AA250000BF250000D3250000E7
:10546000E6250000F92500000B2600001D2600009F
:105470002E2600003E2600004E2600005D2600007D
:105480006C2600007A260000872600009426000083
:10549000A0260000AB260000B6260000C0260000B3
:1054A000CA260000D3260000DB260000E326000009
:1054B000EA260000F1260000F7260000FC26000086
:1054C0000127000005270000082700000B27000027
:1054D0000D2700000F2700001027000010270000F4
:1054E000FF000405020103FF4FBB610567ACDD3F10
:1054F000182D4454FB21E93F9BF681D20B73EF3FFB
:10550000182D4454FB21F93FE2652F227F2B7A3C72
:10551000075C143326A6813CBDCBF07A8807703C2B
:10552000075C143326A6913CC4EB98999999C9BF9E
:10553000711623FEC671BCBF6D9A74AFF2B0B3BFD3
:105540009AFDDE522DDEADBF2F6C6A2C44B4A2BF93
:105550000D5555555555D53FFF8300922449C23FFF
:105560006E204CC5CD45B73F513DD0A0660DB13F33
:10557000EB0D76244B7BA93F11DA22E33AAD903F45
:105580000000000000000000DDDDDDDDDCBBBBDD78
:10559000DDDDDDDDDDDDDDDD9888888888888888D3
:1055A00077777777778888888555555666666666F3
:1055B00066666666666888888333333222222222D2
:1055C000222222222228888DE8550008000000208F
:1055D00048000000C427000830560008480000209A
:1055E00090070000D4270008000000000102030417
:1055F000010203040607080902040608000000006F
:10560000000000000000000000000000000000009A
:10561000000000000000000000000000000000008A
:10562000000000000000000000000000000000007A
:04000005080000ED02
:00000001FF
