:020000040800F2
:10000000680E002001010008090100080B0100082A
:100010000D0100080F010008110100080000000098
:1000200000000000000000000000000013010008B4
:10003000150100080000000017010008A91E0008B3
:100040001B0100081B0100081B0100081B01000820
:100050001B0100081B0100081B0100081B01000810
:100060001B0100081B0100081B0100081B01000800
:100070001B0100081B0100081B0100081B010008F0
:100080001B0100081B0100081B0100081B010008E0
:100090001B0100081B0100081B01000815120008C5
:1000A0001B0100081B0100081B0100081B010008C0
:1000B0001B0100081B0100081B0100081B010008B0
:1000C0001B0100081B0100081B0100081B010008A0
:1000D000AD1C0008992500081B0100081B01000841
:1000E000591100081B0100081B010008DFF80CD0A3
:1000F00000F028FD0048004705490008680E002070
:100100000648804706480047FEE7FEE7FEE7FEE7B1
:10011000FEE7FEE7FEE7FEE7FEE7FEE7B91E0008A2
:10012000ED000008034611F8012B00F8012B002A0E
:10013000F9D118467047F0B480EA0102D40F4200AA
:10014000B2EB410F02D20246084611464A0042D0A5
:10015000C30DDDB2C1F3C752AD1A202D35DAC1F39C
:10016000160141F4000204B15242C5F1200602FA20
:1001700006F12A411044B3EBD05F23D0C4B1012D66
:10018000A0EBC35009DCF0BC4FF0004202EAC352BE
:10019000DBB200F5000000F0D8BB400000F1807039
:1001A00000EBC350A0F1807040EAD170490009E033
:1001B000490841EAC071A0EBC35000F500004008B7
:1001C00000EBC350F0BC00F0B7BB6142012202EB70
:1001D0004101001BF6E7F0BC704781F00041AAE73F
:1001E00080F00040A7E780EA010210B502F000436A
:1001F000400022D04A001FD0010E01EB1261C0F373
:100200005600C2F3560240F4000042F40002A0FB84
:10021000022000047F39140400D0401C50EA124030
:1002200001D44000491EC2B20C0604EBD010401CA1
:100230004008802A02D003E0002010BD20F0010019
:10024000002900DA0020184310BD30B480EA010212
:1002500002F0004530F0004221F0004013D090B190
:10026000C30DD40DC2F31601C0F31600E41A41F415
:10027000000140F400027D34914201D3641C00E08F
:100280004900002C02DA30BC002070474FF4000017
:100290000023914201D3891A034340084FEA4101E8
:1002A000F7D151B1914202D14FF0004105E002D2A5
:1002B0004FF0010101E06FF0010103EBC45028444D
:1002C00030BC00F039BB2DE9FE4F804681EA0300C7
:1002D000C00F0C46009021F0004123F00045B8EB20
:1002E0000200A94105D24046214690461C460B46D5
:1002F000024623F00040104347D0270DC7F30A0001
:10030000C3F30A510290401A019040286BDAC3F3FC
:10031000130040F4801B0098924620B10023D2EBDA
:10032000030A63EB0B0B01985946C0F1400250469B
:1003300000F083FA06460D4650465946019A00F0F1
:100340009BFA10EB08006141002487EA115284EA0D
:10035000E7731A4340D0009A62B3019A012A4FEA28
:10036000075215DC001B61EB02014FF0004202EA6C
:100370000752CDE90042001C41F5801132462B4660
:1003800000F020FB03B0BDE8F08F40462146F9E7BE
:10039000001B61EB0201001C41F5801300185B415A
:1003A0002018A2F5001747EB030140EAD570B619F3
:1003B0006D4111E06D084FEA360645EAC0754FEA17
:1003C0000752001B61EB0201001C41F58011490836
:1003D0004FEA30000019514132462B4603B0BDE8C8
:1003E000F04F00F0E0BA0098012240000023D0EB6B
:1003F000020263EBE073009821464FEAE074B8EB29
:10040000000061EB0401E9E783F000435BE781F062
:10041000004158E72DE9FE4F81EA030404F000444F
:1004200021F0004100944FF0000B23F0004350EA0C
:1004300001045ED052EA03045BD0C3F30A54C1F353
:100440000A552C44A4F2F3340194A0FB0254C1F3E6
:10045000130141F48011C3F3130343F4801301FB30
:10046000024400FB034E840A970A44EA815447EA97
:100470008357A4FB076802958D0A05FB07854FEAA1
:10048000932C04FB0C542705029D4FEA065847EABB
:100490001637B5EB08056EEB070C870E920E47EA90
:1004A000811742EA8312A7FB0201B6EB0B0164EB52
:1004B00000042B0D43EA0C335E1844EB1C50DA4663
:1004C0005146E7FB0201C5F313044FEA0B3343EA3D
:1004D00014534FEA0432019C43EA0603A4F10C04CE
:1004E0000294009CCDE900B400F06CFA03B0BDE8C2
:1004F000F08F00200146F9E72DE9F04D81EA030471
:1005000004F0004B21F0004514464FF0000A23F0A0
:10051000004150EA050220D054EA01021DD0C5F383
:100520000A570246C5F31303C1F31300C1F30A5679
:1005300040F4801543F48013A7EB0608101BD64641
:1005400008F2FD3873EB050002D308F1010801E061
:1005500092185B41B8F1000F03DA00200146BDE8B4
:10056000F08D00204FF48011064684460EE0171BE4
:1005700073EB050705D3121B63EB050306434CEA37
:10058000010C49084FEA300092185B4150EA01071C
:10059000EDD152EA030012D082EA040083EA050199
:1005A000084305D0101BAB4106D20122002306E010
:1005B00000224FF0004302E06FF0010253101AEBEB
:1005C00006004CEB085110EB0A0041EB0B01BDE8B3
:1005D000F04D00F0E8B9C10F80EAE0700844CA07A6
:1005E0009623002100F0B1B996230022114600F0B5
:1005F000ACB90EB5C10F80EAE0700844CA0700210B
:1006000040F233438DE80E000A460B4600F0DAF95B
:1006100003B000BD0EB540F2334102910021CDE997
:1006200000110A460B4600F0CDF903B000BD20F0E2
:100630000040C10DC0F3160040F400007F2901DA2C
:1006400000207047962903DCC1F19601C84070472D
:1006500096398840704770B5C1F30A5201F00045E1
:100660000024C1F3130140F2FF3341F480119A4298
:1006700001DA002070BD40F233439A42A2F23342C5
:1006800003DC524200F0E8F800E090402C43F1D047
:10069000404270BDC1F30A5210B5C1F3130140F2DC
:1006A000FF3341F480119A4201DA002010BD40F27C
:1006B00033439A42A2F2334203DC524200F0CCF8B8
:1006C00010BD904010BD00F0004230F000400AD054
:1006D000C10D01F56071C0F3160042EA0151C20874
:1006E00040071143704700200146704730B5041E93
:1006F00071F1000404DB4FF00044404264EB01015F
:10070000141E73F1000405DB1C464FF000435242F7
:1007100063EB04038B4208BF824230BD30B5041E38
:1007200071F1000404DB4FF00044404264EB01012E
:10073000141E73F1000405DB1C464FF000435242C7
:1007400063EB0403994208BF904230BD01F00043BF
:1007500030B421F0004150EA010206D00A0DA2F5A2
:100760006072C1F31301002A02DC30BC0020704724
:10077000440F44EAC104C100E01830BC00EBC25091
:1007800000F0DAB8002801DBC0F10040002901DBED
:10079000C1F1004181427047002801DBC0F10040F7
:1007A000002901DBC1F100418842704730B50B469A
:1007B000014600202022012409E021FA02F59D4291
:1007C00005D303FA02F5491B04FA02F52844151E65
:1007D000A2F10102F1DC30BD2DE9F05F05460020F9
:1007E00092469B4688460646814640241BE02846A2
:1007F00041464746224600F02FF853465A46C01A53
:10080000914110D311461846224600F016F82D1AD1
:1008100067EB01084F4622460120002100F00DF849
:1008200017EB00094E41201EA4F10104DFDC48460D
:1008300031462A464346BDE8F09F202A04DB203A91
:1008400000FA02F1002070479140C2F1200320FA23
:1008500003F3194390407047202A04DB203A21FA21
:1008600002F00021704721FA02F3D040C2F12002C9
:100870009140084319467047202A06DBCB17203ADF
:1008800041FA02F043EAE07306E041FA02F3D04095
:10089000C2F1200291400843194670470FB400236B
:1008A00000B589B00CA900910B996FF00042CB60A4
:1008B0001E4B06931E4B07930423CDE901321D4ABC
:1008C000089202466B46002000F0E8F909B05DF896
:1008D00014FB70B586B006464FF0FF300091CDE9AD
:1008E0000101002015460C4604903246694604A8D2
:1008F000FFF7D4FF02460498211825B108B1084635
:1009000000E020462860049800280DD0002A02DD6F
:100910000098884208D0081B0094CDE901043246B3
:10092000694604A8FFF7BAFF06B070BDD50E0008EF
:10093000F30E0008690B00080029A8BF7047401C8F
:10094000490008BF20F00100704710B4B0FA80FCE5
:1009500000FA0CF050EA010404BF10BC704749B122
:10096000CCF1200421FA04F411FA0CF118BF012192
:1009700021430843A3EB0C01CB1D4FEA00614FEA72
:10098000102042BF002010BC704700EBC350104441
:100990000029A4BF10BC7047401C490008BF20F0CC
:1009A000010010BC704710B5141E73F1000408DA82
:1009B000401C41F1000192185B411A4301D120F023
:1009C000010010BD2DE9F04D92469B4611B1B1FAE0
:1009D00081F202E0B0FA80F220329046FFF72DFF5C
:1009E00004460F4640EA0A0041EA0B0153465A46C4
:1009F000084313D0114653EA010019D0C8F1400250
:100A00005046FFF729FF05460E46504659464246D6
:100A1000FFF713FF084305D0012004E020463946C4
:100A2000BDE8F08D0020054346EAE0762C433743CD
:100A30000A986305E40AA0EB08000022FD0A44EAD4
:100A400047540A3002D500200146E9E70105101994
:100A50006941DDE9084500196941BDE8F04DA2E7AB
:100A600070B521F0004303430CD0C1F30A550024B4
:100A7000D5EB040564EB0403D617AD1AB34102DBD2
:100A80000020014670BD201841EB025170BD2DE9D8
:100A9000FE4FC3F30A5701F000450024C1F30A5684
:100AA000C3F31303C1F3130143F4801312EB020ADF
:100AB000A64641F48011009543EB030CA7F1010B0E
:100AC00016E0B0EB0A0061EB0C01071E71F10007A4
:100AD00007DA4FF00008D0EB080085F0004568EB1E
:100AE0000101171A73EB0107EBD3761E0018494179
:100AF0005E45F6DA50EA010209D0CDE900E50022B0
:100B000013460296FFF75EFF03B0BDE8F08F204664
:100B10000099F9E7C1F30A52C1F3130140F2FF3320
:100B200041F480119A4202DA00200146704740F2F7
:100B300033439A42A2F2334202DC5242FFF78CBEA8
:100B4000FFF77BBE064C074D06E0E06840F001036E
:100B500094E8070098471034AC42F6D3FFF7CAFA7E
:100B60001057000830570008C0B24FF4F05100F0A1
:100B7000D1B900002DE9FF4F087883B09946FF28CE
:100B800005D0491C2D2804D00024002008E00020B6
:100B90000BE00124F9E700EB800003EB4000491C67
:100BA0000B78FF2BF7D104B1404200230293147855
:100BB00019461D462D2C01D02B2C04D1521C2D2C56
:100BC00013D000240294AA461478FF2C0FD00A25D3
:100BD000A3FB057801FB05814FF0000C03FB0C1112
:100BE000521CE3194AEB0101EEE70124EAE78144D4
:100BF00053EA010002D019F5C87F06DA03980021F4
:100C0000C0E9001107B0BDE8F08F0025AE4E2F46B9
:100C1000DFF8B882184600F091F9CDE90001B9F18A
:100C2000000002DAC9F1000400E004460023A74AEC
:100C30001AEB030B42EB045A12E0E00707D02A46F6
:100C4000334638464146FFF7E5FB074688462A46C5
:100C5000334610461946FFF7DDFB05460E46641085
:100C6000002CEAD1DDE90001B9F1000F5A465346E4
:100C700006DAFFF741FC3A464346FFF73DFC05E044
:100C8000FFF7C8FB3A464346FFF7C4FB029A0AB196
:100C900081F00041039AC2E90001B3E72DE9FF4F5B
:100CA0001F468DB0D7E901464FF0FF382E2045464C
:100CB0004FF000090B90B9696D1C0E988847396A8E
:100CC000824688470028F6D1BAF1FF3F0AD024F4C3
:100CD000D064002E11DDBAF12B0F08D0BAF12D0F20
:100CE0000BD102E0404611B08DE744F48064B9694D
:100CF0006D1C0E9888478246761E6946600501D5B0
:100D00002D2000E02B208DF8000001F1010B0DF1EA
:100D1000200809E0B9696D1C0E98884782460F9833
:100D200044F40074761E0560002E02DDBAF1300F27
:100D3000F0D00B998A453ED144F0800406E00F992B
:100D4000681CA9F1010944F400740860B9696D1CBC
:100D5000761E0E98884782463028F0D02BE00B99FB
:100D60008A4505D1200603D444F08004761E18E09D
:100D7000504601F0D5FE08B30DF11301761E44F480
:100D800000748B4508D2AAF130000BF8010B200645
:100D900007D5A9F1010003E0200602D409F1010002
:100DA0008146A00502D50F99681C0860B9696D1CC1
:100DB0000E9888478246002ED1DC53E0002E51DD8C
:100DC000BAF1650F02D0BAF1450F4BD1A00549D554
:100DD000B9696D1C24F44074761E0E9888478246CB
:100DE000002E0CDD2B2804D0BAF12D0F07D144F4CE
:100DF0008074B9696D1C0E9888478246761EE0059E
:100E000001D52D2100E02B2108F8011BCDF82C8005
:100E100021E00DF12901761E44F4007488450CD2BE
:100E2000AAF1300010F0FF0088F8000002D10B9901
:100E3000884509D908F1010806E0E00501D52448F4
:100E400001E042F20F708146B9696D1C0E98884727
:100E500082460F980560002E04DD504601F060FECA
:100E60000028D6D1F9690E988847FF208BF800003A
:100E700088F800000020069007904B466A4608A9B3
:100E800006A8FFF777FEA00502D46FF001002AE75D
:100E900014F0240F0AD0E00714D1DDE906123868F7
:100EA000031D3B600068C0E900120BE0DDE90601AC
:100EB000FFF74CFC0146E00704D13868021D3A6098
:100EC0000068016028460EE7000014400000F03F73
:100ED000F1D8FFFF426842B1016811F8013B23B12C
:100EE000521EC0E90012184670470121C160881ED9
:100EF000704742685AB1C368016843B983688B423E
:100F000005D0491E521CC0E90012002070474FF066
:100F1000FF3070477F2801D9002208E0064A02EB23
:100F20005002C007127800D1120902F00F0201200E
:100F30009040084070470000D05600080EB540F2BF
:100F4000334202920022CDE900221346FFF73AFD18
:100F500003B000BD70B58C1810F8015B15F00703E5
:100F600001D110F8013B2A1106D110F8012B03E042
:100F700010F8016B01F8016B5B1EF9D12B0705D44A
:100F80000023521E0DD401F8013BFAE710F8013B93
:100F9000CB1A921C03E013F8015B01F8015B521EAF
:100FA000F9D5A142D8D3002070BD21B1826842F0AA
:100FB0000102826003E0826822F0010282607047D1
:100FC00010B504461248844208D10121401500F0B2
:100FD000F3FD0021601500F0EFFD17E00D4884429D
:100FE00008D10121001500F0E7FD0021201500F0D7
:100FF000E3FD0BE00848844208D10121C80300F05A
:10100000DBFD00214FF4004000F0D6FD10BD0000D4
:101010000024014000280140003C01400146C86C0A
:1010200080B270470246002013680B400BB10120CC
:1010300000E000207047000030B502460020002389
:1010400050680F4C20400D790C6844EA0524204379
:10105000506090680B4C2040D1E902542C434D79EC
:1010600044EA450420439060D06A20F470000C7C70
:10107000641EE4B2234340EA0350D06230BD000056
:10108000FFFEF0FFFDF7F1FFF0B504460D4600202E
:101090000021092D11DDE068A5F10A0606EB4607DF
:1010A000072606FA07F18843A5F10A0606EB46066D
:1010B00003FA06F10843E0600CE0206905EB450700
:1010C000072606FA07F1884305EB450603FA06F101
:1010D00008432061072A0FDA606B561E06EB86076D
:1010E0001F2606FA07F18843561E06EB860605FA08
:1010F00006F10843606322E00D2A0FDA206BD61F49
:1011000006EB86071F2606FA07F18843D61F06EB73
:10111000860605FA06F10843206310E0E06AA2F1B2
:101120000D0606EB86071F2606FA07F18843A2F193
:101130000D0606EB860605FA06F10843E062F0BDEF
:1011400021B1826842F4A002826003E0826822F446
:10115000A00282607047000010B54FF4805000F08C
:101160008BF801280ED1000300F080F84FF4805175
:10117000244800F009FA244981F8DA0001F1D80086
:1011800004F026F84FF4806000F076F801280ED1C4
:10119000800200F06BF84FF480611C4800F0F4F915
:1011A0001B4981F8D80001F1D80004F011F84FF480
:1011B000006000F061F801280ED1C00200F056F87E
:1011C0004FF40061114800F0DFF9114981F8D900AE
:1011D00001F1D80003F0FCFF4FF4005000F04CF890
:1011E00001280ED1400300F041F84FF400510548AA
:1011F00000F0CAF9064981F8DA0001F1D80003F0DD
:10120000E7FF10BD00080140D8070020000C014096
:101210002009002010B5402000F02EF801280DD143
:10122000402000F023F840210E4800F0ADF90E49AF
:1012300081F8D80001F1D80003F0CAFF802000F047
:101240001BF801280DD1802000F010F880210548FE
:1012500000F09AF9044981F8D90001F1D80003F0AF
:10126000B7FF10BD000C0140D807002001490860FD
:101270007047000014040140014600200022074B83
:101280001B6803EA0102054B14331B680B4013B1C2
:101290000AB1012000E00020704700000004014076
:1012A000002123498279002A3AD00A46126803684D
:1012B0009A430B461A600A1D126803689A430B1D75
:1012C0001A60027911440A6803681A430A60184ACE
:1012D0000832126803689A43154B08331A601A1DC6
:1012E000126803689A43124B0C331A604279102A31
:1012F0000ED11A1F126803681A430D4B08331A6087
:101300001A1D126803681A43094B0C331A600DE06A
:101310000749427911440A6803681A430A6005E0E4
:10132000027911440A6803689A430A607047000012
:101330000004014008B501211D2000F02DFC012111
:10134000144800F0D9F84FF40050ADF80000102018
:101350008DF8030001208DF8020069460E4800F068
:101360003FF84FF400510C4800F017F94FF40270A9
:10137000ADF8000010208DF8030001208DF8020068
:101380006946064800F02CF84FF40271034800F05B
:1013900004F908BD0002300000100140000C0140BB
:1013A00030B500228B071C0F0F2303FA04F20B4BFE
:1013B0008C1053F824309343084C8D1044F825309A
:1013C00023468C1053F824308C07240F00FA04F4C1
:1013D0002343024C8D1044F8253030BD08000140F5
:1013E0002DE9F041024600250026002000230024BC
:1013F000002791F803C00CF00F0591F803C00CF022
:10140000100CBCF1000F03D091F802C04CEA0505A6
:1014100091F800C0BCF1000F31D0146800202BE01F
:101420004FF0010C0CFA00F3B1F800C00CEA03060F
:101430009E4220D183004FF00F0C0CFA03F7BC43FF
:1014400005FA03FC4CEA040491F803C0BCF1280F30
:1014500006D14FF0010C0CFA00FCC2F814C00AE0EF
:1014600091F803C0BCF1480F05D14FF0010C0CFA04
:1014700000FCC2F810C0401C0828D1D31460B1F899
:1014800000C0BCF1FF0F34DD546800202EE000F1F5
:10149000080C4FF0010808FA0CF3B1F800C00CEA90
:1014A00003069E4221D183004FF00F0C0CFA03F784
:1014B000BC4305FA03FC4CEA040491F803C0BCF1F8
:1014C000280F05D100F1080C08FA0CF8C2F81480B6
:1014D00091F803C0BCF1480F07D100F1080C4FF0A0
:1014E000010808FA0CF8C2F81080401C0828CED376
:1014F0005460BDE8F0810000F0B50A4600230024E6
:101500000021002500F00046B6F1004F02D11D4E2B
:10151000F16901E01B4E7168C0F3034583B200F42A
:101520004016B6F5401F08D121F07061154E76685F
:1015300026F07066134F7E6012E000F48016B6F558
:10154000801F06D1032606FA05F4A14341F070611D
:1015500006E0460D360103FA06F6B14341F070612C
:1015600022B1460D360103FA06F6314300F000467B
:10157000B6F1004F02D1034EF16101E0014E7160FE
:10158000F0BD0000000001400246002093680B40BF
:101590000BB1012000E000207047416170470161FC
:1015A000704700001FB501210D2000F0F5FA4FF43F
:1015B0004050ADF80C0048208DF80F0001208DF848
:1015C0000E0003A94D48FFF70BFF4FF440514B4865
:1015D000FFF7E5FF4FF44C60ADF80C0048208DF8A4
:1015E0000F0001208DF80E0003A94548FFF7F8FE13
:1015F0004FF44C614248FFF7D2FF0C210020FFF767
:10160000CFFE06210120FFF7CBFE07210120FFF7C7
:10161000C7FE0D210020FFF7C3FE0A210120FFF7BE
:10162000BFFE0B210120FFF7BBFE4FF4735001906A
:1016300000208DF8080010208DF8090001208DF899
:101640000A0001A8FFF72CFE17208DF800000120EA
:101650008DF80300684600F033F928208DF800006B
:1016600001208DF80300684600F02AF9254800693A
:1016700000EB400041002348C0F8EC10224800690C
:1016800000EB400041002048C0F8EC1040211C480D
:10169000FFF77AFF1B4981F8D80080211848FFF72F
:1016A00073FF184981F8D9004FF480511348FFF7B0
:1016B0006BFF144981F8DA0001F1D80003F088FDCE
:1016C0004FF480610E48FFF75FFF0F4981F8D800A3
:1016D0004FF400610A48FFF757FF0B4981F8D90022
:1016E0004FF400510548FFF74FFF074981F8DA0032
:1016F00001F1D80003F06CFD1FBD0000000801409F
:10170000000C0140D80700202009002010B5044635
:101710000A4860620021A16201F00AFAE06207480B
:1017200020630021616301F003FAA0630348E063D2
:101730000021216401F0FCF9606410BDCDCC4C3D6A
:101740002DE9F84F04460D4601F0F2F98046A168F4
:10175000A8EB0100FEF748FF82461B49FEF743FD58
:101760008146C4F8088000214846FFF70BF802D2F2
:10177000DFF8589008E016494846FFF70DF803D205
:1017800065602846BDE8F88F49462068FEF7D3FC1F
:10179000824651462068FEF758FD064631464FF016
:1017A0007E50FEF71AFD83462946FEF71CFD824651
:1017B00030466168FEF717FD51460090FEF7BBFC0E
:1017C000074667603846DDE7BD3786356F12833AD6
:1017D0009A99993E10B50446211D17A000F0F4FF18
:1017E000D4E90210FEF7D8FF01D2A068E060A1683A
:1017F000A165A168E16794F8140118B9A020A16857
:10180000015102E0A020A1690151C4206169015188
:101810006079312805D14FF400710A48FFF7BFFE07
:1018200003E008210748FFF7BAFE01202060211DD0
:1018300005A000F0C9FF10BD25733A20496E6974F8
:101840000D0A0000000C014025733A20456E6162CC
:101850006C65206472697665722E0D0A00000000C6
:1018600070B504460D46164600212846FEF78AFF4D
:1018700003D0C4F8185184F81661204601F0AAFE7E
:10188000204602F095FDC4F84001322002F00AFD26
:10189000204603F011FCC4F82401052002F002FDEB
:1018A000204603F0EFFBC4F81C0194F81501022850
:1018B00002D1D4F81C012062C82002F0F3FC70BDF4
:1018C00070B5002100230F22C47804B3154C24689E
:1018D00004F4E064C4F5E064210AC1F10403CA40E1
:1018E000447804FA03F184781440214309010E4C32
:1018F0000678A155047804F01F050124AC40057852
:101900006D11AD0005F1E025C5F8004109E004784E
:1019100004F01F050124AC40044D0678761145F80B
:10192000264070BD0CED00E000E400E080E100E046
:1019300010B504464FF07C50C4F89000002194206C
:101940000151982001519C200151A4200151A8204F
:101950000151AC20015101F0EBF8B02108511948B8
:10196000C4F8B4000021B8200151BC200151C020AE
:101970000151C8200151CC200151D020015101F06A
:10198000D7F8D42108514FF07C50A0640021E164C5
:1019900021656165E1652166616601F0C9F8A066AF
:1019A0004FF07C50E066002121676167A1678020CD
:1019B0000151842001518820015101F0B9F88C2196
:1019C000085110BD0000A0412DE9F04F85B004463C
:1019D0000F4601F0ADF88146216AA9EB0100FEF740
:1019E00003FE54490390FEF7FEFB8246C4F82090A4
:1019F00000215046FEF7C6FE09D95046FEF763FEA9
:101A000000224D4BCDE90201FEF788FE01D2DFF83E
:101A10002CA139462068FEF7E6FB04903846616940
:101A2000FEF789FB029051466068FEF7DCFB4FF041
:101A30007C510090FEF7D7FB01900299FEF7D3FB93
:101A40000390E169FEF777FB0546206980F00040CE
:101A500029460390FEF7A0FE03D2206980F00040E3
:101A600007E028462169FEF797FE01D2206900E0D1
:101A70002846054638466169FEF7AFFB0290A1682B
:101A8000FEF7B1FB51460390FEF7DFFB8346294684
:101A90000498FEF750FB59460390FEF74CFB0646B0
:101AA000206980F0004031460390FEF775FE03D2B6
:101AB000206980F0004007E030462169FEF76CFEA7
:101AC00001D2206900E0304606460021E068FEF7BA
:101AD00063FE28D23046A169FEF77FFB5146039092
:101AE000FEF7B3FB80464046E168FEF755FE09D29B
:101AF0005146E068FEF777FB0390A169FEF71BFBF8
:101B0000064610E0E06880F0004041460390FEF792
:101B100043FE08D25146E068FEF765FB0390A169D9
:101B2000FEF75EFB0646E561A6616761304605B0DB
:101B3000BDE8F08FBD3786350000E03F6F12833A75
:101B400001460020034A506820F44040084350609A
:101B5000704700000010024029B1064AD2690243D2
:101B6000044BDA6104E0034AD2698243014BDA6133
:101B7000704700000010024029B1064A1269024372
:101B8000044B1A6104E0034A12698243014B1A6153
:101B9000704700000010024029B1064A92690243D2
:101BA000044B9A6104E0034A92698243014B9A61B3
:101BB000704700000010024029B1064AD268024373
:101BC000044BDA6004E0034AD2688243014BDA60D6
:101BD000704700000010024030B5002100220024B0
:101BE00000232D4D6D6805F00C0121B1042905D0AD
:101BF000082923D105E0294D056022E0274D056025
:101C00001FE0254D6D6805F47012234D6D6805F4D5
:101C10008034022505EB92421CB9214D55430560E5
:101C20000BE01D4D6D6805F400351DB11C4D55438D
:101C3000056002E0194D5543056002E0174D05604F
:101C400000BF00BF144D6D6805F0F0010909154D86
:101C50006B5C0568DD4045600F4D6D6805F4E06123
:101C6000090A104D6B5C4568DD4085600A4D6D6862
:101C700005F46051C90A0B4D6B5C4568DD40C560D9
:101C8000054D6D6805F44041890B074D6B5CC568D7
:101C9000B5FBF3F5056130BD0010024000127A007B
:101CA00000093D00000000201000002010B526A013
:101CB00000F08AFD60212A4800F062F8002842D036
:101CC000274800F077F8C4B22146254800F075F89F
:101CD0002448008800F40040F8B92248008800F445
:101CE000804090B10A2C03D000201E49088026E0D5
:101CF0001C48008840F400401A49088000200988E8
:101D0000C1F30D01184A505419E00D2C06D11548A5
:101D1000008840F480401349088010E01148008892
:101D2000C0F30D0010490C540E480088401C0D49AA
:101D3000088008460088FF2801DD00200880602117
:101D4000074800F013F810BD547970655F616E6745
:101D50006C655F6F70656E6C6F6F70210D0A0000AF
:101D6000003800401E000020B404002010B50022FE
:101D700001F00F040123A3409AB2D343038110BDA5
:101D8000F0B50246002000240023002501F00F07D3
:101D90000126BE40B4B20B1101269E40B3B2968814
:101DA00006EA03051689264016B10DB1012000E0B0
:101DB0000020F0BD0146888970478181704710B5C9
:101DC00000F002F810BD00000CB50020019000905A
:101DD0003348006840F480303149086000BF304823
:101DE000006800F4003000900198401C01900098B9
:101DF00018B90198B0F5A06FF1D12948006800F436
:101E0000003010B10120009001E000200090009807
:101E1000012843D12348006840F0100021490860A0
:101E20000846006820F0030008600846006840F09B
:101E3000020008601A48406819494860084640682E
:101E400048600846406840F4806048600846406842
:101E500020F47C1048600846406840F4E810486070
:101E60000846006840F08070086000BF0C480068B9
:101E700000F000700028F9D00948406820F0030005
:101E8000074948600846406840F00200486000BFCB
:101E90000348406800F00C000828F9D10CBD000090
:101EA000001002400020024002480068401C014926
:101EB000086070471400002010B51348006840F017
:101EC00001001149086008464068104908400E4961
:101ED0004860084600680E4908400B4908600846FB
:101EE000006820F4802008600846406820F4FE0066
:101EF00048604FF41F008860FFF761FF4FF00060FB
:101F00000449086010BD0000001002400000FFF806
:101F1000FFFFF6FE08ED00E000B589B001210420C6
:101F2000FFF73AFE01210846FFF716FE0720ADF83D
:101F3000200018208DF8230003208DF8220008A926
:101F40002448FFF74DFA4FF0804000F0C9F8002018
:101F5000ADF8140040F29F50ADF818002020ADF805
:101F600016000020ADF81A0005A94FF0804000F0DF
:101F7000C1FA6020ADF804000120ADF80600002091
:101F8000ADF80A00ADF80C0001A94FF0804000F058
:101F90009BF901A94FF0804000F0ECF901A94FF046
:101FA000804000F047FA0821C80600F0D9F908215E
:101FB000C80600F031FA0821C80600F08BFA0121AA
:101FC000880700F075F80121880700F07DF809B056
:101FD00000BD00000008014000B589B001210C20BF
:101FE000FFF7DAFD01210220FFF7B6FDC020ADF8B2
:101FF000200018208DF8230003208DF8220008A966
:102000002848FFF7EDF90120ADF8200018208DF8E1
:10201000230003208DF8220008A92348FFF7E0F9E8
:10202000224800F05DF80020ADF8140040F29F5007
:10203000ADF818002020ADF816000020ADF81A0009
:1020400005A91A4800F056FA6020ADF804000120F6
:10205000ADF806000020ADF80A00ADF80C0001A9AB
:10206000124800F031F901A9104800F083F901A9E4
:102070000E4800F0DFF908210C4800F071F9082142
:102080000A4800F0C9F90821084800F023FA0121A4
:10209000064800F00DF80121044800F015F809B0D9
:1020A00000BD000000080140000C01400004004099
:1020B00021B1028842F08002028004E002884FF6DB
:1020C0007F731A400280704721B1028842F00102FA
:1020D000028004E002884FF6FE731A4002807047C7
:1020E00010B504466848844208D10121C014FFF7A6
:1020F00063FD0021E014FFF75FFDC4E0B4F1804F01
:1021000008D101210846FFF737FD00210120FFF724
:1021100033FDB8E05D48844208D101210220FFF779
:102120002BFD00210220FFF727FDACE05848844238
:1021300008D101210420FFF71FFD00210420FFF733
:102140001BFDA0E05348844208D101210820FFF77D
:1021500013FD00210820FFF70FFD94E04E48844254
:1021600008D101211020FFF707FD00211020FFF703
:1021700003FD88E04948844208D101212020FFF76F
:10218000FBFC00212020FFF7F7FC7CE04448844260
:1021900008D101214014FFF70FFD00216014FFF763
:1021A0000BFD70E03F48844209D10121C804FFF7CC
:1021B00003FD00214FF40020FFF7FEFC63E03A48E6
:1021C000844209D101210805FFF7F6FC00214FF4F4
:1021D0008010FFF7F1FC56E03448844209D1012118
:1021E0004805FFF7E9FC00214FF40010FFF7E4FC7D
:1021F00049E02F48844208D101214020FFF7BCFC70
:1022000000214020FFF7B8FC3DE02A48844208D175
:1022100001218020FFF7B0FC00218020FFF7ACFCFB
:1022200031E02548844208D101218015FFF7A4FC44
:102230000021A015FFF7A0FC25E02048844209D129
:1022400001210804FFF7B8FC00214FF48030FFF7AC
:10225000B3FC18E01A48844209D101214804FFF771
:10226000ABFC00214FF40030FFF7A6FC0BE0154853
:10227000844208D101218804FFF79EFC00214FF41D
:102280008020FFF799FC10BD002C014000040040A5
:1022900000080040000C0040001000400014004006
:1022A00000340140004C0140005001400054014006
:1022B00000180040001C0040002000400040014089
:1022C000004401400048014070B500240022002372
:1022D000058C4FF6FE7635400584028C8388048B8E
:1022E0004FF68F752C40B51E2C400D882C43751E63
:1022F0002A400D892A434D882A43144DA8420BD009
:10230000134DA84208D0134DA84205D0124DA84243
:1023100002D0124DA84213D14FF6F7752A404D89CD
:102320002A434FF6FB752A408D882A434FF6FF65F6
:102330002B404FF6FF552B408D892B43CD892B43E6
:1023400083800483CD888586028470BD002C014083
:102350000034014000400140004401400048014079
:102360000A460021018B4FF6F77319401143018390
:102370007047000070B5002400220023058C4FF642
:10238000EF7635400584028C8388048B48F6FF7510
:102390002C404FF6FF452C400D884FF6FF7606EA9D
:1023A00005252C434FF6DF752A400D8906EA0515F1
:1023B0002A434D8806EA05152A43154DA84202D046
:1023C000144DA8421DD14FF67F752A404D894FF616
:1023D000FF7606EA05152A434FF6BF752A408D8819
:1023E00006EA05152A434FF6FF352B404FF2FF75DD
:1023F0002B408D8906EA85052B43CD8906EA8505A4
:102400002B4383800483CD880587028470BD000040
:10241000002C0140003401400A460021018B4FF29C
:10242000FF7319404FF6FF7303EA02231943018338
:102430007047000070B5002400220023058C4FF681
:10244000FF6635400584028C8388848B4FF68F7538
:102450002C404FF6FC752C400D882C434FF6FF5551
:102460002A400D894FF6FF7606EA05252A434D8856
:1024700006EA05252A43154DA84202D0144DA8426C
:102480001DD14FF2FF752A404D894FF6FF7606EABF
:1024900005252A434FF6FF352A408D8806EA052593
:1024A0002A434EF6FF752B404DF6FF752B408D8964
:1024B00006EA05152B43CD8906EA05152B438380D3
:1024C0008483CD888587028470BD0000002C014084
:1024D000003401400A460021818B4FF6F773194002
:1024E00011438183704781867047018770478187D8
:1024F00070470000002202881D4B98420ED01D4BF1
:1025000098420BD0B0F1804F08D01B4B984205D0B9
:102510001A4B984202D01A4B984204D14FF68F734F
:102520001A404B881A43174B984207D0164B9842D3
:1025300004D04FF6FF431A40CB881A4302808B88A1
:1025400083850B8803850A4B98420BD0094B984230
:1025500008D00E4B984205D00D4B984202D00D4B3F
:10256000984201D10B7A03860123838270470000D1
:10257000002C0140003401400004004000080040ED
:10258000000C0040001000400014004000400140DA
:10259000004401400048014010B540F22551204858
:1025A00000F050F800283AD01D4800F007F9C4B2F6
:1025B0001C48008800F40040F8B91A48008800F46C
:1025C000804090B10A2C03D000201649088026E0F4
:1025D0001448008840F4004012490880002009880F
:1025E000C1F30D01104A505419E00D2C06D10D48CD
:1025F000008840F480400B49088010E009480088BA
:10260000C0F30D0008490C5406480088401C0549D9
:10261000088008460088FF2801DD0020088010BDE2
:10262000003801401C000020B403002021B1828941
:1026300042F40052828104E082894DF6FF731A4011
:102640008281704770B502460024002300250020D7
:1026500040F66A16B14200D100BFC1F3421501F045
:102660001F03012606FA03F3012D02D19689334098
:1026700006E0022D02D1168A334001E0968A3340EB
:102680000C12012606FA04F41688344013B10CB17A
:10269000012000E0002070BDF0B5034600240026B4
:1026A0000025002040F66A17B94200D100BF184645
:1026B000C1F3421401F01F06012707FA06F5012CA9
:1026C00001D10C3004E0022C01D1103000E01430B4
:1026D0001AB107682F43076002E00768AF4307603D
:1026E000F0BD00002DE9F04786B005460E460024F7
:1026F000A24600BFA1460027B08900B100BF2F4607
:102700002C8A4CF6FF700440F08804432C82AC897C
:102710004EF6F3100440B0883189084371890843AC
:102720000443AC81AC8A4FF6FF400440B0890443B7
:10273000AC8201A8FFF750FA1F48874202D1DDF8AA
:1027400010A001E0DDF80CA0A88900F4004040B121
:102750000AEBCA0000EB0A1031684900B0FBF1F83F
:1027600007E00AEBCA0000EB0A1031688900B0FBF1
:10277000F1F86420B8FBF0F004012009642101FBAA
:102780001089A88900F4004040B1322000EBC90054
:10279000B0FBF1F000F00700044308E0322000EB4A
:1027A00009106421B0FBF1F000F00F0004432C810C
:1027B00006B0BDE8F0870000003801400146888877
:1027C000C0F30800704700000FB4054B10B503A913
:1027D000044A029800F0F0F910BC5DF814FB000008
:1027E0009543000818000020490050EAC12018BF96
:1027F00004204A0D18BF40F0010040F2FF72B2EB16
:10280000515F08BF40F00200012808BF0520704753
:102810002DE9F0414F1E00EBC7010446D1E900014C
:1028200015461E4637F006020DD02A463346FDF700
:10283000F1FD7F1E04EBC703D3E90023FDF743FD41
:1028400037F00602F1D1022F25D0042F13D0062F26
:1028500018BFBDE8F0812A463346FDF7DBFDD4E919
:102860000A23FDF730FD2A463346FDF7D3FDD4E9B0
:102870000823FDF728FD2A463346FDF7CBFDD4E9B2
:102880000623FDF720FD2A463346FDF7C3FDD4E9B4
:102890000423FDF718FD2A463346FDF7BBFDD4E9B6
:1028A0000223FDF710FD2A463346FDF7B3FDD4E9B8
:1028B0000023BDE8F041FDF706BD0122FEF7D0B8C8
:1028C000FDF701BD0022134610461146FDF714BE68
:1028D000024A00201107FEF7C3B8000001FDFFFF08
:1028E0000148006870470000B003002002E008C8FB
:1028F000121F08C1002AFAD170477047002001E07A
:1029000001C1121F002AFBD1704700000149086075
:1029100070470000B00300202DE9F047064630461E
:10292000FDF7D1FE0746134A134BFDF7CCFC0446D6
:10293000FDF70CFF81464846FDF7C5FE07460F4AE6
:102940000F4BFDF7EBFE08D24846FDF7BCFE0746ED
:102950000A4A0B4BFDF758FD02E04846FDF7B3FE6F
:102960000446FDF7F3FE8146484600F0D7FCBDE87B
:10297000F0870000F4D64354FB21F93FEA2E44547B
:10298000FB21194070B504460D462846FDF723FE8D
:1029900006462146FDF727FC70BD00002DE9FF5FCC
:1029A00082B00021DDE90430020DDDF840B00343C0
:1029B00018D044F61050A2F2FF3242431514119879
:1029C00001281FD0A5EB0B00401C5FEA000A4FF066
:1029D00000064E4FDFF83891B046504615D5CAF183
:1029E000000413E0119801244AA3012801D16FEAE1
:1029F0000B010298119AC0E90031C0E9024206B009
:102A0000BDE8F09FCBF10000DFE704460021404A1B
:102A1000491842EB0450CDE9001012E0E00707D05E
:102A200032463B4640464946FDF7F4FC804689461F
:102A300032463B4610461946FDF7ECFC06460F466B
:102A40006410002CEAD1DDE90401DDE90023BAF1CC
:102A5000000F06DAFDF7DEFC42464B46FDF7DAFCD6
:102A600005E0FDF749FD42464B46FDF745FD0446AE
:102A70000E460022284BFDF751FE03D84FF0FF30E1
:102A8000014607E00022254B20463146FDF71BFC9E
:102A9000FEF740F8102409E0002C0ADB0A2200238C
:102AA000FDF79AFE039B30321A55641E50EA01026C
:102AB000F2D1641C039AC4F111031444119A012A3F
:102AC00003D0012208430DD10AE0084304D00020BE
:102AD0004FF0110B119072E7A3EB0B056D1E0DE08B
:102AE0005B4504DD4FF0000205F1010504E003DA67
:102AF0004FF00002A5F10105002AECD002981199CF
:102B0000C0E90231C0E9004579E700000000144047
:102B10000000F03F300000000000F0430000E03F04
:102B200030380A2801D20120704700207047000089
:102B300000BF0A4801684FF0E0208269074800683A
:102B40008142F6D10648801A4823B0FBF3F001EB2E
:102B50004103C3EBC11300EBC30070471400002016
:102B6000401901002DE9F04706463046FDF7ABFD60
:102B700007460F4A0F4B01F0C3FB0446FDF7E6FD85
:102B8000814600214846FDF707FE03D84846FDF779
:102B90009AFD07E04846FDF796FD0746044A054BB7
:102BA000FDF791FB0446FDF7D1FDBDE8F08700007D
:102BB000EA2E4454FB2119402DE9FF4F95B09B4666
:102BC0008946064600250FE2252877D100242746AE
:102BD000F84A0121059400E0044316F8013F203B28
:102BE00001FA03F01042F7D130782A2811D06FF0A3
:102BF0002F033078A0F13002092A16D8059A44F044
:102C0000020402EB820203EB42021044761C0590A0
:102C1000EFE759F8042B0592002A03DA504244F4F6
:102C20000054059044F00204761C30782E2816D10A
:102C300016F8010F44F004042A280DD06FF02F027B
:102C40003078A0F13003092B09D807EB870302EB9A
:102C50004303C718761CF3E759F8047B761C3078D9
:102C60006C280FD006DC4C2817D068280DD06A28B5
:102C700014D104E0742810D07A280FD10DE044F468
:102C800000140AE044F4801401E044F44014727823
:102C9000824202D104F58014761C761C30786628B6
:102CA0000BD013DC582877D009DC002875D04528D4
:102CB000F6D04628F4D047281AD19DE118E06328C1
:102CC00035D0642879D0652812D195E1702873D069
:102CD00008DC6728F1D069286FD06E280DD06F28E6
:102CE00006D1B5E073282CD0752875D0782874D01B
:102CF0005A46179990476D1C75E1C4F3025002289B
:102D000009D003280DD0D9F8001004280DD00D608B
:102D100009F1040967E1D9F80010EA17C1E9005286
:102D2000F6E7D9F800100D80F2E70D70F0E719F81A
:102D3000041B8DF8001000208DF80100EA460120E8
:102D400003E059F804AB4FF0FF3061074FF000018A
:102D500002D40DE008F101018846B9420FDA80453E
:102D6000F8DB1AF808100029F4D108E008F1010195
:102D700088468142FADB1AF808100029F6D1059836
:102D80005B46A0EB080721463846179A00F094FAF4
:102D9000284400EB080507E04DE029E10DE01AF8B2
:102DA000010B5A4617999047B8F10108F7D25B46D4
:102DB00021463846179A13E142E00A220092C4F3F2
:102DC00002524FF0000A022A08D059F804CB032A15
:102DD0004FEAEC710AD00DE029E02AE009F1070181
:102DE00021F00702F2E802C1914609E00FFA8CFCDB
:102DF0004FEAEC71042A03D14FFA8CFC4FEAEC71D4
:102E0000002907DA0A460021DCF1000C61EB02011F
:102E10002D2202E0220504D52B228DF80420012268
:102E200003E0E20701D02022F7E7904659E00A21AB
:102E300002E010220DE010214FF0000A00910BE09B
:102E400010224FF0000A44F004040827009203E027
:102E500008224FF0000A0092C4F30252022A05D061
:102E600059F804CB0021032A08D009E009F1070131
:102E700021F00702F2E802C1914605E01FFA8CFC3E
:102E8000042A01D10CF0FF0C4FF00008220728D5CE
:102E9000702806D0009B83F0100353EA0A0305D084
:102EA0000EE040228DF80420012208E05CEA0102D5
:102EB00006D030228DF804208DF8050002229046BD
:102EC000009B83F0080353EA0A030AD15CEA01027B
:102ED00001D1620705D530228DF804204FF001089A
:102EE0007F1E582804D034A003900EA802900DE055
:102EF00036A0F9E753466046009AFDF76DFC84461C
:102F00000398825C0298401E029002705CEA010005
:102F1000F0D1029806A9081A00F1200A600702D52C
:102F200024F4803400E00127574502DDA7EB0A00B6
:102F300000E0002000EB0A01009005984144401A8F
:102F40000590E00306D45B462146179A059800F0E9
:102F5000B3F90544002706E001A85A46C05D179959
:102F600090476D1C7F1C4745F6DBE0030CD55B46A4
:102F70002146179A059800F09FF9054404E0302097
:102F80005A46179990476D1C0099481E00900029D9
:102F9000F5DC08E0029802995A460078491C029133
:102FA000179990476D1CBAF10001AAF1010AF1DCF2
:102FB00065E10000092801003031323334353637FD
:102FC0003839616263646566000000003031323375
:102FD0003435363738394142434445460000000015
:102FE00000F058F90544761C307800287FF4ECADE9
:102FF00019B02846BDE8F08F620700D4062709F112
:10300000070222F0070CFCE80223E14603F0004827
:103010005FEA080C02D00FF2702C0DE05FEA045C4E
:1030200002D50FF2682C07E05FEAC47C02D00FF2F1
:10303000602C01E0AFF2700C4FF0FF3823F000433A
:10304000CDF850C065280CD006DC452809D04628AC
:103050001DD047283DD13DE0662818D067287ED195
:1030600038E00021112F01DB112000E0781CCDE9B0
:10307000000106A90EA8FFF791FCDDE90F010E9AE9
:1030800003910021009207F1010A04914DE04FF0F5
:1030900000400097CDE9011006A90EA8FFF77EFCBD
:1030A000DDE90F0203920E9B11990022DDF80CA0BE
:1030B0000093049211B9791C00EB010AB7EB0A00E6
:1030C00004D4C0F1FF3007F1010A0490AAEB070015
:1030D000019044E0012F00DA01270021112F01DDCA
:1030E000112000E03846CDE9000106A90EA8FFF73F
:1030F00055FCDDE90F010E9A039100210491009225
:10310000BA4621070CD40399514500DA8A46BAF130
:10311000010F05DD009AAAF10101515C302908D0A8
:10312000B84202DA10F1040F06DA0121CDE90110EC
:1031300015E0AAF10101E9E7002805DC0499014442
:103140000491AAEB000102E0411C514500DD8A46D2
:103150000499401A401C01904FF000400290200753
:1031600004D40198504501DBCDF8048000208DF88F
:103170004F0002980DF14F07B0F1004F25D02B20E2
:103180000E9002984FF0020800280CDA404202909C
:103190002D200E9007E00A210298FDF707FB303141
:1031A000029007F8011DB8F10001A8F10108F2DC56
:1031B00002980028EFD1791E0E980870307800F040
:1031C000200040F0450007F8020D12A8C01B00F1D6
:1031D00007081498007800B1012000EB0A0101985B
:1031E00001EBE07105984144401A401E0590E00350
:1031F00006D45B462146179A059800F05DF8054411
:103200001498007818B15A46179990476D1CE0033E
:1032100024D55B462146179A059800F04DF80544E1
:103220001CE00498002807DBDDE90301884203DD88
:103230000098405C179901E0179930205A46904752
:10324000049805F10105401C04900198401E01906E
:1032500004D12E205A46179990476D1CBAF10001EF
:10326000AAF1010ADDDC05E017F8010B5A461799AF
:1032700090476D1CB8F10001A8F10108F4DC5B4631
:103280002146179A0598ABE62D0000002B000000A0
:10329000200000002DE9F041044600251E46174697
:1032A000880404D405E039462020B0476D1C641E14
:1032B000F9D52846BDE8F0812DE9F0410446002506
:1032C0001E469046C80301D5302700E02027880419
:1032D00004D505E041463846B0476D1C641EF9D55B
:1032E0002846BDE8F08100002DE9F0410446204663
:1032F00000F064FB07463846FDF776F9804606493C
:10330000FCF771FF06464FF08B41FCF79EFF054628
:103310002846BDE8F08100000000F0422DE9FF5F83
:1033200083465846FDF7CFF90446954A954BFDF77D
:10333000DDF944D25846FDF7C6F9934A934BCDE9DF
:103340000201FDF767F8804600221346FDF7E6F913
:1033500012D85846FDF7B7F980468B4A8B4BFDF7DC
:1033600059F800228A4BCDE90001FCF7ACFFCDE90A
:103370000201FDF770F911E05846FDF7A4F9824A01
:10338000824BCDE90001FDF745F80022804BCDE9E5
:103390000201FDF739F88046FDF75DF97D4951F8E6
:1033A00020A05046FDF725F906467B4A7B4BFDF7EA
:1033B00031F80446FDF7CAF904B0BDE8F09F58465D
:1033C000FDF781F90446764A764BFDF78FF944D232
:1033D0005846FDF778F96C4A6C4BCDE90201FDF7D0
:1033E00019F8804600221346FDF798F912D858467E
:1033F000FDF769F9644A654BCDE90001FDF70AF86C
:103400000022634BCDE90201FCF75DFF8046FDF72A
:1034100022F911E05846FDF756F95B4A5B4BCDE9BE
:103420000001FCF7F7FF0022594BCDE90201FCF740
:10343000EBFF8046FDF70FF9C0F5C770554951F80D
:1034400020A05046FDF7D5F80646534A534BFCF7EB
:10345000E1FF0446FDF77AF9AEE75846FDF733F988
:103460000446514A514BFDF741F944D25846FDF705
:103470002AF9454A454BCDE90201FCF7CBFF8046CE
:1034800000221346FDF74AF912D85846FDF71BF9FA
:103490003D4A3E4BCDE90001FCF7BCFF80460022CF
:1034A0003B4BFCF710FFCDE90201FDF7D4F811E02A
:1034B0005846FDF708F9344A344BCDE90001FCF7D2
:1034C000A9FF80460022324BFCF79EFFCDE90201A6
:1034D000FDF7C1F8A0F5C7702E4951F820A050465D
:1034E000FDF787F806462C4A314BFCF793FF04465C
:1034F000FDF72CF960E75846FDF7E5F88046224ACB
:10350000224BFCF787FF00221346CDE90201FDF7AD
:1035100005F912D85846FDF7D6F81B4A1B4BCDE9E2
:103520000001FCF777FF80460022194BFCF7CBFE29
:10353000CDE90201FDF78FF811E05846FDF7C3F819
:103540008046114A114BFCF765FF0022104BCDE974
:103550000001FCF759FFCDE90201FDF77CF8C0F549
:1035600047700C4951F820A05046FDF742F8064636
:10357000094A0F4BFCF74EFF0446FDF7E7F81BE73F
:10358000F4D64354FB21F93F9CA223B9FCAB5F4026
:103590000000E03F045300082D431CEBE2361A3FC5
:1035A000EA2E4454FB210940320D337F7CD912406E
:1035B000E2361ABF70B5044625462E460448A0EBF5
:1035C0006606354629462046FCF70DFE70BD000014
:1035D000865A375F2DE9F04F87B00446211DA2A01F
:1035E000FFF7F2F894F8160100287DD1002521E0BC
:1035F0002846FCF7FEFF8246A04AA14BFCF70AFFD3
:10360000074600229F4BFCF777FF9F4A9F4BCDE96F
:103610000001FCF758FECDE90201FDF797F881465D
:103620004B4600222046E16801F00AFB022000F030
:1036300039FE6D1CB5F5FA7FDADD204600F0B8FEE4
:1036400005904FF4FA7521E02846FCF7D2FF0746B3
:103650008A4A8B4BFCF7DEFE00228A4BCDE9000143
:10366000FCF74AFF884A894BCDE90201FCF72BFEA3
:103670008246FDF76BF881464B4600222046E16802
:1036800001F0DEFA022000F00DFE6D1E002DDBDAE7
:10369000204600F08DFE049000231A46194620466D
:1036A00001F0CEFAC82000F0FDFD0598FDF70BF8FB
:1036B00007463A460B4676A0FFF786F80498FDF7D2
:1036C00002F807463A460B4676A0FFF77DF8DDE99B
:1036D0000410FCF782FD8246FCF7F5FF21F0004163
:1036E0000746FDF733F800E073E00646DDE9041015
:1036F000FDF748F808D03046FCF7E5FF07466E4A6C
:103700006E4BFCF7F3FF15D2211D6DA0FFF75CF89F
:103710006079312805D14FF400717448FDF73DFF01
:1037200003E008217148FDF738FF0020206007B052
:10373000BDE8F08FDDE90410FDF724F807D2211D64
:103740006BA0FFF741F8FF2084F8160106E0211D69
:103750006EA0FFF739F8012084F81601211D72A030
:10376000FFF732F82069FCF736FF31460290FCF78C
:103770003AFD0390FCF7A7FF0746404A404BFCF791
:1037800043FE21F00041824600226B4BFCF7C6FF4E
:103790001BD26AA0FFF718F83046FCF794FF0246E8
:1037A0000B46CDE9020135483549FCF7A5FE074631
:1037B0000022614BFCF787FD8246FCF74CFF20613D
:1037C00064A02169FFF700F807E064A0FEF7FCFFA2
:1037D00003E0211D63A0FEF7F7FF0021D4F81801D4
:1037E000FCF7D0FF39D1654B00222046E16801F09B
:1037F00027FA4FF42F7000F055FD204600F0D8FD59
:10380000824694F91601FCF7E6FE83465146FCF722
:10381000EAFC80462169FFF7B5F80746FFF7A2F9F1
:10382000C4F81801142000F03DFD211D54A0FEF73E
:10383000CBFFD4F81801FCF746FF07463A460B4683
:1038400055A0FEF7C1FF00231A461946204601F095
:10385000F7F9C82000F026FD03E0211D50A0FEF777
:10386000B3FF012063E7000025733A20416C6967CC
:103870006E2073656E736F722E0D0A00EA2E44542B
:10388000FB21194000407F40320D337F7CD912402C
:103890006D69645F616E676C653D252E34660D0A47
:1038A00000000000656E645F616E676C653D252EEB
:1038B00034660D0A000000007B14AE47E17A843FB5
:1038C00025733A204661696C656420746F206E6FC1
:1038D00074696365206D6F76656D656E74206C6FBD
:1038E0006F703232322E0D0A00000000000C0140D1
:1038F00025733A2073656E736F725F6469726563D6
:1039000074696F6E3D3D4343570D0A0025733A209D
:1039100073656E736F725F646972656374696F6EED
:103920003D3D43570D0A000025733A205050206357
:103930006865636B3A2000000000E03F6661696CD7
:10394000202D20657374696D617465642070703A10
:103950000000000025640D0A000000004F4B210DFF
:103960000A00000025733A20536B69702064697265
:103970002063616C69622E0D0A000000E4CB964062
:1039800025733A205A65726F20656C65632E20613D
:103990006E676C653A000000252E34660D0A000043
:1039A00025733A20536B6970206F666673657420C7
:1039B00063616C69622E0D0A0000000010B50446B8
:1039C0000723012221460948FDF75EFB0121074834
:1039D000FDF7B6FB00BF02210448FDF723FB0028DA
:1039E000F9D00248FDF71AFB10BD00000024014089
:1039F0002DE9FC5F04460D46FFF79AF88146E16920
:103A0000A9EB0100FCF7F0FD07463949FCF7EBFB99
:103A10008246C4F81C9000215046FCF7B3FE05D93D
:103A20004FF07C515046FCF7B7FE01D2DFF8C4A03E
:103A300051466069FCF7D7FB8346FCF744FE074616
:103A400088462846D4F81C11FCF7C7FB8346FCF7D0
:103A50003AFE21F000413A464346CDE90001FCF729
:103A60005DFE2FD22846D4F81C11FCF7B6FB0021CE
:103A70000090FCF787FE02D24FF0FF300CE02846A2
:103A8000D4F81C11FCF7A9FB00210090FCF784FE80
:103A900001D2012000E000200190FCF79CFD83464C
:103AA0006169FCF7A0FB80465146FCF79CFB07468A
:103AB000D4F81C11FCF73FFBC4F81C016069C4F882
:103AC000240104E0C4F81C510020C4F82401A668B5
:103AD0002169D4F81C01FEF755FF07463B4600223A
:103AE0003146204601F0ACF83046BDE8FC9F0000AE
:103AF000BD3786356F12833A2DE9F84F04460D46DF
:103B000021F0004000917349814211DC72498842E2
:103B100001DC06D12CB120462946BDE8F84FFEF75E
:103B2000CCBE6E48002DCCBF6D496E49BDE8F88F04
:103B30006D49814211DD6D498142D8BF4FF0FF369A
:103B40006DDD20462946FEF74FFE042808BFFEF72C
:103B5000BFFE20462946BDE8F88F6549654F25F030
:103B60000045814233DD6449814219DD0026324639
:103B70004FF0804320462946FCF7A5FB80468A4645
:103B8000012220462946FCF76BFF00223B46FCF74A
:103B90003BFC42465346FCF7AFFC04460D463EE074
:103BA00001260022BA463B4620462946FCF78BFBFD
:103BB00080460F460022534620462946FCF724FC47
:103BC00042463B46FCF798FC04460D4627E04B492D
:103BD00081421BDDDFF828A1022600225346204641
:103BE0002946FCF717FC00223B46FCF76CFB80469D
:103BF0000F460022534620462946FCF705FC424664
:103C00003B46FCF779FC04460D4608E003262246B5
:103C10002B4600203B49FCF76FFC04460D4622462C
:103C20002B4610461946FCF7F5FB8B4682460246AA
:103C30000B46FCF7EFFB07460246334888460B4627
:103C400006217844FEF7E4FD52465B46FCF7E2FBB2
:103C500082462E488B463A46434605217844FEF775
:103C6000D7FD3A464346FCF7D5FB02460B46002EED
:103C7000504659460CDAFCF726FB22462B46FCF749
:103C8000C9FB01B022462B46BDE8F04FFCF7BFBB95
:103C9000FCF719FB22462B46FCF7BCFB1C4A7A4476
:103CA00002EBC603D3E90023FCF7AEFB22462B460A
:103CB000FCF7AAFB174A7A4402EBC603D3E90023B8
:103CC000FCF7A5FB009A002AB8BF81F00041BDE8CF
:103CD000F88F0000000010440000F07F182D4454BD
:103CE000FB21F93FFB21F9BF0000DC3F0000203E33
:103CF0000000F33F0000F03F0000E63F008003407B
:103D00000000F83F0000F0BF521A0000101A000037
:103D1000AE190000761900002DE9F04D9446CCF163
:103D2000000423F000464CEA0404524F46EAD474DF
:103D30009A46884621F00042BC4206D8454240EAF5
:103D4000050442EAD474BC4204D9BDE8F04D624691
:103D5000FEF7B6BDAAF14055A5F17F6555EA0C0402
:103D60000BD0022404EAAA74434DDFF810E144EAC0
:103D7000D87452EA000B04D00CE0BDE8F04DFFF718
:103D8000BBBE002C14BF012CBDE8F08D022C30D03E
:103D9000032C32D056EA0C0B0AD0BE4220D1BA42D4
:103DA00009D126F0804622F080423346114617E0C2
:103DB00000291ADB25E0DFF8C8B0FB44002C04BF63
:103DC000DBE90001BDE8F08D012C02BFDBE9000159
:103DD00081F00041BDE8F08D022C0AD0032C0CD0FC
:103DE000BA4212D1B8F1000F0BDA23482549BDE8D9
:103DF000F08D28462449BDE8F08D28467146BDE87F
:103E0000F08D1D482149BDE8F08D921B12153C2A0A
:103E1000C4BF19481D490EDCBAF1000FBEBF12F134
:103E20003C0F0020014606DB6246FCF765FB21F0F3
:103E30000041FFF761FE002C08BFBDE8F08D012CAA
:103E400004BF81F00041BDE8F08D114A114B022CF6
:103E500007D0FCF7D9FA2A46BDE8F04D0A4BFCF72B
:103E6000D3BAFCF7D1FA2A46BDE8F04D064BFCF771
:103E7000CEBA00000000F07F182D4454FB2109C089
:103E80000A190000FB21F9BFFB210940FB21F93F82
:103E9000075C143326A6A13C30B583B00446FEF778
:103EA0001FFD05460020CDE9000002462146684678
:103EB000FCF70FFD2846FEF729FDDDE9000103B000
:103EC00030BD000070B59948008800F4004000281B
:103ED0006FD0974800784D286DD006DC41282AD055
:103EE00042283BD0482821D121E04E2872D05428C6
:103EF00047D05A28F7D18E484078412802D042282E
:103F000013D108E000208B4981F8150108628AA0CE
:103F1000FEF75AFC09E00420864981F815010020CB
:103F2000086289A0FEF750FC00BF00BFF8E08CA03B
:103F3000FEF74AFCF4E07E48401CFFF7ADFF044664
:103F4000FCF704FC7B490862086AFCF7BCFB0446EA
:103F500022460B4686A0FEF737FCE1E07448401C81
:103F6000FFF79AFF0446FCF7F1FB84490862086AF0
:103F7000FCF7A9FB044622460B4681A0FEF724FC71
:103F8000CEE06B48401CFFF787FF0446FCF7DEFBE2
:103F9000684908620846006A784908626549086A03
:103FA000FCF791FB044622460B4678A0FEF70CFC7A
:103FB000B6E0B9E0FFE75E484078492821D004DC4C
:103FC000412841D0472857D14AE0502803D05628ED
:103FD00052D12DE052E05648801CFFF75DFF0446A9
:103FE000FCF7B4FB5349C8660846C06E8864C86EC7
:103FF000FCF769FB044622460B4667A0FEF7E4FB8C
:104000003AE04B48801CFFF747FF0446FCF79EFB55
:10401000484908670846016FC1640146086FFCF70C
:1040200052FB044622460B4660A0FEF7CDFB23E080
:104030004049D1F82401FCF746FB044622460B46D2
:104040005FA0FEF7C1FB17E03A49D1F81C01FCF76D
:104050003AFB044622460B465DA0FEF7B5FB0BE09B
:104060003449D1F83401FCF72EFB044622460B46B6
:104070005BA0FEF7A9FB00BF00BF51E02C484078D1
:1040800041283FD049281AD0502802D0562845D17F
:104090002CE02748801CFFF7FFFE0446FCF756FB88
:1040A0003649C8660846C06E8864C86EFCF70BFBCC
:1040B000044622460B464FA0FEF786FB2EE01C4826
:1040C000801CFFF7E9FE0446FCF740FB2B4908671C
:1040D0000846016FC1640146086FFCF7F4FA044614
:1040E00022460B4648A0FEF76FFB17E02349D1F8A4
:1040F0002401FCF7E8FA044622460B4647A0FEF7E7
:1041000063FB0BE01D49D1F81C01FCF7DCFA044607
:1041100022460B4645A0FEF757FB00BF00BF00BF7D
:1041200000BF00200149088070BD00001C00002075
:10413000B4030020D8070020547970655F746F7253
:10414000717565210D0A0000547970655F616E67B5
:104150006C655F6F70656E6C6F6F70210D0A00008B
:1041600048656C6C6F20576F726C64210D0A0000FB
:10417000413D252E34660D0A000000002009002074
:10418000423D252E34660D0A00000000543D252EC8
:1041900034660D0A000000004D312E6375727265A1
:1041A0006E742E503D252E34660D0A004D312E635F
:1041B000757272656E742E493D252E34660D0A00A7
:1041C0004D312E76656C3D252E32660D0A000000BD
:1041D0004D312E616E673D252E32660D0A000000BE
:1041E0004D312E6E65775F616E673D252E32660D0F
:1041F0000A0000004D322E63757272656E742E5087
:104200003D252E34660D0A004D322E63757272659F
:104210006E742E493D252E34660D0A004D322E76E1
:10422000656C3D252E32660D0A0000004D322E6170
:104230006E673D252E32660D0A00000000B587B07E
:1042400001214FF40370FDF7A7FC4FF40040FDF788
:1042500077FC0320ADF8040000208DF8070001A9C9
:104260000E48FDF7BDF80E48FCF7AAFE00200290AC
:104270008DF80C008DF80D004FF4602004900020A4
:10428000059001208DF8180002A90548FCF7D4FE1E
:1042900001210348FCF789FE07B000BD000C014076
:1042A00000240140F0B50646FEF742FC054600BF7B
:1042B000FEF73EFC0446AC4201D3671B02E0C5F1A9
:1042C000FF30071906EB4600C0EBC610B7EBC00F76
:1042D000EED3F0BD2DE9F04104462069FCF77BF9EF
:1042E0000746D4F81C11FBF77EFF0646D4F81811D8
:1042F000FBF773FF0546FEF735FCBDE8F0810000D3
:1043000070B514461D460E46002814BF0121002139
:10431000314321F00041C1F17F6101F1E041C90F5A
:1043200016D1002C14BF01210021294321F00041A6
:10433000C1F17F6101F1E041C90F09D11449B1EB2D
:10434000460F08BF00281CD0690008BF002C18D0F9
:104350003146FCF79CFB024640F2FF7030EA1150F8
:104360000DD0F017B0EBE17F09D0084665F31E00D1
:1043700084460B4620466146FCF749F80246104643
:1043800070BD0120FEF7C2FABDE87040FEF79ABA90
:104390000000E0FF00BF054A128802F04002002A38
:1043A000F9D0C2B2014B1B1D1A8070470038014082
:1043B0002DE9F05F0446EC210859FCF70CF9824620
:1043C00094F9DE20E021095901EB410102EB4100A3
:1043D000FCF701F983465146FBF737FF8146FCF7AE
:1043E00072F90746044A054BFCF714F80546FCF73A
:1043F000ADF9BDE8F09F0000EA2E4454FB211940BE
:104400002DE9F04F8BB0064689464FF07E5007905D
:10441000314604A800F03CF904A807C808AB07C35C
:1044200000210A98FCF7AEF91DD1089C0998FCF709
:104430004AF90746454A464BFBF7ECFFCDE9020136
:104440000898FCF740F90746404A424BFBF7E2FF69
:104450008246DDE90223FBF736FFCDE90401FCF7D4
:1044600075F9054635E0DDE90801FBF764FE804695
:104470000A99FBF760FE07463749FBF7B4FE83460F
:1044800059460898FBF7A9FE824659460998FBF75A
:10449000A4FE069054460698FCF715F907462B4AE9
:1044A0002B4BFBF7B7FFCDE902015046FCF70BF9A8
:1044B0000746264A274BFBF7ADFFCDE90001DDE9B2
:1044C0000223FBF700FFCDE90401FCF73FF90546A5
:1044D00000BF00214846FCF755F91FD04846FEF7BB
:1044E0001DFF21460690FBF77EFE82464846FEF7FA
:1044F00013FA29460690FBF776FE83465146FBF7F2
:104500006CFE80460021FCF747F901D2012001E052
:104510004FF0FF300746FCF75EF807902946284623
:10452000FBF761FE824621462046FBF75CFE834690
:104530005146FBF700FE8046FFF73CF80746079917
:10454000FBF751FE0BB0BDE8F08F000047409045EF
:10455000A779F23FA779E23FABAAAA3E2DE9F74F30
:104560008EB00646914604A80F9900F091F804A871
:1045700007C80BAB07C300210D98FCF703F91DD149
:104580000B9C0C98FCF79FF807463D4A3D4BFBF708
:1045900041FFCDE902010B98FCF795F80746384A30
:1045A000394BFBF737FF8246DDE90223FBF78BFE31
:1045B000CDE90401FCF7CAF8054635E0DDE90B0159
:1045C000FBF7B9FD80460D99FBF7B5FD07462F496E
:1045D000FBF709FE834659460B98FBF7FEFD824622
:1045E00059460C98FBF7F9FD069054460698FCF7DF
:1045F0006AF80746224A234BFBF70CFFCDE902017C
:104600005046FCF760F807461D4A1F4BFBF702FFB8
:10461000CDE90001DDE90223FBF755FECDE90401F8
:10462000FCF794F8054600BF4846FEF775F90A9076
:104630004846FEF773FE099028460999FBF7D3FD1B
:10464000074620460A99FBF7CEFD80463946FBF720
:1046500072FD079020460999FBF7C5FD07462846DD
:104660000A99FBF7C0FD80463946FBF7B6FD089076
:10467000DDE90701C6E9000111B0BDE8F08F0000D7
:1046800047409045A779F23FA779E23FABAAAA3EFF
:10469000FEB505460C4614F8F00FFEF725FE07465A
:1046A000A169FBF79AFD0646E168FBF79CFD0090C7
:1046B0002079FEF719FE0746E169FBF78EFD0646F5
:1046C0002169FBF790FD0190A068F03C0B498842FE
:1046D00001D100200CE014F8F80FFEF705FE0746A4
:1046E000A169FBF77AFD0646E168F83CFBF77BFD24
:1046F00002909DE8070085E80700FEBDC7CFFFFFD9
:104700002DE9F04F89B08246E82050F80A0050B1F8
:10471000FEF70EFAE42151F80A10411AE82050F889
:104720000A00814203DD002009B0BDE8F08FE821D6
:1047300051F80A00FBF74FFF07461D49FBF785FDBF
:104740000646FBF7C0FFCDE90601EC2151F80A004F
:10475000FBF741FF0190FBF7B6FF02460B46CDE9A0
:10476000020114481449FBF7C7FE06460F469AF9A2
:10477000DC00FBF73EFF804632463B46FBF74AFE35
:10478000CDE90401DDE90623FBF7B6FE0446FBF79D
:10479000DDFF834609495846FBF7F4FF04D3084977
:1047A0005846FBF7F9FF01D24FF0000B5846BBE724
:1047B00000247449EA2E4454FB21194000007AC4B5
:1047C00000007A447CB504460D46206800B97CBDE3
:1047D00094F81501042803D094F81501032800D19A
:1047E000F5E7204600F04EFCC4F81C012846FEF711
:1047F0007BFDC4F834012046FFF76CFDC4F82001AE
:1048000094F8140120B1012803D0022855D120E0EA
:1048100058E02046D4F82011FFF7F2FD2F494860F8
:104820000846416804F12400FCF78AFF2B494860E0
:104830000A465168D4F82801FBF7CFFC06463146FA
:1048400004F14800FDF7C0F82549486000200860E1
:1048500038E021466846D4F82021FFF77FFE1F4844
:10486000DDE9001206C00838416804F12400FCF7B5
:1048700067FF1A4948600846016804F13000FCF7F8
:104880005FFF164908600A465168D4F82801FBF713
:10489000A4FC0646314604F14800FDF795F810499E
:1048A00048600E48006880F00046314604F16C0014
:1048B000FDF78AF80A49086004E0211D09A0FDF708
:1048C00083FF00BF00BF0648D4F82031026841686A
:1048D000204600F0B5F900BF79E700002C00002069
:1048E0002400002025733A206E6F20746F7271755A
:1048F0006520636F6E74726F6C2073656C65637492
:1049000065642100FCF716FD4FF4E13000F010FC67
:1049100073A17448FBF706FC73A17448FBF702FC13
:10492000FDF7FAFAFDF758FB00F0DEFB70A0FDF78B
:104930004BFF4FF47A70FFF7B5FCFFF77FFC694837
:10494000001FFCF7E3FE6948001FFCF7DFFE654827
:10495000001FFCF7EDFF6548001FFCF7E9FF694801
:104960006949086002205F49091F08616748C860FB
:10497000674888606748486167488861002081F817
:104980001401042081F815016448C8664FF07C5179
:104990005448001F016761485249091F88644FF05D
:1049A0007C515048001FC1645D484E49091FC1F841
:1049B00090005A494B48001FC0F894105548494987
:1049C000091FC1F8B40054494648001FC0F89C10A4
:1049D00054484449091FC863002008620220434923
:1049E000091F08614FF07F50C8604F4888604948F0
:1049F000486149488861002081F814014748C86629
:104A00004FF07C513948001F016744483749091F5E
:104A100088644FF07C513548001FC16440483349D9
:104A2000091FC1F890003D493048001FC0F894109C
:104A300038482E49091FC1F8B40037492B48001FD8
:104A4000C0F89C1037482949091FC8630020086234
:104A5000FCF7A8FD2348001FFCF7BCFE2348001FFD
:104A6000FCF7B8FE012231491E48001FFCF7F8FE92
:104A7000002211461D48001FFCF7F2FE2CA0FDF796
:104A8000A3FE2BE000F03CFB2D49096808442C49AB
:104A900008600846006841F28831884208DB00203F
:104AA000274908602748C06880F400502549C8603D
:104AB0000C48001F016A00F047F803210948001F55
:104AC000FFF780FE0948001F016A00F03DF804214D
:104AD0000648001FFFF776FEFFF7F4F9D2E7000063
:104AE0004D310000DC0700204D3200002409002079
:104AF000446F75626C652048414C4C2046310D0A6C
:104B0000000000000000C0413400002000002040F0
:104B1000000020410000A041000048429A99193F3E
:104B2000CDCCCC3DCDCC4C3D00005041190486404D
:104B30004D6F746F722072656164792E0D0A0000EA
:104B4000AC0300200010014070B504460D462068FB
:104B500000B970BD204600F0AFFAC4F8240194F803
:104B60001501052866D2DFE800F003330C4D59002B
:104B700094F8140110B93148456001E0C4F8285197
:104B800058E0C4F8305104F5987003C8FBF725FBD2
:104B90000646314604F1B400FCF716FFC4F82C01B8
:104BA000D4F82411D4F82C01FBF717FB0646314644
:104BB00004F19000FCF708FFC4F8280194F81401F0
:104BC00028B91E49D4F8280148600020086031E067
:104BD000C4F82C51D4F82411D4F82C01FBF7FDFAB9
:104BE0000646314604F19000FCF7EEFEC4F82801B9
:104BF00094F8140128B91149D4F82801486000201C
:104C0000086017E0C4F82C512046D4F82C1100F0AD
:104C10002FFB0A494860002008600BE0C4F83051BF
:104C20002046D4F83011FEF7E3FE04494860002026
:104C3000086000BF00BF00BF8BE700002400002019
:104C40002DE9FF4F97B08346904600214046FBF781
:104C500099FD38D018990846FBF7C5FA41461190DE
:104C60004046FBF7C0FA10901199FBF764FA1290D6
:104C7000FEF7A0FC1390F94801681398FBF7E5FADA
:104C800081464046FBF71FFDCDE90A011898FBF766
:104C90001AFDCDE90801DDE90A23FFF73DF8CDE96A
:104CA0000E011A98FBF70FFDCDE90C01DDE90E238B
:104CB000FBF709FBCDE91001FBF748FD1390FDF769
:104CC00051FF1A9016E0E54801681898FBF7BDFA05
:104CD00081461A98FBF7F7FCE14AE24BCDE90E0159
:104CE000FBF7F1FACDE91001FBF730FD1390FDF76A
:104CF00039FF1A901A98FBF7E6FCDB4ADB4BCDE94B
:104D00000E01FBF7F9FB0022D94BCDE91001FBF7AF
:104D1000DAFACDE91201FBF7BDFC07464846FBF77E
:104D2000D2FCCDE910011A98FBF7CDFCCDE90601C4
:104D30003846FBF76FFCCC4ACC4BCDE90201FBF7C0
:104D400069FBCDE90401DDE90623FBF75DFBCDE955
:104D50000801FBF7FBFC0A90FEF7E0FA0B90FBF76B
:104D6000B2FCC44AC44BCDE90C01FBF753FBCDE9BF
:104D70000E01DDE91023FBF74DFBCDE91201FBF736
:104D8000E5FC82464846FBF79EFCCDE9100138461B
:104D9000FBF740FC0022B64BCDE90001FBF734FBEA
:104DA000B14AB24BCDE90201FBF734FBCDE9060174
:104DB0001A98FBF788FCCDE90401DDE90623FBF72F
:104DC00023FBCDE90801FBF7C1FC0A90FEF7A6FA28
:104DD0000B90FBF778FCA74AA74BCDE90C01FBF73A
:104DE00019FBCDE90E01DDE91023FBF713FBCDE93B
:104DF0001201FBF7ABFC149051464FF07E50FBF7CD
:104E0000ECF913901499FBF7E8F91590072F7DD270
:104E1000DFE807F0C60424446486A6004FF0804112
:104E20001598FBF712FA139050461499FBF783F983
:104E300012901399FBF77FF904464FF080411598C3
:104E4000FBF703FA13901499FBF775F905464FF039
:104E500080411598FBF7F9F90646A5E04FF080412F
:104E60001598FBF7F2F951461390FBF764F90446E5
:104E70004FF080411598FBF7E8F9139050461499CC
:104E8000FBF759F912901399FBF755F905464FF0C6
:104E900080411598FBF7D9F9064685E04FF080412F
:104EA0001598FBF7D2F904464FF080411598FBF7AF
:104EB000CCF9139050461499FBF73DF912901399D1
:104EC000FBF739F905464FF080411598FBF7BDF91E
:104ED00013901499FBF72FF9064665E04FF08041D7
:104EE0001598FBF7B2F904464FF080411598FBF78F
:104EF000ACF951461390FBF71EF905464FF080417F
:104F00001598FBF7A2F91390504600E048E0149979
:104F1000FBF711F912901399FBF70DF9064643E0E0
:104F20004FF080411598FBF790F913901499FBF717
:104F300002F904464FF080411598FBF786F90546C3
:104F40004FF080411598FBF780F913905046149963
:104F5000FBF7F1F812901399FBF7EDF8064623E002
:104F60004FF080411598FBF770F913905046149953
:104F7000FBF7E1F812901399FBF7DDF804464FF0C8
:104F800080411598FBF761F905464FF0804115986F
:104F9000FBF75BF951461390FBF7CDF8064603E0AB
:104FA00000240025002600BF00BF9BF80500312823
:104FB0002AD132492046FBF716F91290FBF737FB4E
:104FC00080B2014613904FF08040FDF78CFA2B49D8
:104FD0002846FBF708F91290FBF729FB80B201463F
:104FE00013904FF08040FDF780FA24493046FBF7DC
:104FF000FAF81290FBF71BFB80B2014613904FF0BA
:105000008040FDF774FA26E01C492046FBF7EBF8D8
:105010001290FBF70CFB80B2014613901848FDF785
:1050200062FA16492846FBF7DEF81290FBF7FFFA02
:1050300080B2014613901248FDF757FA0F493046E7
:10504000FBF7D1F81290FBF7F2FA80B20146139009
:105050000B48FDF74CFA1BB0BDE8F08F3400002080
:10506000F4D64354FB21F93F40AF2D3852C1F03FF5
:105070000000F03F6B6058E87AB6FB3F0000B44494
:10508000000400402DE9F04104462046FFF790F966
:10509000064694F91601FBF79EFA07463146FBF7E0
:1050A000A2F80546034801682846FBF796F8BDE8D4
:1050B000F0810000200000202DE9F0410446204648
:1050C000FFF71EFB0746394604F13C00FCF738FBAE
:1050D000054694F91601FBF77EFA06462946FBF7CA
:1050E00082F8BDE8F081000004484FF0E0214861FB
:1050F0000020886107200861704700004019010006
:1051000070B5FDF715FD044608480068844203D3D6
:1051100006480068251A04E004480068C0F1FF3022
:10512000051902480460284670BD0000A80300204D
:1051300010B586B00446012144F20400FCF72CFDB2
:105140004FF40070ADF8140003208DF816001820FD
:105150008DF8170005A91C48FCF742F94FF4806050
:10516000ADF8140004208DF8170005A91648FCF7C7
:1051700037F925208DF8000003208DF801008DF807
:10518000020001208DF803006846FCF799FB0194AA
:105190000020ADF80800ADF80A00ADF80C00ADF83D
:1051A00010000C20ADF80E0001A90848FDF79AFA8E
:1051B000012240F225510548FDF76EFA012103480E
:1051C000FDF734FA06B010BD000801400038014078
:1051D0002DE9F0410446FDF7ABFC0646A078617866
:1051E00000EB4100217800EB8100C7B2E078B842C3
:1051F00001D1BDE8F081E770E0781C490D5694F9C3
:105200000600281A032807DDFF20207194F90410F6
:10521000A0680844A06016E094F90600281A10F16E
:10522000030F07DA0120207194F90410A0680844E4
:10523000A06008E094F90600A84201DA012001E02C
:105240004FF0FF302071A57194F9040094F9051016
:10525000884203D1E068301A206101E0002020611B
:10526000E6602079607100BFC3E7000024560008A3
:105270002DE9F04704460D46FDF75AFC8146E169E9
:10528000A9EB0100FBF7B0F907461B49FAF7ABFFA2
:105290008246C4F81C9000215046FBF773FA08D9E7
:1052A0005046FBF710FA07460022144BFBF736FA7C
:1052B00001D2DFF84CA051462846FAF794FF804609
:1052C000D4F81C11FAF737FF0746FDF74BFCC4F87A
:1052D0001C01C4F82451A6682169D4F81C01FDF70B
:1052E00051FB07463B46002231462046FFF7A8FC0B
:1052F0003046BDE8F0870000BD3786350000E03F4E
:105300006F12833A000000004F0000009E00000072
:10531000ED0000003C0100008B010000D9010000FD
:105320002802000077020000C602000015030000FA
:1053300063030000B2030000000400004F040000FB
:105340009D040000EC0400003A0500008805000000
:10535000D60500002406000072060000C00600000A
:105360000E0700005B070000A9070000F607000019
:105370004308000090080000DD0800002A09000032
:1053800077090000C30900000F0A00005C0A000052
:10539000A80A0000F40A00003F0B00008B0B00007D
:1053A000D60B0000210C00006C0C0000B70C0000B4
:1053B000010D00004C0D0000960D0000E00D0000F6
:1053C000290E0000730E0000BC0E0000050F000047
:1053D0004E0F0000960F0000DF0F000027100000A6
:1053E0006E100000B6100000FD1000004411000017
:1053F0008B110000D1110000171200005D12000097
:10540000A2120000E81200002D130000711300002A
:10541000B6130000F91300003D14000081140000D1
:10542000C414000006150000491500008B1500008B
:10543000CC1500000E1600004F1600008F1600005D
:10544000CF1600000F1700004F1700008E17000046
:10545000CD1700000B180000491800008718000045
:10546000C4180000011900003D190000791900005E
:10547000B5190000F01900002B1A0000661A000090
:105480009F1A0000D91A0000121B00004B1B0000DD
:10549000831B0000BB1B0000F21B0000291C000046
:1054A000601C0000961C0000CB1C0000001D0000CA
:1054B000351D0000691D00009D1D0000D01D00006D
:1054C000031E0000351E0000671E0000981E00002D
:1054D000C91E0000FA1E0000291F0000591F00000D
:1054E000881F0000B61F0000E41F0000112000000C
:1054F0003E2000006A20000096200000C12000002D
:10550000EC2000001621000040210000692100006D
:1055100092210000BA210000E121000008220000D1
:105520002F220000552200007A2200009F22000056
:10553000C3220000E72200000A2300002D23000000
:105540004F2300007023000091230000B2230000CD
:10555000D1230000F12300000F2400002D240000BF
:105560004B2400006824000084240000A0240000D4
:10557000BB240000D5240000EF2400000925000012
:10558000222500003A250000522500006925000070
:105590007F25000095250000AA250000BF250000FA
:1055A000D3250000E6250000F92500000B260000A9
:1055B0001D2600002E2600003E2600004E2600007C
:1055C0005D2600006C2600007A2600008726000079
:1055D00094260000A0260000AB260000B62600009E
:1055E000C0260000CA260000D3260000DB260000EB
:1055F000E3260000EA260000F1260000F72600005E
:10560000FC260000012700000527000008270000F5
:105610000B2700000D2700000F27000010270000B7
:1056200010270000FF000405020103FF0000000036
:105630004FBB610567ACDD3F182D4454FB21E93FAA
:105640009BF681D20B73EF3F182D4454FB21F93F99
:10565000E2652F227F2B7A3C075C143326A6813C1F
:10566000BDCBF07A8807703C075C143326A6913CCA
:10567000C4EB98999999C9BF711623FEC671BCBF36
:105680006D9A74AFF2B0B3BF9AFDDE522DDEADBF9E
:105690002F6C6A2C44B4A2BF0D5555555555D53FB6
:1056A000FF8300922449C23F6E204CC5CD45B73FD1
:1056B000513DD0A0660DB13FEB0D76244B7BA93F49
:1056C00011DA22E33AAD903F000000000000000034
:1056D000DDDDDDDDDCBBBBDDDDDDDDDDDDDDDDDD3F
:1056E000988888888888888877777777778888887F
:1056F0008555555666666666666666666668888817
:105700008333333222222222222222222228888D0F
:105710003057000800000020B4030000540F0008B8
:10572000CC570008B4030020B40A0000FC2800088D
:10573000412D01020304040009920607080902042E
:1057400006080B14F03F08000BFF14407DAEB66254
:105750007FD9024001FF013A4809A7E8482EFF21FE
:10576000E93F08D309405813804640158C4AEA04A3
:10577000942C4096438B6CE77B1720381427400EFF
:105780002DB29DEF673840022B8716D98E2E4066CA
:105790000158120640EC51B81E85AB3C40AED85FB4
:1057A000764F926330680B3C401B0DE02D90201526
:1057B000407061C8122640787AA52C433C4040488E
:0C57C000E17A14AED7438001170000000E
:04000005080000ED02
:00000001FF
