:020000040800F2
:10000000180B002001010008090100080B0100087D
:100010000D0100080F010008110100080000000098
:1000200000000000000000000000000013010008B4
:100030001501000800000000170100085D1E0008FF
:100040001B0100081B0100081B0100081B01000820
:100050001B0100081B0100081B0100081B01000810
:100060001B0100081B0100081B0100081B01000800
:100070001B0100081B0100081B0100081B010008F0
:100080001B0100081B0100081B0100081B010008E0
:100090001B0100081B0100081B010008DD120008FD
:1000A0001B0100081B0100081B0100081B010008C0
:1000B0001B0100081B0100081B0100081B010008B0
:1000C0001B0100081B0100081B0100081B010008A0
:1000D0001B0100084D2500081B0100081B0100083A
:1000E000211200081B0100081B010008DFF80CD0DA
:1000F00000F08CFD0048004765910008180B0020B7
:100100000648804706480047FEE7FEE7FEE7FEE7B1
:10011000FEE7FEE7FEE7FEE7FEE7FEE76D1E0008EE
:10012000ED00000840EA01039B0703D009E008C97D
:10013000121F08C0042AFAD203E011F8013B00F8AC
:10014000013B521EF9D27047034611F8012B00F80B
:10015000012B002AF9D118467047F0B480EA010259
:10016000D40F4200B2EB410F02D2024608461146BC
:100170004A0042D0C30DDDB2C1F3C752AD1A202DE3
:1001800035DAC1F3160141F4000204B15242C5F15F
:10019000200602FA06F12A411044B3EBD05F23D0C7
:1001A000C4B1012DA0EBC35009DCF0BC4FF00042FC
:1001B00002EAC352DBB200F5000000F0D8BB4000F9
:1001C00000F1807000EBC350A0F1807040EAD17064
:1001D000490009E0490841EAC071A0EBC35000F5AD
:1001E0000000400800EBC350F0BC00F0B7BB614218
:1001F000012202EB4101001BF6E7F0BC704781F0E1
:100200000041AAE780F00040A7E780EA010210B5AC
:1002100002F00043400022D04A001FD0010E01EB43
:100220001261C0F35600C2F3560240F4000042F4DB
:100230000002A0FB022000047F39140400D0401CFF
:1002400050EA124001D44000491EC2B20C0604EB31
:10025000D010401C4008802A02D003E0002010BDCE
:1002600020F00100002900DA0020184310BD30B44E
:1002700080EA010202F0004530F0004221F0004027
:1002800013D090B1C30DD40DC2F31601C0F3160004
:10029000E41A41F4000140F400027D34914201D39C
:1002A000641C00E04900002C02DA30BC00207047DA
:1002B0004FF400000023914201D3891A0343400800
:1002C0004FEA4101F7D151B1914202D14FF00041C3
:1002D00005E002D24FF0010101E06FF0010103EBF4
:1002E000C450284430BC00F039BB2DE9FE4F804695
:1002F00081EA0300C00F0C46009021F0004123F07A
:100300000045B8EB0200A94105D24046214690467F
:100310001C460B46024623F00040104347D0270DF1
:10032000C7F30A00C3F30A510290401A0190402813
:100330006BDAC3F3130040F4801B0098924620B19F
:100340000023D2EB030A63EB0B0B01985946C0F173
:100350004002504600F083FA06460D465046594684
:10036000019A00F09BFA10EB08006141002487EA33
:10037000115284EAE7731A4340D0009A62B3019A9B
:10038000012A4FEA075215DC001B61EB02014FF016
:10039000004202EA0752CDE90042001C41F58011FB
:1003A00032462B4600F020FB03B0BDE8F08F4046FC
:1003B0002146F9E7001B61EB0201001C41F58013A7
:1003C00000185B412018A2F5001747EB030140EA33
:1003D000D570B6196D4111E06D084FEA360645EA51
:1003E000C0754FEA0752001B61EB0201001C41F58A
:1003F000801149084FEA30000019514132462B461E
:1004000003B0BDE8F04F00F0E0BA009801224000D0
:100410000023D0EB020263EBE073009821464FEA21
:10042000E074B8EB000061EB0401E9E783F00043FE
:100430005BE781F0004158E72DE9FE4F81EA0304B4
:1004400004F0004421F0004100944FF0000B23F031
:10045000004350EA01045ED052EA03045BD0C3F3C8
:100460000A54C1F30A552C44A4F2F3340194A0FBBE
:100470000254C1F3130141F48011C3F3130343F495
:10048000801301FB024400FB034E840A970A44EAEE
:10049000815447EA8357A4FB076802958D0A05FB40
:1004A00007854FEA932C04FB0C542705029D4FEA65
:1004B000065847EA1637B5EB08056EEB070C870EB2
:1004C000920E47EA811742EA8312A7FB0201B6EBBC
:1004D0000B0164EB00042B0D43EA0C335E1844EB74
:1004E0001C50DA465146E7FB0201C5F313044FEAFC
:1004F0000B3343EA14534FEA0432019C43EA0603E8
:10050000A4F10C040294009CCDE900B400F06CFA54
:1005100003B0BDE8F08F00200146F9E72DE9F04D6A
:1005200081EA030404F0004B21F0004514464FF02B
:10053000000A23F0004150EA050220D054EA0102EB
:100540001DD0C5F30A570246C5F31303C1F31300C8
:10055000C1F30A5640F4801543F48013A7EB060854
:10056000101BD64608F2FD3873EB050002D308F1E4
:10057000010801E092185B41B8F1000F03DA002096
:100580000146BDE8F08D00204FF4801106468446F8
:100590000EE0171B73EB050705D3121B63EB050376
:1005A00006434CEA010C49084FEA300092185B41BF
:1005B00050EA0107EDD152EA030012D082EA0400AA
:1005C00083EA0501084305D0101BAB4106D2012286
:1005D000002306E000224FF0004302E06FF001022A
:1005E00053101AEB06004CEB085110EB0A0041EBDC
:1005F0000B01BDE8F04D00F0E8B9C10F80EAE070F2
:100600000844CA079623002100F0B1B996230022BE
:10061000114600F0ACB90EB5C10F80EAE070084495
:10062000CA07002140F233438DE80E000A460B460C
:1006300000F0DAF903B000BD0EB540F2334102918B
:100640000021CDE900110A460B4600F0CDF903B0B8
:1006500000BD20F00040C10DC0F3160040F40000C2
:100660007F2901DA00207047962903DCC1F1960149
:10067000C840704796398840704770B5C1F30A5238
:1006800001F000450024C1F3130140F2FF3341F4AF
:1006900080119A4201DA002070BD40F233439A4241
:1006A000A2F2334203DC524200F0E8F800E090404E
:1006B0002C43F1D0404270BDC1F30A5210B5C1F3D2
:1006C000130140F2FF3341F480119A4201DA002015
:1006D00010BD40F233439A42A2F2334203DC52424D
:1006E00000F0CCF810BD904010BD00F0004230F09A
:1006F00000400AD0C10D01F56071C0F3160042EA56
:100700000151C2084007114370470020014670475D
:1007100030B5041E71F1000404DB4FF00044404288
:1007200064EB0101141E73F1000405DB1C464FF05D
:100730000043524263EB04038B4208BF824230BD48
:1007400030B5041E71F1000404DB4FF00044404258
:1007500064EB0101141E73F1000405DB1C464FF02D
:100760000043524263EB0403994208BF904230BDFC
:1007700001F0004330B421F0004150EA010206D0FC
:100780000A0DA2F56072C1F31301002A02DC30BC2D
:1007900000207047440F44EAC104C100E01830BC97
:1007A00000EBC25000F0DAB8002801DBC0F10040D5
:1007B000002901DBC1F1004181427047002801DBC3
:1007C000C0F10040002901DBC1F1004188427047BF
:1007D00030B50B46014600202022012409E021FA11
:1007E00002F59D4205D303FA02F5491B04FA02F50E
:1007F0002844151EA2F10102F1DC30BD2DE9F05FA5
:100800000546002092469B4688460646814640247F
:100810001BE0284641464746224600F02FF8534643
:100820005A46C01A914110D311461846224600F08C
:1008300016F82D1A67EB01084F46224601200021C9
:1008400000F00DF817EB00094E41201EA4F1010441
:10085000DFDC484631462A464346BDE8F09F202A61
:1008600004DB203A00FA02F1002070479140C2F107
:10087000200320FA03F3194390407047202A04DB39
:10088000203A21FA02F00021704721FA02F3D04009
:10089000C2F120029140084319467047202A06DB26
:1008A000CB17203A41FA02F043EAE07306E041FA3E
:1008B00002F3D040C2F1200291400843194670472C
:1008C0000FB4002300B589B00CA900910B996FF00B
:1008D0000042CB601E4B06931E4B07930423CDE9C9
:1008E00001321D4A089202466B46002000F03AFA97
:1008F00009B05DF814FB70B586B006464FF0FF30C6
:100900000091CDE90101002015460C4604903246C5
:10091000694604A8FFF7D4FF02460498211825B1C0
:1009200008B1084600E020462860049800280DD051
:10093000002A02DD0098884208D0081B0094CDE907
:1009400001043246694604A8FFF7BAFF06B070BD3D
:100950009D0F0008BB0F0008310C00080029A8BF3C
:100960007047401C490008BF20F00100704710B4D8
:10097000B0FA80FC00FA0CF050EA010404BF10BC8D
:10098000704749B1CCF1200421FA04F411FA0CF1BA
:1009900018BF012121430843A3EB0C01CB1D4FEAF3
:1009A00000614FEA102042BF002010BC704700EBEE
:1009B000C35010440029A4BF10BC7047401C49001C
:1009C00008BF20F0010010BC704710B5141E73F171
:1009D000000408DA401C41F1000192185B411A43FF
:1009E00001D120F0010010BD2DE9F04D92469B464B
:1009F00011B1B1FA81F202E0B0FA80F220329046F1
:100A0000FFF72DFF04460F4640EA0A0041EA0B01BA
:100A100053465A46084313D0114653EA010019D0F1
:100A2000C8F140025046FFF729FF05460E465046E2
:100A300059464246FFF713FF084305D0012004E062
:100A400020463946BDE8F08D0020054346EAE076B1
:100A50002C4337430A986305E40AA0EB0800002200
:100A6000FD0A44EA47540A3002D500200146E9E76E
:100A7000010510196941DDE9084500196941BDE822
:100A8000F04DA2E770B521F0004303430CD0C1F351
:100A90000A550024D5EB040564EB0403D617AD1A00
:100AA000B34102DB0020014670BD201841EB02512A
:100AB00070BD2DE9F04D00231A461B1A8A4103DB55
:100AC00000200146BDE8F08DC1F30A52C1F31301C5
:100AD00041F480154FF0000BD10702D100186D4191
:100AE000521E0027044640F2FF11384601EB620A0D
:100AF0003E468046024600204FF48011FFF7BEFEBE
:100B0000C2197141BB1846EB0100B4EB030C75EB45
:100B1000000C04D3E41A65EB000517460E462419B1
:100B200008F101006D4180463428E3DDF91946EBF8
:100B30000600091BA84103D24FF0FF32134601E023
:100B4000002213461BEB070046EB0A51BDE8F04DAF
:100B5000FFF73BBF2DE9FE4FC3F30A5701F00045F5
:100B60000024C1F30A56C3F31303C1F3130143F482
:100B7000801312EB020AA64641F48011009543EB64
:100B8000030CA7F1010B16E0B0EB0A0061EB0C01BE
:100B9000071E71F1000707DA4FF00008D0EB0800DC
:100BA00085F0004568EB0101171A73EB0107EBD3E1
:100BB000761E001849415E45F6DA50EA010209D076
:100BC000CDE900E5002213460296FFF70DFF03B0C2
:100BD000BDE8F08F20460099F9E7C1F30A52C1F34E
:100BE000130140F2FF3341F480119A4202DA0020EF
:100BF0000146704740F233439A42A2F2334202DC8C
:100C00005242FFF73BBEFFF72ABE0000064C074DDD
:100C100006E0E06840F0010394E8070098471034CC
:100C2000AC42F6D3FFF766FAC8B60008E8B600088B
:100C3000C0B24FF4F05100F0D1B900002DE9FF4FE0
:100C4000087883B09946FF2805D0491C2D2804D088
:100C50000024002008E000200BE00124F9E700EB6D
:100C6000800003EB4000491C0B78FF2BF7D104B147
:100C7000404200230293147819461D462D2C01D0C2
:100C80002B2C04D1521C2D2C13D000240294AA46E4
:100C90001478FF2C0FD00A25A3FB057801FB0581F2
:100CA0004FF0000C03FB0C11521CE3194AEB01013D
:100CB000EEE70124EAE7814453EA010002D019F586
:100CC000C87F06DA03980021C0E9001107B0BDE82B
:100CD000F08F0025AE4E2F46DFF8B882184600F0A0
:100CE00091F9CDE90001B9F1000002DAC9F100047F
:100CF00000E004460023A74A1AEB030B42EB045A18
:100D000012E0E00707D02A46334638464146FFF74F
:100D100093FB074688462A46334610461946FFF796
:100D20008BFB05460E466410002CEAD1DDE900017C
:100D3000B9F1000F5A46534606DAFFF7EFFB3A4681
:100D40004346FFF7EBFB05E0FFF776FB3A464346E9
:100D5000FFF772FB029A0AB181F00041039AC2E9DF
:100D60000001B3E72DE9FF4F1F468DB0D7E90146DB
:100D70004FF0FF382E2045464FF000090B90B9691F
:100D80006D1C0E988847396A824688470028F6D13C
:100D9000BAF1FF3F0AD024F4D064002E11DDBAF17D
:100DA0002B0F08D0BAF12D0F0BD102E0404611B045
:100DB0008DE744F48064B9696D1C0E9888478246BB
:100DC000761E6946600501D52D2000E02B208DF8A8
:100DD000000001F1010B0DF1200809E0B9696D1C5B
:100DE0000E98884782460F9844F40074761E05607A
:100DF000002E02DDBAF1300FF0D00B998A453ED1BA
:100E000044F0800406E00F99681CA9F1010944F43C
:100E100000740860B9696D1C761E0E98884782467A
:100E20003028F0D02BE00B998A4505D1200603D459
:100E300044F08004761E18E0504602F025F908B30D
:100E40000DF11301761E44F400748B4508D2AAF10B
:100E500030000BF8010B200607D5A9F1010003E0D3
:100E6000200602D409F101008146A00502D50F99A0
:100E7000681C0860B9696D1C0E9888478246002E70
:100E8000D1DC53E0002E51DDBAF1650F02D0BAF18A
:100E9000450F4BD1A00549D5B9696D1C24F44074A8
:100EA000761E0E9888478246002E0CDD2B2804D033
:100EB000BAF12D0F07D144F48074B9696D1C0E98F6
:100EC00088478246761EE00501D52D2100E02B21C2
:100ED00008F8011BCDF82C8021E00DF12901761EC8
:100EE00044F4007488450CD2AAF1300010F0FF00E1
:100EF00088F8000002D10B99884509D908F101084A
:100F000006E0E00501D5244801E042F20F70814679
:100F1000B9696D1C0E98884782460F980560002EAF
:100F200004DD504602F0B0F80028D6D1F9690E98D9
:100F30008847FF208BF8000088F80000002006900A
:100F400007904B466A4608A906A8FFF777FEA0055A
:100F500002D46FF001002AE714F0240F0AD0E00752
:100F600014D1DDE906123868031D3B600068C0E952
:100F700000120BE0DDE90601FFF7FAFB0146E0078E
:100F800004D13868021D3A600068016028460EE707
:100F9000000014400000F03FF1D8FFFF426842B16A
:100FA000016811F8013B23B1521EC0E90012184636
:100FB00070470121C160881E704742685AB1C368FA
:100FC000016843B983688B4205D0491E521CC0E9B1
:100FD0000012002070474FF0FF3070477F2801D982
:100FE000002208E0064A02EB5002C007127800D146
:100FF000120902F00F0201209040084070470000E3
:1010000088B600080EB540F2334202920022CDE9C4
:1010100000221346FFF7E8FC03B000BD70B58C1842
:1010200010F8015B15F0070301D110F8013B2A11FC
:1010300006D110F8012B03E010F8016B01F8016BE9
:101040005B1EF9D12B0705D40023521E0DD401F8E5
:10105000013BFAE710F8013BCB1A921C03E013F8AE
:10106000015B01F8015B521EF9D5A142D8D30020E3
:1010700070BD21B1826842F00102826003E08268A3
:1010800022F001028260704710B504461248844283
:1010900008D10121401500F0F3FD0021601500F09A
:1010A000EFFD17E00D48844208D10121001500F042
:1010B000E7FD0021201500F0E3FD0BE00848844225
:1010C00008D10121C80300F0DBFD00214FF40040EE
:1010D00000F0D6FD10BD00000024014000280140B2
:1010E000003C01400146C86C80B2704702460020B7
:1010F00013680B400BB1012000E000207047000096
:1011000030B502460020002350680F4C20400D7976
:101110000C6844EA05242043506090680B4C204042
:10112000D1E902542C434D7944EA450420439060B0
:10113000D06A20F470000C7C641EE4B2234340EAC1
:101140000350D06230BD0000FFFEF0FFFDF7F1FF5D
:10115000F0B504460D4600200021092D11DDE068A0
:10116000A5F10A0606EB4607072606FA07F18843AB
:10117000A5F10A0606EB460603FA06F10843E0600D
:101180000CE0206905EB4507072606FA07F18843BE
:1011900005EB450603FA06F108432061072A0FDA3A
:1011A000606B561E06EB86071F2606FA07F188437A
:1011B000561E06EB860605FA06F10843606322E038
:1011C0000D2A0FDA206BD61F06EB86071F2606FABC
:1011D00007F18843D61F06EB860605FA06F1084399
:1011E000206310E0E06AA2F10D0606EB86071F26D9
:1011F00006FA07F18843A2F10D0606EB860605FA0A
:1012000006F10843E062F0BD21B1826842F4A00219
:10121000826003E0826822F4A002826070470000CE
:1012200010B54FF4805000F08BF801280ED1000368
:1012300000F080F84FF48051244800F009FA244966
:1012400081F8DA0001F1D80009F076FE4FF48060F1
:1012500000F076F801280ED1800200F06BF84FF410
:1012600080611C4800F0F4F91B4981F8D80001F1B5
:10127000D80009F061FE4FF4006000F061F8012829
:101280000ED1C00200F056F84FF40061114800F092
:10129000DFF9114981F8D90001F1D80009F04CFEBD
:1012A0004FF4005000F04CF801280ED1400300F03C
:1012B00041F84FF40051054800F0CAF9064981F899
:1012C000DA0001F1D80009F037FE10BD0008014036
:1012D00088040020000C0140D005002010B54020FB
:1012E00000F02EF801280DD1402000F023F8402115
:1012F0000E4800F0ADF90E4981F8D80001F1D80090
:1013000009F01AFE802000F01BF801280DD1802082
:1013100000F010F88021054800F09AF9044981F89E
:10132000D90001F1D80009F007FE10BD000C014002
:10133000880400200149086070470000140401403F
:10134000014600200022074B1B6803EA0102054BFF
:1013500014331B680B4013B10AB1012000E00020D8
:101360007047000000040140002123498279002ACF
:101370003AD00A46126803689A430B461A600A1D5F
:10138000126803689A430B1D1A60027911440A68B7
:1013900003681A430A60184A0832126803689A43BD
:1013A000154B08331A601A1D126803689A43124BD2
:1013B0000C331A604279102A0ED11A1F1268036882
:1013C0001A430D4B08331A601A1D126803681A433A
:1013D000094B0C331A600DE00749427911440A6841
:1013E00003681A430A6005E0027911440A68036839
:1013F0009A430A60704700000004014008B50121CB
:101400001D2000F02DFC0121144800F0D9F84FF404
:101410000050ADF8000010208DF8030001208DF879
:10142000020069460E4800F03FF84FF400510C48A6
:1014300000F017F94FF40270ADF8000010208DF89D
:10144000030001208DF802006946064800F02CF8E0
:101450004FF40271034800F004F908BD00023000A7
:1014600000100140000C014030B500228B071C0F1A
:101470000F2303FA04F20B4B8C1053F824309343E0
:10148000084C8D1044F8253023468C1053F8243036
:101490008C07240F00FA04F42343024C8D1044F807
:1014A000253030BD080001402DE9F04102460025FD
:1014B0000026002000230024002791F803C00CF030
:1014C0000F0591F803C00CF0100CBCF1000F03D015
:1014D00091F802C04CEA050591F800C0BCF1000F7C
:1014E00031D0146800202BE04FF0010C0CFA00F30F
:1014F000B1F800C00CEA03069E4220D183004FF0F1
:101500000F0C0CFA03F7BC4305FA03FC4CEA040485
:1015100091F803C0BCF1280F06D14FF0010C0CFA72
:1015200000FCC2F814C00AE091F803C0BCF1480FF7
:1015300005D14FF0010C0CFA00FCC2F810C0401CA1
:101540000828D1D31460B1F800C0BCF1FF0F34DD1E
:10155000546800202EE000F1080C4FF0010808FA52
:101560000CF3B1F800C00CEA03069E4221D18300BF
:101570004FF00F0C0CFA03F7BC4305FA03FC4CEADE
:10158000040491F803C0BCF1280F05D100F1080C48
:1015900008FA0CF8C2F8148091F803C0BCF1480FA7
:1015A00007D100F1080C4FF0010808FA0CF8C2F856
:1015B0001080401C0828CED35460BDE8F0810000A4
:1015C000F0B50A46002300240021002500F0004663
:1015D000B6F1004F02D11D4EF16901E01B4E71685A
:1015E000C0F3034583B200F44016B6F5401F08D19E
:1015F00021F07061154E766826F07066134F7E609C
:1016000012E000F48016B6F5801F06D1032606FA14
:1016100005F4A14341F0706106E0460D360103FA7E
:1016200006F6B14341F0706122B1460D360103FA6E
:1016300006F6314300F00046B6F1004F02D1034EEA
:10164000F16101E0014E7160F0BD00000000014059
:101650000246002093680B400BB1012000E00020FF
:101660007047416170470161704700001FB501215B
:101670000D2000F0F5FA4FF44050ADF80C00482072
:101680008DF80F0001208DF80E0003A94D48FFF7DB
:101690000BFF4FF440514B48FFF7E5FF4FF44C6010
:1016A000ADF80C0048208DF80F0001208DF80E00D9
:1016B00003A94548FFF7F8FE4FF44C614248FFF795
:1016C000D2FF0C210020FFF7CFFE06210120FFF7FB
:1016D000CBFE07210120FFF7C7FE0D210020FFF7F9
:1016E000C3FE0A210120FFF7BFFE0B210120FFF7F7
:1016F000BBFE4FF47350019000208DF808001020BD
:101700008DF8090001208DF80A0001A8FFF72CFED2
:1017100017208DF8000001208DF80300684600F0C6
:1017200033F928208DF8000001208DF80300684669
:1017300000F02AF92548006900EB400041002348E9
:10174000C0F8EC102248006900EB4000410020483E
:10175000C0F8EC1040211C48FFF77AFF1B4981F8C4
:10176000D80080211848FFF773FF184981F8D90085
:101770004FF480511348FFF76BFF144981F8DA00EA
:1017800001F1D80009F0D8FB4FF480610E48FFF753
:101790005FFF0F4981F8D8004FF400610A48FFF756
:1017A00057FF0B4981F8D9004FF400510548FFF766
:1017B0004FFF074981F8DA0001F1D80009F0BCFBBE
:1017C0001FBD000000080140000C014088040020FB
:1017D000D005002010B504460A4860620021A162CD
:1017E00001F05AFCE062074820630021616301F0C8
:1017F00053FCA0630348E0630021216401F04CFC2A
:10180000606410BDCDCC4C3D2DE9F84F04460D462B
:1018100001F042FC8046A168A8EB0100FEF7F6FE4D
:1018200082461B49FEF7F1FC8146C4F8088000217E
:101830004846FEF7B9FF02D2DFF8589008E0164993
:101840004846FEF7BBFF03D265602846BDE8F88F27
:1018500049462068FEF781FC824651462068FEF723
:1018600006FD064631464FF07E50FEF7C8FC834623
:101870002946FEF7CAFC824630466168FEF7C5FC81
:1018800051460090FEF769FC074667603846DDE781
:10189000BD3786356F12833A9A99993E10B5044642
:1018A000211D17A000F06AFFD4E90210FEF786FFA1
:1018B00001D2A068E060A168A165A168E16794F821
:1018C000140118B9A020A168015102E0A020A1696B
:1018D0000151C420616901516079312805D14FF46B
:1018E00000710A48FFF7BFFE03E008210748FFF731
:1018F000BAFE01202060211D05A000F03FFF10BDB1
:1019000025733A20496E69740D0A0000000C0140ED
:1019100025733A20456E61626C6520647269766554
:10192000722E0D0A0000000070B504460D461646E2
:1019300000212846FEF738FF03D0C4F8185184F878
:101940001661204602F038FA204606F093FFC4F8EC
:101950004001322006F09AFE204609F0EBF9C4F867
:101960002401052006F092FE204609F0C9F9C4F8CA
:101970001C0194F81501022802D1D4F81C01206240
:10198000C82006F083FE70BD70B5002100230F2231
:10199000C47804B3154C246804F4E064C4F5E0642E
:1019A000210AC1F10403CA40447804FA03F184789F
:1019B0001440214309010E4C0678A155047804F027
:1019C0001F050124AC4005786D11AD0005F1E0253F
:1019D000C5F8004109E0047804F01F050124AC407B
:1019E000044D0678761145F8264070BD0CED00E0F8
:1019F00000E400E080E100E010B504464FF07C50C8
:101A0000C4F89000002194200151982001519C209D
:101A10000151A4200151A8200151AC20015101F035
:101A20003BFBB02108511948C4F8B4000021B8208C
:101A30000151BC200151C0200151C8200151CC20CE
:101A40000151D020015101F027FBD42108514FF062
:101A50007C50A0640021E16421656165E165216637
:101A6000616601F019FBA0664FF07C50E066002132
:101A700021676167A167802001518420015188207E
:101A8000015101F009FB8C21085110BD0000A0415B
:101A90002DE9F04F85B004460F4601F0FDFA81466E
:101AA000216AA9EB0100FEF7B1FD54490390FEF74E
:101AB000ACFB8246C4F8209000215046FEF774FE2D
:101AC00009D95046FEF711FE00224D4BCDE9020127
:101AD000FEF736FE01D2DFF82CA139462068FEF76A
:101AE00094FB049038466169FEF737FB029051463B
:101AF0006068FEF78AFB4FF07C510090FEF785FB93
:101B000001900299FEF781FB0390E169FEF725FB46
:101B10000546206980F0004029460390FEF74EFEFE
:101B200003D2206980F0004007E028462169FEF7D3
:101B300045FE01D2206900E0284605463846616925
:101B4000FEF75DFB0290A168FEF75FFB5146039034
:101B5000FEF78DFB834629460498FEF7FEFA5946A8
:101B60000390FEF7FAFA0646206980F000403146FD
:101B70000390FEF723FE03D2206980F0004007E0C7
:101B800030462169FEF71AFE01D2206900E0304696
:101B900006460021E068FEF711FE28D23046A16912
:101BA000FEF72DFB51460390FEF761FB8046404651
:101BB000E168FEF703FE09D25146E068FEF725FB17
:101BC0000390A169FEF7C9FA064610E0E06880F0CC
:101BD000004041460390FEF7F1FD08D25146E0680F
:101BE000FEF713FB0390A169FEF70CFB0646E561C7
:101BF000A6616761304605B0BDE8F08FBD37863518
:101C00000000E03F6F12833A01460020034A50680B
:101C100020F440400843506070470000001002402C
:101C200029B1064AD2690243044BDA6104E0034A4F
:101C3000D2698243014BDA61704700000010024014
:101C400029B1064A12690243044B1A6104E0034AAF
:101C500012698243014B1A61704700000010024074
:101C600029B1064A92690243044B9A6104E0034A8F
:101C700092698243014B9A61704700000010024054
:101C800029B1064AD2680243044BDA6004E0034AF1
:101C9000D2688243014BDA607047000000100240B6
:101CA00030B500210022002400232D4D6D6805F081
:101CB0000C0121B1042905D0082923D105E0294DC3
:101CC000056022E0274D05601FE0254D6D6805F495
:101CD0007012234D6D6805F48034022505EB9242A5
:101CE0001CB9214D554305600BE01D4D6D6805F491
:101CF00000351DB11C4D5543056002E0194D55439B
:101D0000056002E0174D056000BF00BF144D6D680F
:101D100005F0F0010909154D6B5C0568DD40456073
:101D20000F4D6D6805F4E061090A104D6B5C456864
:101D3000DD4085600A4D6D6805F46051C90A0B4DA0
:101D40006B5C4568DD40C560054D6D6805F440413C
:101D5000890B074D6B5CC568B5FBF3F5056130BDBC
:101D60000010024000127A0000093D00000000202F
:101D70001000002010B500F001F810BD0CB50020D7
:101D8000019000903348006840F480303149086089
:101D900000BF3048006800F4003000900198401CFB
:101DA0000190009818B90198B0F5A06FF1D12948B9
:101DB000006800F4003010B10120009001E0002024
:101DC00000900098012843D12348006840F010009B
:101DD000214908600846006820F0030008600846B2
:101DE000006840F0020008601A48406819494860DD
:101DF0000846406848600846406840F48060486093
:101E00000846406820F47C1048600846406840F46A
:101E1000E81048600846006840F08070086000BF25
:101E20000C48006800F000700028F9D009484068AC
:101E300020F00300074948600846406840F002006F
:101E4000486000BF0348406800F00C000828F9D142
:101E50000CBD000000100240002002400248006853
:101E6000401C0149086070471400002010B5134859
:101E7000006840F0010011490860084640681049B8
:101E800008400E494860084600680E4908400B4962
:101E900008600846006820F4802008600846406812
:101EA00020F4FE0048604FF41F008860FFF762FFD7
:101EB0004FF000600449086010BD000000100240AF
:101EC0000000FFF8FFFFF6FE08ED00E000B589B066
:101ED00001210420FFF7C4FE01210846FFF7A0FE00
:101EE0000720ADF8200018208DF8230003208DF87E
:101EF000220008A92448FFF7D7FA4FF0804000F0ED
:101F0000C9F80020ADF8140040F29F50ADF8180059
:101F10002020ADF816000020ADF81A0005A94FF0FA
:101F2000804000F0C1FA6020ADF804000120ADF857
:101F300006000020ADF80A00ADF80C0001A94FF032
:101F4000804000F09BF901A94FF0804000F0ECF9CF
:101F500001A94FF0804000F047FA0821C80600F0C0
:101F6000D9F90821C80600F031FA0821C80600F0A6
:101F70008BFA0121880700F075F80121880700F02D
:101F80007DF809B000BD00000008014000B589B02F
:101F900001210C20FFF764FE01210220FFF740FE23
:101FA000C020ADF8200018208DF8230003208DF804
:101FB000220008A92848FFF777FA0120ADF8200091
:101FC00018208DF8230003208DF8220008A923484B
:101FD000FFF76AFA224800F05DF80020ADF814001F
:101FE00040F29F50ADF818002020ADF816000020F8
:101FF000ADF81A0005A91A4800F056FA6020ADF8AD
:1020000004000120ADF806000020ADF80A00ADF88C
:102010000C0001A9124800F031F901A9104800F0A4
:1020200083F901A90E4800F0DFF908210C4800F0FF
:1020300071F908210A4800F0C9F90821084800F0A0
:1020400023FA0121064800F00DF80121044800F0B0
:1020500015F809B000BD000000080140000C014067
:102060000004004021B1028842F08002028004E0B6
:1020700002884FF67F731A400280704721B10288B0
:1020800042F00102028004E002884FF6FE731A401B
:102090000280704710B504466848844208D1012187
:1020A000C014FFF7EDFD0021E014FFF7E9FDC4E0E7
:1020B000B4F1804F08D101210846FFF7C1FD00218E
:1020C0000120FFF7BDFDB8E05D48844208D1012141
:1020D0000220FFF7B5FD00210220FFF7B1FDACE0C3
:1020E0005848844208D101210420FFF7A9FD0021AE
:1020F0000420FFF7A5FDA0E05348844208D1012148
:102100000820FFF79DFD00210820FFF799FD94E0CE
:102110004E48844208D101211020FFF791FD002193
:102120001020FFF78DFD88E04948844208D1012145
:102130002020FFF785FD00212020FFF781FD7CE0B6
:102140004448844208D101214014FFF799FD002141
:102150006014FFF795FD70E03F48844209D10121EA
:10216000C804FFF78DFD00214FF40020FFF788FD24
:1021700063E03A48844209D101210805FFF780FD58
:1021800000214FF48010FFF77BFD56E03448844275
:1021900009D101214805FFF773FD00214FF400101C
:1021A000FFF76EFD49E02F48844208D1012140200D
:1021B000FFF746FD00214020FFF742FD3DE02A48A1
:1021C000844208D101218020FFF73AFD00218020C0
:1021D000FFF736FD31E02548844208D10121801502
:1021E000FFF72EFD0021A015FFF72AFD25E020486E
:1021F000844209D101210804FFF742FD00214FF478
:102200008030FFF73DFD18E01A48844209D10121D2
:102210004804FFF735FD00214FF40030FFF730FD93
:102220000BE01548844208D101218804FFF728FDFE
:1022300000214FF48020FFF723FD10BD002C01404A
:102240000004004000080040000C00400010004066
:102250000014004000340140004C01400050014097
:102260000054014000180040001C004000200040C5
:1022700000400140004401400048014070B5002486
:1022800000220023058C4FF6FE7635400584028C33
:102290008388048B4FF68F752C40B51E2C400D881B
:1022A0002C43751E2A400D892A434D882A43144D1C
:1022B000A8420BD0134DA84208D0134DA84205D018
:1022C000124DA84202D0124DA84213D14FF6F77515
:1022D0002A404D892A434FF6FB752A408D882A43B0
:1022E0004FF6FF652B404FF6FF552B408D892B4352
:1022F000CD892B4383800483CD888586028470BD7D
:10230000002C0140003401400040014000440140E5
:10231000004801400A460021018B4FF6F77319402F
:10232000114301837047000070B500240022002390
:10233000058C4FF6EF7635400584028C8388048B3C
:1023400048F6FF752C404FF6FF452C400D884FF6A0
:10235000FF7606EA05252C434FF6DF752A400D89E6
:1023600006EA05152A434D8806EA05152A43154D48
:10237000A84202D0144DA8421DD14FF67F752A40C5
:102380004D894FF6FF7606EA05152A434FF6BF75CD
:102390002A408D8806EA05152A434FF6FF352B4063
:1023A0004FF2FF752B408D8906EA85052B43CD89B9
:1023B00006EA85052B4383800483CD880587028444
:1023C00070BD0000002C0140003401400A4600218D
:1023D000018B4FF2FF7319404FF6FF7303EA02239C
:1023E000194301837047000070B5002400220023C8
:1023F000058C4FF6FF6635400584028C8388848BFC
:102400004FF68F752C404FF6FC752C400D882C43F1
:102410004FF6FF552A400D894FF6FF7606EA05254F
:102420002A434D8806EA05252A43154DA84202D0C5
:10243000144DA8421DD14FF2FF752A404D894FF629
:10244000FF7606EA05252A434FF6FF352A408D8898
:1024500006EA05252A434EF6FF752B404DF6FF751B
:102460002B408D8906EA05152B43CD8906EA051513
:102470002B4383808483CD888587028470BD0000D0
:10248000002C0140003401400A460021818B4FF6A8
:10249000F773194011438183704781867047018724
:1024A0007047818770470000002202881D4B9842C8
:1024B0000ED01D4B98420BD0B0F1804F08D01B4B73
:1024C000984205D01A4B984202D01A4B984204D138
:1024D0004FF68F731A404B881A43174B984207D018
:1024E000164B984204D04FF6FF431A40CB881A434C
:1024F00002808B8883850B8803850A4B98420BD01A
:10250000094B984208D00E4B984205D00D4B98428B
:1025100002D00D4B984201D10B7A038601238382AE
:1025200070470000002C01400034014000040040CE
:1025300000080040000C0040001000400014004063
:1025400000400140004401400048014010B540F205
:102550002551204800F050F800283AD01D4800F0DE
:1025600007F9C4B21C48008800F40040F8B91A48C2
:10257000008800F4804090B10A2C03D00020164956
:10258000088026E01448008840F400401249088082
:1025900000200988C1F30D01104A505419E00D2C98
:1025A00006D10D48008840F480400B49088010E0B7
:1025B00009480088C0F30D0008490C5406480088FB
:1025C000401C0549088008460088FF2801DD0020DE
:1025D000088010BD003801401C000020C40100200C
:1025E00021B1828942F40052828104E082894DF651
:1025F000FF731A408281704770B5024600240023A1
:102600000025002040F66A16B14200D100BFC1F398
:10261000421501F01F03012606FA03F3012D02D132
:102620009689334006E0022D02D1168A334001E03C
:10263000968A33400C12012606FA04F416883440B8
:1026400013B10CB1012000E0002070BDF0B50346CD
:10265000002400260025002040F66A17B94200D168
:1026600000BF1846C1F3421401F01F06012707FA04
:1026700006F5012C01D10C3004E0022C01D1103000
:1026800000E014301AB107682F43076002E00768C2
:10269000AF430760F0BD00002DE9F04786B0054666
:1026A0000E460024A24600BFA1460027B08900B113
:1026B00000BF2F462C8A4CF6FF700440F08804437C
:1026C0002C82AC894EF6F3100440B088318908435F
:1026D000718908430443AC81AC8A4FF6FF40044043
:1026E000B0890443AC8201A8FFF7DAFA1F48874299
:1026F00002D1DDF810A001E0DDF80CA0A88900F4FB
:10270000004040B10AEBCA0000EB0A1031684900F2
:10271000B0FBF1F807E00AEBCA0000EB0A103168E1
:102720008900B0FBF1F86420B8FBF0F00401200947
:10273000642101FB1089A88900F4004040B13220D7
:1027400000EBC900B0FBF1F000F00700044308E023
:10275000322000EB09106421B0FBF1F000F00F0013
:1027600004432C8106B0BDE8F0870000003801402A
:1027700001468888C0F30800704700000FB4054B7D
:1027800010B503A9044A029800F0CAFC10BC5DF819
:1027900014FB00005988000818000020490050EA86
:1027A000C12018BF04204A0D18BF40F0010040F2BC
:1027B000FF72B2EB515F08BF40F00200012808BF72
:1027C0000520704713B5DDE900200AB1012200E0C1
:1027D000002240EA020121F00040024A101AC00F14
:1027E0001CBD00000000F07F2DE9F74F144694B0A7
:1027F0000021C4E902111599079121F00045C9494A
:102800008D4206DC1599C4E9000117B00020BDE82F
:10281000F08FC549DFF814A3A9423CDD0799C44EE7
:102820000029C44FC44A1599534619DDFDF7FEFD32
:10283000554506D0C14AC24BFDF7F8FDC4E9000179
:102840000AE04FF0D352BE4BFDF7F0FD32463B4657
:10285000FDF7ECFDC4E9000117B00120BDE8F08FE1
:10286000FDF743FD554506D0B44AB54BFDF73DFD98
:10287000C4E900010AE04FF0D352B14BFDF735FD3A
:1028800032463B46FDF731FDC4E9000117B04FF079
:10289000FF30BDE8F08FAB49A942159978DB21F0F4
:1028A000004183468846A84AA84BFDF7C5FD002293
:1028B000A74BFDF71AFDFDF7E0FE0990FDF7ABFE13
:1028C00006460F469C4A5346FDF7B6FD43465A4618
:1028D000FDF7AFFD80468A46984A994B3046394607
:1028E000FDF7AAFD2A0D01250B9242465346FDF73E
:1028F000A0FD032DC4E9000139D00B98C1F30A51A2
:10290000401A05EB45111139814230DA9148C3462E
:10291000784400EB0510CDF80CA00C90D0E9002312
:1029200030463946FDF788FD02460B460491069075
:1029300058460399FDF77AFD80468A4602460B46C3
:1029400058460399FDF772FD049B069AFDF76EFD4C
:1029500083460C9803913946D0E902233046FDF7AF
:102960006BFD5A46039BFDF761FD6D1CBDE70798A3
:102970000028A2BF099817B0BDE8F08F616881F008
:1029800000416160099817B04042BDE8F08FFFE751
:1029900084461598C1F31301C0F30A50A0F2F53034
:1029A0004FEA601800F01F06C6F1200013900020C7
:1029B0000690079041F4801E05206D4676B1664A68
:1029C00008EB00017A4452F8213002EB8101B34058
:1029D0004A68139922FA01F1194305E05F4908EBAF
:1029E0000002794451F82210A1FB0E27A1FB0C1321
:1029F0001A449A4234BF0123002303EB070A05EB74
:102A00008003D3E901B70F448F4234BF0121002175
:102A100093448B4411B1934502D903E0934501D20D
:102A2000012100E00021C3E901B7514445F820101D
:102A3000011EA0F10100C1DC0298059F00F10050C9
:102A4000800F12900298DDE903568000FDF7E3FD48
:102A5000834628460D91FDF7EFFD6FF01D02FEF74E
:102A600011F8CDE90E013046FDF7E6FD6FF03D02AD
:102A7000FEF708F880468A463846FDF7DDFD6FF020
:102A80005D02FDF7FFFF0746424653461191FDF7F1
:102A90002CFCDDE90E23FDF728FC5A460D9BFDF7C3
:102AA00024FC00250E465A4628460D9BFDF7BEFC29
:102AB000DDE90E23FDF7BAFC42465346FDF7B6FCAE
:102AC0003A46119BFDF7B5FCDFF898A0244A53461F
:102AD000FDF7B2FC07468846234A244B3146284678
:102AE000FDF7AAFC3A464346FDF7FFFB074688463A
:102AF0004FF0A842534631462846FDF79DFC3A4622
:102B00004346FDF7F2FB159A12F0004F04D0129ADB
:102B100081F0004152421292C4E90001129817B0AC
:102B2000BDE8F08FFB21E93F7CD90240FB21F93F52
:102B30007370032E8A19A33B000040543163621A5C
:102B400061B4D03DFB21394183C8C96D305FE43F9A
:102B50000000E03F848C0000008C0000E28B00004D
:102B6000182D4454FB21F93D3326A611460B113C88
:102B70002DE9FF4D21F0004807460C46B8F1795F7A
:102B800008DAFDF77AFD002801BF0020324904B0C1
:102B9000BDE8F08D3A46234610461946FDF74CFC39
:102BA000054602462D480E460B460621784400F0A5
:102BB0005DF82A463346FDF73FFCDDE902238246F5
:102BC0008B4638462146FDF737FC04460F465246F1
:102BD0005B4628463146FDF72FFC22463B46FDF773
:102BE00025FC07468A464FF0FF3228463146FDF75E
:102BF00049FF1B4A90450ADA3A465346FDF716FC50
:102C000004B00022BDE8F04D134BFDF712BC154A8D
:102C10004245A8BFA8F500154FF00004B8BF124DFB
:102C200022462B46FDF702FC0646884622462B46E6
:102C300000200949FDF7FAFB04460D463A46534683
:102C400030464146FDF7F2FB04B022462B46BDE874
:102C5000F04DFDF7EEBB00000000F03FB089000032
:102C60003333D33F0000E93F0000D23F2DE9F0416C
:102C70004F1E00EBC7010446D1E9000115461E4670
:102C800037F006020DD02A463346FDF7D5FB7F1EEE
:102C900004EBC703D3E90023FDF727FB37F0060257
:102CA000F1D1022F25D0042F13D0062F18BFBDE875
:102CB000F0812A463346FDF7BFFBD4E90A23FDF72E
:102CC00014FB2A463346FDF7B7FBD4E90823FDF78A
:102CD0000CFB2A463346FDF7AFFBD4E90623FDF78C
:102CE00004FB2A463346FDF7A7FBD4E90423FDF78E
:102CF000FCFA2A463346FDF79FFBD4E90223FDF791
:102D0000F4FA2A463346FDF797FBD4E90023BDE8E1
:102D1000F041FDF7EABA00002DE9FF4D054621F02C
:102D2000004084B00C46B0F1795F0BDA2846FFF71B
:102D300035FD042808BF00F07FF8284608B021467A
:102D4000BDE8F08D2A460B461046FDF775FB06469A
:102D50000F462A462346FDF76FFB804626488A46E3
:102D600032463B4605217844FFF780FF83461098A2
:102D7000029160B3214A224B40465146FDF75CFB6D
:102D8000CDE900015A4640465146029BFDF754FBEF
:102D900082468846DDE906014FF0FF32FDF772FEFC
:102DA00052464346FDF742FB32463B46FDF744FBA5
:102DB000DDE90623FDF73AFBDDE90023FDF736FBED
:102DC00008B02A462346BDE8F04DFDF732BB0B465E
:102DD0005A4630463946FDF72FFB084A084BFDF7A7
:102DE00084FA42465346FDF727FB08B02A4623469D
:102DF000BDE8F04DFDF779BAF68800004955555504
:102E00005555C5BF0022134610460149FDF786BB44
:102E10000000F03F0122FDF735BEFDF766BA002243
:102E2000134610461146FDF779BB40F201320020EF
:102E30004FF0E041FDF726BE024A00201107FDF7E2
:102E400021BE000001FDFFFF01480068704700003F
:102E5000C001002002E008C8121F08C1002AFAD1F0
:102E600070477047002001E001C1121F002AFBD10A
:102E7000704700000149086070470000C001002051
:102E80002DE9F04706463046FDF72FFC0746134A6A
:102E9000134BFDF72AFA0446FDF76AFC81464846C3
:102EA000FDF723FC07460F4A0F4BFDF749FC08D2FC
:102EB0004846FDF71AFC07460A4A0B4BFDF7B6FADF
:102EC00002E04846FDF711FC0446FDF751FC81463F
:102ED000484600F0D7FCBDE8F0870000F4D6435424
:102EE000FB21F93FEA2E4454FB21194070B50446FA
:102EF0000D462846FDF781FB06462146FDF785F97C
:102F000070BD00002DE9FF5F82B00021DDE90430D3
:102F1000020DDDF840B0034318D044F61050A2F281
:102F2000FF3242431514119801281FD0A5EB0B0066
:102F3000401C5FEA000A4FF000064E4FDFF8389160
:102F4000B046504615D5CAF1000413E0119801248B
:102F50004AA3012801D16FEA0B010298119AC0E936
:102F60000031C0E9024206B0BDE8F09FCBF100009D
:102F7000DFE704460021404A491842EB0450CDE9FE
:102F8000001012E0E00707D032463B464046494673
:102F9000FDF752FA8046894632463B4610461946AE
:102FA000FDF74AFA06460F466410002CEAD1DDE927
:102FB0000401DDE90023BAF1000F06DAFDF73CFA5F
:102FC00042464B46FDF738FA05E0FDF7A7FA4246C0
:102FD0004B46FDF7A3FA04460E460022284BFDF7A8
:102FE000AFFB03D84FF0FF30014607E00022254B2E
:102FF00020463146FDF779F9FDF7EFFD102409E091
:10300000002C0ADB0A220023FDF7F8FB039B303279
:103010001A55641E50EA0102F2D1641C039AC4F1ED
:1030200011031444119A012A03D0012208430DD13F
:103030000AE0084304D000204FF0110B119072E712
:10304000A3EB0B056D1E0DE05B4504DD4FF00002A8
:1030500005F1010504E003DA4FF00002A5F10105D6
:10306000002AECD002981199C0E90231C0E900456C
:1030700079E70000000014400000F03F300000003D
:103080000000F0430000E03F30380A2801D2012060
:10309000704700207047000000BF0A4801684FF0E9
:1030A000E0208269074800688142F6D10648801A0C
:1030B0004823B0FBF3F001EB4103C3EBC11300EB7A
:1030C000C300704714000020401901002DE9F047AB
:1030D00006463046FDF709FB07460F4A0F4B05F041
:1030E00071FB0446FDF744FB814600214846FDF78D
:1030F00065FB03D84846FDF7F8FA07E04846FDF7B8
:10310000F4FA0746044A054BFDF7EFF80446FDF7CD
:103110002FFBBDE8F0870000EA2E4454FB21194044
:103120002DE9FF4F95B09B468946064600250FE2E4
:10313000252877D100242746F84A0121059400E08C
:10314000044316F8013F203B01FA03F01042F7D187
:1031500030782A2811D06FF02F033078A0F1300298
:10316000092A16D8059A44F0020402EB820203EB06
:1031700042021044761C0590EFE759F8042B0592A3
:10318000002A03DA504244F40054059044F002044B
:10319000761C30782E2816D116F8010F44F004045E
:1031A0002A280DD06FF02F023078A0F13003092BC0
:1031B00009D807EB870302EB4303C718761CF3E734
:1031C00059F8047B761C30786C280FD006DC4C282C
:1031D00017D068280DD06A2814D104E0742810D0C4
:1031E0007A280FD10DE044F400140AE044F480146E
:1031F00001E044F440147278824202D104F5801454
:10320000761C761C307866280BD013DC582877D0D3
:1032100009DC002875D04528F6D04628F4D0472888
:103220001AD19DE118E0632835D0642879D065284B
:1032300012D195E1702873D008DC6728F1D0692895
:103240006FD06E280DD06F2806D1B5E073282CD032
:10325000752875D0782874D05A46179990476D1CF8
:1032600075E1C4F30250022809D003280DD0D9F823
:10327000001004280DD00D6009F1040967E1D9F8A8
:103280000010EA17C1E90052F6E7D9F800100D80E6
:10329000F2E70D70F0E719F8041B8DF8001000201C
:1032A0008DF80100EA46012003E059F804AB4FF025
:1032B000FF3061074FF0000102D40DE008F1010179
:1032C0008846B9420FDA8045F8DB1AF80810002961
:1032D000F4D108E008F1010188468142FADB1AF8CE
:1032E00008100029F6D105985B46A0EB0807214697
:1032F0003846179A00F094FA284400EB080507E0D6
:103300004DE029E10DE01AF8010B5A461799904754
:10331000B8F10108F7D25B4621463846179A13E107
:1033200042E00A220092C4F302524FF0000A022A3D
:1033300008D059F804CB032A4FEAEC710AD00DE00B
:1033400029E02AE009F1070121F00702F2E802C1B1
:10335000914609E00FFA8CFC4FEAEC71042A03D184
:103360004FFA8CFC4FEAEC71002907DA0A4600217B
:10337000DCF1000C61EB02012D2202E0220504D5F4
:103380002B228DF80420012203E0E20701D0202245
:10339000F7E7904659E00A2102E010220DE01021E3
:1033A0004FF0000A00910BE010224FF0000A44F0A9
:1033B00004040827009203E008224FF0000A00925C
:1033C000C4F30252022A05D059F804CB0021032A83
:1033D00008D009E009F1070121F00702F2E802C173
:1033E000914605E01FFA8CFC042A01D10CF0FF0C79
:1033F0004FF00008220728D5702806D0009B83F0E4
:10340000100353EA0A0305D00EE040228DF8042091
:10341000012208E05CEA010206D030228DF8042087
:103420008DF8050002229046009B83F0080353EAC2
:103430000A030AD15CEA010201D1620705D53022F4
:103440008DF804204FF001087F1E582804D034A0C6
:1034500003900EA802900DE036A0F9E753466046AF
:10346000009AFDF7CBF984460398825C0298401ECF
:10347000029002705CEA0100F0D1029806A9081AD5
:1034800000F1200A600702D524F4803400E001270F
:10349000574502DDA7EB0A0000E0002000EB0A011F
:1034A000009005984144401A0590E00306D45B461D
:1034B0002146179A059800F0B3F90544002706E065
:1034C00001A85A46C05D179990476D1C7F1C47455F
:1034D000F6DBE0030CD55B462146179A059800F011
:1034E0009FF9054404E030205A46179990476D1C17
:1034F0000099481E00900029F5DC08E00298029926
:103500005A460078491C0291179990476D1CBAF1F0
:103510000001AAF1010AF1DC65E1000009280100BF
:103520003031323334353637383961626364656639
:1035300000000000303132333435363738394142FB
:10354000434445460000000000F058F90544761C4D
:10355000307800287FF4ECAD19B02846BDE8F08F34
:10356000620700D4062709F1070222F0070CFCE8E5
:103570000223E14603F000485FEA080C02D00FF294
:10358000702C0DE05FEA045C02D50FF2682C07E0B6
:103590005FEAC47C02D00FF2602C01E0AFF2700C45
:1035A0004FF0FF3823F00043CDF850C065280CD011
:1035B00006DC452809D046281DD047283DD13DE0EE
:1035C000662818D067287ED138E00021112F01DB52
:1035D000112000E0781CCDE9000106A90EA8FFF734
:1035E00091FCDDE90F010E9A03910021009207F191
:1035F000010A04914DE04FF000400097CDE9011021
:1036000006A90EA8FFF77EFCDDE90F0203920E9BD0
:1036100011990022DDF80CA00093049211B9791CD5
:1036200000EB010AB7EB0A0004D4C0F1FF3007F148
:10363000010A0490AAEB0700019044E0012F00DA90
:1036400001270021112F01DD112000E03846CDE9CE
:10365000000106A90EA8FFF755FCDDE90F010E9A3F
:103660000391002104910092BA4621070CD40399DA
:10367000514500DA8A46BAF1010F05DD009AAAF138
:103680000101515C302908D0B84202DA10F1040F70
:1036900006DA0121CDE9011015E0AAF10101E9E7FF
:1036A000002805DC049901440491AAEB000102E022
:1036B000411C514500DD8A460499401A401C019086
:1036C0004FF000400290200704D40198504501DBE0
:1036D000CDF8048000208DF84F0002980DF14F07BF
:1036E000B0F1004F25D02B200E9002984FF0020829
:1036F00000280CDA404202902D200E9007E00A21AB
:103700000298FDF765F83031029007F8011DB8F115
:103710000001A8F10108F2DC02980028EFD1791E1F
:103720000E980870307800F0200040F0450007F84F
:10373000020D12A8C01B00F107081498007800B110
:10374000012000EB0A01019801EBE071059841446A
:10375000401A401E0590E00306D45B462146179AA6
:10376000059800F05DF805441498007818B15A46A1
:10377000179990476D1CE00324D55B462146179AA4
:10378000059800F04DF805441CE00498002807DB7C
:10379000DDE90301884203DD0098405C179901E0F0
:1037A000179930205A469047049805F10105401CAE
:1037B00004900198401E019004D12E205A4617997A
:1037C00090476D1CBAF10001AAF1010ADDDC05E0A9
:1037D00017F8010B5A46179990476D1CB8F1000174
:1037E000A8F10108F4DC5B462146179A0598ABE680
:1037F0002D0000002B000000200000002DE9F0410A
:10380000044600251E461746880404D405E03946C0
:103810002020B0476D1C641EF9D52846BDE8F08114
:103820002DE9F041044600251E469046C80301D507
:10383000302700E02027880404D505E041463846BB
:10384000B0476D1C641EF9D52846BDE8F081000024
:103850002DE9F0410446204600F0A2FC0746384618
:10386000FCF7D4FE80460649FCF7CFFC06464FF035
:103870008B41FCF7FCFC05462846BDE8F0810000C2
:103880000000F0422DE9FF5F83465846FCF72DFF0C
:103890000446954A954BFCF73BFF44D25846FCF74B
:1038A00024FF934A934BCDE90201FCF7C5FD804606
:1038B00000221346FCF744FF12D85846FCF715FFC8
:1038C00080468B4A8B4BFCF7B7FD00228A4BCDE933
:1038D0000001FCF70AFDCDE90201FCF7CEFE11E084
:1038E0005846FCF702FF824A824BCDE90001FCF703
:1038F000A3FD0022804BCDE90201FCF797FD804635
:10390000FCF7BBFE7D4951F820A05046FCF783FE32
:1039100006467B4A7B4BFCF78FFD0446FCF728FFED
:1039200004B0BDE8F09F5846FCF7DFFE0446764A37
:10393000764BFCF7EDFE44D25846FCF7D6FE6C4AB7
:103940006C4BCDE90201FCF777FD8046002213465F
:10395000FCF7F6FE12D85846FCF7C7FE644A654BE2
:10396000CDE90001FCF768FD0022634BCDE90201BF
:10397000FCF7BBFC8046FCF780FE11E05846FCF7E4
:10398000B4FE5B4A5B4BCDE90001FCF755FD00221C
:10399000594BCDE90201FCF749FD8046FCF76DFE6D
:1039A000C0F5C770554951F820A05046FCF733FECA
:1039B0000646534A534BFCF73FFD0446FCF7D8FE3E
:1039C000AEE75846FCF791FE0446514A514BFCF7CE
:1039D0009FFE44D25846FCF788FE454A454BCDE948
:1039E0000201FCF729FD804600221346FCF7A8FEE1
:1039F00012D85846FCF779FE3D4A3E4BCDE900010E
:103A0000FCF71AFD804600223B4BFCF76EFCCDE92B
:103A10000201FCF732FE11E05846FCF766FE344A1C
:103A2000344BCDE90001FCF707FD80460022324B04
:103A3000FCF7FCFCCDE90201FCF71FFEA0F5C77006
:103A40002E4951F820A05046FCF7E5FD06462C4AC9
:103A5000314BFCF7F1FC0446FCF78AFE60E7584660
:103A6000FCF743FE8046224A224BFCF7E5FC00228D
:103A70001346CDE90201FCF763FE12D85846FCF765
:103A800034FE1B4A1B4BCDE90001FCF7D5FC8046F8
:103A90000022194BFCF729FCCDE90201FCF7EDFDF2
:103AA00011E05846FCF721FE8046114A114BFCF705
:103AB000C3FC0022104BCDE90001FCF7B7FCCDE9B7
:103AC0000201FCF7DAFDC0F547700C4951F820A05F
:103AD0005046FCF7A0FD0646094A0F4BFCF7ACFC2C
:103AE0000446FCF745FE1BE7F4D64354FB21F93F9F
:103AF0009CA223B9FCAB5F400000E03F6CB0000823
:103B00002D431CEBE2361A3FEA2E4454FB210940B8
:103B1000320D337F7CD91240E2361ABF70B50446AD
:103B200025462E460448A0EB660635462946204623
:103B3000FCF76BFB70BD0000865A375F2DE9F04D36
:103B40000546DFF8388221F000408D4F82B00C46E8
:103B5000404520DBA0EB080129430BD0894988426E
:103B600001DC10D17DB102B028462146BDE8F04D00
:103B7000FFF750B9002CC7BF0020014682483946E4
:103B800002B0BDE8F08D0120FFF774F902B0BDE886
:103B9000F04DFFF744B97D49884244DA7C498142BF
:103BA000A1BF79487B4902B0BDE8F08D2A46234683
:103BB00010461946FCF740FC8346024676480E46FE
:103BC0000B4606217844FFF751F85A463346FCF776
:103BD00033FC074671488A465A46334604217844E6
:103BE000FFF744F85A463346FCF726FC00224346CA
:103BF000FCF77BFB02460B4638465146FCF78EFC31
:103C00002A462346FCF718FC654A664BFCF711FC74
:103C10002A462346FCF70DFC02B05B4ABDE8F04D96
:103C20005C4BFCF706BC002C4FF000024BDA46461A
:103C3000434628462146FCF758FB4FF0FF32FCF77D
:103C400021FF0446024658480D460B46062178449B
:103C5000FFF70CF822462B46FCF7EEFB8046534854
:103C60008A4622462B4604217844FEF7FFFF22466F
:103C70002B46FCF7E1FB00223346FCF736FB0646F9
:103C80008B462046294607F0BDF804460D463246CD
:103C90005B4640465146FCF741FC22462B46FCF76A
:103CA000CBFB3F4A3F4BFCF7C1FB22462B46FCF7C0
:103CB0001CFB0122FCF7E6FE02B03B46BDE8F04DDE
:103CC000314AFCF7B6BB2D4B28462146FCF7B1FB29
:103CD0004FF0FF32FCF7D6FE05460E4607F092F88D
:103CE00000270C4680463A460B46FCF7FEFA824611
:103CF0008B463A46234610461946FCF79DFB2A465A
:103D00003346FCF796FB52465B46FCF707FC8246BF
:103D100027488B462A46334606217844FEF7A6FFFD
:103D20002A463346FCF788FBCDE9000121482A46A4
:103D3000334604217844FEF799FF2A463346FCF7C0
:103D40007BFB00220D4BFCF7D0FA02460B46DDE967
:103D50000001FCF7E3FB42462346FCF76DFB5246AD
:103D60005B46FCF7C2FA3A462346FCF7BEFA02B0BD
:103D70000122BDE8F04DFCF785BE00000000F03FD9
:103D8000FB2109400000F07F182D44540000E03F63
:103D90000000603CFB21F93FD8770000EE7700007F
:103DA000075C143326A6913C4E7700006477000030
:103DB00082760000987600002DE9F04F87B0044627
:103DC000211DA2A0FEF7DAFC94F8160100287DD18F
:103DD000002521E02846FCF71EFC8246A04AA14BA4
:103DE000FCF72AFB074600229F4BFCF797FB9F4AF4
:103DF0009F4BCDE90001FCF778FACDE90201FCF711
:103E0000B7FC81464B4600222046E16806F056FD8D
:103E1000022004F03BFC6D1CB5F5FA7FDADD20468C
:103E200004F028FD05904FF4FA7521E02846FCF7D0
:103E3000F2FB07468A4A8B4BFCF7FEFA00228A4BBC
:103E4000CDE90001FCF76AFB884A894BCDE9020104
:103E5000FCF74BFA8246FCF78BFC81464B4600226E
:103E60002046E16806F02AFD022004F00FFC6D1EDA
:103E7000002DDBDA204604F0FDFC049000231A46F6
:103E80001946204606F01AFDC82004F0FFFB0598ED
:103E9000FCF72BFC07463A460B4676A0FEF76EFC75
:103EA0000498FCF722FC07463A460B4676A0FEF73C
:103EB00065FCDDE90410FCF7A2F98246FCF715FC6D
:103EC00021F000410746FCF753FC00E073E0064692
:103ED000DDE90410FCF768FC08D03046FCF705FC6F
:103EE00007466E4A6E4BFCF713FC15D2211D6DA0E0
:103EF000FEF744FC6079312805D14FF40071744815
:103F0000FDF7AFFB03E008217148FDF7AAFB002095
:103F1000206007B0BDE8F08FDDE90410FCF744FC39
:103F200007D2211D6BA0FEF729FCFF2084F81601A3
:103F300006E0211D6EA0FEF721FC012084F8160189
:103F4000211D72A0FEF71AFC2069FCF756FB3146D2
:103F50000290FCF75AF90390FCF7C7FB0746404A6A
:103F6000404BFCF763FA21F00041824600226B4B84
:103F7000FCF7E6FB1BD26AA0FEF700FC3046FCF71C
:103F8000B4FB02460B46CDE9020135483549FCF742
:103F9000C5FA07460022614BFCF7A7F98246FCF7F9
:103FA0006CFB206164A02169FEF7E8FB07E064A0D8
:103FB000FEF7E4FB03E0211D63A0FEF7DFFB002119
:103FC000D4F81801FCF7F0FB39D1654B00222046EC
:103FD000E16806F073FC4FF42F7004F057FB2046A5
:103FE00004F048FC824694F91601FCF706FB834670
:103FF0005146FCF70AF980462169FEF777FF07462C
:10400000FFF764F8C4F81801142004F03FFB211DE9
:1040100054A0FEF7B3FBD4F81801FCF766FB074683
:104020003A460B4655A0FEF7A9FB00231A4619464F
:10403000204606F043FCC82004F028FB03E0211DC5
:1040400050A0FEF79BFB012063E7000025733A2098
:10405000416C69676E2073656E736F722E0D0A0076
:10406000EA2E4454FB21194000407F40320D337F3B
:104070007CD912406D69645F616E676C653D252E69
:1040800034660D0A00000000656E645F616E676C47
:10409000653D252E34660D0A000000007B14AE47F6
:1040A000E17A843F25733A204661696C6564207427
:1040B0006F206E6F74696365206D6F76656D656ED8
:1040C00074206C6F6F703232322E0D0A00000000C7
:1040D000000C014025733A2073656E736F725F6444
:1040E0006972656374696F6E3D3D4343570D0A0005
:1040F00025733A2073656E736F725F6469726563CE
:1041000074696F6E3D3D43570D0A000025733A20D8
:10411000505020636865636B3A2000000000E03F68
:104120006661696C202D20657374696D61746564C6
:104130002070703A0000000025640D0A00000000A5
:104140004F4B210D0A00000025733A20536B697014
:10415000206469722063616C69622E0D0A000000A0
:10416000E4CB964025733A205A65726F20656C65E2
:10417000632E20616E676C653A000000252E346660
:104180000D0A000025733A20536B6970206F666634
:104190007365742063616C69622E0D0A0000000073
:1041A00010B504460723012221460948FCF7D0FF39
:1041B00001210748FDF728F800BF02210448FCF759
:1041C00095FF0028F9D00248FCF78CFF10BD0000D5
:1041D000002401402DE9FC5F04460D46FEF75CFF1C
:1041E0008146E169A9EB0100FCF710FA074639495D
:1041F000FCF70BF88246C4F81C9000215046FCF7EF
:10420000D3FA05D94FF07C515046FCF7D7FA01D2CA
:10421000DFF8C4A051466069FBF7F7FF8346FCF75F
:1042200064FA074688462846D4F81C11FBF7E7FFD6
:104230008346FCF75AFA21F000413A464346CDE95D
:104240000001FCF77DFA2FD22846D4F81C11FBF7A9
:10425000D6FF00210090FCF7A7FA02D24FF0FF3002
:104260000CE02846D4F81C11FBF7C9FF0021009090
:10427000FCF7A4FA01D2012000E000200190FCF735
:10428000BCF983466169FBF7C0FF80465146FBF7E6
:10429000BCFF0746D4F81C11FBF75FFFC4F81C01F4
:1042A0006069C4F8240104E0C4F81C510020C4F87B
:1042B0002401A6682169D4F81C01FEF717FE074601
:1042C0003B4600223146204606F0F8FA3046BDE86B
:1042D000FC9F0000BD3786356F12833A2DE9F04D03
:1042E0008D4F21F0004A86B005460C46BA452ADBC0
:1042F000AAEB070028430AD08848824501DC1AD17E
:10430000CDB106B02846BDE8F04DFEF783BD844A26
:10431000844B2846FCF790F807460E46824A834BAA
:1043200028462146FCF788F806B03A463346BDE8F1
:10433000F04DFBF7DABF0120FEF79CFD06B0BDE8AB
:10434000F04DFEF76CBD7A48824542DABAF1795FEA
:104350000BDA2846FEF722FA042808BFFEF76CFDA8
:10436000284606B02146BDE8F08D2A460B46104689
:10437000FCF762F8834602466E480E460B4606215D
:104380007844FEF773FC5A463346FCF755F88046EE
:1043900069488A465A46334604217844FEF766FC4B
:1043A0005A463346FCF748F800223B46FBF79DFF90
:1043B00002460B4640465146FCF7B0F82A462346D3
:1043C000FCF73AF806B02A462346BDE8F04DFBF765
:1043D0008CBF284624F0004100223D463B46FCF7B6
:1043E00028F84FF0FF32FCF74DFB064602465348D3
:1043F0000F460B4606217844FEF738FC32463B4612
:10440000FCF71AF8CDE900014D4832463B4604213D
:104410007844FEF72BFC32463B46FCF70DF80022B1
:104420002B46FBF762FF834602913046394606F081
:10443000E9FC804643480D46504517DCDDE90001A4
:104440005A46029BFCF76AF842462B46FBF7F4FFFC
:1044500042462B46FBF749FF0122FCF713FB304A8B
:10446000304BFBF7E3FF304A304B4CE04FF0000A93
:1044700052460B464046FBF738FFCDE90310524643
:104480002B4610461946FBF7D7FF32463B46FBF753
:10449000D0FFDDE90332FCF741F806460F46DDE9BF
:1044A00000015A46029BFCF739F88346009101222D
:1044B00030463946FCF7E6FA194A1A4BFBF7B9FFC2
:1044C00006460F46012240462946FCF7DBFA5A46CB
:1044D000009BFBF7B1FF32463B46FBF7A7FF0646C2
:1044E0000F46012250462946FCF7CCFA0E4DDFF864
:1044F00058802A464346FBF79CFF32463B46FBF773
:1045000098FF2A464346FBF794FF002CD8BF81F062
:10451000004106B0BDE8F08D0000F03F0000F07FE4
:10452000075C143326A6913C182D4454FB21F93F17
:104530000000E03F6C70000082700000F66F000029
:104540000C7000003333EF3FFB21E93F2DE9F84FBA
:1045500004460D4621F0004000917349814211DC70
:104560007249884201DC06D12CB120462946BDE8BB
:10457000F84FFEF74FBC6E48002DCCBF6D496E4919
:10458000BDE8F88F6D49814211DD6D498142D8BF88
:104590004FF0FF366DDD20462946FEF7FFF8042870
:1045A00008BFFEF749FC20462946BDE8F88F65495B
:1045B000654F25F00045814233DD6449814219DDB4
:1045C000002632464FF0804320462946FBF78DFEF9
:1045D00080468A46012220462946FCF753FA0022EB
:1045E0003B46FBF723FF42465346FBF797FF044643
:1045F0000D463EE001260022BA463B4620462946AB
:10460000FBF773FE80460F4600225346204629469C
:10461000FBF70CFF42463B46FBF780FF04460D4686
:1046200027E04B4981421BDDDFF828A1022600224A
:10463000534620462946FBF7FFFE00223B46FBF788
:1046400054FE80460F460022534620462946FBF77B
:10465000EDFE42463B46FBF761FF04460D4608E08F
:10466000032622462B4600203B49FBF757FF044612
:104670000D4622462B4610461946FBF7DDFE8B46BB
:10468000824602460B46FBF7D7FE074602463348F2
:1046900088460B4606217844FEF7E8FA52465B4608
:1046A000FBF7CAFE82462E488B463A464346052112
:1046B0007844FEF7DBFA3A464346FBF7BDFE024676
:1046C0000B46002E504659460CDAFBF70EFE2246EA
:1046D0002B46FBF7B1FE01B022462B46BDE8F04F5A
:1046E000FBF7A7BEFBF701FE22462B46FBF7A4FE15
:1046F0001C4A7A4402EBC603D3E90023FBF796FE7B
:1047000022462B46FBF792FE174A7A4402EBC60379
:10471000D3E90023FBF78DFE009A002AB8BF81F091
:104720000041BDE8F88F0000000010440000F07F59
:10473000182D4454FB21F93FFB21F9BF0000DC3F59
:104740000000203E0000F33F0000F03F0000E63F85
:10475000008003400000F83F0000F0BF966E0000AC
:10476000546E0000F26D0000BA6D00002DE9F04DAE
:104770009446CCF1000423F000464CEA0404524F66
:1047800046EAD4749A46884621F00042BC4206D8D4
:10479000454240EA050442EAD474BC4204D9BDE86B
:1047A000F04D6246FEF739BBAAF14055A5F17F6591
:1047B00055EA0C040BD0022404EAAA74434DDFF836
:1047C00010E144EAD87452EA000B04D00CE0BDE8D2
:1047D000F04DFFF7BBBE002C14BF012CBDE8F08DDF
:1047E000022C30D0032C32D056EA0C0B0AD0BE4239
:1047F00020D1BA4209D126F0804622F080423346C9
:10480000114617E000291ADB25E0DFF8C8B0FB44A9
:10481000002C04BFDBE90001BDE8F08D012C02BFD4
:10482000DBE9000181F00041BDE8F08D022C0AD0E7
:10483000032C0CD0BA4212D1B8F1000F0BDA234886
:104840002549BDE8F08D28462449BDE8F08D28466D
:104850007146BDE8F08D1D482149BDE8F08D921BE1
:1048600012153C2AC4BF19481D490EDCBAF1000FCD
:10487000BEBF12F13C0F0020014606DB6246FBF78B
:104880004DFE21F00041FFF761FE002C08BFBDE89E
:10489000F08D012C04BF81F00041BDE8F08D114A7C
:1048A000114B022C07D0FBF7C1FD2A46BDE8F04DA5
:1048B0000A4BFBF7BBBDFBF7B9FD2A46BDE8F04D3F
:1048C000064BFBF7B6BD00000000F07F182D4454E6
:1048D000FB2109C07E6D0000FB21F9BFFB210940CF
:1048E000FB21F93F075C143326A6A13C30B583B009
:1048F0000446FEF7A9FA05460020CDE9000002466D
:1049000021466846FBF7F7FF2846FEF7B3FADDE9D4
:10491000000103B030BD000001B5ADF55C7DFE487F
:10492000FE490CC803C9FBF781FD57915690579972
:10493000569806F017FAB391B2905799569803F02B
:1049400057FE57915690F648F6490CC803C9FBF735
:10495000CCFCAB91AA90AB99AA9803F049FEA39125
:10496000A290F14801460CC803C9FBF765FDC3914D
:10497000C290EE4801460CC803C9FBF75DFDBB9130
:10498000BA9000204FF08041579B569AFBF754FD98
:10499000CDE93201E4480CC83298FBF74DFDCDE972
:1049A0003401E2480CC83498FBF746FDCDE93601E6
:1049B000C39BC29AFBF799FCCDE93801BB9BBA9A1D
:1049C000FBF793FCC191C090C199C09806F01AFA08
:1049D000B191B090D449B39BB29A03C9FBF72CFDB7
:1049E000CDE93601B19BB09AFBF798FDCDE93801CE
:1049F000FFF774FCB991B890CD4801460CC803C9C3
:104A0000FBF71AFDBF91BE90BB9BBA9AC399C2989F
:104A1000FBF76BFCCDE93801BF9BBE9AFBF765FC49
:104A2000AF91AE90C0480CC800204FF08041FBF71A
:104A300003FDCDE93801BD480CC83898FBF7FCFCF4
:104A4000BD91BC90579B569ABD99BC98FBF7F4FC5E
:104A5000A791A690B99BB89AAB99AA98FBF745FC89
:104A60009F919E909F999E9803F0C2FD979196907A
:104A7000AF480CC800204FF08041FBF7DDFCCDE9CA
:104A80003601979B969AFBF7D7FCCDE93801B19B8D
:104A9000B09AFBF7D1FC8F918E90A79BA69AAF9905
:104AA000AE98FBF722FCCDE936018F9B8E9AFBF77F
:104AB0001CFCCDE9380106F0A5F9879186909D4947
:104AC000879B869A03C9FBF7B1FCA991A8909548EA
:104AD0000CC8B999B898FBF708FCCDE930019048AB
:104AE0000CC83098FBF701FCCDE9320103F080FDE2
:104AF000CDE936018E480CC800204FF08041FBF70D
:104B00009BFCCDE93401DDE93623FBF795FCCDE9CB
:104B10003801B19BB09AFBF78FFCB991B890B99B63
:104B2000B89AAF99AE98FBF7E0FBCDE93801A79BA7
:104B3000A69AFBF7DAFBAF91AE90AF99AE9806F06C
:104B400061F9A191A09000204FF08041A19BA09A13
:104B5000FBF772FCCDE9380176480CC800204FF015
:104B60008041FBF769FCCDE93601DDE93823FBF72D
:104B70005DFC999198906F49A19BA09A03C9FBF79E
:104B800055FC9191909000204FF08041BB9BBA9AC8
:104B9000FBF752FC8991889000204FF08041A39B45
:104BA000A29AFBF749FCCDE9320160480CC8329863
:104BB000FBF742FCCDE934015D480CC83498FBF7A3
:104BC0003BFCCDE93601BB9BBA9AFBF78EFBCDE9E6
:104BD0003801BF9BBE9AFBF788FB7F917E907F993F
:104BE0007E9806F00FF98191809050480CC8002003
:104BF0004FF08041FBF720FCCDE938014C480CC850
:104C00003898FBF719FC79917890A39BA29A79992F
:104C10007898FBF711FC7B917A9045480CC80020EE
:104C20004FF08041FBF708FCCDE93401A39BA29A29
:104C3000FBF702FCCDE936013C480CC83698FBF77F
:104C4000FBFBCDE93801899B889AFBF74EFBB791B6
:104C5000B69036480CC800204FF08041FBF7ECFBC3
:104C6000CDE93001819B809AFBF7E6FB02460B46BB
:104C7000CDE93201B799B698FBF750FCCDE9340184
:104C8000FEF75CFFCDE938012B4824490CC803C965
:104C9000FBF7CCFB294A2A4BCDE93401FBF7C6FBD5
:104CA000CDE93601DDE93823FBF71FFB73917290E4
:104CB0007399729803F09CFC6D916C9021480CC81C
:104CC00000204FF08041FBF7B7FBCDE936016D9B2B
:104CD0006C9AFBF7B1FBCDE93801819B809AFBF719
:104CE000ABFB759174900C4813490CC803C9FBF7D2
:104CF0009DFB154A154BCDE93201FBF7F6FACDE9DC
:104D0000340103F075FCCDE938010E480CC80020D1
:104D10004FF080411CE00000980000207800002047
:104D20009000002080000020B0000020A80000209B
:104D3000C0000020C8000020A0000020182D44540E
:104D4000FB21F93FB8000020D221337F7CD91240EB
:104D5000FBF772FBCDE93401FE480CC83498FBF731
:104D60006BFBCDE93601DDE93823FBF765FB679185
:104D7000669000204FF08041BF9BBE9AFBF75CFB22
:104D8000CDE93601899B889AFBF7AFFACDE9380166
:104D90007B9B7A9AFBF7A9FA89918890EE480146A5
:104DA0000CC803C9FBF748FB6F916E90759B749A12
:104DB00089998898FBF73AFBCDE93001679B669AA1
:104DC000FBF793FACDE93201B99BB89AFBF78DFA5C
:104DD000CDE93401A79BA69AFBF787FACDE9360106
:104DE000DD480CC83698FBF727FBCDE93801A19BBD
:104DF000A09AFBF793FB69916890909A1046919B5B
:104E00001946FBF719FBCDE92A01C39BC29AFBF7B0
:104E10000DFBCDE92C01BB9BBA9AFBF766FACDE9F5
:104E20002E016F9B6E9AFBF760FACDE93001BF9BB4
:104E3000BE9AFBF75AFACDE93201699B689AFBF7F3
:104E4000F5FACDE934017B9B7A9AFBF74EFACDE96E
:104E50003601759B749AFBF7E9FACDE93801679B37
:104E6000669AFBF742FA919190907399729805F0C7
:104E700079FF59915890B9480CC8C399C298FBF76B
:104E8000DBFAB591B4900022B54BC199C09805F0FA
:104E90004DFCAD91AC909F999E9805F063FFA39156
:104EA000A290B0480CC800204FF08041FBF7C4FA34
:104EB000CDE93801A39BA29AFBF7BEFAA591A49075
:104EC000A8480CC8BD99BC98FBF7B6FACDE93401E7
:104ED000979B969AFBF7B0FACDE93601B39BB29A4D
:104EE000FBF7AAFACDE93801B19BB09AFBF716FBA4
:104EF0009D919C90994801460CC803C9FBF79CFA08
:104F0000CDE93201984899490CC803C9FBF78EFADC
:104F1000CDE9240103F06CFB00224FF08043CDE982
:104F20002601FBF789FACDE928018A480CC82898A0
:104F3000FBF782FACDE92A0188480CC82A98FBF7CA
:104F40007BFACDE92E01834801460CC803C9FBF763
:104F500073FACDE92C01DDE92E23FBF7C6F9CDE983
:104F60003001DDE93223FBF7C0F9CDE9340105F06A
:104F700049FFCDE938017C487C490CC803C9FBF7DF
:104F800055FACDE9320103F033FBCDE93401714824
:104F90000CC83498FBF750FACDE93601DDE9382327
:104FA000FBF7BCFA9791969071480CC800204FF01F
:104FB0008041FBF741FACDE93801599B589AFBF73C
:104FC0003BFA9B919A90819B809A9B999A98FBF7C8
:104FD00033FA95919490644864490CC803C9FBF76F
:104FE00025FACDE9360105F0BDFECDE93801BD9BBE
:104FF000BC9AFBF721FA73917290584801460CC88D
:1050000003C9FBF719FACDE92E01574857490CC8D7
:1050100003C9FBF70BFACDE9200103F0E9FA0022FE
:105020004FF08043CDE92201FBF706FACDE92401D8
:1050300048480CC82498FBF7FFF9CDE926014748FA
:105040000CC82698FBF7F8F9CDE92A01414801463A
:105050000CC803C9FBF7F0F9CDE92801DDE92A23E3
:10506000FBF743F9CDE92C01DDE92E23FBF73DF9F0
:10507000CDE9300105F0C6FECDE9340137480146DF
:105080000CC803C9FBF7D8F9CDE91E0136483749EA
:105090000CC803C9FBF7CAF9CDE9100103F0A8FA5F
:1050A00000224FF08043CDE91201FBF7C5F9CDE9AD
:1050B000140128480CC81498FBF7BEF9CDE9160175
:1050C00026480CC81698FBF7B7F9CDE91A01214814
:1050D00001460CC803C9FBF7AFF9CDE91801DDE9BA
:1050E0001A23FBF702F9CDE91C01DDE91E23FBF7CA
:1050F000FCF8CDE9200105F085FECDE924011A4830
:105100001A490CC803C9FBF791F9CDE91E0105F056
:1051100029FECDE920010F480CC82098FBF78CF937
:10512000CDE92201DDE92423FBF7F8F9CDE92601D9
:10513000FFF7D4F8CDE92A010E480F490CC803C97E
:10514000FBF7D3F8CDE92801DDE92A23FBF7CDF8F9
:1051500014E00000B0000020C8000020A8000020DB
:105160000000F83FC00000209800002078000020D8
:10517000B80000209000002080000020CDE92C0124
:1051800003F036FACDE93001FE480CC800204FF09C
:105190008041FBF751F9CDE92E01DDE93023FBF722
:1051A0004BF9CDE93201DDE93423FBF745F9CDE9CF
:1051B0003801F548F5490CC803C9FBF737F9CDE9C3
:1051C0002C0103F015FACDE93001F1480CC800209C
:1051D0004FF08041FBF730F9CDE92C01ED480CC8C8
:1051E0002C98FBF729F9CDE92E01DDE93023FBF7F7
:1051F00023F9CDE93401E34801460CC803C9FBF7A4
:105200001BF9CDE92601E448E4490CC803C9FBF7C2
:105210006CF8CDE9180103F0EBF900224FF0804360
:10522000CDE91A01FBF708F9CDE91C01D9480CC8F2
:105230001C98FBF701F9CDE91E01D2480CC81E9855
:10524000FBF7FAF8CDE92201D24801460CC803C9A0
:10525000FBF7F2F8CDE92001DDE92223FBF745F861
:10526000CDE92401DDE92623FBF73FF8CDE928014C
:1052700005F0C8FDCDE92C01C24801460CC803C9A0
:10528000FBF7DAF8CDE91201C348C4490CC803C9D9
:10529000FBF72BF8CDE9040103F0AAF900224FF047
:1052A0008043CDE90601FBF7C7F8CDE90801B9480D
:1052B0000CC80898FBF7C0F8CDE90A01B1480CC842
:1052C0000A98FBF7B9F8CDE90E01B24801460CC8BF
:1052D00003C9FBF7B1F8CDE90C01DDE90E23FBF7BB
:1052E00004F8CDE91001DDE91223FAF7FEFFCDE95C
:1052F000140105F087FDCDE91801A6480CC800206F
:105300004FF08041FBF798F8CDE91601DDE918234D
:10531000FBF792F8CDE91C019F48A0490CC803C9CE
:10532000FAF7E3FFCDE90E0103F062F9CDE91201CE
:1053300094480CC800204FF08041FBF77DF8CDE980
:105340001001DDE91223FBF777F8CDE9140191484C
:105350000CC81498FBF770F8CDE918018D48014688
:105360000CC803C9FBF768F800224FF08043CDE971
:105370001401FBF761F8CDE91601DDE91823FAF70E
:10538000B4FFCDE91A01DDE91C23FBF7C7F8CDE92D
:105390001E01FEF7D3FBCDE9220181487B490CC8F1
:1053A00003C9FBF743F87F4A7F4BCDE91E01FBF7AA
:1053B0003DF8CDE92001DDE92223FAF796FFCDE99A
:1053C000240103F015F9CDE9280178480CC8002024
:1053D0004FF08041FBF730F8CDE92601DDE92823C5
:1053E000FBF72AF8CDE92A01DDE92C23FBF724F8A5
:1053F000CDE93001684869490CC803C9FAF775FF5F
:10540000CDE9220103F0F4F8CDE9260161480CC88A
:1054100000204FF08041FBF70FF8CDE922015948F9
:105420000CC82298FBF708F8CDE92401DDE9262312
:10543000FBF702F8CDE92A01524801460CC803C91E
:10544000FAF7FAFF00224FF08043CDE92201FAF784
:10545000F3FFCDE926014F4801460CC803C9FAF70E
:10546000EBFF00224FF08043CDE92201FAF7E4FF81
:10547000CDE92401DDE92623FAF737FFCDE928013C
:10548000DDE92A23FAF731FFCDE92C01679B669A03
:10549000FAF72BFFCDE92E01DDE93023FAF7C6FF3D
:1054A000CDE93201DDE93423FAF71FFFCDE93601FA
:1054B000DDE93823FAF719FF8D918C9000223C4BDF
:1054C000AF99AE9805F032F99391929000204FF089
:1054D0008041939B929AFAF7AFFF8591849033486D
:1054E00001460CC803C9FAF7A7FFCDE93601BB9BFB
:1054F000BA9AFAF7FAFECDE938016F9B6E9AFAF77D
:10550000F4FE53915290BF9BBE9A53995298FAF76A
:10551000ECFEB991B890699B689AB999B898FAF776
:1055200085FFCDE936017B9B7A9AFAF7DEFECDE95D
:105530003801759B749AFAF779FF8B918A908B9951
:105540008A9805F05FFC7D917C901A498D9B8C9A1E
:1055500003C9FAF771FFCDE93801A19BA09AFAF7C8
:10556000DDFF7791769000204FF08041879B869AEF
:10557000FAF762FF559154900E480CC800204FF086
:10558000804119E0C0000020980000207800002031
:10559000B0000020A8000020900000208000002023
:1055A000A0000020182D4454FB21F93FB800002032
:1055B0000000F83FC8000020FAF73EFFCDE93801AF
:1055C000559B549AFAF732FF839182907D9B7C9A87
:1055D00083998298FAF730FF719170900022FE4B08
:1055E0008B998A9805F0A2F8CDE9380100204FF098
:1055F0008041839B829AFAF71FFFCDE93601DDE9EE
:105600003823FAF719FF6B916A907B9B7A9AB999C4
:10561000B898FAF76AFECDE93401779B769AFAF7E3
:1056200005FFCDE93601759B749AFAF7FFFECDE9C7
:10563000380105F0E7FB65916490B29A1046B39B80
:105640001946FAF7F9FE9F919E90A89A1046A99BD9
:105650001946FAF7F1FECDE93001C39981F0004116
:10566000C298CDE92801BB9BBA9AFAF73EFECDE974
:105670002A016F9B6E9AFAF738FECDE92C01BF9B89
:10568000BE9AFAF732FECDE92E01DDE93023FAF7B2
:105690002CFECDE932017B9B7A9AFAF726FECDE902
:1056A0003401679B669AFAF720FECDE93601779BB5
:1056B000769AFAF7BBFECDE93801759B749AFAF732
:1056C000B5FE83918290719B709A83998298FAF7C4
:1056D00025FFCDE93601FEF731FAC04AC04BCDE9CE
:1056E0003801FAF7A6FE77917690B29A1046B39BEE
:1056F0001946FAF7A1FECDE92A01C39BC29AFAF72F
:105700009BFECDE92C01C19BC09AFAF707FF00224E
:10571000B44BCDE92E01FAF78CFECDE9300105F04E
:1057200071FBCDE93401B29A1046B39B1946FAF7E2
:1057300083FECDE92801B59BB49AFAF77DFECDE949
:105740002A01AD9BAC9AFAF7E9FECDE92C01979BB3
:10575000969AFAF7CAFDCDE92E01A59BA49AFAF70D
:105760006BFECDE93001B19BB09AFAF765FECDE949
:105770003201DDE93423FAF7D1FECDE93601739B1E
:10578000729AFAF7B2FDCDE938019D9B9C9AFAF71F
:10579000ACFD63916290B29A1046B39B1946FAF73A
:1057A0004BFECDE92401C39BC29AFAF745FECDE931
:1057B0002601C19BC09AFAF7B1FE0022894BCDE9C0
:1057C0002801FAF736FECDE92A0105F01BFBCDE9E9
:1057D0002E01B29A1046B39B1946FAF72DFECDE979
:1057E0002201B59BB49AFAF727FECDE92401AD9BBF
:1057F000AC9AFAF793FECDE92601979B969AFAF7B1
:1058000074FDCDE92801A59BA49AFAF715FECDE910
:105810002A01B19BB09AFAF70FFECDE92C01DDE920
:105820002E23FAF77BFECDE932016F4801460CC802
:1058300003C9FAF701FECDE926016C486C490CC892
:1058400003C9FAF752FDCDE9180102F0D1FE00229A
:105850004FF08043CDE91A01FAF7EEFDCDE91C01C6
:1058600064480CC81C98FAF7E7FDCDE91E015E48B4
:105870000CC81E98FAF7E0FDCDE922015D4801460B
:105880000CC803C9FAF7D8FDCDE92001DDE92223D0
:10589000FAF72BFDCDE92401DDE92623FAF725FDF2
:1058A000CDE9280105F0AEFACDE92C014E480146BC
:1058B0000CC803C9FAF7C0FDCDE912014B484C49A9
:1058C0000CC803C9FAF711FDCDE9040102F090FEFE
:1058D00000224FF08043CDE90601FAF7ADFDCDE996
:1058E000080144480CC80898FAF7A6FDCDE90A015A
:1058F0003D480CC80A98FAF79FFDCDE90E013D48D6
:1059000001460CC803C9FAF797FDCDE90C01DDE9A2
:105910000E23FAF7EAFCCDE91001DDE91223FAF7CC
:10592000E4FCCDE9140105F06DFACDE91801314828
:105930000CC800204FF08041FAF77EFDCDE916013A
:10594000DDE91823FAF778FDCDE91C01274828493D
:105950000CC803C9FAF7C9FCCDE90E0102F048FEF4
:10596000CDE9120120480CC800204FF08041FAF721
:1059700063FDCDE91001DDE91223FAF75DFDCDE904
:1059800014011C480CC81498FAF756FDCDE918010B
:10599000184801460CC803C9FAF74EFD00224FF023
:1059A0008043CDE91401FAF747FDCDE91601DDE9A1
:1059B0001823FAF79AFCCDE91A01DDE91C23FAF75E
:1059C000ADFDCDE91E01FEF7B9F8CDE922010A4887
:1059D0000A490CC803C913E00000F83F182D4454CD
:1059E000FB21F93F0000F03FC000002090000020A4
:1059F00080000020A8000020A000002078000020E7
:105A0000FAF714FDFD4AFE4BCDE91E01FAF70EFD33
:105A1000CDE92001DDE92223FAF767FCCDE9240175
:105A200005F0A0F9CDE92801F6480CC800204FF098
:105A30004041FAF701FDCDE92601DDE92823FAF717
:105A4000FBFCCDE92A01DDE92C23FAF7F5FCCDE9D1
:105A50002E01739B729AFAF748FCCDE93001DDE91B
:105A60003223FAF742FCCDE934019D9B9C9AFAF768
:105A70003CFCCDE93601E4480CC83698FAF7DCFC6A
:105A8000CDE93801A19BA09AFAF748FD6191609099
:105A9000B29A1046B39B1946FAF7CEFCCDE9240121
:105AA000C39BC29AFAF7C8FCCDE92601C19BC09AF4
:105AB000FAF734FD0022D54BCDE92801FAF7B9FCFD
:105AC000CDE92A0105F09EF9CDE92E01B29A1046E2
:105AD000B39B1946FAF7B0FCCDE92201B59BB49A05
