:020000040800F2
:10000000800E002001010008090100080B01000812
:100010000D0100080F010008110100080000000098
:1000200000000000000000000000000013010008B4
:100030001501000800000000170100088D1F0008CE
:100040001B0100081B0100081B0100081B01000820
:100050001B0100081B0100081B0100081B01000810
:100060001B0100081B0100081B0100081B01000800
:100070001B0100081B0100081B0100081B010008F0
:100080001B0100081B0100081B0100081B010008E0
:100090001B0100081B0100081B010008C11100081A
:1000A0001B0100081B0100081B0100081B010008C0
:1000B0001B0100081B0100081B0100081B010008B0
:1000C0001B0100081B0100081B0100081B010008A0
:1000D000591C00087D2600081B0100081127000894
:1000E000051100081B0100081B010008DFF80CD0F7
:1000F00000F028FD00480047394C0008800E002021
:100100000648804706480047FEE7FEE7FEE7FEE7B1
:10011000FEE7FEE7FEE7FEE7FEE7FEE79D1F0008BD
:10012000ED000008034611F8012B00F8012B002A0E
:10013000F9D118467047F0B480EA0102D40F4200AA
:10014000B2EB410F02D20246084611464A0042D0A5
:10015000C30DDDB2C1F3C752AD1A202D35DAC1F39C
:10016000160141F4000204B15242C5F1200602FA20
:1001700006F12A411044B3EBD05F23D0C4B1012D66
:10018000A0EBC35009DCF0BC4FF0004202EAC352BE
:10019000DBB200F5000000F0D8BB400000F1807039
:1001A00000EBC350A0F1807040EAD170490009E033
:1001B000490841EAC071A0EBC35000F500004008B7
:1001C00000EBC350F0BC00F0B7BB6142012202EB70
:1001D0004101001BF6E7F0BC704781F00041AAE73F
:1001E00080F00040A7E780EA010210B502F000436A
:1001F000400022D04A001FD0010E01EB1261C0F373
:100200005600C2F3560240F4000042F40002A0FB84
:10021000022000047F39140400D0401C50EA124030
:1002200001D44000491EC2B20C0604EBD010401CA1
:100230004008802A02D003E0002010BD20F0010019
:10024000002900DA0020184310BD30B480EA010212
:1002500002F0004530F0004221F0004013D090B190
:10026000C30DD40DC2F31601C0F31600E41A41F415
:10027000000140F400027D34914201D3641C00E08F
:100280004900002C02DA30BC002070474FF4000017
:100290000023914201D3891A034340084FEA4101E8
:1002A000F7D151B1914202D14FF0004105E002D2A5
:1002B0004FF0010101E06FF0010103EBC45028444D
:1002C00030BC00F039BB2DE9FE4F804681EA0300C7
:1002D000C00F0C46009021F0004123F00045B8EB20
:1002E0000200A94105D24046214690461C460B46D5
:1002F000024623F00040104347D0270DC7F30A0001
:10030000C3F30A510290401A019040286BDAC3F3FC
:10031000130040F4801B0098924620B10023D2EBDA
:10032000030A63EB0B0B01985946C0F1400250469B
:1003300000F083FA06460D4650465946019A00F0F1
:100340009BFA10EB08006141002487EA115284EA0D
:10035000E7731A4340D0009A62B3019A012A4FEA28
:10036000075215DC001B61EB02014FF0004202EA6C
:100370000752CDE90042001C41F5801132462B4660
:1003800000F020FB03B0BDE8F08F40462146F9E7BE
:10039000001B61EB0201001C41F5801300185B415A
:1003A0002018A2F5001747EB030140EAD570B619F3
:1003B0006D4111E06D084FEA360645EAC0754FEA17
:1003C0000752001B61EB0201001C41F58011490836
:1003D0004FEA30000019514132462B4603B0BDE8C8
:1003E000F04F00F0E0BA0098012240000023D0EB6B
:1003F000020263EBE073009821464FEAE074B8EB29
:10040000000061EB0401E9E783F000435BE781F062
:10041000004158E72DE9FE4F81EA030404F000444F
:1004200021F0004100944FF0000B23F0004350EA0C
:1004300001045ED052EA03045BD0C3F30A54C1F353
:100440000A552C44A4F2F3340194A0FB0254C1F3E6
:10045000130141F48011C3F3130343F4801301FB30
:10046000024400FB034E840A970A44EA815447EA97
:100470008357A4FB076802958D0A05FB07854FEAA1
:10048000932C04FB0C542705029D4FEA065847EABB
:100490001637B5EB08056EEB070C870E920E47EA90
:1004A000811742EA8312A7FB0201B6EB0B0164EB52
:1004B00000042B0D43EA0C335E1844EB1C50DA4663
:1004C0005146E7FB0201C5F313044FEA0B3343EA3D
:1004D00014534FEA0432019C43EA0603A4F10C04CE
:1004E0000294009CCDE900B400F06CFA03B0BDE8C2
:1004F000F08F00200146F9E72DE9F04D81EA030471
:1005000004F0004B21F0004514464FF0000A23F0A0
:10051000004150EA050220D054EA01021DD0C5F383
:100520000A570246C5F31303C1F31300C1F30A5679
:1005300040F4801543F48013A7EB0608101BD64641
:1005400008F2FD3873EB050002D308F1010801E061
:1005500092185B41B8F1000F03DA00200146BDE8B4
:10056000F08D00204FF48011064684460EE0171BE4
:1005700073EB050705D3121B63EB050306434CEA37
:10058000010C49084FEA300092185B4150EA01071C
:10059000EDD152EA030012D082EA040083EA050199
:1005A000084305D0101BAB4106D20122002306E010
:1005B00000224FF0004302E06FF0010253101AEBEB
:1005C00006004CEB085110EB0A0041EB0B01BDE8B3
:1005D000F04D00F0E8B9C10F80EAE0700844CA07A6
:1005E0009623002100F0B1B996230022114600F0B5
:1005F000ACB90EB5C10F80EAE0700844CA0700210B
:1006000040F233438DE80E000A460B4600F0DAF95B
:1006100003B000BD0EB540F2334102910021CDE997
:1006200000110A460B4600F0CDF903B000BD20F0E2
:100630000040C10DC0F3160040F400007F2901DA2C
:1006400000207047962903DCC1F19601C84070472D
:1006500096398840704770B5C1F30A5201F00045E1
:100660000024C1F3130140F2FF3341F480119A4298
:1006700001DA002070BD40F233439A42A2F23342C5
:1006800003DC524200F0E8F800E090402C43F1D047
:10069000404270BDC1F30A5210B5C1F3130140F2DC
:1006A000FF3341F480119A4201DA002010BD40F27C
:1006B00033439A42A2F2334203DC524200F0CCF8B8
:1006C00010BD904010BD00F0004230F000400AD054
:1006D000C10D01F56071C0F3160042EA0151C20874
:1006E00040071143704700200146704730B5041E93
:1006F00071F1000404DB4FF00044404264EB01015F
:10070000141E73F1000405DB1C464FF000435242F7
:1007100063EB04038B4208BF824230BD30B5041E38
:1007200071F1000404DB4FF00044404264EB01012E
:10073000141E73F1000405DB1C464FF000435242C7
:1007400063EB0403994208BF904230BD01F00043BF
:1007500030B421F0004150EA010206D00A0DA2F5A2
:100760006072C1F31301002A02DC30BC0020704724
:10077000440F44EAC104C100E01830BC00EBC25091
:1007800000F0DAB8002801DBC0F10040002901DBED
:10079000C1F1004181427047002801DBC0F10040F7
:1007A000002901DBC1F100418842704730B50B469A
:1007B000014600202022012409E021FA02F59D4291
:1007C00005D303FA02F5491B04FA02F52844151E65
:1007D000A2F10102F1DC30BD2DE9F05F05460020F9
:1007E00092469B4688460646814640241BE02846A2
:1007F00041464746224600F02FF853465A46C01A53
:10080000914110D311461846224600F016F82D1AD1
:1008100067EB01084F4622460120002100F00DF849
:1008200017EB00094E41201EA4F10104DFDC48460D
:1008300031462A464346BDE8F09F202A04DB203A91
:1008400000FA02F1002070479140C2F1200320FA23
:1008500003F3194390407047202A04DB203A21FA21
:1008600002F00021704721FA02F3D040C2F12002C9
:100870009140084319467047202A06DBCB17203ADF
:1008800041FA02F043EAE07306E041FA02F3D04095
:10089000C2F1200291400843194670470FB400236B
:1008A00000B589B00CA900910B996FF00042CB60A4
:1008B0001E4B06931E4B07930423CDE901321D4ABC
:1008C000089202466B46002000F0E8F909B05DF896
:1008D00014FB70B586B006464FF0FF300091CDE9AD
:1008E0000101002015460C4604903246694604A8D2
:1008F000FFF7D4FF02460498211825B108B1084635
:1009000000E020462860049800280DD0002A02DD6F
:100910000098884208D0081B0094CDE901043246B3
:10092000694604A8FFF7BAFF06B070BDD50E0008EF
:10093000F30E0008690B00080029A8BF7047401C8F
:10094000490008BF20F00100704710B4B0FA80FCE5
:1009500000FA0CF050EA010404BF10BC704749B122
:10096000CCF1200421FA04F411FA0CF118BF012192
:1009700021430843A3EB0C01CB1D4FEA00614FEA72
:10098000102042BF002010BC704700EBC350104441
:100990000029A4BF10BC7047401C490008BF20F0CC
:1009A000010010BC704710B5141E73F1000408DA82
:1009B000401C41F1000192185B411A4301D120F023
:1009C000010010BD2DE9F04D92469B4611B1B1FAE0
:1009D00081F202E0B0FA80F220329046FFF72DFF5C
:1009E00004460F4640EA0A0041EA0B0153465A46C4
:1009F000084313D0114653EA010019D0C8F1400250
:100A00005046FFF729FF05460E46504659464246D6
:100A1000FFF713FF084305D0012004E020463946C4
:100A2000BDE8F08D0020054346EAE0762C433743CD
:100A30000A986305E40AA0EB08000022FD0A44EAD4
:100A400047540A3002D500200146E9E70105101994
:100A50006941DDE9084500196941BDE8F04DA2E7AB
:100A600070B521F0004303430CD0C1F30A550024B4
:100A7000D5EB040564EB0403D617AD1AB34102DBD2
:100A80000020014670BD201841EB025170BD2DE9D8
:100A9000FE4FC3F30A5701F000450024C1F30A5684
:100AA000C3F31303C1F3130143F4801312EB020ADF
:100AB000A64641F48011009543EB030CA7F1010B0E
:100AC00016E0B0EB0A0061EB0C01071E71F10007A4
:100AD00007DA4FF00008D0EB080085F0004568EB1E
:100AE0000101171A73EB0107EBD3761E0018494179
:100AF0005E45F6DA50EA010209D0CDE900E50022B0
:100B000013460296FFF75EFF03B0BDE8F08F204664
:100B10000099F9E7C1F30A52C1F3130140F2FF3320
:100B200041F480119A4202DA00200146704740F2F7
:100B300033439A42A2F2334202DC5242FFF78CBEA8
:100B4000FFF77BBE064C074D06E0E06840F001036E
:100B500094E8070098471034AC42F6D3FFF7CAFA7E
:100B6000105B0008305B0008C0B24FF4F05100F099
:100B7000D1B900002DE9FF4F087883B09946FF28CE
:100B800005D0491C2D2804D00024002008E00020B6
:100B90000BE00124F9E700EB800003EB4000491C67
:100BA0000B78FF2BF7D104B1404200230293147855
:100BB00019461D462D2C01D02B2C04D1521C2D2C56
:100BC00013D000240294AA461478FF2C0FD00A25D3
:100BD000A3FB057801FB05814FF0000C03FB0C1112
:100BE000521CE3194AEB0101EEE70124EAE78144D4
:100BF00053EA010002D019F5C87F06DA03980021F4
:100C0000C0E9001107B0BDE8F08F0025AE4E2F46B9
:100C1000DFF8B882184600F091F9CDE90001B9F18A
:100C2000000002DAC9F1000400E004460023A74AEC
:100C30001AEB030B42EB045A12E0E00707D02A46F6
:100C4000334638464146FFF7E5FB074688462A46C5
:100C5000334610461946FFF7DDFB05460E46641085
:100C6000002CEAD1DDE90001B9F1000F5A465346E4
:100C700006DAFFF741FC3A464346FFF73DFC05E044
:100C8000FFF7C8FB3A464346FFF7C4FB029A0AB196
:100C900081F00041039AC2E90001B3E72DE9FF4F5B
:100CA0001F468DB0D7E901464FF0FF382E2045464C
:100CB0004FF000090B90B9696D1C0E988847396A8E
:100CC000824688470028F6D1BAF1FF3F0AD024F4C3
:100CD000D064002E11DDBAF12B0F08D0BAF12D0F20
:100CE0000BD102E0404611B08DE744F48064B9694D
:100CF0006D1C0E9888478246761E6946600501D5B0
:100D00002D2000E02B208DF8000001F1010B0DF1EA
:100D1000200809E0B9696D1C0E98884782460F9833
:100D200044F40074761E0560002E02DDBAF1300F27
:100D3000F0D00B998A453ED144F0800406E00F992B
:100D4000681CA9F1010944F400740860B9696D1CBC
:100D5000761E0E98884782463028F0D02BE00B99FB
:100D60008A4505D1200603D444F08004761E18E09D
:100D7000504601F07BFF08B30DF11301761E44F4D9
:100D800000748B4508D2AAF130000BF8010B200645
:100D900007D5A9F1010003E0200602D409F1010002
:100DA0008146A00502D50F99681C0860B9696D1CC1
:100DB0000E9888478246002ED1DC53E0002E51DD8C
:100DC000BAF1650F02D0BAF1450F4BD1A00549D554
:100DD000B9696D1C24F44074761E0E9888478246CB
:100DE000002E0CDD2B2804D0BAF12D0F07D144F4CE
:100DF0008074B9696D1C0E9888478246761EE0059E
:100E000001D52D2100E02B2108F8011BCDF82C8005
:100E100021E00DF12901761E44F4007488450CD2BE
:100E2000AAF1300010F0FF0088F8000002D10B9901
:100E3000884509D908F1010806E0E00501D52448F4
:100E400001E042F20F708146B9696D1C0E98884727
:100E500082460F980560002E04DD504601F006FF23
:100E60000028D6D1F9690E988847FF208BF800003A
:100E700088F800000020069007904B466A4608A9B3
:100E800006A8FFF777FEA00502D46FF001002AE75D
:100E900014F0240F0AD0E00714D1DDE906123868F7
:100EA000031D3B600068C0E900120BE0DDE90601AC
:100EB000FFF74CFC0146E00704D13868021D3A6098
:100EC0000068016028460EE7000014400000F03F73
:100ED000F1D8FFFF426842B1016811F8013B23B12C
:100EE000521EC0E90012184670470121C160881ED9
:100EF000704742685AB1C368016843B983688B423E
:100F000005D0491E521CC0E90012002070474FF066
:100F1000FF3070477F2801D9002208E0064A02EB23
:100F20005002C007127800D1120902F00F0201200E
:100F30009040084070470000D05A00080EB540F2BB
:100F4000334202920022CDE900221346FFF73AFD18
:100F500003B000BD21B1826842F00102826003E06B
:100F6000826822F0010282607047000010B50446DA
:100F70001248844208D10121401500F0F3FD002100
:100F8000601500F0EFFD17E00D48844208D1012103
:100F9000001500F0E7FD0021201500F0E3FD0BE057
:100FA0000848844208D10121C80300F0DBFD00217C
:100FB0004FF4004000F0D6FD10BD000000240140B9
:100FC00000280140003C01400146C86C80B27047D7
:100FD0000246002013680B400BB1012000E0002006
:100FE0007047000030B502460020002350680F4CC7
:100FF00020400D790C6844EA052420435060906835
:101000000B4C2040D1E902542C434D7944EA45046D
:1010100020439060D06A20F470000C7C641EE4B21F
:10102000234340EA0350D06230BD0000FFFEF0FFD2
:10103000FDF7F1FFF0B504460D4600200021092D13
:1010400011DDE068A5F10A0606EB4607072606FA59
:1010500007F18843A5F10A0606EB460603FA06F1F6
:101060000843E0600CE0206905EB4507072606FA17
:1010700007F1884305EB450603FA06F108432061B2
:10108000072A0FDA606B561E06EB86071F2606FA44
:1010900007F18843561E06EB860605FA06F108435B
:1010A000606322E00D2A0FDA206BD61F06EB86075D
:1010B0001F2606FA07F18843D61F06EB860605FAB7
:1010C00006F10843206310E0E06AA2F10D0606EB8A
:1010D00086071F2606FA07F18843A2F10D0606EBE4
:1010E000860605FA06F10843E062F0BD21B1826888
:1010F00042F4A002826003E0826822F4A0028260CF
:101100007047000010B54FF4805000F08BF80128B4
:101110000ED1000300F080F84FF48051244800F015
:1011200009FA244981F8DA0001F1D80004F052FAF2
:101130004FF4806000F076F801280ED1800200F0B4
:101140006BF84FF480611C4800F0F4F91B4981F8FA
:10115000D80001F1D80004F03DFA4FF4006000F02F
:1011600061F801280ED1C00200F056F84FF400617A
:10117000114800F0DFF9114981F8D90001F1D800D8
:1011800004F028FA4FF4005000F04CF801280ED17A
:10119000400300F041F84FF40051054800F0CAF94F
:1011A000064981F8DA0001F1D80004F013FA10BD05
:1011B00000080140F0040020000C0140B8070020A6
:1011C00010B5402000F02EF801280DD1402000F08D
:1011D00023F840210E4800F0ADF90E4981F8D800FF
:1011E00001F1D80004F0F6F9802000F01BF8012886
:1011F0000DD1802000F010F88021054800F09AF908
:10120000044981F8D90001F1D80004F0E3F910BDD8
:10121000000C0140F0040020014908607047000004
:1012200014040140014600200022074B1B6803EA1A
:101230000102054B14331B680B4013B10AB10120A6
:1012400000E0002070470000000401400021234915
:101250008279002A3AD00A46126803689A430B46FC
:101260001A600A1D126803689A430B1D1A600279FE
:1012700011440A6803681A430A60184A083212685F
:1012800003689A43154B08331A601A1D12680368E5
:101290009A43124B0C331A604279102A0ED11A1F4E
:1012A000126803681A430D4B08331A601A1D12683E
:1012B00003681A43094B0C331A600DE00749427961
:1012C00011440A6803681A430A6005E00279114470
:1012D0000A6803689A430A607047000000040140EE
:1012E00008B501211D2000F02DFC0121144800F05B
:1012F000D9F84FF40050ADF8000010208DF803002D
:1013000001208DF8020069460E4800F03FF84FF4C6
:1013100000510C4800F017F94FF40270ADF80000CE
:1013200010208DF8030001208DF802006946064860
:1013300000F02CF84FF40271034800F004F908BDE6
:101340000002300000100140000C014030B50022C6
:101350008B071C0F0F2303FA04F20B4B8C1053F86E
:1013600024309343084C8D1044F8253023468C10CC
:1013700053F824308C07240F00FA04F42343024C62
:101380008D1044F8253030BD080001402DE9F041B2
:10139000024600250026002000230024002791F8A3
:1013A00003C00CF00F0591F803C00CF0100CBCF159
:1013B000000F03D091F802C04CEA050591F800C077
:1013C000BCF1000F31D0146800202BE04FF0010C6D
:1013D0000CFA00F3B1F800C00CEA03069E4220D1DB
:1013E00083004FF00F0C0CFA03F7BC4305FA03FC23
:1013F0004CEA040491F803C0BCF1280F06D14FF069
:10140000010C0CFA00FCC2F814C00AE091F803C009
:10141000BCF1480F05D14FF0010C0CFA00FCC2F8EA
:1014200010C0401C0828D1D31460B1F800C0BCF132
:10143000FF0F34DD546800202EE000F1080C4FF05F
:10144000010808FA0CF3B1F800C00CEA03069E424A
:1014500021D183004FF00F0C0CFA03F7BC4305FABF
:1014600003FC4CEA040491F803C0BCF1280F05D139
:1014700000F1080C08FA0CF8C2F8148091F803C0C7
:10148000BCF1480F07D100F1080C4FF0010808FA31
:101490000CF8C2F81080401C0828CED35460BDE878
:1014A000F0810000F0B50A46002300240021002549
:1014B00000F00046B6F1004F02D11D4EF16901E087
:1014C0001B4E7168C0F3034583B200F44016B6F5B5
:1014D000401F08D121F07061154E766826F07066C5
:1014E000134F7E6012E000F48016B6F5801F06D11F
:1014F000032606FA05F4A14341F0706106E0460DAB
:10150000360103FA06F6B14341F0706122B1460D8F
:10151000360103FA06F6314300F00046B6F1004FFB
:1015200002D1034EF16101E0014E7160F0BD000097
:10153000000001400246002093680B400BB10120DF
:1015400000E0002070474161704701617047000072
:101550001FB501210D2000F0F5FA4FF44050ADF811
:101560000C0048208DF80F0001208DF80E0003A913
:101570004D48FFF70BFF4FF440514B48FFF7E5FF95
:101580004FF44C60ADF80C0048208DF80F0001209E
:101590008DF80E0003A94548FFF7F8FE4FF44C61A3
:1015A0004248FFF7D2FF0C210020FFF7CFFE0621B3
:1015B0000120FFF7CBFE07210120FFF7C7FE0D2119
:1015C0000020FFF7C3FE0A210120FFF7BFFE0B2119
:1015D0000120FFF7BBFE4FF47350019000208DF8FF
:1015E000080010208DF8090001208DF80A0001A8DC
:1015F000FFF72CFE17208DF8000001208DF8030066
:10160000684600F033F928208DF8000001208DF89D
:101610000300684600F02AF92548006900EB400005
:1016200041002348C0F8EC102248006900EB40005C
:1016300041002048C0F8EC1040211C48FFF77AFF19
:101640001B4981F8D80080211848FFF773FF18491B
:1016500081F8D9004FF480511348FFF76BFF14490C
:1016600081F8DA0001F1D80003F0B4FF4FF4806193
:101670000E48FFF75FFF0F4981F8D8004FF4006173
:101680000A48FFF757FF0B4981F8D9004FF4005182
:101690000548FFF74FFF074981F8DA0001F1D8004C
:1016A00003F098FF1FBD000000080140000C01403E
:1016B000F0040020B807002010B504460A48606214
:1016C0000021A16201F0DAFAE062074820630021FC
:1016D000616301F0D3FAA0630348E0630021216451
:1016E00001F0CCFA606410BDCDCC4C3D2DE9F84F33
:1016F00004460D4601F0C2FA8046A168A8EB01003D
:10170000FEF772FF82461B49FEF76DFD8146C4F865
:10171000088000214846FFF735F802D2DFF85890DC
:1017200008E016494846FFF737F803D265602846B7
:10173000BDE8F88F49462068FEF7FDFC8246514619
:101740002068FEF782FD064631464FF07E50FEF7D8
:1017500044FD83462946FEF746FD824630466168D1
:10176000FEF741FD51460090FEF7E5FC0746676035
:101770003846DDE7BD3786356F12833A9A99993E30
:1017800010B50446211D17A001F0C4F8D4E90210D9
:10179000FFF702F801D2A068E060A168A165A16826
:1017A000E16794F8140118B9A020A168015102E082
:1017B000A020A1690151C4206169015160793128DB
:1017C00005D14FF400710A48FFF7BFFE03E008217E
:1017D0000748FFF7BAFE01202060211D05A001F097
:1017E00099F810BD25733A20496E69740D0A0000FE
:1017F000000C014025733A20456E61626C652064DF
:1018000072697665722E0D0A0000000070B50446FC
:101810000D46164600212846FEF7B4FF03D0C4F853
:10182000185184F81661204601F0B2FF204602F0FC
:1018300059FFC4F84001322002F086FE204603F032
:10184000E9FDC4F82401052002F07EFE204603F0E5
:10185000C7FDC4F81C0194F81501022802D1D4F880
:101860001C012062C82002F06FFE70BD70B500211F
:1018700000230F22C47804B3154C246804F4E064F8
:10188000C4F5E064210AC1F10403CA40447804FAB3
:1018900003F184781440214309010E4C0678A155C8
:1018A000047804F01F050124AC4005786D11AD00EB
:1018B00005F1E025C5F8004109E0047804F01F05B2
:1018C0000124AC40044D0678761145F8264070BDE1
:1018D0000CED00E000E400E080E100E010B504461B
:1018E0004FF07C50C4F890000021942001519820C2
:1018F00001519C200151A4200151A8200151AC208C
:10190000015101F0BBF9B02108511948C4F8B400E5
:101910000021B8200151BC200151C0200151C82034
:101920000151CC200151D020015101F0A7F9D4215F
:1019300008514FF07C50A0640021E164216561658D
:10194000E1652166616601F099F9A0664FF07C506F
:10195000E066002121676167A16780200151842032
:1019600001518820015101F089F98C21085110BDE5
:101970000000A0412DE9F04F85B004460F4601F06C
:101980007DF98146216AA9EB0100FEF72DFE54493D
:101990000390FEF728FC8246C4F8209000215046B0
:1019A000FEF7F0FE09D95046FEF78DFE00224D4BA2
:1019B000CDE90201FEF7B2FE01D2DFF82CA13946D3
:1019C0002068FEF710FC049038466169FEF7B3FB0F
:1019D000029051466068FEF706FC4FF07C51009083
:1019E000FEF701FC01900299FEF7FDFB0390E1690F
:1019F000FEF7A1FB0546206980F0004029460390D0
:101A0000FEF7CAFE03D2206980F0004007E02846B6
:101A10002169FEF7C1FE01D2206900E02846054693
:101A200038466169FEF7D9FB0290A168FEF7DBFB3F
:101A300051460390FEF709FC834629460498FEF7B9
:101A40007AFB59460390FEF776FB0646206980F044
:101A5000004031460390FEF79FFE03D2206980F0DC
:101A6000004007E030462169FEF796FE01D220696A
:101A700000E0304606460021E068FEF78DFE28D2E1
:101A80003046A169FEF7A9FB51460390FEF7DDFB46
:101A900080464046E168FEF77FFE09D25146E06885
:101AA000FEF7A1FB0390A169FEF745FB064610E097
:101AB000E06880F0004041460390FEF76DFE08D2DA
:101AC0005146E068FEF78FFB0390A169FEF788FBA3
:101AD0000646E561A6616761304605B0BDE8F08F56
:101AE000BD3786350000E03F6F12833A0146002083
:101AF000034A506820F4404008435060704700009B
:101B00000010024029B1064AD2690243044BDA614F
:101B100004E0034AD2698243014BDA617047000056
:101B20000010024029B1064A12690243044B1A61AF
:101B300004E0034A12698243014B1A6170470000B6
:101B40000010024029B1064A92690243044B9A618F
:101B500004E0034A92698243014B9A617047000096
:101B60000010024029B1064AD2680243044BDA60F1
:101B700004E0034AD2688243014BDA6070470000F8
:101B80000010024030B500210022002400232D4D1A
:101B90006D6805F00C0121B1042905D0082923D175
:101BA00005E0294D056022E0274D05601FE0254D29
:101BB0006D6805F47012234D6D6805F480340225BC
:101BC00005EB92421CB9214D554305600BE01D4DBC
:101BD0006D6805F400351DB11C4D5543056002E0EC
:101BE000194D5543056002E0174D056000BF00BF69
:101BF000144D6D6805F0F0010909154D6B5C056821
:101C0000DD4045600F4D6D6805F4E061090A104D37
:101C10006B5C4568DD4085600A4D6D6805F4605178
:101C2000C90A0B4D6B5C4568DD40C560054D6D68AC
:101C300005F44041890B074D6B5CC568B5FBF3F5B6
:101C4000056130BD0010024000127A0000093D001D
:101C5000000000201000002010B526A000F05AFE61
:101C600060212A4800F0D0F8002842D0274800F030
:101C7000F5F8C4B22146254800F0F3F8244800885E
:101C800000F40040F8B92248008800F4804090B188
:101C90000A2C03D000201E49088026E01C4800883A
:101CA00040F400401A49088000200988C1F30D0162
:101CB000184A505419E00D2C06D11548008840F4FC
:101CC00080401349088010E011480088C0F30D00DF
:101CD00010490C540E480088401C0D4908800846E5
:101CE0000088FF2801DD002008806021074800F0FF
:101CF00081F810BD547970655F616E676C655F6FC8
:101D000070656E6C6F6F70210D0A00000038004026
:101D100034000020F003002000B587B00121092025
:101D2000FFF710FF01218803FFF7ECFE24208DF858
:101D3000000000208DF8010001208DF802008DF8D0
:101D400003006846FFF792FD4FF42040ADF81800FD
:101D500004208DF81B0006A91E48FFF717FB4FF45F
:101D60008040ADF8180018208DF81B0003208DF876
:101D70001A0006A91748FFF709FB4FF48050ADF889
:101D8000180048208DF81B0006A91248FFF7FEFA3C
:101D90000020ADF80400ADF80600ADF80800ADF87D
:101DA0000A00ADF80C00ADF80E001020ADF81000E0
:101DB0000020ADF8120001A9074800F054F80122F4
:101DC0006021054800F03AF80121034800F006F8C8
:101DD00007B000BD000C01400038004021B102886E
:101DE00042F04002028004E002884FF6BF731A40BE
:101DF0000280704710B5002201F00F040123A340B8
:101E00009AB2D343038110BDF0B5024600200024EE
:101E10000023002501F00F070126BE40B4B20B11CC
:101E200001269E40B3B2968806EA0305168926402D
:101E300016B10DB1012000E00020F0BD30B5002446
:101E400000230C110125A540ABB21AB185881D43B2
:101E5000858002E085889D43858030BD0146888964
:101E600070478181704710B50022028802F4415208
:101E70000B884C8823438C882343CC8823430C89CC
:101E800023434C8923438C892343CC8923431A431E
:101E90000280838B4FF2FF74234083830B8A03827B
:101EA00010BD10B500F002F810BD00000CB5002008
:101EB000019000903348006840F480303149086058
:101EC00000BF3048006800F4003000900198401CCA
:101ED0000190009818B90198B0F5A06FF1D1294888
:101EE000006800F4003010B10120009001E00020F3
:101EF00000900098012843D12348006840F010006A
:101F0000214908600846006820F003000860084680
:101F1000006840F0020008601A48406819494860AB
:101F20000846406848600846406840F48060486061
:101F30000846406820F47C1048600846406840F439
:101F4000E81048600846006840F08070086000BFF4
:101F50000C48006800F000700028F9D0094840687B
:101F600020F00300074948600846406840F002003E
:101F7000486000BF0348406800F00C000828F9D111
:101F80000CBD000000100240002002400248006822
:101F9000401C0149086070471400002010B5134828
:101FA000006840F001001149086008464068104987
:101FB00008400E494860084600680E4908400B4931
:101FC00008600846006820F48020086008464068E1
:101FD00020F4FE0048604FF41F008860FFF761FFA7
:101FE0004FF000600449086010BD0000001002407E
:101FF0000000FFF8FFFFF6FE08ED00E000B589B035
:1020000001210420FFF79EFD01210846FFF77AFD1C
:102010000720ADF8200018208DF8230003208DF84C
:10202000220008A92448FFF7B1F94FF0804000F0E2
:10203000C9F80020ADF8140040F29F50ADF8180028
:102040002020ADF816000020ADF81A0005A94FF0C9
:10205000804000F0C1FA6020ADF804000120ADF826
:1020600006000020ADF80A00ADF80C0001A94FF001
:10207000804000F09BF901A94FF0804000F0ECF99E
:1020800001A94FF0804000F047FA0821C80600F08F
:10209000D9F90821C80600F031FA0821C80600F075
:1020A0008BFA0121880700F075F80121880700F0FC
:1020B0007DF809B000BD00000008014000B589B0FE
:1020C00001210C20FFF73EFD01210220FFF71AFD40
:1020D000C020ADF8200018208DF8230003208DF8D3
:1020E000220008A92848FFF751F90120ADF8200087
:1020F00018208DF8230003208DF8220008A923481A
:10210000FFF744F9224800F05DF80020ADF8140014
:1021100040F29F50ADF818002020ADF816000020C6
:10212000ADF81A0005A91A4800F056FA6020ADF87B
:1021300004000120ADF806000020ADF80A00ADF85B
:102140000C0001A9124800F031F901A9104800F073
:1021500083F901A90E4800F0DFF908210C4800F0CE
:1021600071F908210A4800F0C9F90821084800F06F
:1021700023FA0121064800F00DF80121044800F07F
:1021800015F809B000BD000000080140000C014036
:102190000004004021B1028842F08002028004E085
:1021A00002884FF67F731A400280704721B102887F
:1021B00042F00102028004E002884FF6FE731A40EA
:1021C0000280704710B504466848844208D1012156
:1021D000C014FFF7C7FC0021E014FFF7C3FCC4E004
:1021E000B4F1804F08D101210846FFF79BFC002184
:1021F0000120FFF797FCB8E05D48844208D1012137
:102200000220FFF78FFC00210220FFF78BFCACE0DF
:102210005848844208D101210420FFF783FC0021A3
:102220000420FFF77FFCA0E05348844208D101213D
:102230000820FFF777FC00210820FFF773FC94E0EB
:102240004E48844208D101211020FFF76BFC002189
:102250001020FFF767FC88E04948844208D101213B
:102260002020FFF75FFC00212020FFF75BFC7CE0D3
:102270004448844208D101214014FFF773FC002137
:102280006014FFF76FFC70E03F48844209D10121E0
:10229000C804FFF767FC00214FF40020FFF762FC41
:1022A00063E03A48844209D101210805FFF75AFC4E
:1022B00000214FF48010FFF755FC56E0344884426B
:1022C00009D101214805FFF74DFC00214FF4001012
:1022D000FFF748FC49E02F48844208D10121402003
:1022E000FFF720FC00214020FFF71CFC3DE02A48BE
:1022F000844208D101218020FFF714FC00218020B6
:10230000FFF710FC31E02548844208D101218015F7
:10231000FFF708FC0021A015FFF704FC25E020488A
:10232000844209D101210804FFF71CFC00214FF46D
:102330008030FFF717FC18E01A48844209D10121C8
:102340004804FFF70FFC00214FF40030FFF70AFCB0
:102350000BE01548844208D101218804FFF702FCF4
:1023600000214FF48020FFF7FDFB10BD002C014041
:102370000004004000080040000C00400010004035
:102380000014004000340140004C01400050014066
:102390000054014000180040001C00400020004094
:1023A00000400140004401400048014070B5002455
:1023B00000220023058C4FF6FE7635400584028C02
:1023C0008388048B4FF68F752C40B51E2C400D88EA
:1023D0002C43751E2A400D892A434D882A43144DEB
:1023E000A8420BD0134DA84208D0134DA84205D0E7
:1023F000124DA84202D0124DA84213D14FF6F775E4
:102400002A404D892A434FF6FB752A408D882A437E
:102410004FF6FF652B404FF6FF552B408D892B4320
:10242000CD892B4383800483CD888586028470BD4B
:10243000002C0140003401400040014000440140B4
:10244000004801400A460021018B4FF6F7731940FE
:10245000114301837047000070B50024002200235F
:10246000058C4FF6EF7635400584028C8388048B0B
:1024700048F6FF752C404FF6FF452C400D884FF66F
:10248000FF7606EA05252C434FF6DF752A400D89B5
:1024900006EA05152A434D8806EA05152A43154D17
:1024A000A84202D0144DA8421DD14FF67F752A4094
:1024B0004D894FF6FF7606EA05152A434FF6BF759C
:1024C0002A408D8806EA05152A434FF6FF352B4032
:1024D0004FF2FF752B408D8906EA85052B43CD8988
:1024E00006EA85052B4383800483CD880587028413
:1024F00070BD0000002C0140003401400A4600215C
:10250000018B4FF2FF7319404FF6FF7303EA02236A
:10251000194301837047000070B500240022002396
:10252000058C4FF6FF6635400584028C8388848BCA
:102530004FF68F752C404FF6FC752C400D882C43C0
:102540004FF6FF552A400D894FF6FF7606EA05251E
:102550002A434D8806EA05252A43154DA84202D094
:10256000144DA8421DD14FF2FF752A404D894FF6F8
:10257000FF7606EA05252A434FF6FF352A408D8867
:1025800006EA05252A434EF6FF752B404DF6FF75EA
:102590002B408D8906EA05152B43CD8906EA0515E2
:1025A0002B4383808483CD888587028470BD00009F
:1025B000002C0140003401400A460021818B4FF677
:1025C000F7731940114381837047818670470187F3
:1025D0007047818770470000002202881D4B984297
:1025E0000ED01D4B98420BD0B0F1804F08D01B4B42
:1025F000984205D01A4B984202D01A4B984204D107
:102600004FF68F731A404B881A43174B984207D0E6
:10261000164B984204D04FF6FF431A40CB881A431A
:1026200002808B8883850B8803850A4B98420BD0E8
:10263000094B984208D00E4B984205D00D4B98425A
:1026400002D00D4B984201D10B7A0386012383827D
:1026500070470000002C014000340140000400409D
:1026600000080040000C0040001000400014004032
:1026700000400140004401400048014010B540F2D4
:102680002551204800F084F800283AD01D4800F079
:102690003BF9C4B21C48008800F40040F8B91A485D
:1026A000008800F4804090B10A2C03D00020164925
:1026B000088026E01448008840F400401249088051
:1026C00000200988C1F30D01104A505419E00D2C67
:1026D00006D10D48008840F480400B49088010E086
:1026E00009480088C0F30D0008490C5406480088CA
:1026F000401C0549088008460088FF2801DD0020AD
:10270000088010BD0038014020000020600000203B
:1027100010B540F22551144800F03AF810B31248B1
:1027200000F0F2F8C4B211480088472807DA0F49D0
:102730000888411C0D4A11800D490C5402E000200C
:102740000A4908800D2C0CD100210948074A12883B
:10275000815401200749087000200449088001F0D5
:102760004BFE00BF10BD0000004800401C000020D0
:10277000600100201E00002021B1828942F4005235
:10278000828104E082894DF6FF731A40828170478E
:1027900070B50246002400230025002040F66A168A
:1027A000B14200D100BFC1F3421501F01F03012661
:1027B00006FA03F3012D02D19689334006E0022D7B
:1027C00002D1168A334001E0968A33400C1201266A
:1027D00006FA04F41688344013B10CB1012000E06D
:1027E000002070BDF0B5034600240026002500201F
:1027F00040F66A17B94200D100BF1846C1F342142F
:1028000001F01F06012707FA06F5012C01D10C3053
:1028100004E0022C01D1103000E014301AB1076836
:102820002F43076002E00768AF430760F0BD000078
:102830002DE9F04786B005460E460024A24600BFAB
:10284000A1460027B08900B100BF2F462C8A4CF664
:10285000FF700440F08804432C82AC894EF6F310DC
:102860000440B08831890843718908430443AC812E
:10287000AC8A4FF6FF400440B0890443AC8201A803
:10288000FFF780F91F48874202D1DDF810A001E070
:10289000DDF80CA0A88900F4004040B10AEBCA00A2
:1028A00000EB0A1031684900B0FBF1F807E00AEBD1
:1028B000CA0000EB0A1031688900B0FBF1F864200F
:1028C000B8FBF0F004012009642101FB1089A889FC
:1028D00000F4004040B1322000EBC900B0FBF1F041
:1028E00000F00700044308E0322000EB09106421E7
:1028F000B0FBF1F000F00F0004432C8106B0BDE8FE
:10290000F08700000038014001468888C0F30800C5
:10291000704700000FB4054B10B503A9044A029894
:1029200000F0F0F910BC5DF814FB0000C946000887
:1029300018000020490050EAC12018BF04204A0DA9
:1029400018BF40F0010040F2FF72B2EB515F08BFC8
:1029500040F00200012808BF052070472DE9F04132
:102960004F1E00EBC7010446D1E9000115461E4683
:1029700037F006020DD02A463346FDF74BFD7F1E89
:1029800004EBC703D3E90023FDF79DFC37F00602F3
:10299000F1D1022F25D0042F13D0062F18BFBDE888
:1029A000F0812A463346FDF735FDD4E90A23FDF7C9
:1029B0008AFC2A463346FDF72DFDD4E90823FDF7AE
:1029C00082FC2A463346FDF725FDD4E90623FDF7B0
:1029D0007AFC2A463346FDF71DFDD4E90423FDF7B2
:1029E00072FC2A463346FDF715FDD4E90223FDF7B4
:1029F0006AFC2A463346FDF70DFDD4E90023BDE805
:102A0000F041FDF760BC0122FEF72AB8FDF75BBC80
:102A10000022134610461146FDF76EBD024A002003
:102A20001107FEF71DB8000001FDFFFF0148006817
:102A3000704700005C00002002E008C8121F08C1B7
:102A4000002AFAD170477047002001E001C1121F2F
:102A5000002AFBD170470000014908607047000060
:102A60005C0000202DE9F04706463046FDF72BFEBE
:102A70000746134A134BFDF726FC0446FDF766FE96
:102A800081464846FDF71FFE07460F4A0F4BFDF7EC
:102A900045FE08D24846FDF716FE07460A4A0B4B8C
:102AA000FDF7B2FC02E04846FDF70DFE0446FDF7D7
:102AB0004DFE8146484600F0D7FCBDE8F087000097
:102AC000F4D64354FB21F93FEA2E4454FB2119402C
:102AD00070B504460D462846FDF77DFD06462146A5
:102AE000FDF781FB70BD00002DE9FF5F82B0002182
:102AF000DDE90430020DDDF840B0034318D044F6A0
:102B00001050A2F2FF3242431514119801281FD031
:102B1000A5EB0B00401C5FEA000A4FF000064E4F89
:102B2000DFF83891B046504615D5CAF1000413E0DD
:102B3000119801244AA3012801D16FEA0B010298E0
:102B4000119AC0E90031C0E9024206B0BDE8F09F29
:102B5000CBF10000DFE704460021404A491842EB70
:102B60000450CDE9001012E0E00707D032463B46A2
:102B700040464946FDF74EFC8046894632463B4674
:102B800010461946FDF746FC06460F466410002C19
:102B9000EAD1DDE90401DDE90023BAF1000F06DA2C
:102BA000FDF738FC42464B46FDF734FC05E0FDF7E7
:102BB000A3FC42464B46FDF79FFC04460E4600220E
:102BC000284BFDF7ABFD03D84FF0FF30014607E07F
:102BD0000022254B20463146FDF775FBFDF79AFF95
:102BE000102409E0002C0ADB0A220023FDF7F4FD83
:102BF000039B30321A55641E50EA0102F2D1641C64
:102C0000039AC4F111031444119A012A03D001223A
:102C100008430DD10AE0084304D000204FF0110B07
:102C2000119072E7A3EB0B056D1E0DE05B4504DD13
:102C30004FF0000205F1010504E003DA4FF0000255
:102C4000A5F10105002AECD002981199C0E90231E2
:102C5000C0E9004579E70000000014400000F03FA3
:102C6000300000000000F0430000E03F30380A2848
:102C700001D20120704700207047000000BF0A48C1
:102C800001684FF0E0208269074800688142F6D170
:102C90000648801A4823B0FBF3F001EB4103C3EB75
:102CA000C11300EBC300704714000020401901005D
:102CB0002DE9F04706463046FDF705FD07460F4A69
:102CC0000F4B01F0B7FC0446FDF740FD81460021A3
:102CD0004846FDF761FD03D84846FDF7F4FC07E0E0
:102CE0004846FDF7F0FC0746044A054BFDF7EBFAB2
:102CF0000446FDF72BFDBDE8F0870000EA2E4454A2
:102D0000FB2119402DE9FF4F95B09B4689460646A9
:102D100000250FE2252877D100242746F84A012113
:102D2000059400E0044316F8013F203B01FA03F04C
:102D30001042F7D130782A2811D06FF02F03307865
:102D4000A0F13002092A16D8059A44F0020402EBD9
:102D5000820203EB42021044761C0590EFE759F81B
:102D6000042B0592002A03DA504244F400540590E3
:102D700044F00204761C30782E2816D116F8010F84
:102D800044F004042A280DD06FF02F023078A0F10F
:102D90003003092B09D807EB870302EB4303C7185D
:102DA000761CF3E759F8047B761C30786C280FD03A
:102DB00006DC4C2817D068280DD06A2814D104E00E
:102DC000742810D07A280FD10DE044F400140AE0E2
:102DD00044F4801401E044F440147278824202D139
:102DE00004F58014761C761C307866280BD013DC32
:102DF000582877D009DC002875D04528F6D0462819
:102E0000F4D047281AD19DE118E0632835D0642812
:102E100079D0652812D195E1702873D008DC672835
:102E2000F1D069286FD06E280DD06F2806D1B5E09B
:102E300073282CD0752875D0782874D05A461799E5
:102E400090476D1C75E1C4F30250022809D0032895
:102E50000DD0D9F8001004280DD00D6009F1040937
:102E600067E1D9F80010EA17C1E90052F6E7D9F88E
:102E700000100D80F2E70D70F0E719F8041B8DF8D3
:102E8000001000208DF80100EA46012003E059F807
:102E900004AB4FF0FF3061074FF0000102D40DE0AA
:102EA00008F101018846B9420FDA8045F8DB1AF8CB
:102EB00008100029F4D108E008F101018846814298
:102EC000FADB1AF808100029F6D105985B46A0EB4A
:102ED000080721463846179A00F094FA284400EB78
:102EE000080507E04DE029E10DE01AF8010B5A460C
:102EF00017999047B8F10108F7D25B46214638464A
:102F0000179A13E142E00A220092C4F302524FF0F2
:102F1000000A022A08D059F804CB032A4FEAEC71C0
:102F20000AD00DE029E02AE009F1070121F00702AB
:102F3000F2E802C1914609E00FFA8CFC4FEAEC710D
:102F4000042A03D14FFA8CFC4FEAEC71002907DA0E
:102F50000A460021DCF1000C61EB02012D2202E0A7
:102F6000220504D52B228DF80420012203E0E2077C
:102F700001D02022F7E7904659E00A2102E0102212
:102F80000DE010214FF0000A00910BE010224FF0ED
:102F9000000A44F004040827009203E008224FF0DE
:102FA000000A0092C4F30252022A05D059F804CB59
:102FB0000021032A08D009E009F1070121F00702E6
:102FC000F2E802C1914605E01FFA8CFC042A01D107
:102FD0000CF0FF0C4FF00008220728D5702806D00F
:102FE000009B83F0100353EA0A0305D00EE0402251
:102FF0008DF80420012208E05CEA010206D03022AC
:103000008DF804208DF8050002229046009B83F085
:10301000080353EA0A030AD15CEA010201D16207FC
:1030200005D530228DF804204FF001087F1E582866
:1030300004D034A003900EA802900DE036A0F9E76A
:1030400053466046009AFDF7C7FB84460398825CAE
:103050000298401E029002705CEA0100F0D10298D2
:1030600006A9081A00F1200A600702D524F480346A
:1030700000E00127574502DDA7EB0A0000E0002031
:1030800000EB0A01009005984144401A0590E003C6
:1030900006D45B462146179A059800F0B3F905441B
:1030A000002706E001A85A46C05D179990476D1C9D
:1030B0007F1C4745F6DBE0030CD55B462146179A9B
:1030C000059800F09FF9054404E030205A4617990E
:1030D00090476D1C0099481E00900029F5DC08E01F
:1030E000029802995A460078491C02911799904714
:1030F0006D1CBAF10001AAF1010AF1DC65E10000E2
:1031000009280100303132333435363738396162BD
:103110006364656600000000303132333435363781
:1031200038394142434445460000000000F058F958
:103130000544761C307800287FF4ECAD19B02846A1
:10314000BDE8F08F620700D4062709F1070222F0DC
:10315000070CFCE80223E14603F000485FEA080C94
:1031600002D00FF2702C0DE05FEA045C02D50FF282
:10317000682C07E05FEAC47C02D00FF2602C01E00B
:10318000AFF2700C4FF0FF3823F00043CDF850C081
:1031900065280CD006DC452809D046281DD04728D4
:1031A0003DD13DE0662818D067287ED138E0002167
:1031B000112F01DB112000E0781CCDE9000106A9E8
:1031C0000EA8FFF791FCDDE90F010E9A0391002193
:1031D000009207F1010A04914DE04FF00040009782
:1031E000CDE9011006A90EA8FFF77EFCDDE90F026C
:1031F00003920E9B11990022DDF80CA0009304921B
:1032000011B9791C00EB010AB7EB0A0004D4C0F134
:10321000FF3007F1010A0490AAEB0700019044E097
:10322000012F00DA01270021112F01DD112000E01C
:103230003846CDE9000106A90EA8FFF755FCDDE9E7
:103240000F010E9A0391002104910092BA462107C2
:103250000CD40399514500DA8A46BAF1010F05DD15
:10326000009AAAF10101515C302908D0B84202DA73
:1032700010F1040F06DA0121CDE9011015E0AAF1E1
:103280000101E9E7002805DC049901440491AAEB57
:10329000000102E0411C514500DD8A460499401AB4
:1032A000401C01904FF000400290200704D4019888
:1032B000504501DBCDF8048000208DF84F000298C6
:1032C0000DF14F07B0F1004F25D02B200E90029842
:1032D0004FF0020800280CDA404202902D200E9098
:1032E00007E00A210298FDF761FA3031029007F8F1
:1032F000011DB8F10001A8F10108F2DC02980028D4
:10330000EFD1791E0E980870307800F0200040F060
:10331000450007F8020D12A8C01B00F10708149819
:10332000007800B1012000EB0A01019801EBE07187
:1033300005984144401A401E0590E00306D45B46C0
:103340002146179A059800F05DF805441498007816
:1033500018B15A46179990476D1CE00324D55B4677
:103360002146179A059800F04DF805441CE0049892
:10337000002807DBDDE90301884203DD0098405C9B
:10338000179901E0179930205A469047049805F1A3
:103390000105401C04900198401E019004D12E208C
:1033A0005A46179990476D1CBAF10001AAF1010A1B
:1033B000DDDC05E017F8010B5A46179990476D1CA4
:1033C000B8F10001A8F10108F4DC5B462146179A28
:1033D0000598ABE62D0000002B0000002000000047
:1033E0002DE9F041044600251E461746880404D402
:1033F00005E039462020B0476D1C641EF9D52846EB
:10340000BDE8F0812DE9F041044600251E469046B6
:10341000C80301D5302700E02027880404D505E043
:1034200041463846B0476D1C641EF9D52846BDE8B4
:10343000F08100002DE9F0410446204600F09CFB9D
:1034400007463846FDF7D0F880460649FCF7CBFE24
:1034500006464FF08B41FCF7F8FE05462846BDE8CE
:10346000F08100000000F0422DE9FF5F83465846DE
:10347000FDF729F90446954A954BFDF737F944D2F3
:103480005846FDF720F9934A934BCDE90201FCF72A
:10349000C1FF804600221346FDF740F912D8584676
:1034A000FDF711F980468B4A8B4BFCF7B3FF0022E6
:1034B0008A4BCDE90001FCF706FFCDE90201FDF7DB
:1034C000CAF811E05846FDF7FEF8824A824BCDE972
:1034D0000001FCF79FFF0022804BCDE90201FCF7C1
:1034E00093FF8046FDF7B7F87D4951F820A050467C
:1034F000FDF77FF806467B4A7B4BFCF78BFF0446C3
:10350000FDF724F904B0BDE8F09F5846FDF7DBF85D
:103510000446764A764BFDF7E9F844D25846FDF763
:10352000D2F86C4A6C4BCDE90201FCF773FF804680
:1035300000221346FDF7F2F812D85846FDF7C3F8FB
:10354000644A654BCDE90001FCF764FF0022634B40
:10355000CDE90201FCF7B7FE8046FDF77CF811E0EB
:103560005846FDF7B0F85B4A5B4BCDE90001FCF72C
:1035700051FF0022594BCDE90201FCF745FF80467F
:10358000FDF769F8C0F5C770554951F820A05046BD
:10359000FDF72FF80646534A534BFCF73BFF044612
:1035A000FDF7D4F8AEE75846FDF78DF80446514ACA
:1035B000514BFDF79BF844D25846FDF784F8454A35
:1035C000454BCDE90201FCF725FF8046002213465A
:1035D000FDF7A4F812D85846FDF775F83D4A3E4B62
:1035E000CDE90001FCF716FF804600223B4BFCF7BB
:1035F0006AFECDE90201FDF72EF811E05846FDF70D
:1036000062F8344A344BCDE90001FCF703FF8046F1
:103610000022324BFCF7F8FECDE90201FDF71BF862
:10362000A0F5C7702E4951F820A05046FCF7E1FFE5
:1036300006462C4A314BFCF7EDFE0446FDF786F8B2
:1036400060E75846FDF73FF88046224A224BFCF7D8
:10365000E1FE00221346CDE90201FDF75FF812D822
:103660005846FDF730F81B4A1B4BCDE90001FCF72B
:10367000D1FE80460022194BFCF725FECDE9020160
:10368000FCF7E9FF11E05846FDF71DF88046114AA6
:10369000114BFCF7BFFE0022104BCDE90001FCF7F7
:1036A000B3FECDE90201FCF7D6FFC0F547700C4927
:1036B00051F820A05046FCF79CFF0646094A0F4BE4
:1036C000FCF7A8FE0446FDF741F81BE7F4D6435487
:1036D000FB21F93F9CA223B9FCAB5F400000E03F17
:1036E000085700082D431CEBE2361A3FEA2E4454DB
:1036F000FB210940320D337F7CD91240E2361ABFDC
:1037000070B5044625462E460448A0EB66063546AD
:1037100029462046FCF767FD70BD0000865A375FDA
:10372000F0B591B00446174E00201749086023E019
:1037300015480068022101EB4005615D681E205CB0
:1037400041EA002000B201A90F4A126821F81200D4
:103750000D4A126831F91200FCF73DFF074609498E
:10376000FCF741FD0949084A126841F82200064861
:103770000068401C04490860034800682028D7DB23
:1037800011B0F0BD4001A0392800002060020020E7
:103790002DE9F04F87B00446211DA2A0FFF7BAF82B
:1037A00094F8160100287DD1002521E02846FCF779
:1037B00020FF8246A04AA14BFCF72CFE07460022C0
:1037C0009F4BFCF799FE9F4A9F4BCDE90001FCF708
:1037D0007AFDCDE90201FCF7B9FF81464B46002294
:1037E0002046E16801F0DAFB022000F0ADFE6D1C1E
:1037F000B5F5FA7FDADD204600F074FF05904FF44E
:10380000FA7521E02846FCF7F4FE07468A4A8B4BFE
:10381000FCF700FE00228A4BCDE90001FCF76CFEAC
:10382000884A894BCDE90201FCF74DFD8246FCF741
:103830008DFF81464B4600222046E16801F0AEFB39
:10384000022000F081FE6D1E002DDBDA204600F024
:1038500049FF049000231A461946204601F09EFBBA
:10386000C82000F071FE0598FCF72DFF07463A4688
:103870000B4676A0FFF74EF80498FCF724FF0746A6
:103880003A460B4676A0FFF745F8DDE90410FCF751
:10389000A4FC8246FCF717FF21F000410746FCF725
:1038A00055FF00E073E00646DDE90410FCF76AFF0F
:1038B00008D03046FCF707FF07466E4A6E4BFCF710
:1038C00015FF15D2211D6DA0FFF724F8607931286E
:1038D00005D14FF400717448FDF735FE03E008216F
:1038E0007148FDF730FE0020206007B0BDE8F08F82
:1038F000DDE90410FCF746FF07D2211D6BA0FFF79E
:1039000009F8FF2084F8160106E0211D6EA0FFF7DC
:1039100001F8012084F81601211D72A0FEF7FAFFBC
:103920002069FCF758FE31460290FCF75CFC0390DE
:10393000FCF7C9FE0746404A404BFCF765FD21F005
:103940000041824600226B4BFCF7E8FE1BD26AA0C6
:10395000FEF7E0FF3046FCF7B6FE02460B46CDE927
:10396000020135483549FCF7C7FD07460022614B87
:10397000FCF7A9FC8246FCF76EFE206164A0216979
:10398000FEF7C8FF07E064A0FEF7C4FF03E0211DB7
:1039900063A0FEF7BFFF0021D4F81801FCF7F2FE88
:1039A00039D1654B00222046E16801F0F7FA4FF467
:1039B0002F7000F0C9FD204600F094FE824694F975
:1039C0001601FCF708FE83465146FCF70CFC8046C6
:1039D0002169FFF77DF80746FFF76AF9C4F8180177
:1039E000142000F0B1FD211D54A0FEF793FFD4F880
:1039F0001801FCF768FE07463A460B4655A0FEF74D
:103A000089FF00231A461946204601F0C7FAC8204C
:103A100000F09AFD03E0211D50A0FEF77BFF01207E
:103A200063E7000025733A20416C69676E20736577
:103A30006E736F722E0D0A00EA2E4454FB2119405A
:103A400000407F40320D337F7CD912406D69645F46
:103A5000616E676C653D252E34660D0A000000001E
:103A6000656E645F616E676C653D252E34660D0A78
:103A7000000000007B14AE47E17A843F25733A20B2
:103A80004661696C656420746F206E6F746963654C
:103A9000206D6F76656D656E74206C6F6F7032325D
:103AA000322E0D0A00000000000C014025733A2060
:103AB00073656E736F725F646972656374696F6E4C
:103AC0003D3D4343570D0A0025733A2073656E73DD
:103AD0006F725F646972656374696F6E3D3D4357D1
:103AE0000D0A000025733A20505020636865636B0F
:103AF0003A2000000000E03F6661696C202D2065DF
:103B00007374696D617465642070703A0000000020
:103B100025640D0A000000004F4B210D0A00000033
:103B200025733A20536B6970206469722063616C5D
:103B300069622E0D0A000000E4CB964025733A20FE
:103B40005A65726F20656C65632E20616E676C65C7
:103B50003A000000252E34660D0A000025733A2035
:103B6000536B6970206F66667365742063616C695E
:103B7000622E0D0A0000000010B504460723012242
:103B800021460948FDF756FA01210748FDF7AEFA2C
:103B900000BF02210448FDF71BFA0028F9D00248B3
:103BA000FDF712FA10BD0000002401402DE9FC5F72
:103BB00004460D46FFF762F88146E169A9EB010072
:103BC000FCF712FD07463949FCF70DFB8246C4F8A5
:103BD0001C9000215046FCF7D5FD05D94FF07C51D3
:103BE0005046FCF7D9FD01D2DFF8C4A05146606908
:103BF000FCF7F9FA8346FCF766FD07468846284637
:103C0000D4F81C11FCF7E9FA8346FCF75CFD21F0BF
:103C100000413A464346CDE90001FCF77FFD2FD233
:103C20002846D4F81C11FCF7D8FA00210090FCF7C4
:103C3000A9FD02D24FF0FF300CE02846D4F81C1149
:103C4000FCF7CBFA00210090FCF7A6FD01D2012081
:103C500000E000200190FCF7BEFC83466169FCF7A0
:103C6000C2FA80465146FCF7BEFA0746D4F81C114A
:103C7000FCF761FAC4F81C016069C4F8240104E08F
:103C8000C4F81C510020C4F82401A6682169D4F8A6
:103C90001C01FEF71DFF07463B4600223146204629
:103CA00001F07CF93046BDE8FC9F0000BD37863549
:103CB0006F12833A2DE9F84F04460D4621F000407B
:103CC00000917349814211DC7249884201DC06D1BE
:103CD0002CB120462946BDE8F84FFEF794BE6E4849
:103CE000002DCCBF6D496E49BDE8F88F6D4981420A
:103CF00011DD6D498142D8BF4FF0FF366DDD2046A2
:103D00002946FEF717FE042808BFFEF787FE204667
:103D10002946BDE8F88F6549654F25F00045814289
:103D200033DD6449814219DD002632464FF080437D
:103D300020462946FCF7C7FA80468A4601222046DB
:103D40002946FCF78DFE00223B46FCF75DFB424610
:103D50005346FCF7D1FB04460D463EE00126002207
:103D6000BA463B4620462946FCF7ADFA80460F4648
:103D70000022534620462946FCF746FB42463B4676
:103D8000FCF7BAFB04460D4627E04B4981421BDD98
:103D9000DFF828A102260022534620462946FCF7D8
:103DA00039FB00223B46FCF78EFA80460F46002284
:103DB000534620462946FCF727FB42463B46FCF784
:103DC0009BFB04460D4608E0032622462B460020B6
:103DD0003B49FCF791FB04460D4622462B46104614
:103DE0001946FCF717FB8B46824602460B46FCF74A
:103DF00011FB07460246334888460B4606217844A5
:103E0000FEF7ACFD52465B46FCF704FB82462E48AB
:103E10008B463A46434605217844FEF79FFD3A46D5
:103E20004346FCF7F7FA02460B46002E5046594629
:103E30000CDAFCF748FA22462B46FCF7EBFA01B005
:103E400022462B46BDE8F04FFCF7E1BAFCF73BFAFF
:103E500022462B46FCF7DEFA1C4A7A4402EBC603E4
:103E6000D3E90023FCF7D0FA22462B46FCF7CCFA24
:103E7000174A7A4402EBC603D3E90023FCF7C7FADA
:103E8000009A002AB8BF81F00041BDE8F88F000019
:103E9000000010440000F07F182D4454FB21F93F2E
:103EA000FB21F9BF0000DC3F0000203E0000F33F93
:103EB0000000F03F0000E63F008003400000F83FB4
:103EC0000000F0BF961C0000541C0000F21B000014
:103ED000BA1B00002DE9F04D9446CCF1000423F00C
:103EE00000464CEA0404524F46EAD4749A46884687
:103EF00021F00042BC4206D8454240EA050442EAAD
:103F0000D474BC4204D9BDE8F04D6246FEF77EBDD4
:103F1000AAF14055A5F17F6555EA0C040BD00224A7
:103F200004EAAA74434DDFF810E144EAD87452EA77
:103F3000000B04D00CE0BDE8F04DFFF7BBBE002C39
:103F400014BF012CBDE8F08D022C30D0032C32D0F0
:103F500056EA0C0B0AD0BE4220D1BA4209D126F053
:103F6000804622F080423346114617E000291ADBD2
:103F700025E0DFF8C8B0FB44002C04BFDBE90001FA
:103F8000BDE8F08D012C02BFDBE9000181F00041AA
:103F9000BDE8F08D022C0AD0032C0CD0BA4212D10D
:103FA000B8F1000F0BDA23482549BDE8F08D28460B
:103FB0002449BDE8F08D28467146BDE8F08D1D48C6
:103FC0002149BDE8F08D921B12153C2AC4BF194847
:103FD0001D490EDCBAF1000FBEBF12F13C0F0020EC
:103FE000014606DB6246FCF787FA21F00041FFF745
:103FF00061FE002C08BFBDE8F08D012C04BF81F0EC
:104000000041BDE8F08D114A114B022C07D0FCF79E
:10401000FBF92A46BDE8F04D0A4BFCF7F5B9FCF771
:10402000F3F92A46BDE8F04D064BFCF7F0B9000065
:104030000000F07F182D4454FB2109C04E1B0000E6
:10404000FB21F9BFFB210940FB21F93F075C143339
:1040500026A6A13C30B583B00446FEF7E7FC054632
:104060000020CDE90000024621466846FCF731FCFD
:104070002846FEF7F1FCDDE9000103B030BD000089
:1040800070B59948008800F4004000286FD0974828
:1040900000784D286DD006DC41282AD042283BD03C
:1040A000482821D121E04E2872D0542847D05A28E0
:1040B000F7D18E484078412802D0422813D108E039
:1040C00000208B4981F8150108628AA0FEF722FCC6
:1040D00009E00420864981F815010020086289A0C2
:1040E000FEF718FC00BF00BFF8E08CA0FEF712FC42
:1040F000F4E07E48401CFFF7ADFF0446FCF726FBCA
:104100007B490862086AFCF7DEFA044622460B4641
:1041100086A0FEF7FFFBE1E07448401CFFF79AFF22
:104120000446FCF713FB84490862086AFCF7CBFAE3
:10413000044622460B4681A0FEF7ECFBCEE06B481E
:10414000401CFFF787FF0446FCF700FB6849086244
:104150000846006A784908626549086AFCF7B3FABC
:10416000044622460B4678A0FEF7D4FBB6E0B9E041
:10417000FFE75E484078492821D004DC412841D03F
:10418000472857D14AE0502803D0562852D12DE075
:1041900052E05648801CFFF75DFF0446FCF7D6FA54
:1041A0005349C8660846C06E8864C86EFCF78BFA2F
:1041B000044622460B4667A0FEF7ACFB3AE04B48AC
:1041C000801CFFF747FF0446FCF7C0FA4849086720
:1041D0000846016FC1640146086FFCF774FA044693
:1041E00022460B4660A0FEF795FB23E04049D1F83C
:1041F0002401FCF768FA044622460B465FA0FEF74E
:1042000089FB17E03A49D1F81C01FCF75CFA044637
:1042100022460B465DA0FEF77DFB0BE03449D1F84A
:104220003401FCF750FA044622460B465BA0FEF729
:1042300071FB00BF00BF51E02C48407841283FD0BF
:1042400049281AD0502802D0562845D12CE02748BA
:10425000801CFFF7FFFE0446FCF778FA3649C86673
:104260000846C06E8864C86EFCF72DFA04462246E4
:104270000B464FA0FEF74EFB2EE01C48801CFFF7BC
:10428000E9FE0446FCF762FA2B4908670846016F0D
:10429000C1640146086FFCF716FA044622460B4635
:1042A00048A0FEF737FB17E02349D1F82401FCF7BB
:1042B0000AFA044622460B4647A0FEF72BFB0BE00A
:1042C0001D49D1F81C01FCF7FEF9044622460B46B5
:1042D00045A0FEF71FFB00BF00BF00BF00BF0020CE
:1042E0000149088070BD000020000020600000200F
:1042F000F0040020547970655F746F7271756521E8
:104300000D0A0000547970655F616E676C655F6FC0
:1043100070656E6C6F6F70210D0A000048656C6CE3
:104320006F20576F726C64210D0A0000413D252EED
:1043300034660D0A00000000B8070020423D252E1B
:1043400034660D0A00000000543D252E34660D0A27
:10435000000000004D312E63757272656E742E5030
:104360003D252E34660D0A004D312E63757272653F
:104370006E742E493D252E34660D0A004D312E7681
:10438000656C3D252E32660D0A0000004D312E6110
:104390006E673D252E32660D0A0000004D312E6EEF
:1043A00065775F616E673D252E32660D0A0000005D
:1043B0004D322E63757272656E742E503D252E340B
:1043C000660D0A004D322E63757272656E742E4949
:1043D0003D252E34660D0A004D322E76656C3D2546
:1043E0002E32660D0A0000004D322E616E673D25AB
:1043F0002E32660D0A00000010B531480078012801
:1044000059D130484078012804D002281ED0032812
:1044100050D138E002202C4908600CE029482A4994
:104420000968415C2948284A126881542648006876
:10443000401C25490860244800684128EEDD2348D7
:10444000FFF76EF9224800F0ADF833E002201E4974
:10445000086013E01B481C490968415C1B48803018
:10446000194A12688154184A1268815C19A0FEF733
:1044700051FA15480068401C13490860124800684A
:104480004128E7DD16E000200F4908600DE00D49E6
:104490000D480068801C095C10480B4A1268815462
:1044A00009480068401C084908600748006850280F
:1044B000EDDD00BF00BF00200149087010BD000005
:1044C0001E0000206001002024000020380600208B
:1044D0002C00002025303258200000003807002032
:1044E00000B587B001214FF40370FDF72BFB4FF4AB
:1044F0000040FDF7FBFA1820ADF8040000208DF80D
:10450000070001A90E48FCF741FF0E48FCF72EFDFD
:10451000002002908DF80C008DF80D004FF4602003
:1045200004900020059001208DF8180002A905488C
:10453000FCF758FD01210348FCF70CFD07B000BD56
:104540000008014000240140F0B50646FEF796FB46
:10455000054600BFFEF792FB0446AC4201D3671B41
:1045600002E0C5F1FF30071906EB4600C0EBC610AC
:10457000B7EBC00FEED3F0BD2DE9F0410446206942
:10458000FCF729F80746D4F81C11FBF72CFE064669
:10459000D4F81811FBF721FE0546FEF789FBBDE8AC
:1045A000F0810000F8B50446184805680020206036
:1045B0001749086019E01549154A126851F8220098
:1045C0002946FCF7E9F80BD210481149096850F860
:1045D00021500F48006820600D4800680D490860B0
:1045E0000B480068401C0A490860094800681F28F9
:1045F000E1DB2846FCF767F80646206832460B46A2
:10460000009005A0FEF786F92846F8BD600200205C
:1046100024000020300000206D61785F76616C75A9
:10462000653A20252E34662C20696E6465783A2020
:104630002564000070B514461D460E46002814BFC0
:1046400001210021314321F00041C1F17F6101F1DD
:10465000E041C90F16D1002C14BF012100212943CC
:1046600021F00041C1F17F6101F1E041C90F09D1A1
:104670001449B1EB460F08BF00281CD0690008BFE1
:10468000002C18D03146FCF702FA024640F2FF70C7
:1046900030EA11500DD0F017B0EBE17F09D0084699
:1046A00065F31E0084460B4620466146FBF7AFFECD
:1046B0000246104670BD0120FEF7CEF9BDE87040FD
:1046C000FEF7A6B90000E0FF00BF054A128802F01D
:1046D0004002002AF9D0C2B2014B1B1D1A8070475C
:1046E000003801402DE9F05F0446EC210859FBF742
:1046F00072FF824694F9DE20E021095901EB410165
:1047000002EB4100FBF767FF83465146FBF79DFD37
:104710008146FBF7D8FF0746044A054BFBF77AFEB4
:104720000546FCF713F8BDE8F09F0000EA2E44545C
:10473000FB2119402DE9F04F8BB0064689464FF01A
:104740007E500790314604A800F03CF904A807C841
:1047500008AB07C300210A98FCF714F81DD1089C88
:104760000998FBF7B0FF0746454A464BFBF752FE58
:10477000CDE902010898FBF7A6FF0746404A424BE5
:10478000FBF748FE8246DDE90223FBF79CFDCDE9FD
:104790000401FBF7DBFF054635E0DDE90801FBF727
:1047A000CAFC80460A99FBF7C6FC07463749FBF767
:1047B0001AFD834659460898FBF70FFD8246594675
:1047C0000998FBF70AFD069054460698FBF77BFF15
:1047D00007462B4A2B4BFBF71DFECDE90201504645
:1047E000FBF771FF0746264A274BFBF713FECDE97F
:1047F0000001DDE90223FBF766FDCDE90401FBF7CB
:10480000A5FF054600BF00214846FBF7BBFF1FD0B0
:104810004846FEF729FE21460690FBF7E4FC824657
:104820004846FEF71FF929460690FBF7DCFC834655
:104830005146FBF7D2FC80460021FBF7ADFF01D2C9
:10484000012001E04FF0FF300746FBF7C4FE079060
:1048500029462846FBF7C7FC824621462046FBF73F
:10486000C2FC83465146FBF766FC8046FEF748FFD4
:1048700007460799FBF7B7FC0BB0BDE8F08F0000C7
:1048800047409045A779F23FA779E23FABAAAA3EFD
:104890002DE9F74F8EB00646914604A80F9900F017
:1048A00091F804A807C80BAB07C300210D98FBF7CC
:1048B00069FF1DD10B9C0C98FBF705FF07463D4A8D
:1048C0003D4BFBF7A7FDCDE902010B98FBF7FBFE83
:1048D0000746384A394BFBF79DFD8246DDE9022346
:1048E000FBF7F1FCCDE90401FBF730FF054635E0AD
:1048F000DDE90B01FBF71FFC80460D99FBF71BFC64
:1049000007462F49FBF76FFC834659460B98FBF788
:1049100064FC824659460C98FBF75FFC06905446AF
:104920000698FBF7D0FE0746224A234BFBF772FDA1
:10493000CDE902015046FBF7C6FE07461D4A1F4B54
:10494000FBF768FDCDE90001DDE90223FBF7BBFCC5
:10495000CDE90401FBF7FAFE054600BF4846FEF725
:1049600081F80A904846FEF77FFD0990284609998C
:10497000FBF739FC074620460A99FBF734FC8046D2
:104980003946FBF7D8FB079020460999FBF72BFC2B
:10499000074628460A99FBF726FC80463946FBF76E
:1049A0001CFC0890DDE90701C6E9000111B0BDE873
:1049B000F08F000047409045A779F23FA779E23F8A
:1049C000ABAAAA3EFEB505460C4614F8F00FFEF75A
:1049D00031FD0746A169FBF700FC0646E168FBF7DD
:1049E00002FC00902079FEF725FD0746E169FBF700
:1049F000F4FB06462169FBF7F6FB0190A068F03C4A
:104A00000B49884201D100200CE014F8F80FFEF7A2
:104A100011FD0746A169FBF7E0FB0646E168F83C9B
:104A2000FBF7E1FB02909DE8070085E80700FEBD6B
:104A3000C7CFFFFF2DE9F04F89B08246E82050F83C
:104A40000A0050B1FEF71AF9E42151F80A10411A90
:104A5000E82050F80A00814203DD002009B0BDE8DB
:104A6000F08FE82151F80A00FBF7B5FD07461D4914
:104A7000FBF7EBFB0646FBF726FECDE90601EC2132
:104A800051F80A00FBF7A7FD0190FBF71CFE024658
:104A90000B46CDE9020114481449FBF72DFD0646EB
:104AA0000F469AF9DC00FBF7A4FD804632463B46F0
:104AB000FBF7B0FCCDE90401DDE90623FBF71CFDA3
:104AC0000446FBF743FE834609495846FBF75AFE66
:104AD00004D308495846FBF75FFE01D24FF0000BA4
:104AE0005846BBE700247449EA2E4454FB21194080
:104AF00000007AC400007A447CB504460D46206864
:104B000000B97CBD94F81501042803D094F8150170
:104B1000032800D1F5E7204600F062FCC4F81C0130
:104B20002846FEF787FCC4F834012046FFF724FD31
:104B3000C4F8200194F8140120B1012803D0022800
:104B400055D120E058E02046D4F82011FFF7F2FDBF
:104B50002F4948600846416804F12400FCF7C6FD6F
:104B60002B4948600A465168D4F82801FBF735FB09
:104B70000646314604F14800FCF7FCFE2549486032
:104B80000020086038E021466846D4F82021FFF76D
:104B90007FFE1F48DDE9001206C00838416804F1B5
:104BA0002400FCF7A3FD1A4948600846016804F197
:104BB0003000FCF79BFD164908600A465168D4F89E
:104BC0002801FBF70AFB0646314604F14800FCF7D2
:104BD000D1FE104948600E48006880F0004631461A
:104BE00004F16C00FCF7C6FE0A49086004E0211DD0
:104BF00009A0FDF78FFE00BF00BF0648D4F82031A2
:104C000002684168204600F0C9F900BF79E700005A
:104C1000440000203C00002025733A206E6F207471
:104C20006F7271756520636F6E74726F6C2073653F
:104C30006C65637465642100FCF752FB4FF4E1304E
:104C400000F078FC4FF4E12000F020FC76A17748DA
:104C5000FBF768FA76A17748FBF764FAFDF7CEF91F
:104C6000FDF72CFA00F0EEFB73A0FDF753FE4FF4B6
:104C70007A70FFF769FCFFF733FC6C48001FFCF704
:104C80001BFD6C48001FFCF717FD6848001FFCF770
:104C900025FE6848001FFCF721FEFDF73DF86B4834
:104CA0006B49086002206149091F08616948C860B2
:104CB000694888606948486169488861002081F8CE
:104CC0001401022081F815016648C8664FF07C5136
:104CD0005648001F016763485449091F88644FF014
:104CE0007C515248001FC1645F485049091FC1F8F8
:104CF00090005C494D48001FC0F8941057484B493C
:104D0000091FC1F8B40056494848001FC0F89C105C
:104D100056484649091FC8630020086202204549D9
:104D2000091F08614FF07F50C860514888604B48A8
:104D300048614B488861002081F814014948C866E1
:104D40004FF07C513B48001F016746483949091F15
:104D500088644FF07C513748001FC1644248354990
:104D6000091FC1F890003F493248001FC0F8941055
:104D70003A483049091FC1F8B40039492D48001F8D
:104D8000C0F89C1039482B49091FC86300200862ED
:104D9000FCF7DEFB2548001FFCF7F2FC2548001F4E
:104DA000FCF7EEFC012233492048001FFCF72EFDE2
:104DB000012231491F48001FFCF728FD2FA0FDF7F5
:104DC000A9FD30E000F04AFB3049096808442F494A
:104DD00008600846006841F28831884208DB0020FC
:104DE0002A4908602A48C06880F400502849C860F1
:104DF0000E48001F016A00F055F803210B48001F00
:104E0000FFF77AFE0B48001F016A00F04BF80421FF
:104E10000848001FFFF770FEFFF732F91D480168D0
:104E20001DA0FDF777FDCDE74D310000F404002013
:104E30004D320000BC070020446F75626C6520484D
:104E4000414C4C2046310D0A000000000000C041DA
:104E50004C00002000002040000020410000A04144
:104E6000000048429A99193FCDCCCC3DCDCC4C3D69
:104E70000000504119048640190406404D6F746FBC
:104E8000722072656164792E0D0A000054000020C2
:104E90000010014030000020696E6465783A2025DA
:104EA0006400000070B504460D46206800B970BD6E
:104EB000204600F0AFFAC4F8240194F81501052843
:104EC00066D2DFE800F003330C4D590094F814016A
:104ED00010B93148456001E0C4F8285158E0C4F8E1
:104EE000305104F5987003C8FBF777F90646314650
:104EF00004F1B400FCF73EFDC4F82C01D4F82411F1
:104F0000D4F82C01FBF769F90646314604F190000C
:104F1000FCF730FDC4F8280194F8140128B91E49A3
:104F2000D4F8280148600020086031E0C4F82C5112
:104F3000D4F82411D4F82C01FBF74FF9064631467A
:104F400004F19000FCF716FDC4F8280194F8140150
:104F500028B91149D4F8280148600020086017E0FA
:104F6000C4F82C512046D4F82C1100F083FB0A49D8
:104F70004860002008600BE0C4F830512046D4F8A7
:104F80003011FEF713FE044948600020086000BF9E
:104F900000BF00BF8BE700003C0000202DE9FF4F61
:104FA00097B08346904600214046FBF7EBFB38D094
:104FB00018990846FBF717F9414611904046FBF750
:104FC00012F910901199FBF7B6F81290FEF798FBC2
:104FD0001390F94801681398FBF737F9814640466A
:104FE000FBF771FBCDE90A011898FBF76CFBCDE9E3
:104FF0000801DDE90A23FEF76DFFCDE90E011A98DD
:10500000FBF761FBCDE90C01DDE90E23FBF75BF952
:10501000CDE91001FBF79AFB1390FDF749FE1A90BA
:1050200016E0E54801681898FBF70FF981461A98D1
:10503000FBF749FBE14AE24BCDE90E01FBF743F9EF
:10504000CDE91001FBF782FB1390FDF731FE1A90BA
:105050001A98FBF738FBDB4ADB4BCDE90E01FBF777
:105060004BFA0022D94BCDE91001FBF72CF9CDE921
:105070001201FBF70FFB07464846FBF724FBCDE97F
:1050800010011A98FBF71FFBCDE906013846FBF724
:10509000C1FACC4ACC4BCDE90201FBF7BBF9CDE913
:1050A0000401DDE90623FBF7AFF9CDE90801FBF7C1
:1050B0004DFB0A90FEF7D8F90B90FBF704FBC44AAE
:1050C000C44BCDE90C01FBF7A5F9CDE90E01DDE9F3
:1050D0001023FBF79FF9CDE91201FBF737FB82465E
:1050E0004846FBF7F0FACDE910013846FBF792FA93
:1050F0000022B64BCDE90001FBF786F9B14AB24B6D
:10510000CDE90201FBF786F9CDE906011A98FBF714
:10511000DAFACDE90401DDE90623FBF775F9CDE9FB
:105120000801FBF713FB0A90FEF79EF90B90FBF7C3
:10513000CAFAA74AA74BCDE90C01FBF76BF9CDE9F9
:105140000E01DDE91023FBF765F9CDE91201FBF74C
:10515000FDFA149051464FF07E50FBF73EF8139045
:105160001499FBF73AF81590072F7DD2DFE807F086
:10517000C60424446486A6004FF080411598FBF7CE
:1051800064F8139050461499FAF7D5FF12901399CA
:10519000FAF7D1FF04464FF080411598FBF755F818
:1051A00013901499FAF7C7FF05464FF08041159800
:1051B000FBF74BF80646A5E04FF080411598FBF74A
:1051C00044F851461390FAF7B6FF04464FF0804179
:1051D0001598FBF73AF8139050461499FAF7ABFF7D
:1051E00012901399FAF7A7FF05464FF080411598E2
:1051F000FBF72BF8064685E04FF080411598FBF74A
:1052000024F804464FF080411598FBF71EF81390E0
:1052100050461499FAF78FFF12901399FAF78BFF03
:1052200005464FF080411598FBF70FF8139014993D
:10523000FAF781FF064665E04FF080411598FBF7CD
:1052400004F804464FF080411598FAF7FEFF5146E6
:105250001390FAF770FF05464FF080411598FAF762
:10526000F4FF1390504600E048E01499FAF763FF0A
:1052700012901399FAF75FFF064643E04FF0804122
:105280001598FAF7E2FF13901499FAF754FF0446C1
:105290004FF080411598FAF7D8FF05464FF080414E
:1052A0001598FAF7D2FF139050461499FAF743FF76
:1052B00012901399FAF73FFF064623E04FF0804122
:1052C0001598FAF7C2FF139050461499FAF733FF76
:1052D00012901399FAF72FFF04464FF0804115986A
:1052E000FAF7B3FF05464FF080411598FAF7ADFF86
:1052F00051461390FAF71FFF064603E000240025ED
:10530000002600BF00BF9BF8050031282AD1324992
:105310002046FAF768FF1290FBF789F980B2014640
:1053200013904FF08040FDF750F92B492846FAF7CB
:105330005AFF1290FBF77BF980B2014613904FF0B1
:105340008040FDF744F924493046FAF74CFF1290AB
:10535000FBF76DF980B2014613904FF08040FDF7E6
:1053600038F926E01C492046FAF73DFF1290FBF77A
:105370005EF980B2014613901848FDF726F91649E8
:105380002846FAF730FF1290FBF751F980B2014638
:1053900013901248FDF71BF90F493046FAF723FF27
:1053A0001290FBF744F980B2014613900B48FDF7C9
:1053B00010F91BB0BDE8F08F4C000020F4D6435428
:1053C000FB21F93F40AF2D3852C1F03F0000F03FC4
:1053D0006B6058E87AB6FB3F0000B444000400401C
:1053E0002DE9F04104462046FFF77CF9064694F982
:1053F0001601FBF7F0F807463146FAF7F4FE0546CA
:10540000034801682846FAF7E8FEBDE8F08100008D
:10541000380000202DE9F04104462046FFF70AFB42
:105420000746394604F13C00FCF760F9054694F95B
:105430001601FBF7D0F806462946FAF7D4FEBDE878
:10544000F081000004484FF0E021486100208861AD
:1054500007200861704700004019010070B5FDF792
:105460000DFC044608480068844203D306480068DF
:10547000251A04E004480068C0F1FF30051902480D
:105480000460284670BD00005000002010B586B0B2
:10549000044601218804FCF735FB01210820FCF7B4
:1054A00051FB4FF48060ADF8140003208DF8160016
:1054B00018208DF8170005A91C48FBF767FF4FF46B
:1054C0000060ADF8140004208DF8170005A91748F6
:1054D000FBF75CFF27208DF8000000208DF801000D
:1054E0008DF8020001208DF803006846FCF7BEF934
:1054F00001940020ADF80800ADF80A00ADF80C00EA
:10550000ADF810000C20ADF80E0001A90848FDF719
:105510008FF9012240F225510548FDF763F9012179
:105520000348FDF729F906B010BD0000000C01404A
:105530000048004010B586B00446012144F2040042
:10554000FCF700FB4FF40070ADF8140003208DF859
:10555000160018208DF8170005A91C48FBF716FF48
:105560004FF48060ADF8140004208DF8170005A9F1
:105570001648FBF70BFF25208DF8000003208DF85F
:1055800001008DF8020001208DF803006846FCF749
:105590006DF901940020ADF80800ADF80A00ADF8EF
:1055A0000C00ADF810000C20ADF80E0001A9084861
:1055B000FDF73EF9012240F225510548FDF712F9A9
:1055C00001210348FDF7D8F806B010BD00080140DE
:1055D000003801402DE9F0410446FDF74FFB064637
:1055E000A078617800EB4100217800EB8100C7B220
:1055F000E078B84201D1BDE8F081E770E0781C495D
:105600000D5694F90600281A032807DDFF202071A3
:1056100094F90410A0680844A06016E094F906000C
:10562000281A10F1030F07DA0120207194F90410F1
:10563000A0680844A06008E094F90600A84201DAD6
:10564000012001E04FF0FF302071A57194F90400B2
:1056500094F90510884203D1E068301A206101E016
:1056600000202061E6602079607100BFC3E7000080
:10567000285A00082DE9F04704460D46FDF7FEFACA
:105680008146E169A9EB0100FAF7AEFF07461B4925
:10569000FAF7A9FD8246C4F81C9000215046FBF79A
:1056A00071F808D95046FBF70EF807460022144B54
:1056B000FBF734F801D2DFF84CA051462846FAF740
:1056C00092FD8046D4F81C11FAF735FD0746FDF728
:1056D000EFFAC4F81C01C4F82451A6682169D4F873
:1056E0001C01FDF7F5F907463B46002231462046EE
:1056F000FFF754FC3046BDE8F0870000BD37863523
:105700000000E03F6F12833A000000004F000000ED
:105710009E000000ED0000003C0100008B01000035
:10572000D90100002802000077020000C602000034
:105730001503000063030000B20300000004000032
:105740004F0400009D040000EC0400003A05000036
:1057500088050000D605000024060000720600003F
:10576000C00600000E0700005B070000A90700004C
:10577000F60700004308000090080000DD08000064
:105780002A09000077090000C30900000F0A000081
:105790005C0A0000A80A0000F40A00003F0B0000A9
:1057A0008B0B0000D60B0000210C00006C0C0000DD
:1057B000B70C0000010D00004C0D0000960D00001C
:1057C000E00D0000290E0000730E0000BC0E00006A
:1057D000050F00004E0F0000960F0000DF0F0000C5
:1057E000271000006E100000B6100000FD10000031
:1057F000441100008B110000D111000017120000AD
:105800005D120000A2120000E81200002D1300003B
:1058100071130000B6130000F91300003D140000DE
:1058200081140000C4140000061500004915000092
:105830008B150000CC1500000E1600004F1600005E
:105840008F160000CF1600000F1700004F17000042
:105850008E170000CD1700000B180000491800003B
:1058600087180000C4180000011900003D1900004D
:1058700079190000B5190000F01900002B1A00007A
:10588000661A00009F1A0000D91A0000121B0000BF
:105890004B1B0000831B0000BB1B0000F21B000021
:1058A000291C0000601C0000961C0000CB1C00009E
:1058B000001D0000351D0000691D00009D1D000039
:1058C000D01D0000031E0000351E0000671E0000F2
:1058D000981E0000C91E0000FA1E0000291F0000CB
:1058E000591F0000881F0000B61F0000E41F0000C1
:1058F000112000003E2000006A20000096200000D9
:10590000C1200000EC200000162100004021000012
:105910006921000092210000BA210000E12100006D
:10592000082200002F220000552200007A220000E9
:105930009F220000C3220000E72200000A2300008B
:105940002D2300004F23000070230000912300004E
:10595000B2230000D1230000F12300000F24000037
:105960002D2400004B240000682400008424000043
:10597000A0240000BB240000D5240000EF24000078
:1059800009250000222500003A25000052250000CC
:10599000692500007F25000095250000AA2500004C
:1059A000BF250000D3250000E6250000F9250000F2
:1059B0000B2600001D2600002E2600003E260000BB
:1059C0004E2600005D2600006C2600007A260000AE
:1059D0008726000094260000A0260000AB260000C9
:1059E000B6260000C0260000CA260000D32600000C
:1059F000DB260000E3260000EA260000F126000076
:105A0000F7260000FC260000012700000527000003
:105A1000082700000B2700000D2700000F270000BB
:105A20001027000010270000FF000405020103FFFB
:105A30004FBB610567ACDD3F182D4454FB21E93FA6
:105A40009BF681D20B73EF3F182D4454FB21F93F95
:105A5000E2652F227F2B7A3C075C143326A6813C1B
:105A6000BDCBF07A8807703C075C143326A6913CC6
:105A7000C4EB98999999C9BF711623FEC671BCBF32
:105A80006D9A74AFF2B0B3BF9AFDDE522DDEADBF9A
:105A90002F6C6A2C44B4A2BF0D5555555555D53FB2
:105AA000FF8300922449C23F6E204CC5CD45B73FCD
:105AB000513DD0A0660DB13FEB0D76244B7BA93F45
:105AC00011DA22E33AAD903F000000000000000030
:105AD000DDDDDDDDDCBBBBDDDDDDDDDDDDDDDDDD3B
